{
  "contractName": "Augur",
  "abi": [
    {
      "constant": true,
      "inputs": [],
      "name": "getController",
      "outputs": [
        {
          "name": "",
          "type": "address"
        }
      ],
      "payable": false,
      "stateMutability": "view",
      "type": "function"
    },
    {
      "constant": false,
      "inputs": [
        {
          "name": "_controller",
          "type": "address"
        }
      ],
      "name": "setController",
      "outputs": [
        {
          "name": "",
          "type": "bool"
        }
      ],
      "payable": false,
      "stateMutability": "nonpayable",
      "type": "function"
    },
    {
      "anonymous": false,
      "inputs": [
        {
          "indexed": true,
          "name": "topic",
          "type": "bytes32"
        },
        {
          "indexed": false,
          "name": "description",
          "type": "string"
        },
        {
          "indexed": false,
          "name": "extraInfo",
          "type": "string"
        },
        {
          "indexed": true,
          "name": "universe",
          "type": "address"
        },
        {
          "indexed": false,
          "name": "market",
          "type": "address"
        },
        {
          "indexed": true,
          "name": "marketCreator",
          "type": "address"
        },
        {
          "indexed": false,
          "name": "outcomes",
          "type": "bytes32[]"
        },
        {
          "indexed": false,
          "name": "marketCreationFee",
          "type": "uint256"
        },
        {
          "indexed": false,
          "name": "minPrice",
          "type": "int256"
        },
        {
          "indexed": false,
          "name": "maxPrice",
          "type": "int256"
        },
        {
          "indexed": false,
          "name": "marketType",
          "type": "uint8"
        }
      ],
      "name": "MarketCreated",
      "type": "event"
    },
    {
      "anonymous": false,
      "inputs": [
        {
          "indexed": true,
          "name": "universe",
          "type": "address"
        },
        {
          "indexed": true,
          "name": "reporter",
          "type": "address"
        },
        {
          "indexed": true,
          "name": "market",
          "type": "address"
        },
        {
          "indexed": false,
          "name": "amountStaked",
          "type": "uint256"
        },
        {
          "indexed": false,
          "name": "isDesignatedReporter",
          "type": "bool"
        },
        {
          "indexed": false,
          "name": "payoutNumerators",
          "type": "uint256[]"
        },
        {
          "indexed": false,
          "name": "invalid",
          "type": "bool"
        }
      ],
      "name": "InitialReportSubmitted",
      "type": "event"
    },
    {
      "anonymous": false,
      "inputs": [
        {
          "indexed": true,
          "name": "universe",
          "type": "address"
        },
        {
          "indexed": true,
          "name": "market",
          "type": "address"
        },
        {
          "indexed": false,
          "name": "disputeCrowdsourcer",
          "type": "address"
        },
        {
          "indexed": false,
          "name": "payoutNumerators",
          "type": "uint256[]"
        },
        {
          "indexed": false,
          "name": "size",
          "type": "uint256"
        },
        {
          "indexed": false,
          "name": "invalid",
          "type": "bool"
        }
      ],
      "name": "DisputeCrowdsourcerCreated",
      "type": "event"
    },
    {
      "anonymous": false,
      "inputs": [
        {
          "indexed": true,
          "name": "universe",
          "type": "address"
        },
        {
          "indexed": true,
          "name": "reporter",
          "type": "address"
        },
        {
          "indexed": true,
          "name": "market",
          "type": "address"
        },
        {
          "indexed": false,
          "name": "disputeCrowdsourcer",
          "type": "address"
        },
        {
          "indexed": false,
          "name": "amountStaked",
          "type": "uint256"
        }
      ],
      "name": "DisputeCrowdsourcerContribution",
      "type": "event"
    },
    {
      "anonymous": false,
      "inputs": [
        {
          "indexed": true,
          "name": "universe",
          "type": "address"
        },
        {
          "indexed": true,
          "name": "market",
          "type": "address"
        },
        {
          "indexed": false,
          "name": "disputeCrowdsourcer",
          "type": "address"
        }
      ],
      "name": "DisputeCrowdsourcerCompleted",
      "type": "event"
    },
    {
      "anonymous": false,
      "inputs": [
        {
          "indexed": true,
          "name": "universe",
          "type": "address"
        },
        {
          "indexed": true,
          "name": "reporter",
          "type": "address"
        },
        {
          "indexed": true,
          "name": "market",
          "type": "address"
        },
        {
          "indexed": false,
          "name": "amountRedeemed",
          "type": "uint256"
        },
        {
          "indexed": false,
          "name": "repReceived",
          "type": "uint256"
        },
        {
          "indexed": false,
          "name": "reportingFeesReceived",
          "type": "uint256"
        },
        {
          "indexed": false,
          "name": "payoutNumerators",
          "type": "uint256[]"
        }
      ],
      "name": "InitialReporterRedeemed",
      "type": "event"
    },
    {
      "anonymous": false,
      "inputs": [
        {
          "indexed": true,
          "name": "universe",
          "type": "address"
        },
        {
          "indexed": true,
          "name": "reporter",
          "type": "address"
        },
        {
          "indexed": true,
          "name": "market",
          "type": "address"
        },
        {
          "indexed": false,
          "name": "disputeCrowdsourcer",
          "type": "address"
        },
        {
          "indexed": false,
          "name": "amountRedeemed",
          "type": "uint256"
        },
        {
          "indexed": false,
          "name": "repReceived",
          "type": "uint256"
        },
        {
          "indexed": false,
          "name": "reportingFeesReceived",
          "type": "uint256"
        },
        {
          "indexed": false,
          "name": "payoutNumerators",
          "type": "uint256[]"
        }
      ],
      "name": "DisputeCrowdsourcerRedeemed",
      "type": "event"
    },
    {
      "anonymous": false,
      "inputs": [
        {
          "indexed": true,
          "name": "universe",
          "type": "address"
        },
        {
          "indexed": true,
          "name": "market",
          "type": "address"
        },
        {
          "indexed": false,
          "name": "reportingParticipant",
          "type": "address"
        }
      ],
      "name": "ReportingParticipantDisavowed",
      "type": "event"
    },
    {
      "anonymous": false,
      "inputs": [
        {
          "indexed": true,
          "name": "universe",
          "type": "address"
        },
        {
          "indexed": true,
          "name": "market",
          "type": "address"
        }
      ],
      "name": "MarketParticipantsDisavowed",
      "type": "event"
    },
    {
      "anonymous": false,
      "inputs": [
        {
          "indexed": true,
          "name": "universe",
          "type": "address"
        },
        {
          "indexed": true,
          "name": "reporter",
          "type": "address"
        },
        {
          "indexed": true,
          "name": "feeWindow",
          "type": "address"
        },
        {
          "indexed": false,
          "name": "amountRedeemed",
          "type": "uint256"
        },
        {
          "indexed": false,
          "name": "reportingFeesReceived",
          "type": "uint256"
        }
      ],
      "name": "FeeWindowRedeemed",
      "type": "event"
    },
    {
      "anonymous": false,
      "inputs": [
        {
          "indexed": true,
          "name": "universe",
          "type": "address"
        },
        {
          "indexed": true,
          "name": "market",
          "type": "address"
        }
      ],
      "name": "MarketFinalized",
      "type": "event"
    },
    {
      "anonymous": false,
      "inputs": [
        {
          "indexed": true,
          "name": "market",
          "type": "address"
        },
        {
          "indexed": true,
          "name": "originalUniverse",
          "type": "address"
        },
        {
          "indexed": true,
          "name": "newUniverse",
          "type": "address"
        }
      ],
      "name": "MarketMigrated",
      "type": "event"
    },
    {
      "anonymous": false,
      "inputs": [
        {
          "indexed": true,
          "name": "universe",
          "type": "address"
        }
      ],
      "name": "UniverseForked",
      "type": "event"
    },
    {
      "anonymous": false,
      "inputs": [
        {
          "indexed": true,
          "name": "parentUniverse",
          "type": "address"
        },
        {
          "indexed": true,
          "name": "childUniverse",
          "type": "address"
        },
        {
          "indexed": false,
          "name": "payoutNumerators",
          "type": "uint256[]"
        },
        {
          "indexed": false,
          "name": "invalid",
          "type": "bool"
        }
      ],
      "name": "UniverseCreated",
      "type": "event"
    },
    {
      "anonymous": false,
      "inputs": [
        {
          "indexed": true,
          "name": "universe",
          "type": "address"
        },
        {
          "indexed": true,
          "name": "shareToken",
          "type": "address"
        },
        {
          "indexed": true,
          "name": "sender",
          "type": "address"
        },
        {
          "indexed": false,
          "name": "orderId",
          "type": "bytes32"
        },
        {
          "indexed": false,
          "name": "orderType",
          "type": "uint8"
        },
        {
          "indexed": false,
          "name": "tokenRefund",
          "type": "uint256"
        },
        {
          "indexed": false,
          "name": "sharesRefund",
          "type": "uint256"
        }
      ],
      "name": "OrderCanceled",
      "type": "event"
    },
    {
      "anonymous": false,
      "inputs": [
        {
          "indexed": false,
          "name": "orderType",
          "type": "uint8"
        },
        {
          "indexed": false,
          "name": "amount",
          "type": "uint256"
        },
        {
          "indexed": false,
          "name": "price",
          "type": "uint256"
        },
        {
          "indexed": true,
          "name": "creator",
          "type": "address"
        },
        {
          "indexed": false,
          "name": "moneyEscrowed",
          "type": "uint256"
        },
        {
          "indexed": false,
          "name": "sharesEscrowed",
          "type": "uint256"
        },
        {
          "indexed": false,
          "name": "tradeGroupId",
          "type": "bytes32"
        },
        {
          "indexed": false,
          "name": "orderId",
          "type": "bytes32"
        },
        {
          "indexed": true,
          "name": "universe",
          "type": "address"
        },
        {
          "indexed": true,
          "name": "shareToken",
          "type": "address"
        }
      ],
      "name": "OrderCreated",
      "type": "event"
    },
    {
      "anonymous": false,
      "inputs": [
        {
          "indexed": true,
          "name": "universe",
          "type": "address"
        },
        {
          "indexed": true,
          "name": "shareToken",
          "type": "address"
        },
        {
          "indexed": false,
          "name": "filler",
          "type": "address"
        },
        {
          "indexed": false,
          "name": "orderId",
          "type": "bytes32"
        },
        {
          "indexed": false,
          "name": "numCreatorShares",
          "type": "uint256"
        },
        {
          "indexed": false,
          "name": "numCreatorTokens",
          "type": "uint256"
        },
        {
          "indexed": false,
          "name": "numFillerShares",
          "type": "uint256"
        },
        {
          "indexed": false,
          "name": "numFillerTokens",
          "type": "uint256"
        },
        {
          "indexed": false,
          "name": "marketCreatorFees",
          "type": "uint256"
        },
        {
          "indexed": false,
          "name": "reporterFees",
          "type": "uint256"
        },
        {
          "indexed": false,
          "name": "amountFilled",
          "type": "uint256"
        },
        {
          "indexed": false,
          "name": "tradeGroupId",
          "type": "bytes32"
        }
      ],
      "name": "OrderFilled",
      "type": "event"
    },
    {
      "anonymous": false,
      "inputs": [
        {
          "indexed": true,
          "name": "universe",
          "type": "address"
        },
        {
          "indexed": true,
          "name": "market",
          "type": "address"
        },
        {
          "indexed": true,
          "name": "account",
          "type": "address"
        },
        {
          "indexed": false,
          "name": "numCompleteSets",
          "type": "uint256"
        }
      ],
      "name": "CompleteSetsPurchased",
      "type": "event"
    },
    {
      "anonymous": false,
      "inputs": [
        {
          "indexed": true,
          "name": "universe",
          "type": "address"
        },
        {
          "indexed": true,
          "name": "market",
          "type": "address"
        },
        {
          "indexed": true,
          "name": "account",
          "type": "address"
        },
        {
          "indexed": false,
          "name": "numCompleteSets",
          "type": "uint256"
        }
      ],
      "name": "CompleteSetsSold",
      "type": "event"
    },
    {
      "anonymous": false,
      "inputs": [
        {
          "indexed": true,
          "name": "universe",
          "type": "address"
        },
        {
          "indexed": true,
          "name": "shareToken",
          "type": "address"
        },
        {
          "indexed": true,
          "name": "sender",
          "type": "address"
        },
        {
          "indexed": false,
          "name": "market",
          "type": "address"
        },
        {
          "indexed": false,
          "name": "numShares",
          "type": "uint256"
        },
        {
          "indexed": false,
          "name": "numPayoutTokens",
          "type": "uint256"
        },
        {
          "indexed": false,
          "name": "finalTokenBalance",
          "type": "uint256"
        }
      ],
      "name": "TradingProceedsClaimed",
      "type": "event"
    },
    {
      "anonymous": false,
      "inputs": [
        {
          "indexed": true,
          "name": "universe",
          "type": "address"
        },
        {
          "indexed": true,
          "name": "token",
          "type": "address"
        },
        {
          "indexed": true,
          "name": "from",
          "type": "address"
        },
        {
          "indexed": false,
          "name": "to",
          "type": "address"
        },
        {
          "indexed": false,
          "name": "value",
          "type": "uint256"
        },
        {
          "indexed": false,
          "name": "tokenType",
          "type": "uint8"
        },
        {
          "indexed": false,
          "name": "market",
          "type": "address"
        }
      ],
      "name": "TokensTransferred",
      "type": "event"
    },
    {
      "anonymous": false,
      "inputs": [
        {
          "indexed": true,
          "name": "universe",
          "type": "address"
        },
        {
          "indexed": true,
          "name": "token",
          "type": "address"
        },
        {
          "indexed": true,
          "name": "target",
          "type": "address"
        },
        {
          "indexed": false,
          "name": "amount",
          "type": "uint256"
        },
        {
          "indexed": false,
          "name": "tokenType",
          "type": "uint8"
        },
        {
          "indexed": false,
          "name": "market",
          "type": "address"
        }
      ],
      "name": "TokensMinted",
      "type": "event"
    },
    {
      "anonymous": false,
      "inputs": [
        {
          "indexed": true,
          "name": "universe",
          "type": "address"
        },
        {
          "indexed": true,
          "name": "token",
          "type": "address"
        },
        {
          "indexed": true,
          "name": "target",
          "type": "address"
        },
        {
          "indexed": false,
          "name": "amount",
          "type": "uint256"
        },
        {
          "indexed": false,
          "name": "tokenType",
          "type": "uint8"
        },
        {
          "indexed": false,
          "name": "market",
          "type": "address"
        }
      ],
      "name": "TokensBurned",
      "type": "event"
    },
    {
      "anonymous": false,
      "inputs": [
        {
          "indexed": true,
          "name": "universe",
          "type": "address"
        },
        {
          "indexed": false,
          "name": "feeWindow",
          "type": "address"
        },
        {
          "indexed": false,
          "name": "startTime",
          "type": "uint256"
        },
        {
          "indexed": false,
          "name": "endTime",
          "type": "uint256"
        },
        {
          "indexed": false,
          "name": "id",
          "type": "uint256"
        }
      ],
      "name": "FeeWindowCreated",
      "type": "event"
    },
    {
      "anonymous": false,
      "inputs": [
        {
          "indexed": true,
          "name": "universe",
          "type": "address"
        },
        {
          "indexed": true,
          "name": "market",
          "type": "address"
        },
        {
          "indexed": false,
          "name": "from",
          "type": "address"
        },
        {
          "indexed": false,
          "name": "to",
          "type": "address"
        }
      ],
      "name": "InitialReporterTransferred",
      "type": "event"
    },
    {
      "anonymous": false,
      "inputs": [
        {
          "indexed": true,
          "name": "universe",
          "type": "address"
        },
        {
          "indexed": true,
          "name": "market",
          "type": "address"
        },
        {
          "indexed": false,
          "name": "from",
          "type": "address"
        },
        {
          "indexed": false,
          "name": "to",
          "type": "address"
        }
      ],
      "name": "MarketTransferred",
      "type": "event"
    },
    {
      "anonymous": false,
      "inputs": [
        {
          "indexed": true,
          "name": "universe",
          "type": "address"
        },
        {
          "indexed": true,
          "name": "market",
          "type": "address"
        },
        {
          "indexed": true,
          "name": "mailbox",
          "type": "address"
        },
        {
          "indexed": false,
          "name": "from",
          "type": "address"
        },
        {
          "indexed": false,
          "name": "to",
          "type": "address"
        }
      ],
      "name": "MarketMailboxTransferred",
      "type": "event"
    },
    {
      "anonymous": false,
      "inputs": [
        {
          "indexed": false,
          "name": "isOn",
          "type": "bool"
        }
      ],
      "name": "EscapeHatchChanged",
      "type": "event"
    },
    {
      "anonymous": false,
      "inputs": [
        {
          "indexed": false,
          "name": "newTimestamp",
          "type": "uint256"
        }
      ],
      "name": "TimestampSet",
      "type": "event"
    },
    {
      "constant": false,
      "inputs": [],
      "name": "createGenesisUniverse",
      "outputs": [
        {
          "name": "",
          "type": "address"
        }
      ],
      "payable": false,
      "stateMutability": "nonpayable",
      "type": "function"
    },
    {
      "constant": false,
      "inputs": [
        {
          "name": "_parentPayoutDistributionHash",
          "type": "bytes32"
        },
        {
          "name": "_parentPayoutNumerators",
          "type": "uint256[]"
        },
        {
          "name": "_parentInvalid",
          "type": "bool"
        }
      ],
      "name": "createChildUniverse",
      "outputs": [
        {
          "name": "",
          "type": "address"
        }
      ],
      "payable": false,
      "stateMutability": "nonpayable",
      "type": "function"
    },
    {
      "constant": true,
      "inputs": [
        {
          "name": "_universe",
          "type": "address"
        }
      ],
      "name": "isKnownUniverse",
      "outputs": [
        {
          "name": "",
          "type": "bool"
        }
      ],
      "payable": false,
      "stateMutability": "view",
      "type": "function"
    },
    {
      "constant": true,
      "inputs": [
        {
          "name": "_crowdsourcer",
          "type": "address"
        }
      ],
      "name": "isKnownCrowdsourcer",
      "outputs": [
        {
          "name": "",
          "type": "bool"
        }
      ],
      "payable": false,
      "stateMutability": "view",
      "type": "function"
    },
    {
      "constant": false,
      "inputs": [
        {
          "name": "_universe",
          "type": "address"
        },
        {
          "name": "_market",
          "type": "address"
        },
        {
          "name": "_disputeCrowdsourcer",
          "type": "address"
        },
        {
          "name": "_payoutNumerators",
          "type": "uint256[]"
        },
        {
          "name": "_size",
          "type": "uint256"
        },
        {
          "name": "_invalid",
          "type": "bool"
        }
      ],
      "name": "disputeCrowdsourcerCreated",
      "outputs": [
        {
          "name": "",
          "type": "bool"
        }
      ],
      "payable": false,
      "stateMutability": "nonpayable",
      "type": "function"
    },
    {
      "constant": false,
      "inputs": [
        {
          "name": "_token",
          "type": "address"
        },
        {
          "name": "_from",
          "type": "address"
        },
        {
          "name": "_to",
          "type": "address"
        },
        {
          "name": "_amount",
          "type": "uint256"
        }
      ],
      "name": "trustedTransfer",
      "outputs": [
        {
          "name": "",
          "type": "bool"
        }
      ],
      "payable": false,
      "stateMutability": "nonpayable",
      "type": "function"
    },
    {
      "constant": false,
      "inputs": [
        {
          "name": "_topic",
          "type": "bytes32"
        },
        {
          "name": "_description",
          "type": "string"
        },
        {
          "name": "_extraInfo",
          "type": "string"
        },
        {
          "name": "_universe",
          "type": "address"
        },
        {
          "name": "_market",
          "type": "address"
        },
        {
          "name": "_marketCreator",
          "type": "address"
        },
        {
          "name": "_outcomes",
          "type": "bytes32[]"
        },
        {
          "name": "_minPrice",
          "type": "int256"
        },
        {
          "name": "_maxPrice",
          "type": "int256"
        },
        {
          "name": "_marketType",
          "type": "uint8"
        }
      ],
      "name": "logMarketCreated",
      "outputs": [
        {
          "name": "",
          "type": "bool"
        }
      ],
      "payable": false,
      "stateMutability": "nonpayable",
      "type": "function"
    },
    {
      "constant": false,
      "inputs": [
        {
          "name": "_topic",
          "type": "bytes32"
        },
        {
          "name": "_description",
          "type": "string"
        },
        {
          "name": "_extraInfo",
          "type": "string"
        },
        {
          "name": "_universe",
          "type": "address"
        },
        {
          "name": "_market",
          "type": "address"
        },
        {
          "name": "_marketCreator",
          "type": "address"
        },
        {
          "name": "_minPrice",
          "type": "int256"
        },
        {
          "name": "_maxPrice",
          "type": "int256"
        },
        {
          "name": "_marketType",
          "type": "uint8"
        }
      ],
      "name": "logMarketCreated",
      "outputs": [
        {
          "name": "",
          "type": "bool"
        }
      ],
      "payable": false,
      "stateMutability": "nonpayable",
      "type": "function"
    },
    {
      "constant": false,
      "inputs": [
        {
          "name": "_universe",
          "type": "address"
        },
        {
          "name": "_reporter",
          "type": "address"
        },
        {
          "name": "_market",
          "type": "address"
        },
        {
          "name": "_amountStaked",
          "type": "uint256"
        },
        {
          "name": "_isDesignatedReporter",
          "type": "bool"
        },
        {
          "name": "_payoutNumerators",
          "type": "uint256[]"
        },
        {
          "name": "_invalid",
          "type": "bool"
        }
      ],
      "name": "logInitialReportSubmitted",
      "outputs": [
        {
          "name": "",
          "type": "bool"
        }
      ],
      "payable": false,
      "stateMutability": "nonpayable",
      "type": "function"
    },
    {
      "constant": false,
      "inputs": [
        {
          "name": "_universe",
          "type": "address"
        },
        {
          "name": "_reporter",
          "type": "address"
        },
        {
          "name": "_market",
          "type": "address"
        },
        {
          "name": "_disputeCrowdsourcer",
          "type": "address"
        },
        {
          "name": "_amountStaked",
          "type": "uint256"
        }
      ],
      "name": "logDisputeCrowdsourcerContribution",
      "outputs": [
        {
          "name": "",
          "type": "bool"
        }
      ],
      "payable": false,
      "stateMutability": "nonpayable",
      "type": "function"
    },
    {
      "constant": false,
      "inputs": [
        {
          "name": "_universe",
          "type": "address"
        },
        {
          "name": "_market",
          "type": "address"
        },
        {
          "name": "_disputeCrowdsourcer",
          "type": "address"
        }
      ],
      "name": "logDisputeCrowdsourcerCompleted",
      "outputs": [
        {
          "name": "",
          "type": "bool"
        }
      ],
      "payable": false,
      "stateMutability": "nonpayable",
      "type": "function"
    },
    {
      "constant": false,
      "inputs": [
        {
          "name": "_universe",
          "type": "address"
        },
        {
          "name": "_reporter",
          "type": "address"
        },
        {
          "name": "_market",
          "type": "address"
        },
        {
          "name": "_amountRedeemed",
          "type": "uint256"
        },
        {
          "name": "_repReceived",
          "type": "uint256"
        },
        {
          "name": "_reportingFeesReceived",
          "type": "uint256"
        },
        {
          "name": "_payoutNumerators",
          "type": "uint256[]"
        }
      ],
      "name": "logInitialReporterRedeemed",
      "outputs": [
        {
          "name": "",
          "type": "bool"
        }
      ],
      "payable": false,
      "stateMutability": "nonpayable",
      "type": "function"
    },
    {
      "constant": false,
      "inputs": [
        {
          "name": "_universe",
          "type": "address"
        },
        {
          "name": "_reporter",
          "type": "address"
        },
        {
          "name": "_market",
          "type": "address"
        },
        {
          "name": "_amountRedeemed",
          "type": "uint256"
        },
        {
          "name": "_repReceived",
          "type": "uint256"
        },
        {
          "name": "_reportingFeesReceived",
          "type": "uint256"
        },
        {
          "name": "_payoutNumerators",
          "type": "uint256[]"
        }
      ],
      "name": "logDisputeCrowdsourcerRedeemed",
      "outputs": [
        {
          "name": "",
          "type": "bool"
        }
      ],
      "payable": false,
      "stateMutability": "nonpayable",
      "type": "function"
    },
    {
      "constant": false,
      "inputs": [
        {
          "name": "_universe",
          "type": "address"
        },
        {
          "name": "_market",
          "type": "address"
        }
      ],
      "name": "logReportingParticipantDisavowed",
      "outputs": [
        {
          "name": "",
          "type": "bool"
        }
      ],
      "payable": false,
      "stateMutability": "nonpayable",
      "type": "function"
    },
    {
      "constant": false,
      "inputs": [
        {
          "name": "_universe",
          "type": "address"
        }
      ],
      "name": "logMarketParticipantsDisavowed",
      "outputs": [
        {
          "name": "",
          "type": "bool"
        }
      ],
      "payable": false,
      "stateMutability": "nonpayable",
      "type": "function"
    },
    {
      "constant": false,
      "inputs": [
        {
          "name": "_universe",
          "type": "address"
        },
        {
          "name": "_reporter",
          "type": "address"
        },
        {
          "name": "_amountRedeemed",
          "type": "uint256"
        },
        {
          "name": "_reportingFeesReceived",
          "type": "uint256"
        }
      ],
      "name": "logFeeWindowRedeemed",
      "outputs": [
        {
          "name": "",
          "type": "bool"
        }
      ],
      "payable": false,
      "stateMutability": "nonpayable",
      "type": "function"
    },
    {
      "constant": false,
      "inputs": [
        {
          "name": "_universe",
          "type": "address"
        }
      ],
      "name": "logMarketFinalized",
      "outputs": [
        {
          "name": "",
          "type": "bool"
        }
      ],
      "payable": false,
      "stateMutability": "nonpayable",
      "type": "function"
    },
    {
      "constant": false,
      "inputs": [
        {
          "name": "_market",
          "type": "address"
        },
        {
          "name": "_originalUniverse",
          "type": "address"
        }
      ],
      "name": "logMarketMigrated",
      "outputs": [
        {
          "name": "",
          "type": "bool"
        }
      ],
      "payable": false,
      "stateMutability": "nonpayable",
      "type": "function"
    },
    {
      "constant": false,
      "inputs": [
        {
          "name": "_universe",
          "type": "address"
        },
        {
          "name": "_shareToken",
          "type": "address"
        },
        {
          "name": "_sender",
          "type": "address"
        },
        {
          "name": "_orderId",
          "type": "bytes32"
        },
        {
          "name": "_orderType",
          "type": "uint8"
        },
        {
          "name": "_tokenRefund",
          "type": "uint256"
        },
        {
          "name": "_sharesRefund",
          "type": "uint256"
        }
      ],
      "name": "logOrderCanceled",
      "outputs": [
        {
          "name": "",
          "type": "bool"
        }
      ],
      "payable": false,
      "stateMutability": "nonpayable",
      "type": "function"
    },
    {
      "constant": false,
      "inputs": [
        {
          "name": "_orderType",
          "type": "uint8"
        },
        {
          "name": "_amount",
          "type": "uint256"
        },
        {
          "name": "_price",
          "type": "uint256"
        },
        {
          "name": "_creator",
          "type": "address"
        },
        {
          "name": "_moneyEscrowed",
          "type": "uint256"
        },
        {
          "name": "_sharesEscrowed",
          "type": "uint256"
        },
        {
          "name": "_tradeGroupId",
          "type": "bytes32"
        },
        {
          "name": "_orderId",
          "type": "bytes32"
        },
        {
          "name": "_universe",
          "type": "address"
        },
        {
          "name": "_shareToken",
          "type": "address"
        }
      ],
      "name": "logOrderCreated",
      "outputs": [
        {
          "name": "",
          "type": "bool"
        }
      ],
      "payable": false,
      "stateMutability": "nonpayable",
      "type": "function"
    },
    {
      "constant": false,
      "inputs": [
        {
          "name": "_universe",
          "type": "address"
        },
        {
          "name": "_shareToken",
          "type": "address"
        },
        {
          "name": "_filler",
          "type": "address"
        },
        {
          "name": "_orderId",
          "type": "bytes32"
        },
        {
          "name": "_numCreatorShares",
          "type": "uint256"
        },
        {
          "name": "_numCreatorTokens",
          "type": "uint256"
        },
        {
          "name": "_numFillerShares",
          "type": "uint256"
        },
        {
          "name": "_numFillerTokens",
          "type": "uint256"
        },
        {
          "name": "_marketCreatorFees",
          "type": "uint256"
        },
        {
          "name": "_reporterFees",
          "type": "uint256"
        },
        {
          "name": "_amountFilled",
          "type": "uint256"
        },
        {
          "name": "_tradeGroupId",
          "type": "bytes32"
        }
      ],
      "name": "logOrderFilled",
      "outputs": [
        {
          "name": "",
          "type": "bool"
        }
      ],
      "payable": false,
      "stateMutability": "nonpayable",
      "type": "function"
    },
    {
      "constant": false,
      "inputs": [
        {
          "name": "_universe",
          "type": "address"
        },
        {
          "name": "_market",
          "type": "address"
        },
        {
          "name": "_account",
          "type": "address"
        },
        {
          "name": "_numCompleteSets",
          "type": "uint256"
        }
      ],
      "name": "logCompleteSetsPurchased",
      "outputs": [
        {
          "name": "",
          "type": "bool"
        }
      ],
      "payable": false,
      "stateMutability": "nonpayable",
      "type": "function"
    },
    {
      "constant": false,
      "inputs": [
        {
          "name": "_universe",
          "type": "address"
        },
        {
          "name": "_market",
          "type": "address"
        },
        {
          "name": "_account",
          "type": "address"
        },
        {
          "name": "_numCompleteSets",
          "type": "uint256"
        }
      ],
      "name": "logCompleteSetsSold",
      "outputs": [
        {
          "name": "",
          "type": "bool"
        }
      ],
      "payable": false,
      "stateMutability": "nonpayable",
      "type": "function"
    },
    {
      "constant": false,
      "inputs": [
        {
          "name": "_universe",
          "type": "address"
        },
        {
          "name": "_shareToken",
          "type": "address"
        },
        {
          "name": "_sender",
          "type": "address"
        },
        {
          "name": "_market",
          "type": "address"
        },
        {
          "name": "_numShares",
          "type": "uint256"
        },
        {
          "name": "_numPayoutTokens",
          "type": "uint256"
        },
        {
          "name": "_finalTokenBalance",
          "type": "uint256"
        }
      ],
      "name": "logTradingProceedsClaimed",
      "outputs": [
        {
          "name": "",
          "type": "bool"
        }
      ],
      "payable": false,
      "stateMutability": "nonpayable",
      "type": "function"
    },
    {
      "constant": false,
      "inputs": [],
      "name": "logUniverseForked",
      "outputs": [
        {
          "name": "",
          "type": "bool"
        }
      ],
      "payable": false,
      "stateMutability": "nonpayable",
      "type": "function"
    },
    {
      "constant": false,
      "inputs": [
        {
          "name": "_universe",
          "type": "address"
        },
        {
          "name": "_from",
          "type": "address"
        },
        {
          "name": "_to",
          "type": "address"
        },
        {
          "name": "_value",
          "type": "uint256"
        }
      ],
      "name": "logFeeWindowTransferred",
      "outputs": [
        {
          "name": "",
          "type": "bool"
        }
      ],
      "payable": false,
      "stateMutability": "nonpayable",
      "type": "function"
    },
    {
      "constant": false,
      "inputs": [
        {
          "name": "_universe",
          "type": "address"
        },
        {
          "name": "_from",
          "type": "address"
        },
        {
          "name": "_to",
          "type": "address"
        },
        {
          "name": "_value",
          "type": "uint256"
        }
      ],
      "name": "logReputationTokensTransferred",
      "outputs": [
        {
          "name": "",
          "type": "bool"
        }
      ],
      "payable": false,
      "stateMutability": "nonpayable",
      "type": "function"
    },
    {
      "constant": false,
      "inputs": [
        {
          "name": "_universe",
          "type": "address"
        },
        {
          "name": "_from",
          "type": "address"
        },
        {
          "name": "_to",
          "type": "address"
        },
        {
          "name": "_value",
          "type": "uint256"
        }
      ],
      "name": "logDisputeCrowdsourcerTokensTransferred",
      "outputs": [
        {
          "name": "",
          "type": "bool"
        }
      ],
      "payable": false,
      "stateMutability": "nonpayable",
      "type": "function"
    },
    {
      "constant": false,
      "inputs": [
        {
          "name": "_universe",
          "type": "address"
        },
        {
          "name": "_from",
          "type": "address"
        },
        {
          "name": "_to",
          "type": "address"
        },
        {
          "name": "_value",
          "type": "uint256"
        }
      ],
      "name": "logShareTokensTransferred",
      "outputs": [
        {
          "name": "",
          "type": "bool"
        }
      ],
      "payable": false,
      "stateMutability": "nonpayable",
      "type": "function"
    },
    {
      "constant": false,
      "inputs": [
        {
          "name": "_universe",
          "type": "address"
        },
        {
          "name": "_target",
          "type": "address"
        },
        {
          "name": "_amount",
          "type": "uint256"
        }
      ],
      "name": "logReputationTokenBurned",
      "outputs": [
        {
          "name": "",
          "type": "bool"
        }
      ],
      "payable": false,
      "stateMutability": "nonpayable",
      "type": "function"
    },
    {
      "constant": false,
      "inputs": [
        {
          "name": "_universe",
          "type": "address"
        },
        {
          "name": "_target",
          "type": "address"
        },
        {
          "name": "_amount",
          "type": "uint256"
        }
      ],
      "name": "logReputationTokenMinted",
      "outputs": [
        {
          "name": "",
          "type": "bool"
        }
      ],
      "payable": false,
      "stateMutability": "nonpayable",
      "type": "function"
    },
    {
      "constant": false,
      "inputs": [
        {
          "name": "_universe",
          "type": "address"
        },
        {
          "name": "_target",
          "type": "address"
        },
        {
          "name": "_amount",
          "type": "uint256"
        }
      ],
      "name": "logShareTokenBurned",
      "outputs": [
        {
          "name": "",
          "type": "bool"
        }
      ],
      "payable": false,
      "stateMutability": "nonpayable",
      "type": "function"
    },
    {
      "constant": false,
      "inputs": [
        {
          "name": "_universe",
          "type": "address"
        },
        {
          "name": "_target",
          "type": "address"
        },
        {
          "name": "_amount",
          "type": "uint256"
        }
      ],
      "name": "logShareTokenMinted",
      "outputs": [
        {
          "name": "",
          "type": "bool"
        }
      ],
      "payable": false,
      "stateMutability": "nonpayable",
      "type": "function"
    },
    {
      "constant": false,
      "inputs": [
        {
          "name": "_universe",
          "type": "address"
        },
        {
          "name": "_target",
          "type": "address"
        },
        {
          "name": "_amount",
          "type": "uint256"
        }
      ],
      "name": "logFeeWindowBurned",
      "outputs": [
        {
          "name": "",
          "type": "bool"
        }
      ],
      "payable": false,
      "stateMutability": "nonpayable",
      "type": "function"
    },
    {
      "constant": false,
      "inputs": [
        {
          "name": "_universe",
          "type": "address"
        },
        {
          "name": "_target",
          "type": "address"
        },
        {
          "name": "_amount",
          "type": "uint256"
        }
      ],
      "name": "logFeeWindowMinted",
      "outputs": [
        {
          "name": "",
          "type": "bool"
        }
      ],
      "payable": false,
      "stateMutability": "nonpayable",
      "type": "function"
    },
    {
      "constant": false,
      "inputs": [
        {
          "name": "_universe",
          "type": "address"
        },
        {
          "name": "_target",
          "type": "address"
        },
        {
          "name": "_amount",
          "type": "uint256"
        }
      ],
      "name": "logDisputeCrowdsourcerTokensBurned",
      "outputs": [
        {
          "name": "",
          "type": "bool"
        }
      ],
      "payable": false,
      "stateMutability": "nonpayable",
      "type": "function"
    },
    {
      "constant": false,
      "inputs": [
        {
          "name": "_universe",
          "type": "address"
        },
        {
          "name": "_target",
          "type": "address"
        },
        {
          "name": "_amount",
          "type": "uint256"
        }
      ],
      "name": "logDisputeCrowdsourcerTokensMinted",
      "outputs": [
        {
          "name": "",
          "type": "bool"
        }
      ],
      "payable": false,
      "stateMutability": "nonpayable",
      "type": "function"
    },
    {
      "constant": false,
      "inputs": [
        {
          "name": "_feeWindow",
          "type": "address"
        },
        {
          "name": "_id",
          "type": "uint256"
        }
      ],
      "name": "logFeeWindowCreated",
      "outputs": [
        {
          "name": "",
          "type": "bool"
        }
      ],
      "payable": false,
      "stateMutability": "nonpayable",
      "type": "function"
    },
    {
      "constant": false,
      "inputs": [
        {
          "name": "_universe",
          "type": "address"
        },
        {
          "name": "_from",
          "type": "address"
        },
        {
          "name": "_to",
          "type": "address"
        },
        {
          "name": "_value",
          "type": "uint256"
        }
      ],
      "name": "logFeeTokenTransferred",
      "outputs": [
        {
          "name": "",
          "type": "bool"
        }
      ],
      "payable": false,
      "stateMutability": "nonpayable",
      "type": "function"
    },
    {
      "constant": false,
      "inputs": [
        {
          "name": "_universe",
          "type": "address"
        },
        {
          "name": "_target",
          "type": "address"
        },
        {
          "name": "_amount",
          "type": "uint256"
        }
      ],
      "name": "logFeeTokenBurned",
      "outputs": [
        {
          "name": "",
          "type": "bool"
        }
      ],
      "payable": false,
      "stateMutability": "nonpayable",
      "type": "function"
    },
    {
      "constant": false,
      "inputs": [
        {
          "name": "_universe",
          "type": "address"
        },
        {
          "name": "_target",
          "type": "address"
        },
        {
          "name": "_amount",
          "type": "uint256"
        }
      ],
      "name": "logFeeTokenMinted",
      "outputs": [
        {
          "name": "",
          "type": "bool"
        }
      ],
      "payable": false,
      "stateMutability": "nonpayable",
      "type": "function"
    },
    {
      "constant": false,
      "inputs": [
        {
          "name": "_newTimestamp",
          "type": "uint256"
        }
      ],
      "name": "logTimestampSet",
      "outputs": [
        {
          "name": "",
          "type": "bool"
        }
      ],
      "payable": false,
      "stateMutability": "nonpayable",
      "type": "function"
    },
    {
      "constant": false,
      "inputs": [
        {
          "name": "_universe",
          "type": "address"
        },
        {
          "name": "_market",
          "type": "address"
        },
        {
          "name": "_from",
          "type": "address"
        },
        {
          "name": "_to",
          "type": "address"
        }
      ],
      "name": "logInitialReporterTransferred",
      "outputs": [
        {
          "name": "",
          "type": "bool"
        }
      ],
      "payable": false,
      "stateMutability": "nonpayable",
      "type": "function"
    },
    {
      "constant": false,
      "inputs": [
        {
          "name": "_universe",
          "type": "address"
        },
        {
          "name": "_from",
          "type": "address"
        },
        {
          "name": "_to",
          "type": "address"
        }
      ],
      "name": "logMarketTransferred",
      "outputs": [
        {
          "name": "",
          "type": "bool"
        }
      ],
      "payable": false,
      "stateMutability": "nonpayable",
      "type": "function"
    },
    {
      "constant": false,
      "inputs": [
        {
          "name": "_universe",
          "type": "address"
        },
        {
          "name": "_market",
          "type": "address"
        },
        {
          "name": "_from",
          "type": "address"
        },
        {
          "name": "_to",
          "type": "address"
        }
      ],
      "name": "logMarketMailboxTransferred",
      "outputs": [
        {
          "name": "",
          "type": "bool"
        }
      ],
      "payable": false,
      "stateMutability": "nonpayable",
      "type": "function"
    },
    {
      "constant": false,
      "inputs": [
        {
          "name": "_isOn",
          "type": "bool"
        }
      ],
      "name": "logEscapeHatchChanged",
      "outputs": [
        {
          "name": "",
          "type": "bool"
        }
      ],
      "payable": false,
      "stateMutability": "nonpayable",
      "type": "function"
    }
  ],
  "bytecode": "0x6080604052336000806101000a81548173ffffffffffffffffffffffffffffffffffffffff021916908373ffffffffffffffffffffffffffffffffffffffff160217905550617191806100536000396000f300608060405260043610610246576000357c0100000000000000000000000000000000000000000000000000000000900463ffffffff16806306ba8e421461024b57806307c1880a146103475780630ae41574146104e057806310561361146105cc57806317570e801461065157806317674e4d146106cc57806323290737146107475780632698eec9146107e257806327816ffc146108675780633018205f146108c2578063339594f91461091957806337227c07146109d45780633b186bfc14610a795780634405a33914610b085780634a81202314610b8d5780634c0019c314610bbc57806350bd5cb914610c5757806350f9338114610cfc578063542e9b1814610dc15780636051fa2c14610e4657806360fe103e14610f1f5780636e1636bb14610fa4578063779d6fc71461106e578063788873ea1461116e57806379fff7a9146112135780637d4c78061461129857806380d5398e1461138c57806386b9a1f4146114895780638892bb731461152e5780638cfb8f21146115ee5780638d1b2afd1461164957806392eefe9b146116ae5780639684da1a14611709578063979141ea14611760578063a1b7887f146117e5578063a1dfe5451461186a578063a3b1dc52146118ef578063b14823e114611936578063b70da7dc146119bb578063bc339f4114611a16578063c509d0b214611b6c578063c67af5cc14611c11578063c8e6b2a814611c6c578063e3142e9014611cb1578063ec18e2f114611d6c578063ec23899414611e68578063ec37a6e414611f0d578063ed654fd714611fb2575b600080fd5b34801561025757600080fd5b5061032d600480360381019080803573ffffffffffffffffffffffffffffffffffffffff169060200190929190803573ffffffffffffffffffffffffffffffffffffffff169060200190929190803573ffffffffffffffffffffffffffffffffffffffff16906020019092919080359060200190929190803590602001909291908035906020019092919080359060200190820180359060200190808060200260200160405190810160405280939291908181526020018383602002808284378201915050505050509192919290505050612057565b604051808215151515815260200191505060405180910390f35b34801561035357600080fd5b506104c66004803603810190808035600019169060200190929190803590602001908201803590602001908080601f0160208091040260200160405190810160405280939291908181526020018383808284378201915050505050509192919290803590602001908201803590602001908080601f0160208091040260200160405190810160405280939291908181526020018383808284378201915050505050509192919290803573ffffffffffffffffffffffffffffffffffffffff169060200190929190803573ffffffffffffffffffffffffffffffffffffffff169060200190929190803573ffffffffffffffffffffffffffffffffffffffff169060200190929190803590602001908201803590602001908080602002602001604051908101604052809392919081815260200183836020028082843782019150505050505091929192908035906020019092919080359060200190929190803560ff16906020019092919050505061218a565b604051808215151515815260200191505060405180910390f35b3480156104ec57600080fd5b506105b2600480360381019080803560ff1690602001909291908035906020019092919080359060200190929190803573ffffffffffffffffffffffffffffffffffffffff169060200190929190803590602001909291908035906020019092919080356000191690602001909291908035600019169060200190929190803573ffffffffffffffffffffffffffffffffffffffff169060200190929190803573ffffffffffffffffffffffffffffffffffffffff169060200190929190505050612471565b604051808215151515815260200191505060405180910390f35b3480156105d857600080fd5b50610637600480360381019080803573ffffffffffffffffffffffffffffffffffffffff169060200190929190803573ffffffffffffffffffffffffffffffffffffffff16906020019092919080359060200190929190505050612651565b604051808215151515815260200191505060405180910390f35b34801561065d57600080fd5b506106b2600480360381019080803573ffffffffffffffffffffffffffffffffffffffff169060200190929190803573ffffffffffffffffffffffffffffffffffffffff1690602001909291905050506127dc565b604051808215151515815260200191505060405180910390f35b3480156106d857600080fd5b5061072d600480360381019080803573ffffffffffffffffffffffffffffffffffffffff169060200190929190803573ffffffffffffffffffffffffffffffffffffffff16906020019092919050505061296e565b604051808215151515815260200191505060405180910390f35b34801561075357600080fd5b506107c8600480360381019080803573ffffffffffffffffffffffffffffffffffffffff169060200190929190803573ffffffffffffffffffffffffffffffffffffffff169060200190929190803573ffffffffffffffffffffffffffffffffffffffff169060200190929190505050612a04565b604051808215151515815260200191505060405180910390f35b3480156107ee57600080fd5b5061084d600480360381019080803573ffffffffffffffffffffffffffffffffffffffff169060200190929190803573ffffffffffffffffffffffffffffffffffffffff16906020019092919080359060200190929190505050612bd0565b604051808215151515815260200191505060405180910390f35b34801561087357600080fd5b506108a8600480360381019080803573ffffffffffffffffffffffffffffffffffffffff169060200190929190505050612d84565b604051808215151515815260200191505060405180910390f35b3480156108ce57600080fd5b506108d7612ee3565b604051808273ffffffffffffffffffffffffffffffffffffffff1673ffffffffffffffffffffffffffffffffffffffff16815260200191505060405180910390f35b34801561092557600080fd5b506109ba600480360381019080803573ffffffffffffffffffffffffffffffffffffffff169060200190929190803573ffffffffffffffffffffffffffffffffffffffff169060200190929190803573ffffffffffffffffffffffffffffffffffffffff169060200190929190803573ffffffffffffffffffffffffffffffffffffffff169060200190929190505050612f0c565b604051808215151515815260200191505060405180910390f35b3480156109e057600080fd5b50610a5f600480360381019080803573ffffffffffffffffffffffffffffffffffffffff169060200190929190803573ffffffffffffffffffffffffffffffffffffffff169060200190929190803573ffffffffffffffffffffffffffffffffffffffff169060200190929190803590602001909291905050506131c3565b604051808215151515815260200191505060405180910390f35b348015610a8557600080fd5b50610aee600480360381019080803573ffffffffffffffffffffffffffffffffffffffff169060200190929190803573ffffffffffffffffffffffffffffffffffffffff16906020019092919080359060200190929190803590602001909291905050506133ac565b604051808215151515815260200191505060405180910390f35b348015610b1457600080fd5b50610b73600480360381019080803573ffffffffffffffffffffffffffffffffffffffff169060200190929190803573ffffffffffffffffffffffffffffffffffffffff16906020019092919080359060200190929190505050613533565b604051808215151515815260200191505060405180910390f35b348015610b9957600080fd5b50610ba26136dd565b604051808215151515815260200191505060405180910390f35b348015610bc857600080fd5b50610c3d600480360381019080803573ffffffffffffffffffffffffffffffffffffffff169060200190929190803573ffffffffffffffffffffffffffffffffffffffff169060200190929190803573ffffffffffffffffffffffffffffffffffffffff169060200190929190505050613781565b604051808215151515815260200191505060405180910390f35b348015610c6357600080fd5b50610ce2600480360381019080803573ffffffffffffffffffffffffffffffffffffffff169060200190929190803573ffffffffffffffffffffffffffffffffffffffff169060200190929190803573ffffffffffffffffffffffffffffffffffffffff16906020019092919080359060200190929190505050613914565b604051808215151515815260200191505060405180910390f35b348015610d0857600080fd5b50610da7600480360381019080803573ffffffffffffffffffffffffffffffffffffffff169060200190929190803573ffffffffffffffffffffffffffffffffffffffff169060200190929190803573ffffffffffffffffffffffffffffffffffffffff169060200190929190803573ffffffffffffffffffffffffffffffffffffffff16906020019092919080359060200190929190505050613ad4565b604051808215151515815260200191505060405180910390f35b348015610dcd57600080fd5b50610e2c600480360381019080803573ffffffffffffffffffffffffffffffffffffffff169060200190929190803573ffffffffffffffffffffffffffffffffffffffff16906020019092919080359060200190929190505050613c88565b604051808215151515815260200191505060405180910390f35b348015610e5257600080fd5b50610f05600480360381019080803573ffffffffffffffffffffffffffffffffffffffff169060200190929190803573ffffffffffffffffffffffffffffffffffffffff169060200190929190803573ffffffffffffffffffffffffffffffffffffffff169060200190929190803573ffffffffffffffffffffffffffffffffffffffff169060200190929190803590602001909291908035906020019092919080359060200190929190505050613e3c565b604051808215151515815260200191505060405180910390f35b348015610f2b57600080fd5b50610f8a600480360381019080803573ffffffffffffffffffffffffffffffffffffffff169060200190929190803573ffffffffffffffffffffffffffffffffffffffff1690602001909291908035906020019092919050505061400f565b604051808215151515815260200191505060405180910390f35b348015610fb057600080fd5b50611054600480360381019080803573ffffffffffffffffffffffffffffffffffffffff169060200190929190803573ffffffffffffffffffffffffffffffffffffffff169060200190929190803573ffffffffffffffffffffffffffffffffffffffff1690602001909291908035600019169060200190929190803560ff16906020019092919080359060200190929190803590602001909291905050506141c3565b604051808215151515815260200191505060405180910390f35b34801561107a57600080fd5b50611154600480360381019080803573ffffffffffffffffffffffffffffffffffffffff169060200190929190803573ffffffffffffffffffffffffffffffffffffffff169060200190929190803573ffffffffffffffffffffffffffffffffffffffff1690602001909291908035906020019092919080351515906020019092919080359060200190820180359060200190808060200260200160405190810160405280939291908181526020018383602002808284378201915050505050509192919290803515159060200190929190505050614380565b604051808215151515815260200191505060405180910390f35b34801561117a57600080fd5b506111f9600480360381019080803573ffffffffffffffffffffffffffffffffffffffff169060200190929190803573ffffffffffffffffffffffffffffffffffffffff169060200190929190803573ffffffffffffffffffffffffffffffffffffffff16906020019092919080359060200190929190505050614563565b604051808215151515815260200191505060405180910390f35b34801561121f57600080fd5b5061127e600480360381019080803573ffffffffffffffffffffffffffffffffffffffff169060200190929190803573ffffffffffffffffffffffffffffffffffffffff1690602001909291908035906020019092919050505061474c565b604051808215151515815260200191505060405180910390f35b3480156112a457600080fd5b50611372600480360381019080803573ffffffffffffffffffffffffffffffffffffffff169060200190929190803573ffffffffffffffffffffffffffffffffffffffff169060200190929190803573ffffffffffffffffffffffffffffffffffffffff16906020019092919080359060200190820180359060200190808060200260200160405190810160405280939291908181526020018383602002808284378201915050505050509192919290803590602001909291908035151590602001909291905050506148f6565b604051808215151515815260200191505060405180910390f35b34801561139857600080fd5b5061146f600480360381019080803573ffffffffffffffffffffffffffffffffffffffff169060200190929190803573ffffffffffffffffffffffffffffffffffffffff169060200190929190803573ffffffffffffffffffffffffffffffffffffffff1690602001909291908035600019169060200190929190803590602001909291908035906020019092919080359060200190929190803590602001909291908035906020019092919080359060200190929190803590602001909291908035600019169060200190929190505050614b41565b604051808215151515815260200191505060405180910390f35b34801561149557600080fd5b50611514600480360381019080803573ffffffffffffffffffffffffffffffffffffffff169060200190929190803573ffffffffffffffffffffffffffffffffffffffff169060200190929190803573ffffffffffffffffffffffffffffffffffffffff16906020019092919080359060200190929190505050614d42565b604051808215151515815260200191505060405180910390f35b34801561153a57600080fd5b506115ac600480360381019080803560001916906020019092919080359060200190820180359060200190808060200260200160405190810160405280939291908181526020018383602002808284378201915050505050509192919290803515159060200190929190505050614fe3565b604051808273ffffffffffffffffffffffffffffffffffffffff1673ffffffffffffffffffffffffffffffffffffffff16815260200191505060405180910390f35b3480156115fa57600080fd5b5061162f600480360381019080803573ffffffffffffffffffffffffffffffffffffffff169060200190929190505050615013565b604051808215151515815260200191505060405180910390f35b34801561165557600080fd5b50611694600480360381019080803573ffffffffffffffffffffffffffffffffffffffff16906020019092919080359060200190929190505050615069565b604051808215151515815260200191505060405180910390f35b3480156116ba57600080fd5b506116ef600480360381019080803573ffffffffffffffffffffffffffffffffffffffff16906020019092919050505061529b565b604051808215151515815260200191505060405180910390f35b34801561171557600080fd5b5061171e615341565b604051808273ffffffffffffffffffffffffffffffffffffffff1673ffffffffffffffffffffffffffffffffffffffff16815260200191505060405180910390f35b34801561176c57600080fd5b506117cb600480360381019080803573ffffffffffffffffffffffffffffffffffffffff169060200190929190803573ffffffffffffffffffffffffffffffffffffffff16906020019092919080359060200190929190505050615389565b604051808215151515815260200191505060405180910390f35b3480156117f157600080fd5b50611850600480360381019080803573ffffffffffffffffffffffffffffffffffffffff169060200190929190803573ffffffffffffffffffffffffffffffffffffffff1690602001909291908035906020019092919050505061553d565b604051808215151515815260200191505060405180910390f35b34801561187657600080fd5b506118d5600480360381019080803573ffffffffffffffffffffffffffffffffffffffff169060200190929190803573ffffffffffffffffffffffffffffffffffffffff169060200190929190803590602001909291905050506157a9565b604051808215151515815260200191505060405180910390f35b3480156118fb57600080fd5b5061191c600480360381019080803515159060200190929190505050615a15565b604051808215151515815260200191505060405180910390f35b34801561194257600080fd5b506119a1600480360381019080803573ffffffffffffffffffffffffffffffffffffffff169060200190929190803573ffffffffffffffffffffffffffffffffffffffff16906020019092919080359060200190929190505050615ab6565b604051808215151515815260200191505060405180910390f35b3480156119c757600080fd5b506119fc600480360381019080803573ffffffffffffffffffffffffffffffffffffffff169060200190929190505050615c41565b604051808215151515815260200191505060405180910390f35b348015611a2257600080fd5b50611b526004803603810190808035600019169060200190929190803590602001908201803590602001908080601f0160208091040260200160405190810160405280939291908181526020018383808284378201915050505050509192919290803590602001908201803590602001908080601f0160208091040260200160405190810160405280939291908181526020018383808284378201915050505050509192919290803573ffffffffffffffffffffffffffffffffffffffff169060200190929190803573ffffffffffffffffffffffffffffffffffffffff169060200190929190803573ffffffffffffffffffffffffffffffffffffffff1690602001909291908035906020019092919080359060200190929190803560ff169060200190929190505050615c97565b604051808215151515815260200191505060405180910390f35b348015611b7857600080fd5b50611bf7600480360381019080803573ffffffffffffffffffffffffffffffffffffffff169060200190929190803573ffffffffffffffffffffffffffffffffffffffff169060200190929190803573ffffffffffffffffffffffffffffffffffffffff16906020019092919080359060200190929190505050615fad565b604051808215151515815260200191505060405180910390f35b348015611c1d57600080fd5b50611c52600480360381019080803573ffffffffffffffffffffffffffffffffffffffff169060200190929190505050616139565b604051808215151515815260200191505060405180910390f35b348015611c7857600080fd5b50611c9760048036038101908080359060200190929190505050616298565b604051808215151515815260200191505060405180910390f35b348015611cbd57600080fd5b50611d52600480360381019080803573ffffffffffffffffffffffffffffffffffffffff169060200190929190803573ffffffffffffffffffffffffffffffffffffffff169060200190929190803573ffffffffffffffffffffffffffffffffffffffff169060200190929190803573ffffffffffffffffffffffffffffffffffffffff1690602001909291905050506163fe565b604051808215151515815260200191505060405180910390f35b348015611d7857600080fd5b50611e4e600480360381019080803573ffffffffffffffffffffffffffffffffffffffff169060200190929190803573ffffffffffffffffffffffffffffffffffffffff169060200190929190803573ffffffffffffffffffffffffffffffffffffffff1690602001909291908035906020019092919080359060200190929190803590602001909291908035906020019082018035906020019080806020026020016040519081016040528093929190818152602001838360200280828437820191505050505050919291929050505061669e565b604051808215151515815260200191505060405180910390f35b348015611e7457600080fd5b50611ef3600480360381019080803573ffffffffffffffffffffffffffffffffffffffff169060200190929190803573ffffffffffffffffffffffffffffffffffffffff169060200190929190803573ffffffffffffffffffffffffffffffffffffffff16906020019092919080359060200190929190505050616879565b604051808215151515815260200191505060405180910390f35b348015611f1957600080fd5b50611f98600480360381019080803573ffffffffffffffffffffffffffffffffffffffff169060200190929190803573ffffffffffffffffffffffffffffffffffffffff169060200190929190803573ffffffffffffffffffffffffffffffffffffffff16906020019092919080359060200190929190505050616ab5565b604051808215151515815260200191505060405180910390f35b348015611fbe57600080fd5b5061203d600480360381019080803573ffffffffffffffffffffffffffffffffffffffff169060200190929190803573ffffffffffffffffffffffffffffffffffffffff169060200190929190803573ffffffffffffffffffffffffffffffffffffffff16906020019092919080359060200190929190505050616c94565b604051808215151515815260200191505060405180910390f35b60008033905061206681615c41565b151561207157600080fd5b8673ffffffffffffffffffffffffffffffffffffffff168873ffffffffffffffffffffffffffffffffffffffff168a73ffffffffffffffffffffffffffffffffffffffff167f450bd662d3b1e236c8f344457690d257aeae5dca1add336752839ac206613cc0848a8a8a8a604051808673ffffffffffffffffffffffffffffffffffffffff1673ffffffffffffffffffffffffffffffffffffffff16815260200185815260200184815260200183815260200180602001828103825283818151815260200191508051906020019060200280838360005b83811015612163578082015181840152602081019050612148565b50505050905001965050505050505060405180910390a46001915050979650505050505050565b600061219588615013565b15156121a057600080fd5b3373ffffffffffffffffffffffffffffffffffffffff168873ffffffffffffffffffffffffffffffffffffffff161415156121da57600080fd5b8573ffffffffffffffffffffffffffffffffffffffff168873ffffffffffffffffffffffffffffffffffffffff168c600019167fb2e65de73007eef46316e4f18ab1f301b4d0e31aa56733387b469612f90894df8d8d8c8b8f73ffffffffffffffffffffffffffffffffffffffff1663ec86fdbd6040518163ffffffff167c0100000000000000000000000000000000000000000000000000000000028152600401602060405180830381600087803b15801561229657600080fd5b505af11580156122aa573d6000803e3d6000fd5b505050506040513d60208110156122c057600080fd5b81019080805190602001909291905050508c8c8c6040518080602001806020018973ffffffffffffffffffffffffffffffffffffffff1673ffffffffffffffffffffffffffffffffffffffff1681526020018060200188815260200187815260200186815260200185600281111561233457fe5b60ff16815260200184810384528c818151815260200191508051906020019080838360005b83811015612374578082015181840152602081019050612359565b50505050905090810190601f1680156123a15780820380516001836020036101000a031916815260200191505b5084810383528b818151815260200191508051906020019080838360005b838110156123da5780820151818401526020810190506123bf565b50505050905090810190601f1680156124075780820380516001836020036101000a031916815260200191505b50848103825289818151815260200191508051906020019060200280838360005b83811015612443578082015181840152602081019050612428565b505050509050019b50505050505050505050505060405180910390a4600190509a9950505050505050505050565b60008060009054906101000a900473ffffffffffffffffffffffffffffffffffffffff1673ffffffffffffffffffffffffffffffffffffffff16633f08882f336040518263ffffffff167c0100000000000000000000000000000000000000000000000000000000028152600401808273ffffffffffffffffffffffffffffffffffffffff1673ffffffffffffffffffffffffffffffffffffffff168152602001915050602060405180830381600087803b15801561252f57600080fd5b505af1158015612543573d6000803e3d6000fd5b505050506040513d602081101561255957600080fd5b8101908080519060200190929190505050151561257557600080fd5b8173ffffffffffffffffffffffffffffffffffffffff168373ffffffffffffffffffffffffffffffffffffffff168973ffffffffffffffffffffffffffffffffffffffff167f32d554e498d0c7f2a5c7fd8b6b234bfc4e1dfb5290466d998af09a813db32f318e8e8e8d8d8d8d604051808860018111156125f257fe5b60ff1681526020018781526020018681526020018581526020018481526020018360001916600019168152602001826000191660001916815260200197505050505050505060405180910390a4600190509a9950505050505050505050565b60008033905061266081615c41565b151561266b57600080fd5b8373ffffffffffffffffffffffffffffffffffffffff163373ffffffffffffffffffffffffffffffffffffffff168673ffffffffffffffffffffffffffffffffffffffff167f262b80f2af08a1001d15a1df91dde9acb8441811543886659b3845a8c285748b8660028673ffffffffffffffffffffffffffffffffffffffff1663f1be16796040518163ffffffff167c0100000000000000000000000000000000000000000000000000000000028152600401602060405180830381600087803b15801561273857600080fd5b505af115801561274c573d6000803e3d6000fd5b505050506040513d602081101561276257600080fd5b81019080805190602001909291905050506040518084815260200183600481111561278957fe5b60ff1681526020018273ffffffffffffffffffffffffffffffffffffffff1673ffffffffffffffffffffffffffffffffffffffff168152602001935050505060405180910390a460019150509392505050565b60006127e783615013565b15156127f257600080fd5b8273ffffffffffffffffffffffffffffffffffffffff1663f76514c7336040518263ffffffff167c0100000000000000000000000000000000000000000000000000000000028152600401808273ffffffffffffffffffffffffffffffffffffffff1673ffffffffffffffffffffffffffffffffffffffff168152602001915050602060405180830381600087803b15801561288d57600080fd5b505af11580156128a1573d6000803e3d6000fd5b505050506040513d60208110156128b757600080fd5b810190808051906020019092919050505015156128d357600080fd5b8173ffffffffffffffffffffffffffffffffffffffff168373ffffffffffffffffffffffffffffffffffffffff167fb20adf682c8f82b94a135452f54ac4483c9ee8c9b2324e946120696ab1d034b433604051808273ffffffffffffffffffffffffffffffffffffffff1673ffffffffffffffffffffffffffffffffffffffff16815260200191505060405180910390a36001905092915050565b60008033905061297d81615013565b151561298857600080fd5b8073ffffffffffffffffffffffffffffffffffffffff168373ffffffffffffffffffffffffffffffffffffffff168573ffffffffffffffffffffffffffffffffffffffff167fc3cf07f8fa0fafc25a9dd0bad2cd6b961c55dad41b42c8ef8f931bc40e41e08c60405160405180910390a4600191505092915050565b600080612a1085615013565b1515612a1b57600080fd5b3390508473ffffffffffffffffffffffffffffffffffffffff16639f7e1bf6826040518263ffffffff167c0100000000000000000000000000000000000000000000000000000000028152600401808273ffffffffffffffffffffffffffffffffffffffff1673ffffffffffffffffffffffffffffffffffffffff168152602001915050602060405180830381600087803b158015612ab957600080fd5b505af1158015612acd573d6000803e3d6000fd5b505050506040513d6020811015612ae357600080fd5b81019080805190602001909291905050501515612aff57600080fd5b8073ffffffffffffffffffffffffffffffffffffffff168573ffffffffffffffffffffffffffffffffffffffff167f55f2a7bfa32e835c3f3c3cff653a3d11c077ce1b00c5a41c6aaf09eedc1ac3b28686604051808373ffffffffffffffffffffffffffffffffffffffff1673ffffffffffffffffffffffffffffffffffffffff1681526020018273ffffffffffffffffffffffffffffffffffffffff1673ffffffffffffffffffffffffffffffffffffffff1681526020019250505060405180910390a360019150509392505050565b6000612bdb84615013565b1515612be657600080fd5b8373ffffffffffffffffffffffffffffffffffffffff166326d16bc9336040518263ffffffff167c0100000000000000000000000000000000000000000000000000000000028152600401808273ffffffffffffffffffffffffffffffffffffffff1673ffffffffffffffffffffffffffffffffffffffff168152602001915050602060405180830381600087803b158015612c8157600080fd5b505af1158015612c95573d6000803e3d6000fd5b505050506040513d6020811015612cab57600080fd5b81019080805190602001909291905050501515612cc757600080fd5b8273ffffffffffffffffffffffffffffffffffffffff163373ffffffffffffffffffffffffffffffffffffffff168573ffffffffffffffffffffffffffffffffffffffff167f75dd618f69c0f07adc97fe19ba435f3932ce6aa8cad287fb9bdfaf37639f703a856004600060405180848152602001836004811115612d4857fe5b60ff1681526020018273ffffffffffffffffffffffffffffffffffffffff168152602001935050505060405180910390a4600190509392505050565b600080612d9083615013565b1515612d9b57600080fd5b3390508273ffffffffffffffffffffffffffffffffffffffff16639f7e1bf6826040518263ffffffff167c0100000000000000000000000000000000000000000000000000000000028152600401808273ffffffffffffffffffffffffffffffffffffffff1673ffffffffffffffffffffffffffffffffffffffff168152602001915050602060405180830381600087803b158015612e3957600080fd5b505af1158015612e4d573d6000803e3d6000fd5b505050506040513d6020811015612e6357600080fd5b81019080805190602001909291905050501515612e7f57600080fd5b8073ffffffffffffffffffffffffffffffffffffffff168373ffffffffffffffffffffffffffffffffffffffff167f014ce4e12965529d7d31e11411d7a23b1778d448ab763ffc4d55830cbb4919d760405160405180910390a36001915050919050565b60008060009054906101000a900473ffffffffffffffffffffffffffffffffffffffff16905090565b6000612f1785615013565b1515612f2257600080fd5b8473ffffffffffffffffffffffffffffffffffffffff16639f7e1bf6856040518263ffffffff167c0100000000000000000000000000000000000000000000000000000000028152600401808273ffffffffffffffffffffffffffffffffffffffff1673ffffffffffffffffffffffffffffffffffffffff168152602001915050602060405180830381600087803b158015612fbd57600080fd5b505af1158015612fd1573d6000803e3d6000fd5b505050506040513d6020811015612fe757600080fd5b8101908080519060200190929190505050151561300357600080fd5b8373ffffffffffffffffffffffffffffffffffffffff1663ed23378b6040518163ffffffff167c0100000000000000000000000000000000000000000000000000000000028152600401602060405180830381600087803b15801561306757600080fd5b505af115801561307b573d6000803e3d6000fd5b505050506040513d602081101561309157600080fd5b810190808051906020019092919050505073ffffffffffffffffffffffffffffffffffffffff163373ffffffffffffffffffffffffffffffffffffffff161415156130db57600080fd5b3373ffffffffffffffffffffffffffffffffffffffff168473ffffffffffffffffffffffffffffffffffffffff168673ffffffffffffffffffffffffffffffffffffffff167f8a34ec183bf620d74d0b52e71165bb4255b0591d1c8e9d07c707a7f1d763158d8686604051808373ffffffffffffffffffffffffffffffffffffffff1673ffffffffffffffffffffffffffffffffffffffff1681526020018273ffffffffffffffffffffffffffffffffffffffff1673ffffffffffffffffffffffffffffffffffffffff1681526020019250505060405180910390a460019050949350505050565b60006131ce85615013565b15156131d957600080fd5b8473ffffffffffffffffffffffffffffffffffffffff166326d16bc9336040518263ffffffff167c0100000000000000000000000000000000000000000000000000000000028152600401808273ffffffffffffffffffffffffffffffffffffffff1673ffffffffffffffffffffffffffffffffffffffff168152602001915050602060405180830381600087803b15801561327457600080fd5b505af1158015613288573d6000803e3d6000fd5b505050506040513d602081101561329e57600080fd5b810190808051906020019092919050505015156132ba57600080fd5b8373ffffffffffffffffffffffffffffffffffffffff163373ffffffffffffffffffffffffffffffffffffffff168673ffffffffffffffffffffffffffffffffffffffff167f3c67396e9c55d2fc8ad68875fc5beca1d96ad2a2f23b210ccc1d986551ab6fdf868660046000604051808573ffffffffffffffffffffffffffffffffffffffff1673ffffffffffffffffffffffffffffffffffffffff16815260200184815260200183600481111561336e57fe5b60ff1681526020018273ffffffffffffffffffffffffffffffffffffffff16815260200194505050505060405180910390a460019050949350505050565b60006133b785615013565b15156133c257600080fd5b8473ffffffffffffffffffffffffffffffffffffffff1663c7c88d70336040518263ffffffff167c0100000000000000000000000000000000000000000000000000000000028152600401808273ffffffffffffffffffffffffffffffffffffffff1673ffffffffffffffffffffffffffffffffffffffff168152602001915050602060405180830381600087803b15801561345d57600080fd5b505af1158015613471573d6000803e3d6000fd5b505050506040513d602081101561348757600080fd5b810190808051906020019092919050505015156134a357600080fd5b3373ffffffffffffffffffffffffffffffffffffffff168473ffffffffffffffffffffffffffffffffffffffff168673ffffffffffffffffffffffffffffffffffffffff167fc62cff53848fe243adb6130140cfe557ce16e8006861abd50adfe425150ba6c58686604051808381526020018281526020019250505060405180910390a460019050949350505050565b600061353e84615013565b151561354957600080fd5b3373ffffffffffffffffffffffffffffffffffffffff168473ffffffffffffffffffffffffffffffffffffffff1663b80907f26040518163ffffffff167c0100000000000000000000000000000000000000000000000000000000028152600401602060405180830381600087803b1580156135c457600080fd5b505af11580156135d8573d6000803e3d6000fd5b505050506040513d60208110156135ee57600080fd5b810190808051906020019092919050505073ffffffffffffffffffffffffffffffffffffffff1614151561362157600080fd5b8273ffffffffffffffffffffffffffffffffffffffff163373ffffffffffffffffffffffffffffffffffffffff168573ffffffffffffffffffffffffffffffffffffffff167f262b80f2af08a1001d15a1df91dde9acb8441811543886659b3845a8c285748b85600080604051808481526020018360048111156136a157fe5b60ff1681526020018273ffffffffffffffffffffffffffffffffffffffff168152602001935050505060405180910390a4600190509392505050565b6000600160003373ffffffffffffffffffffffffffffffffffffffff1673ffffffffffffffffffffffffffffffffffffffff16815260200190815260200160002060009054906101000a900460ff16151561373757600080fd5b3373ffffffffffffffffffffffffffffffffffffffff167fd4d990bbdf9b9a4383a394341465060ccb75513432ceee3d5fcd8788ab1a507f60405160405180910390a26001905090565b600061378c84615013565b151561379757600080fd5b8373ffffffffffffffffffffffffffffffffffffffff16639f7e1bf6336040518263ffffffff167c0100000000000000000000000000000000000000000000000000000000028152600401808273ffffffffffffffffffffffffffffffffffffffff1673ffffffffffffffffffffffffffffffffffffffff168152602001915050602060405180830381600087803b15801561383257600080fd5b505af1158015613846573d6000803e3d6000fd5b505050506040513d602081101561385c57600080fd5b8101908080519060200190929190505050151561387857600080fd5b8273ffffffffffffffffffffffffffffffffffffffff168473ffffffffffffffffffffffffffffffffffffffff167fec05f094139821aeb3220a0837f5d14eb02aa619179aadf3b316ed95b3648abb84604051808273ffffffffffffffffffffffffffffffffffffffff1673ffffffffffffffffffffffffffffffffffffffff16815260200191505060405180910390a3600190509392505050565b60008033905061392381615c41565b151561392e57600080fd5b8473ffffffffffffffffffffffffffffffffffffffff163373ffffffffffffffffffffffffffffffffffffffff168773ffffffffffffffffffffffffffffffffffffffff167f3c67396e9c55d2fc8ad68875fc5beca1d96ad2a2f23b210ccc1d986551ab6fdf878760028773ffffffffffffffffffffffffffffffffffffffff1663f1be16796040518163ffffffff167c0100000000000000000000000000000000000000000000000000000000028152600401602060405180830381600087803b1580156139fc57600080fd5b505af1158015613a10573d6000803e3d6000fd5b505050506040513d6020811015613a2657600080fd5b8101908080519060200190929190505050604051808573ffffffffffffffffffffffffffffffffffffffff1673ffffffffffffffffffffffffffffffffffffffff168152602001848152602001836004811115613a7f57fe5b60ff1681526020018273ffffffffffffffffffffffffffffffffffffffff1673ffffffffffffffffffffffffffffffffffffffff16815260200194505050505060405180910390a46001915050949350505050565b6000613adf86615013565b1515613aea57600080fd5b8573ffffffffffffffffffffffffffffffffffffffff16639f7e1bf6336040518263ffffffff167c0100000000000000000000000000000000000000000000000000000000028152600401808273ffffffffffffffffffffffffffffffffffffffff1673ffffffffffffffffffffffffffffffffffffffff168152602001915050602060405180830381600087803b158015613b8557600080fd5b505af1158015613b99573d6000803e3d6000fd5b505050506040513d6020811015613baf57600080fd5b81019080805190602001909291905050501515613bcb57600080fd5b8373ffffffffffffffffffffffffffffffffffffffff168573ffffffffffffffffffffffffffffffffffffffff168773ffffffffffffffffffffffffffffffffffffffff167fa340b40e5e280037f25da1bff4a1b4030d764649f0d5029a2198182c42cff8838686604051808373ffffffffffffffffffffffffffffffffffffffff1673ffffffffffffffffffffffffffffffffffffffff1681526020018281526020019250505060405180910390a46001905095945050505050565b6000613c9384615013565b1515613c9e57600080fd5b8373ffffffffffffffffffffffffffffffffffffffff1663c7c88d70336040518263ffffffff167c0100000000000000000000000000000000000000000000000000000000028152600401808273ffffffffffffffffffffffffffffffffffffffff1673ffffffffffffffffffffffffffffffffffffffff168152602001915050602060405180830381600087803b158015613d3957600080fd5b505af1158015613d4d573d6000803e3d6000fd5b505050506040513d6020811015613d6357600080fd5b81019080805190602001909291905050501515613d7f57600080fd5b8273ffffffffffffffffffffffffffffffffffffffff163373ffffffffffffffffffffffffffffffffffffffff168573ffffffffffffffffffffffffffffffffffffffff167f262b80f2af08a1001d15a1df91dde9acb8441811543886659b3845a8c285748b856003600060405180848152602001836004811115613e0057fe5b60ff1681526020018273ffffffffffffffffffffffffffffffffffffffff168152602001935050505060405180910390a4600190509392505050565b60008060009054906101000a900473ffffffffffffffffffffffffffffffffffffffff1673ffffffffffffffffffffffffffffffffffffffff16633f08882f336040518263ffffffff167c0100000000000000000000000000000000000000000000000000000000028152600401808273ffffffffffffffffffffffffffffffffffffffff1673ffffffffffffffffffffffffffffffffffffffff168152602001915050602060405180830381600087803b158015613efa57600080fd5b505af1158015613f0e573d6000803e3d6000fd5b505050506040513d6020811015613f2457600080fd5b81019080805190602001909291905050501515613f4057600080fd5b8573ffffffffffffffffffffffffffffffffffffffff168773ffffffffffffffffffffffffffffffffffffffff168973ffffffffffffffffffffffffffffffffffffffff167fa7e9373569caad2b7871ecb4d498619fc1c42840a6c0dbeb8dff20b131721e5088888888604051808573ffffffffffffffffffffffffffffffffffffffff1673ffffffffffffffffffffffffffffffffffffffff16815260200184815260200183815260200182815260200194505050505060405180910390a460019050979650505050505050565b600061401a84615013565b151561402557600080fd5b8373ffffffffffffffffffffffffffffffffffffffff1663c7c88d70336040518263ffffffff167c0100000000000000000000000000000000000000000000000000000000028152600401808273ffffffffffffffffffffffffffffffffffffffff1673ffffffffffffffffffffffffffffffffffffffff168152602001915050602060405180830381600087803b1580156140c057600080fd5b505af11580156140d4573d6000803e3d6000fd5b505050506040513d60208110156140ea57600080fd5b8101908080519060200190929190505050151561410657600080fd5b8273ffffffffffffffffffffffffffffffffffffffff163373ffffffffffffffffffffffffffffffffffffffff168573ffffffffffffffffffffffffffffffffffffffff167f75dd618f69c0f07adc97fe19ba435f3932ce6aa8cad287fb9bdfaf37639f703a85600360006040518084815260200183600481111561418757fe5b60ff1681526020018273ffffffffffffffffffffffffffffffffffffffff168152602001935050505060405180910390a4600190509392505050565b60008060009054906101000a900473ffffffffffffffffffffffffffffffffffffffff1673ffffffffffffffffffffffffffffffffffffffff16633f08882f336040518263ffffffff167c0100000000000000000000000000000000000000000000000000000000028152600401808273ffffffffffffffffffffffffffffffffffffffff1673ffffffffffffffffffffffffffffffffffffffff168152602001915050602060405180830381600087803b15801561428157600080fd5b505af1158015614295573d6000803e3d6000fd5b505050506040513d60208110156142ab57600080fd5b810190808051906020019092919050505015156142c757600080fd5b8573ffffffffffffffffffffffffffffffffffffffff168773ffffffffffffffffffffffffffffffffffffffff168973ffffffffffffffffffffffffffffffffffffffff167f513d029ff62330c16d8d4b36b28fab53f09d10bb51b56fe121ab710ca2d1af808888888860405180856000191660001916815260200184600181111561434f57fe5b60ff16815260200183815260200182815260200194505050505060405180910390a460019050979650505050505050565b600061438b88615013565b151561439657600080fd5b8773ffffffffffffffffffffffffffffffffffffffff16639f7e1bf6336040518263ffffffff167c0100000000000000000000000000000000000000000000000000000000028152600401808273ffffffffffffffffffffffffffffffffffffffff1673ffffffffffffffffffffffffffffffffffffffff168152602001915050602060405180830381600087803b15801561443157600080fd5b505af1158015614445573d6000803e3d6000fd5b505050506040513d602081101561445b57600080fd5b8101908080519060200190929190505050151561447757600080fd5b8573ffffffffffffffffffffffffffffffffffffffff168773ffffffffffffffffffffffffffffffffffffffff168973ffffffffffffffffffffffffffffffffffffffff167f0bffe152251da36b8f0264e3db7a5194b0cae63e5a6cbcf89b753c10ffbe068d8888888860405180858152602001841515151581526020018060200183151515158152602001828103825284818151815260200191508051906020019060200280838360005b8381101561453e578082015181840152602081019050614523565b505050509050019550505050505060405180910390a460019050979650505050505050565b600061456e85615013565b151561457957600080fd5b8473ffffffffffffffffffffffffffffffffffffffff1663c7c88d70336040518263ffffffff167c0100000000000000000000000000000000000000000000000000000000028152600401808273ffffffffffffffffffffffffffffffffffffffff1673ffffffffffffffffffffffffffffffffffffffff168152602001915050602060405180830381600087803b15801561461457600080fd5b505af1158015614628573d6000803e3d6000fd5b505050506040513d602081101561463e57600080fd5b8101908080519060200190929190505050151561465a57600080fd5b8373ffffffffffffffffffffffffffffffffffffffff163373ffffffffffffffffffffffffffffffffffffffff168673ffffffffffffffffffffffffffffffffffffffff167f3c67396e9c55d2fc8ad68875fc5beca1d96ad2a2f23b210ccc1d986551ab6fdf868660036000604051808573ffffffffffffffffffffffffffffffffffffffff1673ffffffffffffffffffffffffffffffffffffffff16815260200184815260200183600481111561470e57fe5b60ff1681526020018273ffffffffffffffffffffffffffffffffffffffff16815260200194505050505060405180910390a460019050949350505050565b600061475784615013565b151561476257600080fd5b3373ffffffffffffffffffffffffffffffffffffffff168473ffffffffffffffffffffffffffffffffffffffff1663b80907f26040518163ffffffff167c0100000000000000000000000000000000000000000000000000000000028152600401602060405180830381600087803b1580156147dd57600080fd5b505af11580156147f1573d6000803e3d6000fd5b505050506040513d602081101561480757600080fd5b810190808051906020019092919050505073ffffffffffffffffffffffffffffffffffffffff1614151561483a57600080fd5b8273ffffffffffffffffffffffffffffffffffffffff163373ffffffffffffffffffffffffffffffffffffffff168573ffffffffffffffffffffffffffffffffffffffff167f75dd618f69c0f07adc97fe19ba435f3932ce6aa8cad287fb9bdfaf37639f703a85600080604051808481526020018360048111156148ba57fe5b60ff1681526020018273ffffffffffffffffffffffffffffffffffffffff168152602001935050505060405180910390a4600190509392505050565b600061490187615013565b151561490c57600080fd5b8673ffffffffffffffffffffffffffffffffffffffff16639f7e1bf6336040518263ffffffff167c0100000000000000000000000000000000000000000000000000000000028152600401808273ffffffffffffffffffffffffffffffffffffffff1673ffffffffffffffffffffffffffffffffffffffff168152602001915050602060405180830381600087803b1580156149a757600080fd5b505af11580156149bb573d6000803e3d6000fd5b505050506040513d60208110156149d157600080fd5b810190808051906020019092919050505015156149ed57600080fd5b6001600260008773ffffffffffffffffffffffffffffffffffffffff1673ffffffffffffffffffffffffffffffffffffffff16815260200190815260200160002060006101000a81548160ff0219169083151502179055508573ffffffffffffffffffffffffffffffffffffffff168773ffffffffffffffffffffffffffffffffffffffff167fccc07058358a9411a6acb3cd58bf6d0b398c3ff1f0b2c8e97a6dbdbbe74eae4187878787604051808573ffffffffffffffffffffffffffffffffffffffff1673ffffffffffffffffffffffffffffffffffffffff1681526020018060200184815260200183151515158152602001828103825285818151815260200191508051906020019060200280838360005b83811015614b1d578082015181840152602081019050614b02565b505050509050019550505050505060405180910390a3600190509695505050505050565b60008060009054906101000a900473ffffffffffffffffffffffffffffffffffffffff1673ffffffffffffffffffffffffffffffffffffffff16633f08882f336040518263ffffffff167c0100000000000000000000000000000000000000000000000000000000028152600401808273ffffffffffffffffffffffffffffffffffffffff1673ffffffffffffffffffffffffffffffffffffffff168152602001915050602060405180830381600087803b158015614bff57600080fd5b505af1158015614c13573d6000803e3d6000fd5b505050506040513d6020811015614c2957600080fd5b81019080805190602001909291905050501515614c4557600080fd5b8b73ffffffffffffffffffffffffffffffffffffffff168d73ffffffffffffffffffffffffffffffffffffffff167fabb970462c1f0de9e237d127ad47c01c4e69caa179fd850d076ae9bfc529176e8d8d8d8d8d8d8d8d8d8d604051808b73ffffffffffffffffffffffffffffffffffffffff1673ffffffffffffffffffffffffffffffffffffffff1681526020018a6000191660001916815260200189815260200188815260200187815260200186815260200185815260200184815260200183815260200182600019166000191681526020019a505050505050505050505060405180910390a3600190509c9b505050505050505050505050565b600080614d4e86615013565b1515614d5957600080fd5b3390508573ffffffffffffffffffffffffffffffffffffffff1663509a1061826040518263ffffffff167c0100000000000000000000000000000000000000000000000000000000028152600401808273ffffffffffffffffffffffffffffffffffffffff1673ffffffffffffffffffffffffffffffffffffffff168152602001915050602060405180830381600087803b158015614df757600080fd5b505af1158015614e0b573d6000803e3d6000fd5b505050506040513d6020811015614e2157600080fd5b81019080805190602001909291905050501515614e3d57600080fd5b8473ffffffffffffffffffffffffffffffffffffffff163373ffffffffffffffffffffffffffffffffffffffff168773ffffffffffffffffffffffffffffffffffffffff167f3c67396e9c55d2fc8ad68875fc5beca1d96ad2a2f23b210ccc1d986551ab6fdf878760018773ffffffffffffffffffffffffffffffffffffffff1663f1be16796040518163ffffffff167c0100000000000000000000000000000000000000000000000000000000028152600401602060405180830381600087803b158015614f0b57600080fd5b505af1158015614f1f573d6000803e3d6000fd5b505050506040513d6020811015614f3557600080fd5b8101908080519060200190929190505050604051808573ffffffffffffffffffffffffffffffffffffffff1673ffffffffffffffffffffffffffffffffffffffff168152602001848152602001836004811115614f8e57fe5b60ff1681526020018273ffffffffffffffffffffffffffffffffffffffff1673ffffffffffffffffffffffffffffffffffffffff16815260200194505050505060405180910390a46001915050949350505050565b600080339050614ff281615013565b1515614ffd57600080fd5b61500981868686616e20565b9150509392505050565b6000600160008373ffffffffffffffffffffffffffffffffffffffff1673ffffffffffffffffffffffffffffffffffffffff16815260200190815260200160002060009054906101000a900460ff169050919050565b6000600160003373ffffffffffffffffffffffffffffffffffffffff1673ffffffffffffffffffffffffffffffffffffffff16815260200190815260200160002060009054906101000a900460ff1615156150c357600080fd5b3373ffffffffffffffffffffffffffffffffffffffff167fbaba17e31bb9fbfbc0b794111d2b1236ed4e36067a5e0d7c3c3433ad66c99f9d848573ffffffffffffffffffffffffffffffffffffffff1663c828371e6040518163ffffffff167c0100000000000000000000000000000000000000000000000000000000028152600401602060405180830381600087803b15801561516057600080fd5b505af1158015615174573d6000803e3d6000fd5b505050506040513d602081101561518a57600080fd5b81019080805190602001909291905050508673ffffffffffffffffffffffffffffffffffffffff1663439f5ac26040518163ffffffff167c0100000000000000000000000000000000000000000000000000000000028152600401602060405180830381600087803b1580156151ff57600080fd5b505af1158015615213573d6000803e3d6000fd5b505050506040513d602081101561522957600080fd5b810190808051906020019092919050505086604051808573ffffffffffffffffffffffffffffffffffffffff1673ffffffffffffffffffffffffffffffffffffffff16815260200184815260200183815260200182815260200194505050505060405180910390a26001905092915050565b60008060009054906101000a900473ffffffffffffffffffffffffffffffffffffffff1673ffffffffffffffffffffffffffffffffffffffff163373ffffffffffffffffffffffffffffffffffffffff161415156152f857600080fd5b816000806101000a81548173ffffffffffffffffffffffffffffffffffffffff021916908373ffffffffffffffffffffffffffffffffffffffff16021790555060019050919050565b6000615384600080600102600060405190808252806020026020018201604052801561537c5781602001602082028038833980820191505090505b506000616e20565b905090565b600061539484615013565b151561539f57600080fd5b8373ffffffffffffffffffffffffffffffffffffffff166326d16bc9336040518263ffffffff167c0100000000000000000000000000000000000000000000000000000000028152600401808273ffffffffffffffffffffffffffffffffffffffff1673ffffffffffffffffffffffffffffffffffffffff168152602001915050602060405180830381600087803b15801561543a57600080fd5b505af115801561544e573d6000803e3d6000fd5b505050506040513d602081101561546457600080fd5b8101908080519060200190929190505050151561548057600080fd5b8273ffffffffffffffffffffffffffffffffffffffff163373ffffffffffffffffffffffffffffffffffffffff168573ffffffffffffffffffffffffffffffffffffffff167f262b80f2af08a1001d15a1df91dde9acb8441811543886659b3845a8c285748b85600460006040518084815260200183600481111561550157fe5b60ff1681526020018273ffffffffffffffffffffffffffffffffffffffff168152602001935050505060405180910390a4600190509392505050565b60008061554985615013565b151561555457600080fd5b3390508473ffffffffffffffffffffffffffffffffffffffff1663509a1061826040518263ffffffff167c0100000000000000000000000000000000000000000000000000000000028152600401808273ffffffffffffffffffffffffffffffffffffffff1673ffffffffffffffffffffffffffffffffffffffff168152602001915050602060405180830381600087803b1580156155f257600080fd5b505af1158015615606573d6000803e3d6000fd5b505050506040513d602081101561561c57600080fd5b8101908080519060200190929190505050151561563857600080fd5b8373ffffffffffffffffffffffffffffffffffffffff163373ffffffffffffffffffffffffffffffffffffffff168673ffffffffffffffffffffffffffffffffffffffff167f262b80f2af08a1001d15a1df91dde9acb8441811543886659b3845a8c285748b8660018673ffffffffffffffffffffffffffffffffffffffff1663f1be16796040518163ffffffff167c0100000000000000000000000000000000000000000000000000000000028152600401602060405180830381600087803b15801561570557600080fd5b505af1158015615719573d6000803e3d6000fd5b505050506040513d602081101561572f57600080fd5b81019080805190602001909291905050506040518084815260200183600481111561575657fe5b60ff1681526020018273ffffffffffffffffffffffffffffffffffffffff1673ffffffffffffffffffffffffffffffffffffffff168152602001935050505060405180910390a460019150509392505050565b6000806157b585615013565b15156157c057600080fd5b3390508473ffffffffffffffffffffffffffffffffffffffff1663509a1061826040518263ffffffff167c0100000000000000000000000000000000000000000000000000000000028152600401808273ffffffffffffffffffffffffffffffffffffffff1673ffffffffffffffffffffffffffffffffffffffff168152602001915050602060405180830381600087803b15801561585e57600080fd5b505af1158015615872573d6000803e3d6000fd5b505050506040513d602081101561588857600080fd5b810190808051906020019092919050505015156158a457600080fd5b8373ffffffffffffffffffffffffffffffffffffffff163373ffffffffffffffffffffffffffffffffffffffff168673ffffffffffffffffffffffffffffffffffffffff167f75dd618f69c0f07adc97fe19ba435f3932ce6aa8cad287fb9bdfaf37639f703a8660018673ffffffffffffffffffffffffffffffffffffffff1663f1be16796040518163ffffffff167c0100000000000000000000000000000000000000000000000000000000028152600401602060405180830381600087803b15801561597157600080fd5b505af1158015615985573d6000803e3d6000fd5b505050506040513d602081101561599b57600080fd5b8101908080519060200190929190505050604051808481526020018360048111156159c257fe5b60ff1681526020018273ffffffffffffffffffffffffffffffffffffffff1673ffffffffffffffffffffffffffffffffffffffff168152602001935050505060405180910390a460019150509392505050565b60008060009054906101000a900473ffffffffffffffffffffffffffffffffffffffff1673ffffffffffffffffffffffffffffffffffffffff163373ffffffffffffffffffffffffffffffffffffffff16141515615a7257600080fd5b7f4b6202764c3d77dc2a0c06f5b94ed9051fca8b678f707f3e514479a2bc91eb6682604051808215151515815260200191505060405180910390a160019050919050565b600080339050615ac581615c41565b1515615ad057600080fd5b8373ffffffffffffffffffffffffffffffffffffffff163373ffffffffffffffffffffffffffffffffffffffff168673ffffffffffffffffffffffffffffffffffffffff167f75dd618f69c0f07adc97fe19ba435f3932ce6aa8cad287fb9bdfaf37639f703a8660028673ffffffffffffffffffffffffffffffffffffffff1663f1be16796040518163ffffffff167c0100000000000000000000000000000000000000000000000000000000028152600401602060405180830381600087803b158015615b9d57600080fd5b505af1158015615bb1573d6000803e3d6000fd5b505050506040513d6020811015615bc757600080fd5b810190808051906020019092919050505060405180848152602001836004811115615bee57fe5b60ff1681526020018273ffffffffffffffffffffffffffffffffffffffff1673ffffffffffffffffffffffffffffffffffffffff168152602001935050505060405180910390a460019150509392505050565b6000600260008373ffffffffffffffffffffffffffffffffffffffff1673ffffffffffffffffffffffffffffffffffffffff16815260200190815260200160002060009054906101000a900460ff169050919050565b6000615ca287615013565b1515615cad57600080fd5b3373ffffffffffffffffffffffffffffffffffffffff168773ffffffffffffffffffffffffffffffffffffffff16141515615ce757600080fd5b8473ffffffffffffffffffffffffffffffffffffffff168773ffffffffffffffffffffffffffffffffffffffff168b600019167fb2e65de73007eef46316e4f18ab1f301b4d0e31aa56733387b469612f90894df8c8c8b6000604051908082528060200260200182016040528015615d6e5781602001602082028038833980820191505090505b508e73ffffffffffffffffffffffffffffffffffffffff1663ec86fdbd6040518163ffffffff167c0100000000000000000000000000000000000000000000000000000000028152600401602060405180830381600087803b158015615dd357600080fd5b505af1158015615de7573d6000803e3d6000fd5b505050506040513d6020811015615dfd57600080fd5b81019080805190602001909291905050508c8c8c6040518080602001806020018973ffffffffffffffffffffffffffffffffffffffff1673ffffffffffffffffffffffffffffffffffffffff16815260200180602001888152602001878152602001868152602001856002811115615e7157fe5b60ff16815260200184810384528c818151815260200191508051906020019080838360005b83811015615eb1578082015181840152602081019050615e96565b50505050905090810190601f168015615ede5780820380516001836020036101000a031916815260200191505b5084810383528b818151815260200191508051906020019080838360005b83811015615f17578082015181840152602081019050615efc565b50505050905090810190601f168015615f445780820380516001836020036101000a031916815260200191505b50848103825289818151815260200191508051906020019060200280838360005b83811015615f80578082015181840152602081019050615f65565b505050509050019b50505050505050505050505060405180910390a4600190509998505050505050505050565b60008060009054906101000a900473ffffffffffffffffffffffffffffffffffffffff1673ffffffffffffffffffffffffffffffffffffffff16633f08882f336040518263ffffffff167c0100000000000000000000000000000000000000000000000000000000028152600401808273ffffffffffffffffffffffffffffffffffffffff1673ffffffffffffffffffffffffffffffffffffffff168152602001915050602060405180830381600087803b15801561606b57600080fd5b505af115801561607f573d6000803e3d6000fd5b505050506040513d602081101561609557600080fd5b810190808051906020019092919050505015156160b157600080fd5b8273ffffffffffffffffffffffffffffffffffffffff168473ffffffffffffffffffffffffffffffffffffffff168673ffffffffffffffffffffffffffffffffffffffff167f349ab20f76ba930a00da1936627d07400af6bb7cd2e2b4c68bcab93ca8aff418856040518082815260200191505060405180910390a460019050949350505050565b60008061614583615013565b151561615057600080fd5b3390508273ffffffffffffffffffffffffffffffffffffffff16639f7e1bf6826040518263ffffffff167c0100000000000000000000000000000000000000000000000000000000028152600401808273ffffffffffffffffffffffffffffffffffffffff1673ffffffffffffffffffffffffffffffffffffffff168152602001915050602060405180830381600087803b1580156161ee57600080fd5b505af1158015616202573d6000803e3d6000fd5b505050506040513d602081101561621857600080fd5b8101908080519060200190929190505050151561623457600080fd5b8073ffffffffffffffffffffffffffffffffffffffff168373ffffffffffffffffffffffffffffffffffffffff167f3b4f3db017516414df2695e5b0052661779d7163a6cd4368fd74313be73fa0b860405160405180910390a36001915050919050565b60008060009054906101000a900473ffffffffffffffffffffffffffffffffffffffff1673ffffffffffffffffffffffffffffffffffffffff1663f39ec1f76040518163ffffffff167c010000000000000000000000000000000000000000000000000000000002815260040180807f54696d65000000000000000000000000000000000000000000000000000000008152506020019050602060405180830381600087803b15801561634a57600080fd5b505af115801561635e573d6000803e3d6000fd5b505050506040513d602081101561637457600080fd5b810190808051906020019092919050505073ffffffffffffffffffffffffffffffffffffffff163373ffffffffffffffffffffffffffffffffffffffff161415156163be57600080fd5b7f11dda748f0bd3af85a073da0088a0acb827d9584a4fdb825c81f1232a5309538826040518082815260200191505060405180910390a160019050919050565b600061640985615013565b151561641457600080fd5b8473ffffffffffffffffffffffffffffffffffffffff16639f7e1bf6856040518263ffffffff167c0100000000000000000000000000000000000000000000000000000000028152600401808273ffffffffffffffffffffffffffffffffffffffff1673ffffffffffffffffffffffffffffffffffffffff168152602001915050602060405180830381600087803b1580156164af57600080fd5b505af11580156164c3573d6000803e3d6000fd5b505050506040513d60208110156164d957600080fd5b810190808051906020019092919050505015156164f557600080fd5b8373ffffffffffffffffffffffffffffffffffffffff1663c7600cde6040518163ffffffff167c0100000000000000000000000000000000000000000000000000000000028152600401602060405180830381600087803b15801561655957600080fd5b505af115801561656d573d6000803e3d6000fd5b505050506040513d602081101561658357600080fd5b810190808051906020019092919050505073ffffffffffffffffffffffffffffffffffffffff163373ffffffffffffffffffffffffffffffffffffffff161415156165cd57600080fd5b8373ffffffffffffffffffffffffffffffffffffffff168573ffffffffffffffffffffffffffffffffffffffff167fee62c58e2603b92f96a002e012f4f3bd5748102cfa3b711f6d778c6237fcaa968585604051808373ffffffffffffffffffffffffffffffffffffffff1673ffffffffffffffffffffffffffffffffffffffff1681526020018273ffffffffffffffffffffffffffffffffffffffff1673ffffffffffffffffffffffffffffffffffffffff1681526020019250505060405180910390a360019050949350505050565b60006166a988615013565b15156166b457600080fd5b8773ffffffffffffffffffffffffffffffffffffffff1663f76514c7336040518263ffffffff167c0100000000000000000000000000000000000000000000000000000000028152600401808273ffffffffffffffffffffffffffffffffffffffff1673ffffffffffffffffffffffffffffffffffffffff168152602001915050602060405180830381600087803b15801561674f57600080fd5b505af1158015616763573d6000803e3d6000fd5b505050506040513d602081101561677957600080fd5b8101908080519060200190929190505050151561679557600080fd5b8573ffffffffffffffffffffffffffffffffffffffff168773ffffffffffffffffffffffffffffffffffffffff168973ffffffffffffffffffffffffffffffffffffffff167fdd0dca2d338dc86ba5431017bdf6f3ad45247d608b0a38d866e3131a876be2cc888888886040518085815260200184815260200183815260200180602001828103825283818151815260200191508051906020019060200280838360005b83811015616854578082015181840152602081019050616839565b505050509050019550505050505060405180910390a460019050979650505050505050565b60008060009054906101000a900473ffffffffffffffffffffffffffffffffffffffff1673ffffffffffffffffffffffffffffffffffffffff16633f08882f336040518263ffffffff167c0100000000000000000000000000000000000000000000000000000000028152600401808273ffffffffffffffffffffffffffffffffffffffff1673ffffffffffffffffffffffffffffffffffffffff168152602001915050602060405180830381600087803b15801561693757600080fd5b505af115801561694b573d6000803e3d6000fd5b505050506040513d602081101561696157600080fd5b8101908080519060200190929190505050151561697d57600080fd5b60008211151561698c57600080fd5b8473ffffffffffffffffffffffffffffffffffffffff166323b872dd8585856040518463ffffffff167c0100000000000000000000000000000000000000000000000000000000028152600401808473ffffffffffffffffffffffffffffffffffffffff1673ffffffffffffffffffffffffffffffffffffffff1681526020018373ffffffffffffffffffffffffffffffffffffffff1673ffffffffffffffffffffffffffffffffffffffff1681526020018281526020019350505050602060405180830381600087803b158015616a6357600080fd5b505af1158015616a77573d6000803e3d6000fd5b505050506040513d6020811015616a8d57600080fd5b81019080805190602001909291905050501515616aa957600080fd5b60019050949350505050565b6000616ac085615013565b1515616acb57600080fd5b3373ffffffffffffffffffffffffffffffffffffffff168573ffffffffffffffffffffffffffffffffffffffff1663b80907f26040518163ffffffff167c0100000000000000000000000000000000000000000000000000000000028152600401602060405180830381600087803b158015616b4657600080fd5b505af1158015616b5a573d6000803e3d6000fd5b505050506040513d6020811015616b7057600080fd5b810190808051906020019092919050505073ffffffffffffffffffffffffffffffffffffffff16141515616ba357600080fd5b8373ffffffffffffffffffffffffffffffffffffffff163373ffffffffffffffffffffffffffffffffffffffff168673ffffffffffffffffffffffffffffffffffffffff167f3c67396e9c55d2fc8ad68875fc5beca1d96ad2a2f23b210ccc1d986551ab6fdf8686600080604051808573ffffffffffffffffffffffffffffffffffffffff1673ffffffffffffffffffffffffffffffffffffffff168152602001848152602001836004811115616c5657fe5b60ff1681526020018273ffffffffffffffffffffffffffffffffffffffff16815260200194505050505060405180910390a460019050949350505050565b60008060009054906101000a900473ffffffffffffffffffffffffffffffffffffffff1673ffffffffffffffffffffffffffffffffffffffff16633f08882f336040518263ffffffff167c0100000000000000000000000000000000000000000000000000000000028152600401808273ffffffffffffffffffffffffffffffffffffffff1673ffffffffffffffffffffffffffffffffffffffff168152602001915050602060405180830381600087803b158015616d5257600080fd5b505af1158015616d66573d6000803e3d6000fd5b505050506040513d6020811015616d7c57600080fd5b81019080805190602001909291905050501515616d9857600080fd5b8273ffffffffffffffffffffffffffffffffffffffff168473ffffffffffffffffffffffffffffffffffffffff168673ffffffffffffffffffffffffffffffffffffffff167f68166bb2a567c21899b00209f52c286bf00ac613acc9f183da791ac5f5f47051856040518082815260200191505060405180910390a460019050949350505050565b60008060008060009054906101000a900473ffffffffffffffffffffffffffffffffffffffff1673ffffffffffffffffffffffffffffffffffffffff1663f39ec1f76040518163ffffffff167c010000000000000000000000000000000000000000000000000000000002815260040180807f556e697665727365466163746f727900000000000000000000000000000000008152506020019050602060405180830381600087803b158015616ed557600080fd5b505af1158015616ee9573d6000803e3d6000fd5b505050506040513d6020811015616eff57600080fd5b810190808051906020019092919050505091508173ffffffffffffffffffffffffffffffffffffffff16634837435f6000809054906101000a900473ffffffffffffffffffffffffffffffffffffffff1689896040518463ffffffff167c0100000000000000000000000000000000000000000000000000000000028152600401808473ffffffffffffffffffffffffffffffffffffffff1673ffffffffffffffffffffffffffffffffffffffff1681526020018373ffffffffffffffffffffffffffffffffffffffff1673ffffffffffffffffffffffffffffffffffffffff16815260200182600019166000191681526020019350505050602060405180830381600087803b15801561701257600080fd5b505af1158015617026573d6000803e3d6000fd5b505050506040513d602081101561703c57600080fd5b8101908080519060200190929190505050905060018060008373ffffffffffffffffffffffffffffffffffffffff1673ffffffffffffffffffffffffffffffffffffffff16815260200190815260200160002060006101000a81548160ff0219169083151502179055508073ffffffffffffffffffffffffffffffffffffffff168773ffffffffffffffffffffffffffffffffffffffff167f299eaafd0d27519eda3fe7195b73e5269e442b3d80928f19afa32b6db2f352b68787604051808060200183151515158152602001828103825284818151815260200191508051906020019060200280838360005b83811015617144578082015181840152602081019050617129565b50505050905001935050505060405180910390a380925050509493505050505600a165627a7a723058205d72b328627e618e2fa3aa9e78138aaad62261332219c373460f9a25921492210029",
  "source": "pragma solidity ^0.4.22;\n\nimport './Controlled.sol';\nimport './IAugur.sol';\nimport './libraries/token/ERC20.sol';\nimport './factories/UniverseFactory.sol';\nimport './reporting/IUniverse.sol';\nimport './reporting/IMarket.sol';\nimport './reporting/IFeeWindow.sol';\nimport './reporting/IReputationToken.sol';\nimport './reporting/IReportingParticipant.sol';\nimport './reporting/IDisputeCrowdsourcer.sol';\nimport './reporting/IInitialReporter.sol';\nimport './reporting/IMailbox.sol';\nimport './trading/IShareToken.sol';\nimport './trading/Order.sol';\n\n\n// Centralized approval authority and event emissions\ncontract Augur is Controlled, IAugur {\n\n    enum TokenType{\n        ReputationToken,\n        ShareToken,\n        DisputeCrowdsourcer,\n        FeeWindow,\n        FeeToken\n    }\n\n    event MarketCreated(bytes32 indexed topic, string description, string extraInfo, address indexed universe, address market, address indexed marketCreator, bytes32[] outcomes, uint256 marketCreationFee, int256 minPrice, int256 maxPrice, IMarket.MarketType marketType);\n    event InitialReportSubmitted(address indexed universe, address indexed reporter, address indexed market, uint256 amountStaked, bool isDesignatedReporter, uint256[] payoutNumerators, bool invalid);\n    event DisputeCrowdsourcerCreated(address indexed universe, address indexed market, address disputeCrowdsourcer, uint256[] payoutNumerators, uint256 size, bool invalid);\n    event DisputeCrowdsourcerContribution(address indexed universe, address indexed reporter, address indexed market, address disputeCrowdsourcer, uint256 amountStaked);\n    event DisputeCrowdsourcerCompleted(address indexed universe, address indexed market, address disputeCrowdsourcer);\n    event InitialReporterRedeemed(address indexed universe, address indexed reporter, address indexed market, uint256 amountRedeemed, uint256 repReceived, uint256 reportingFeesReceived, uint256[] payoutNumerators);\n    event DisputeCrowdsourcerRedeemed(address indexed universe, address indexed reporter, address indexed market, address disputeCrowdsourcer, uint256 amountRedeemed, uint256 repReceived, uint256 reportingFeesReceived, uint256[] payoutNumerators);\n    event ReportingParticipantDisavowed(address indexed universe, address indexed market, address reportingParticipant);\n    event MarketParticipantsDisavowed(address indexed universe, address indexed market);\n    event FeeWindowRedeemed(address indexed universe, address indexed reporter, address indexed feeWindow, uint256 amountRedeemed, uint256 reportingFeesReceived);\n    event MarketFinalized(address indexed universe, address indexed market);\n    event MarketMigrated(address indexed market, address indexed originalUniverse, address indexed newUniverse);\n    event UniverseForked(address indexed universe);\n    event UniverseCreated(address indexed parentUniverse, address indexed childUniverse, uint256[] payoutNumerators, bool invalid);\n    event OrderCanceled(address indexed universe, address indexed shareToken, address indexed sender, bytes32 orderId, Order.Types orderType, uint256 tokenRefund, uint256 sharesRefund);\n    // The ordering here is to match functions higher in the call chain to avoid stack depth issues\n    event OrderCreated(Order.Types orderType, uint256 amount, uint256 price, address indexed creator, uint256 moneyEscrowed, uint256 sharesEscrowed, bytes32 tradeGroupId, bytes32 orderId, address indexed universe, address indexed shareToken);\n    event OrderFilled(address indexed universe, address indexed shareToken, address filler, bytes32 orderId, uint256 numCreatorShares, uint256 numCreatorTokens, uint256 numFillerShares, uint256 numFillerTokens, uint256 marketCreatorFees, uint256 reporterFees, uint256 amountFilled, bytes32 tradeGroupId);\n    event CompleteSetsPurchased(address indexed universe, address indexed market, address indexed account, uint256 numCompleteSets);\n    event CompleteSetsSold(address indexed universe, address indexed market, address indexed account, uint256 numCompleteSets);\n    event TradingProceedsClaimed(address indexed universe, address indexed shareToken, address indexed sender, address market, uint256 numShares, uint256 numPayoutTokens, uint256 finalTokenBalance);\n    event TokensTransferred(address indexed universe, address indexed token, address indexed from, address to, uint256 value, TokenType tokenType, address market);\n    event TokensMinted(address indexed universe, address indexed token, address indexed target, uint256 amount, TokenType tokenType, address market);\n    event TokensBurned(address indexed universe, address indexed token, address indexed target, uint256 amount, TokenType tokenType, address market);\n    event FeeWindowCreated(address indexed universe, address feeWindow, uint256 startTime, uint256 endTime, uint256 id);\n    event InitialReporterTransferred(address indexed universe, address indexed market, address from, address to);\n    event MarketTransferred(address indexed universe, address indexed market, address from, address to);\n    event MarketMailboxTransferred(address indexed universe, address indexed market, address indexed mailbox, address from, address to);\n    event EscapeHatchChanged(bool isOn);\n    event TimestampSet(uint256 newTimestamp);\n\n    mapping(address => bool) private universes;\n    mapping(address => bool) private crowdsourcers;\n\n    //\n    // Universe\n    //\n\n    function createGenesisUniverse() public returns (IUniverse) {\n        return createUniverse(IUniverse(0), bytes32(0), new uint256[](0), false);\n    }\n\n    function createChildUniverse(bytes32 _parentPayoutDistributionHash, uint256[] _parentPayoutNumerators, bool _parentInvalid) public returns (IUniverse) {\n        IUniverse _parentUniverse = IUniverse(msg.sender);\n        require(isKnownUniverse(_parentUniverse));\n        return createUniverse(_parentUniverse, _parentPayoutDistributionHash, _parentPayoutNumerators, _parentInvalid);\n    }\n\n    function createUniverse(IUniverse _parentUniverse, bytes32 _parentPayoutDistributionHash, uint256[] _parentPayoutNumerators, bool _parentInvalid) private returns (IUniverse) {\n        UniverseFactory _universeFactory = UniverseFactory(controller.lookup(\"UniverseFactory\"));\n        IUniverse _newUniverse = _universeFactory.createUniverse(controller, _parentUniverse, _parentPayoutDistributionHash);\n        universes[_newUniverse] = true;\n        UniverseCreated(_parentUniverse, _newUniverse, _parentPayoutNumerators, _parentInvalid);\n        return _newUniverse;\n    }\n\n    function isKnownUniverse(IUniverse _universe) public view returns (bool) {\n        return universes[_universe];\n    }\n\n    //\n    // Crowdsourcers\n    //\n\n    function isKnownCrowdsourcer(IDisputeCrowdsourcer _crowdsourcer) public view returns (bool) {\n        return crowdsourcers[_crowdsourcer];\n    }\n\n    function disputeCrowdsourcerCreated(IUniverse _universe, address _market, address _disputeCrowdsourcer, uint256[] _payoutNumerators, uint256 _size, bool _invalid) public returns (bool) {\n        require(isKnownUniverse(_universe));\n        require(_universe.isContainerForMarket(IMarket(msg.sender)));\n        crowdsourcers[_disputeCrowdsourcer] = true;\n        DisputeCrowdsourcerCreated(_universe, _market, _disputeCrowdsourcer, _payoutNumerators, _size, _invalid);\n        return true;\n    }\n\n    //\n    // Transfer\n    //\n\n    function trustedTransfer(ERC20 _token, address _from, address _to, uint256 _amount) public onlyWhitelistedCallers returns (bool) {\n        require(_amount > 0);\n        require(_token.transferFrom(_from, _to, _amount));\n        return true;\n    }\n\n    //\n    // Logging\n    //\n\n    // This signature is intended for the categorical market creation. We use two signatures for the same event because of stack depth issues which can be circumvented by maintaining order of paramaters\n    function logMarketCreated(bytes32 _topic, string _description, string _extraInfo, IUniverse _universe, address _market, address _marketCreator, bytes32[] _outcomes, int256 _minPrice, int256 _maxPrice, IMarket.MarketType _marketType) public returns (bool) {\n        require(isKnownUniverse(_universe));\n        require(_universe == IUniverse(msg.sender));\n        MarketCreated(_topic, _description, _extraInfo, _universe, _market, _marketCreator, _outcomes, _universe.getOrCacheMarketCreationCost(), _minPrice, _maxPrice, _marketType);\n        return true;\n    }\n\n    // This signature is intended for yesNo and scalar market creation. See function comment above for explanation.\n    function logMarketCreated(bytes32 _topic, string _description, string _extraInfo, IUniverse _universe, address _market, address _marketCreator, int256 _minPrice, int256 _maxPrice, IMarket.MarketType _marketType) public returns (bool) {\n        require(isKnownUniverse(_universe));\n        require(_universe == IUniverse(msg.sender));\n        MarketCreated(_topic, _description, _extraInfo, _universe, _market, _marketCreator, new bytes32[](0), _universe.getOrCacheMarketCreationCost(), _minPrice, _maxPrice, _marketType);\n        return true;\n    }\n\n    function logInitialReportSubmitted(IUniverse _universe, address _reporter, address _market, uint256 _amountStaked, bool _isDesignatedReporter, uint256[] _payoutNumerators, bool _invalid) public returns (bool) {\n        require(isKnownUniverse(_universe));\n        require(_universe.isContainerForMarket(IMarket(msg.sender)));\n        InitialReportSubmitted(_universe, _reporter, _market, _amountStaked, _isDesignatedReporter, _payoutNumerators, _invalid);\n        return true;\n    }\n\n    function logDisputeCrowdsourcerContribution(IUniverse _universe, address _reporter, address _market, address _disputeCrowdsourcer, uint256 _amountStaked) public returns (bool) {\n        require(isKnownUniverse(_universe));\n        require(_universe.isContainerForMarket(IMarket(msg.sender)));\n        DisputeCrowdsourcerContribution(_universe, _reporter, _market, _disputeCrowdsourcer, _amountStaked);\n        return true;\n    }\n\n    function logDisputeCrowdsourcerCompleted(IUniverse _universe, address _market, address _disputeCrowdsourcer) public returns (bool) {\n        require(isKnownUniverse(_universe));\n        require(_universe.isContainerForMarket(IMarket(msg.sender)));\n        DisputeCrowdsourcerCompleted(_universe, _market, _disputeCrowdsourcer);\n        return true;\n    }\n\n    function logInitialReporterRedeemed(IUniverse _universe, address _reporter, address _market, uint256 _amountRedeemed, uint256 _repReceived, uint256 _reportingFeesReceived, uint256[] _payoutNumerators) public returns (bool) {\n        require(isKnownUniverse(_universe));\n        require(_universe.isContainerForReportingParticipant(IReportingParticipant(msg.sender)));\n        InitialReporterRedeemed(_universe, _reporter, _market, _amountRedeemed, _repReceived, _reportingFeesReceived, _payoutNumerators);\n        return true;\n    }\n\n    function logDisputeCrowdsourcerRedeemed(IUniverse _universe, address _reporter, address _market, uint256 _amountRedeemed, uint256 _repReceived, uint256 _reportingFeesReceived, uint256[] _payoutNumerators) public returns (bool) {\n        IDisputeCrowdsourcer _disputeCrowdsourcer = IDisputeCrowdsourcer(msg.sender);\n        require(isKnownCrowdsourcer(_disputeCrowdsourcer));\n        DisputeCrowdsourcerRedeemed(_universe, _reporter, _market, _disputeCrowdsourcer, _amountRedeemed, _repReceived, _reportingFeesReceived, _payoutNumerators);\n        return true;\n    }\n\n    function logReportingParticipantDisavowed(IUniverse _universe, IMarket _market) public returns (bool) {\n        require(isKnownUniverse(_universe));\n        require(_universe.isContainerForReportingParticipant(IReportingParticipant(msg.sender)));\n        ReportingParticipantDisavowed(_universe, _market, msg.sender);\n        return true;\n    }\n\n    function logMarketParticipantsDisavowed(IUniverse _universe) public returns (bool) {\n        require(isKnownUniverse(_universe));\n        IMarket _market = IMarket(msg.sender);\n        require(_universe.isContainerForMarket(_market));\n        MarketParticipantsDisavowed(_universe, _market);\n        return true;\n    }\n\n    function logFeeWindowRedeemed(IUniverse _universe, address _reporter, uint256 _amountRedeemed, uint256 _reportingFeesReceived) public returns (bool) {\n        require(isKnownUniverse(_universe));\n        require(_universe.isContainerForFeeWindow(IFeeWindow(msg.sender)));\n        FeeWindowRedeemed(_universe, _reporter, msg.sender, _amountRedeemed, _reportingFeesReceived);\n        return true;\n    }\n\n    function logMarketFinalized(IUniverse _universe) public returns (bool) {\n        require(isKnownUniverse(_universe));\n        IMarket _market = IMarket(msg.sender);\n        require(_universe.isContainerForMarket(_market));\n        MarketFinalized(_universe, _market);\n        return true;\n    }\n\n    function logMarketMigrated(IMarket _market, IUniverse _originalUniverse) public returns (bool) {\n        IUniverse _newUniverse = IUniverse(msg.sender);\n        require(isKnownUniverse(_newUniverse));\n        MarketMigrated(_market, _originalUniverse, _newUniverse);\n        return true;\n    }\n\n    function logOrderCanceled(IUniverse _universe, address _shareToken, address _sender, bytes32 _orderId, Order.Types _orderType, uint256 _tokenRefund, uint256 _sharesRefund) public onlyWhitelistedCallers returns (bool) {\n        OrderCanceled(_universe, _shareToken, _sender, _orderId, _orderType, _tokenRefund, _sharesRefund);\n        return true;\n    }\n\n    function logOrderCreated(Order.Types _orderType, uint256 _amount, uint256 _price, address _creator, uint256 _moneyEscrowed, uint256 _sharesEscrowed, bytes32 _tradeGroupId, bytes32 _orderId, IUniverse _universe, address _shareToken) public onlyWhitelistedCallers returns (bool) {\n        OrderCreated(_orderType, _amount, _price, _creator, _moneyEscrowed, _sharesEscrowed, _tradeGroupId, _orderId, _universe, _shareToken);\n        return true;\n    }\n\n    function logOrderFilled(IUniverse _universe, address _shareToken, address _filler, bytes32 _orderId, uint256 _numCreatorShares, uint256 _numCreatorTokens, uint256 _numFillerShares, uint256 _numFillerTokens, uint256 _marketCreatorFees, uint256 _reporterFees, uint256 _amountFilled, bytes32 _tradeGroupId) public onlyWhitelistedCallers returns (bool) {\n        OrderFilled(_universe, _shareToken, _filler, _orderId, _numCreatorShares, _numCreatorTokens, _numFillerShares, _numFillerTokens, _marketCreatorFees, _reporterFees, _amountFilled, _tradeGroupId);\n        return true;\n    }\n\n    function logCompleteSetsPurchased(IUniverse _universe, IMarket _market, address _account, uint256 _numCompleteSets) public onlyWhitelistedCallers returns (bool) {\n        CompleteSetsPurchased(_universe, _market, _account, _numCompleteSets);\n        return true;\n    }\n\n    function logCompleteSetsSold(IUniverse _universe, IMarket _market, address _account, uint256 _numCompleteSets) public onlyWhitelistedCallers returns (bool) {\n        CompleteSetsSold(_universe, _market, _account, _numCompleteSets);\n        return true;\n    }\n\n    function logTradingProceedsClaimed(IUniverse _universe, address _shareToken, address _sender, address _market, uint256 _numShares, uint256 _numPayoutTokens, uint256 _finalTokenBalance) public onlyWhitelistedCallers returns (bool) {\n        TradingProceedsClaimed(_universe, _shareToken, _sender, _market, _numShares, _numPayoutTokens, _finalTokenBalance);\n        return true;\n    }\n\n    function logUniverseForked() public returns (bool) {\n        require(universes[msg.sender]);\n        UniverseForked(msg.sender);\n        return true;\n    }\n\n    function logFeeWindowTransferred(IUniverse _universe, address _from, address _to, uint256 _value) public returns (bool) {\n        require(isKnownUniverse(_universe));\n        require(_universe.isContainerForFeeWindow(IFeeWindow(msg.sender)));\n        TokensTransferred(_universe, msg.sender, _from, _to, _value, TokenType.FeeWindow, 0);\n        return true;\n    }\n\n    function logReputationTokensTransferred(IUniverse _universe, address _from, address _to, uint256 _value) public returns (bool) {\n        require(isKnownUniverse(_universe));\n        require(_universe.getReputationToken() == IReputationToken(msg.sender));\n        TokensTransferred(_universe, msg.sender, _from, _to, _value, TokenType.ReputationToken, 0);\n        return true;\n    }\n\n    function logDisputeCrowdsourcerTokensTransferred(IUniverse _universe, address _from, address _to, uint256 _value) public returns (bool) {\n        IDisputeCrowdsourcer _disputeCrowdsourcer = IDisputeCrowdsourcer(msg.sender);\n        require(isKnownCrowdsourcer(_disputeCrowdsourcer));\n        TokensTransferred(_universe, msg.sender, _from, _to, _value, TokenType.DisputeCrowdsourcer, _disputeCrowdsourcer.getMarket());\n        return true;\n    }\n\n    function logShareTokensTransferred(IUniverse _universe, address _from, address _to, uint256 _value) public returns (bool) {\n        require(isKnownUniverse(_universe));\n        IShareToken _shareToken = IShareToken(msg.sender);\n        require(_universe.isContainerForShareToken(_shareToken));\n        TokensTransferred(_universe, msg.sender, _from, _to, _value, TokenType.ShareToken, _shareToken.getMarket());\n        return true;\n    }\n\n    function logReputationTokenBurned(IUniverse _universe, address _target, uint256 _amount) public returns (bool) {\n        require(isKnownUniverse(_universe));\n        require(_universe.getReputationToken() == IReputationToken(msg.sender));\n        TokensBurned(_universe, msg.sender, _target, _amount, TokenType.ReputationToken, 0);\n        return true;\n    }\n\n    function logReputationTokenMinted(IUniverse _universe, address _target, uint256 _amount) public returns (bool) {\n        require(isKnownUniverse(_universe));\n        require(_universe.getReputationToken() == IReputationToken(msg.sender));\n        TokensMinted(_universe, msg.sender, _target, _amount, TokenType.ReputationToken, 0);\n        return true;\n    }\n\n    function logShareTokenBurned(IUniverse _universe, address _target, uint256 _amount) public returns (bool) {\n        require(isKnownUniverse(_universe));\n        IShareToken _shareToken = IShareToken(msg.sender);\n        require(_universe.isContainerForShareToken(_shareToken));\n        TokensBurned(_universe, msg.sender, _target, _amount, TokenType.ShareToken, _shareToken.getMarket());\n        return true;\n    }\n\n    function logShareTokenMinted(IUniverse _universe, address _target, uint256 _amount) public returns (bool) {\n        require(isKnownUniverse(_universe));\n        IShareToken _shareToken = IShareToken(msg.sender);\n        require(_universe.isContainerForShareToken(_shareToken));\n        TokensMinted(_universe, msg.sender, _target, _amount, TokenType.ShareToken, _shareToken.getMarket());\n        return true;\n    }\n\n    function logFeeWindowBurned(IUniverse _universe, address _target, uint256 _amount) public returns (bool) {\n        require(isKnownUniverse(_universe));\n        require(_universe.isContainerForFeeWindow(IFeeWindow(msg.sender)));\n        TokensBurned(_universe, msg.sender, _target, _amount, TokenType.FeeWindow, 0);\n        return true;\n    }\n\n    function logFeeWindowMinted(IUniverse _universe, address _target, uint256 _amount) public returns (bool) {\n        require(isKnownUniverse(_universe));\n        require(_universe.isContainerForFeeWindow(IFeeWindow(msg.sender)));\n        TokensMinted(_universe, msg.sender, _target, _amount, TokenType.FeeWindow, 0);\n        return true;\n    }\n\n    function logDisputeCrowdsourcerTokensBurned(IUniverse _universe, address _target, uint256 _amount) public returns (bool) {\n        IDisputeCrowdsourcer _disputeCrowdsourcer = IDisputeCrowdsourcer(msg.sender);\n        require(isKnownCrowdsourcer(_disputeCrowdsourcer));\n        TokensBurned(_universe, msg.sender, _target, _amount, TokenType.DisputeCrowdsourcer, _disputeCrowdsourcer.getMarket());\n        return true;\n    }\n\n    function logDisputeCrowdsourcerTokensMinted(IUniverse _universe, address _target, uint256 _amount) public returns (bool) {\n        IDisputeCrowdsourcer _disputeCrowdsourcer = IDisputeCrowdsourcer(msg.sender);\n        require(isKnownCrowdsourcer(_disputeCrowdsourcer));\n        TokensMinted(_universe, msg.sender, _target, _amount, TokenType.DisputeCrowdsourcer, _disputeCrowdsourcer.getMarket());\n        return true;\n    }\n\n    function logFeeWindowCreated(IFeeWindow _feeWindow, uint256 _id) public returns (bool) {\n        require(universes[msg.sender]);\n        FeeWindowCreated(msg.sender, _feeWindow, _feeWindow.getStartTime(), _feeWindow.getEndTime(), _id);\n        return true;\n    }\n\n    function logFeeTokenTransferred(IUniverse _universe, address _from, address _to, uint256 _value) public returns (bool) {\n        require(isKnownUniverse(_universe));\n        require(_universe.isContainerForFeeToken(IFeeToken(msg.sender)));\n        TokensTransferred(_universe, msg.sender, _from, _to, _value, TokenType.FeeToken, 0);\n        return true;\n    }\n\n    function logFeeTokenBurned(IUniverse _universe, address _target, uint256 _amount) public returns (bool) {\n        require(isKnownUniverse(_universe));\n        require(_universe.isContainerForFeeToken(IFeeToken(msg.sender)));\n        TokensBurned(_universe, msg.sender, _target, _amount, TokenType.FeeToken, 0);\n        return true;\n    }\n\n    function logFeeTokenMinted(IUniverse _universe, address _target, uint256 _amount) public returns (bool) {\n        require(isKnownUniverse(_universe));\n        require(_universe.isContainerForFeeToken(IFeeToken(msg.sender)));\n        TokensMinted(_universe, msg.sender, _target, _amount, TokenType.FeeToken, 0);\n        return true;\n    }\n\n    function logTimestampSet(uint256 _newTimestamp) public returns (bool) {\n        require(msg.sender == controller.lookup(\"Time\"));\n        TimestampSet(_newTimestamp);\n        return true;\n    }\n\n    function logInitialReporterTransferred(IUniverse _universe, IMarket _market, address _from, address _to) public returns (bool) {\n        require(isKnownUniverse(_universe));\n        require(_universe.isContainerForMarket(_market));\n        require(msg.sender == _market.getInitialReporterAddress());\n        InitialReporterTransferred(_universe, _market, _from, _to);\n        return true;\n    }\n\n    function logMarketTransferred(IUniverse _universe, address _from, address _to) public returns (bool) {\n        require(isKnownUniverse(_universe));\n        IMarket _market = IMarket(msg.sender);\n        require(_universe.isContainerForMarket(_market));\n        MarketTransferred(_universe, _market, _from, _to);\n        return true;\n    }\n\n    function logMarketMailboxTransferred(IUniverse _universe, IMarket _market, address _from, address _to) public returns (bool) {\n        require(isKnownUniverse(_universe));\n        require(_universe.isContainerForMarket(_market));\n        require(IMailbox(msg.sender) == _market.getMarketCreatorMailbox());\n        MarketMailboxTransferred(_universe, _market, msg.sender, _from, _to);\n        return true;\n    }\n\n    function logEscapeHatchChanged(bool _isOn) public returns (bool) {\n        require(msg.sender == address(controller));\n        EscapeHatchChanged(_isOn);\n        return true;\n    }\n}\n",
  "sourcePath": "/Users/jasperdegooijer/Documents/eth-berlin/market-oracle/libraries/augur/source/contracts/Augur.sol",
  "compiler": {
    "name": "solc",
    "version": "0.4.24+commit.e67f0147.Emscripten.clang"
  },
  "schemaVersion": "3.0.13",
  "updatedAt": "2019-08-25T06:22:07.674Z",
  "devdoc": {
    "methods": {}
  },
  "userdoc": {
    "methods": {}
  }
}