{
  "contractName": "CompleteSets",
  "abi": [
    {
      "constant": true,
      "inputs": [],
      "name": "getController",
      "outputs": [
        {
          "name": "",
          "type": "address"
        }
      ],
      "payable": false,
      "stateMutability": "view",
      "type": "function"
    },
    {
      "constant": false,
      "inputs": [
        {
          "name": "_controller",
          "type": "address"
        }
      ],
      "name": "setController",
      "outputs": [
        {
          "name": "",
          "type": "bool"
        }
      ],
      "payable": false,
      "stateMutability": "nonpayable",
      "type": "function"
    },
    {
      "constant": false,
      "inputs": [
        {
          "name": "_market",
          "type": "address"
        },
        {
          "name": "_amount",
          "type": "uint256"
        }
      ],
      "name": "publicBuyCompleteSets",
      "outputs": [
        {
          "name": "",
          "type": "bool"
        }
      ],
      "payable": true,
      "stateMutability": "payable",
      "type": "function"
    },
    {
      "constant": false,
      "inputs": [
        {
          "name": "_market",
          "type": "address"
        },
        {
          "name": "_amount",
          "type": "uint256"
        }
      ],
      "name": "publicBuyCompleteSetsWithCash",
      "outputs": [
        {
          "name": "",
          "type": "bool"
        }
      ],
      "payable": false,
      "stateMutability": "nonpayable",
      "type": "function"
    },
    {
      "constant": false,
      "inputs": [
        {
          "name": "_sender",
          "type": "address"
        },
        {
          "name": "_market",
          "type": "address"
        },
        {
          "name": "_amount",
          "type": "uint256"
        }
      ],
      "name": "buyCompleteSets",
      "outputs": [
        {
          "name": "",
          "type": "bool"
        }
      ],
      "payable": false,
      "stateMutability": "nonpayable",
      "type": "function"
    },
    {
      "constant": false,
      "inputs": [
        {
          "name": "_market",
          "type": "address"
        },
        {
          "name": "_amount",
          "type": "uint256"
        }
      ],
      "name": "publicSellCompleteSets",
      "outputs": [
        {
          "name": "",
          "type": "bool"
        }
      ],
      "payable": false,
      "stateMutability": "nonpayable",
      "type": "function"
    },
    {
      "constant": false,
      "inputs": [
        {
          "name": "_market",
          "type": "address"
        },
        {
          "name": "_amount",
          "type": "uint256"
        }
      ],
      "name": "publicSellCompleteSetsWithCash",
      "outputs": [
        {
          "name": "",
          "type": "bool"
        }
      ],
      "payable": false,
      "stateMutability": "nonpayable",
      "type": "function"
    },
    {
      "constant": false,
      "inputs": [
        {
          "name": "_sender",
          "type": "address"
        },
        {
          "name": "_market",
          "type": "address"
        },
        {
          "name": "_amount",
          "type": "uint256"
        }
      ],
      "name": "sellCompleteSets",
      "outputs": [
        {
          "name": "_creatorFee",
          "type": "uint256"
        },
        {
          "name": "_reportingFee",
          "type": "uint256"
        }
      ],
      "payable": false,
      "stateMutability": "nonpayable",
      "type": "function"
    }
  ],
  "bytecode": "0x608060405260008060146101000a81548160ff021916908315150217905550336000806101000a81548173ffffffffffffffffffffffffffffffffffffffff021916908373ffffffffffffffffffffffffffffffffffffffff16021790555061454b8061006d6000396000f30060806040526004361061008e576000357c0100000000000000000000000000000000000000000000000000000000900463ffffffff1680632054279e146100935780632bb66c48146100f85780633018205f146101805780637d8ec2cf146101d757806392eefe9b1461023c578063aa48db2014610297578063abb60c801461031c578063ad16158e14610374575b600080fd5b34801561009f57600080fd5b506100de600480360381019080803573ffffffffffffffffffffffffffffffffffffffff169060200190929190803590602001909291905050506103d9565b604051808215151515815260200191505060405180910390f35b34801561010457600080fd5b50610163600480360381019080803573ffffffffffffffffffffffffffffffffffffffff169060200190929190803573ffffffffffffffffffffffffffffffffffffffff16906020019092919080359060200190929190505050610c2e565b604051808381526020018281526020019250505060405180910390f35b34801561018c57600080fd5b50610195611ad2565b604051808273ffffffffffffffffffffffffffffffffffffffff1673ffffffffffffffffffffffffffffffffffffffff16815260200191505060405180910390f35b3480156101e357600080fd5b50610222600480360381019080803573ffffffffffffffffffffffffffffffffffffffff16906020019092919080359060200190929190505050611afb565b604051808215151515815260200191505060405180910390f35b34801561024857600080fd5b5061027d600480360381019080803573ffffffffffffffffffffffffffffffffffffffff16906020019092919050505061235a565b604051808215151515815260200191505060405180910390f35b3480156102a357600080fd5b50610302600480360381019080803573ffffffffffffffffffffffffffffffffffffffff169060200190929190803573ffffffffffffffffffffffffffffffffffffffff16906020019092919080359060200190929190505050612400565b604051808215151515815260200191505060405180910390f35b61035a600480360381019080803573ffffffffffffffffffffffffffffffffffffffff16906020019092919080359060200190929190505050612d3f565b604051808215151515815260200191505060405180910390f35b34801561038057600080fd5b506103bf600480360381019080803573ffffffffffffffffffffffffffffffffffffffff169060200190929190803590602001909291905050506135a6565b604051808215151515815260200191505060405180910390f35b60008260008173ffffffffffffffffffffffffffffffffffffffff1663870c426d6040518163ffffffff167c0100000000000000000000000000000000000000000000000000000000028152600401602060405180830381600087803b15801561044257600080fd5b505af1158015610456573d6000803e3d6000fd5b505050506040513d602081101561046c57600080fd5b810190808051906020019092919050505090506000809054906101000a900473ffffffffffffffffffffffffffffffffffffffff1673ffffffffffffffffffffffffffffffffffffffff16634e94c8296040518163ffffffff167c0100000000000000000000000000000000000000000000000000000000028152600401602060405180830381600087803b15801561050457600080fd5b505af1158015610518573d6000803e3d6000fd5b505050506040513d602081101561052e57600080fd5b810190808051906020019092919050505073ffffffffffffffffffffffffffffffffffffffff16638cfb8f21826040518263ffffffff167c0100000000000000000000000000000000000000000000000000000000028152600401808273ffffffffffffffffffffffffffffffffffffffff1673ffffffffffffffffffffffffffffffffffffffff168152602001915050602060405180830381600087803b1580156105d957600080fd5b505af11580156105ed573d6000803e3d6000fd5b505050506040513d602081101561060357600080fd5b8101908080519060200190929190505050151561061f57600080fd5b8073ffffffffffffffffffffffffffffffffffffffff16639f7e1bf6836040518263ffffffff167c0100000000000000000000000000000000000000000000000000000000028152600401808273ffffffffffffffffffffffffffffffffffffffff1673ffffffffffffffffffffffffffffffffffffffff168152602001915050602060405180830381600087803b1580156106ba57600080fd5b505af11580156106ce573d6000803e3d6000fd5b505050506040513d60208110156106e457600080fd5b8101908080519060200190929190505050151561070057600080fd5b6000809054906101000a900473ffffffffffffffffffffffffffffffffffffffff1673ffffffffffffffffffffffffffffffffffffffff166322763ae16040518163ffffffff167c0100000000000000000000000000000000000000000000000000000000028152600401602060405180830381600087803b15801561078557600080fd5b505af1158015610799573d6000803e3d6000fd5b505050506040513d60208110156107af57600080fd5b810190808051906020019092919050505015156107cb57600080fd5b3073ffffffffffffffffffffffffffffffffffffffff1663aa48db203387876040518463ffffffff167c0100000000000000000000000000000000000000000000000000000000028152600401808473ffffffffffffffffffffffffffffffffffffffff1673ffffffffffffffffffffffffffffffffffffffff1681526020018373ffffffffffffffffffffffffffffffffffffffff1673ffffffffffffffffffffffffffffffffffffffff1681526020018281526020019350505050602060405180830381600087803b1580156108a257600080fd5b505af11580156108b6573d6000803e3d6000fd5b505050506040513d60208110156108cc57600080fd5b8101908080519060200190929190505050506000809054906101000a900473ffffffffffffffffffffffffffffffffffffffff1673ffffffffffffffffffffffffffffffffffffffff16634e94c8296040518163ffffffff167c0100000000000000000000000000000000000000000000000000000000028152600401602060405180830381600087803b15801561096357600080fd5b505af1158015610977573d6000803e3d6000fd5b505050506040513d602081101561098d57600080fd5b810190808051906020019092919050505073ffffffffffffffffffffffffffffffffffffffff1663c509d0b28673ffffffffffffffffffffffffffffffffffffffff1663870c426d6040518163ffffffff167c0100000000000000000000000000000000000000000000000000000000028152600401602060405180830381600087803b158015610a1d57600080fd5b505af1158015610a31573d6000803e3d6000fd5b505050506040513d6020811015610a4757600080fd5b81019080805190602001909291905050508733886040518563ffffffff167c0100000000000000000000000000000000000000000000000000000000028152600401808573ffffffffffffffffffffffffffffffffffffffff1673ffffffffffffffffffffffffffffffffffffffff1681526020018473ffffffffffffffffffffffffffffffffffffffff1673ffffffffffffffffffffffffffffffffffffffff1681526020018373ffffffffffffffffffffffffffffffffffffffff1673ffffffffffffffffffffffffffffffffffffffff168152602001828152602001945050505050602060405180830381600087803b158015610b4657600080fd5b505af1158015610b5a573d6000803e3d6000fd5b505050506040513d6020811015610b7057600080fd5b8101908080519060200190929190505050508473ffffffffffffffffffffffffffffffffffffffff1663a0695f246040518163ffffffff167c0100000000000000000000000000000000000000000000000000000000028152600401602060405180830381600087803b158015610be657600080fd5b505af1158015610bfa573d6000803e3d6000fd5b505050506040513d6020811015610c1057600080fd5b81019080805190602001909291905050505060019250505092915050565b6000806000806000806000806000809054906101000a900473ffffffffffffffffffffffffffffffffffffffff1673ffffffffffffffffffffffffffffffffffffffff16633f08882f336040518263ffffffff167c0100000000000000000000000000000000000000000000000000000000028152600401808273ffffffffffffffffffffffffffffffffffffffff1673ffffffffffffffffffffffffffffffffffffffff168152602001915050602060405180830381600087803b158015610cf657600080fd5b505af1158015610d0a573d6000803e3d6000fd5b505050506040513d6020811015610d2057600080fd5b81019080805190602001909291905050501515610d3c57600080fd5b600060149054906101000a900460ff16151515610d5857600080fd5b6001600060146101000a81548160ff021916908315150217905550600073ffffffffffffffffffffffffffffffffffffffff168b73ffffffffffffffffffffffffffffffffffffffff1614151515610daf57600080fd5b8973ffffffffffffffffffffffffffffffffffffffff166327ce5b8c6040518163ffffffff167c0100000000000000000000000000000000000000000000000000000000028152600401602060405180830381600087803b158015610e1357600080fd5b505af1158015610e27573d6000803e3d6000fd5b505050506040513d6020811015610e3d57600080fd5b810190808051906020019092919050505095508973ffffffffffffffffffffffffffffffffffffffff1663df2a29da6040518163ffffffff167c0100000000000000000000000000000000000000000000000000000000028152600401602060405180830381600087803b158015610eb457600080fd5b505af1158015610ec8573d6000803e3d6000fd5b505050506040513d6020811015610ede57600080fd5b81019080805190602001909291905050509450610fa28a73ffffffffffffffffffffffffffffffffffffffff1663bad84c9e6040518163ffffffff167c0100000000000000000000000000000000000000000000000000000000028152600401602060405180830381600087803b158015610f5857600080fd5b505af1158015610f6c573d6000803e3d6000fd5b505050506040513d6020811015610f8257600080fd5b81019080805190602001909291905050508a613e1790919063ffffffff16565b93508973ffffffffffffffffffffffffffffffffffffffff16638d4e40836040518163ffffffff167c0100000000000000000000000000000000000000000000000000000000028152600401602060405180830381600087803b15801561100857600080fd5b505af115801561101c573d6000803e3d6000fd5b505050506040513d602081101561103257600080fd5b81019080805190602001909291905050501515611193578973ffffffffffffffffffffffffffffffffffffffff1663870c426d6040518163ffffffff167c0100000000000000000000000000000000000000000000000000000000028152600401602060405180830381600087803b1580156110ad57600080fd5b505af11580156110c1573d6000803e3d6000fd5b505050506040513d60208110156110d757600080fd5b810190808051906020019092919050505073ffffffffffffffffffffffffffffffffffffffff1663b62418a1856040518263ffffffff167c010000000000000000000000000000000000000000000000000000000002815260040180828152602001915050602060405180830381600087803b15801561115657600080fd5b505af115801561116a573d6000803e3d6000fd5b505050506040513d602081101561118057600080fd5b8101908080519060200190929190505050505b8973ffffffffffffffffffffffffffffffffffffffff1663f8c52125856040518263ffffffff167c010000000000000000000000000000000000000000000000000000000002815260040180828152602001915050602060405180830381600087803b15801561120257600080fd5b505af1158015611216573d6000803e3d6000fd5b505050506040513d602081101561122c57600080fd5b810190808051906020019092919050505097508973ffffffffffffffffffffffffffffffffffffffff1663870c426d6040518163ffffffff167c0100000000000000000000000000000000000000000000000000000000028152600401602060405180830381600087803b1580156112a357600080fd5b505af11580156112b7573d6000803e3d6000fd5b505050506040513d60208110156112cd57600080fd5b810190808051906020019092919050505073ffffffffffffffffffffffffffffffffffffffff16638f93bffe6040518163ffffffff167c0100000000000000000000000000000000000000000000000000000000028152600401602060405180830381600087803b15801561134157600080fd5b505af1158015611355573d6000803e3d6000fd5b505050506040513d602081101561136b57600080fd5b810190808051906020019092919050505092506113918385613e4d90919063ffffffff16565b96506113b8876113aa8a87613e6890919063ffffffff16565b613e6890919063ffffffff16565b9350600091505b8582101561155a578973ffffffffffffffffffffffffffffffffffffffff166365957bf5836040518263ffffffff167c010000000000000000000000000000000000000000000000000000000002815260040180828152602001915050602060405180830381600087803b15801561143657600080fd5b505af115801561144a573d6000803e3d6000fd5b505050506040513d602081101561146057600080fd5b810190808051906020019092919050505073ffffffffffffffffffffffffffffffffffffffff1663d333d7cf8c8b6040518363ffffffff167c0100000000000000000000000000000000000000000000000000000000028152600401808373ffffffffffffffffffffffffffffffffffffffff1673ffffffffffffffffffffffffffffffffffffffff16815260200182815260200192505050602060405180830381600087803b15801561151357600080fd5b505af1158015611527573d6000803e3d6000fd5b505050506040513d602081101561153d57600080fd5b8101908080519060200190929190505050508160010191506113bf565b600088141515611720578473ffffffffffffffffffffffffffffffffffffffff166323b872dd8b8c73ffffffffffffffffffffffffffffffffffffffff1663ed23378b6040518163ffffffff167c0100000000000000000000000000000000000000000000000000000000028152600401602060405180830381600087803b1580156115e557600080fd5b505af11580156115f9573d6000803e3d6000fd5b505050506040513d602081101561160f57600080fd5b81019080805190602001909291905050508b6040518463ffffffff167c0100000000000000000000000000000000000000000000000000000000028152600401808473ffffffffffffffffffffffffffffffffffffffff1673ffffffffffffffffffffffffffffffffffffffff1681526020018373ffffffffffffffffffffffffffffffffffffffff1673ffffffffffffffffffffffffffffffffffffffff1681526020018281526020019350505050602060405180830381600087803b1580156116d957600080fd5b505af11580156116ed573d6000803e3d6000fd5b505050506040513d602081101561170357600080fd5b8101908080519060200190929190505050151561171f57600080fd5b5b600087141515611987578973ffffffffffffffffffffffffffffffffffffffff1663870c426d6040518163ffffffff167c0100000000000000000000000000000000000000000000000000000000028152600401602060405180830381600087803b15801561178e57600080fd5b505af11580156117a2573d6000803e3d6000fd5b505050506040513d60208110156117b857600080fd5b810190808051906020019092919050505073ffffffffffffffffffffffffffffffffffffffff16630cc8c9af6040518163ffffffff167c0100000000000000000000000000000000000000000000000000000000028152600401602060405180830381600087803b15801561182c57600080fd5b505af1158015611840573d6000803e3d6000fd5b505050506040513d602081101561185657600080fd5b810190808051906020019092919050505090508473ffffffffffffffffffffffffffffffffffffffff166323b872dd8b838a6040518463ffffffff167c0100000000000000000000000000000000000000000000000000000000028152600401808473ffffffffffffffffffffffffffffffffffffffff1673ffffffffffffffffffffffffffffffffffffffff1681526020018373ffffffffffffffffffffffffffffffffffffffff1673ffffffffffffffffffffffffffffffffffffffff1681526020018281526020019350505050602060405180830381600087803b15801561194057600080fd5b505af1158015611954573d6000803e3d6000fd5b505050506040513d602081101561196a57600080fd5b8101908080519060200190929190505050151561198657600080fd5b5b8473ffffffffffffffffffffffffffffffffffffffff166323b872dd8b8d876040518463ffffffff167c0100000000000000000000000000000000000000000000000000000000028152600401808473ffffffffffffffffffffffffffffffffffffffff1673ffffffffffffffffffffffffffffffffffffffff1681526020018373ffffffffffffffffffffffffffffffffffffffff1673ffffffffffffffffffffffffffffffffffffffff1681526020018281526020019350505050602060405180830381600087803b158015611a5e57600080fd5b505af1158015611a72573d6000803e3d6000fd5b505050506040513d6020811015611a8857600080fd5b81019080805190602001909291905050501515611aa457600080fd5b87879750975060008060146101000a81548160ff021916908315150217905550505050505050935093915050565b60008060009054906101000a900473ffffffffffffffffffffffffffffffffffffffff16905090565b60008260008173ffffffffffffffffffffffffffffffffffffffff1663870c426d6040518163ffffffff167c0100000000000000000000000000000000000000000000000000000000028152600401602060405180830381600087803b158015611b6457600080fd5b505af1158015611b78573d6000803e3d6000fd5b505050506040513d6020811015611b8e57600080fd5b810190808051906020019092919050505090506000809054906101000a900473ffffffffffffffffffffffffffffffffffffffff1673ffffffffffffffffffffffffffffffffffffffff16634e94c8296040518163ffffffff167c0100000000000000000000000000000000000000000000000000000000028152600401602060405180830381600087803b158015611c2657600080fd5b505af1158015611c3a573d6000803e3d6000fd5b505050506040513d6020811015611c5057600080fd5b810190808051906020019092919050505073ffffffffffffffffffffffffffffffffffffffff16638cfb8f21826040518263ffffffff167c0100000000000000000000000000000000000000000000000000000000028152600401808273ffffffffffffffffffffffffffffffffffffffff1673ffffffffffffffffffffffffffffffffffffffff168152602001915050602060405180830381600087803b158015611cfb57600080fd5b505af1158015611d0f573d6000803e3d6000fd5b505050506040513d6020811015611d2557600080fd5b81019080805190602001909291905050501515611d4157600080fd5b8073ffffffffffffffffffffffffffffffffffffffff16639f7e1bf6836040518263ffffffff167c0100000000000000000000000000000000000000000000000000000000028152600401808273ffffffffffffffffffffffffffffffffffffffff1673ffffffffffffffffffffffffffffffffffffffff168152602001915050602060405180830381600087803b158015611ddc57600080fd5b505af1158015611df0573d6000803e3d6000fd5b505050506040513d6020811015611e0657600080fd5b81019080805190602001909291905050501515611e2257600080fd5b6000809054906101000a900473ffffffffffffffffffffffffffffffffffffffff1673ffffffffffffffffffffffffffffffffffffffff166322763ae16040518163ffffffff167c0100000000000000000000000000000000000000000000000000000000028152600401602060405180830381600087803b158015611ea757600080fd5b505af1158015611ebb573d6000803e3d6000fd5b505050506040513d6020811015611ed157600080fd5b81019080805190602001909291905050501515611eed57600080fd5b3073ffffffffffffffffffffffffffffffffffffffff16632bb66c483387876040518463ffffffff167c0100000000000000000000000000000000000000000000000000000000028152600401808473ffffffffffffffffffffffffffffffffffffffff1673ffffffffffffffffffffffffffffffffffffffff1681526020018373ffffffffffffffffffffffffffffffffffffffff1673ffffffffffffffffffffffffffffffffffffffff16815260200182815260200193505050506040805180830381600087803b158015611fc357600080fd5b505af1158015611fd7573d6000803e3d6000fd5b505050506040513d6040811015611fed57600080fd5b81019080805190602001909291908051906020019092919050505050506000809054906101000a900473ffffffffffffffffffffffffffffffffffffffff1673ffffffffffffffffffffffffffffffffffffffff16634e94c8296040518163ffffffff167c0100000000000000000000000000000000000000000000000000000000028152600401602060405180830381600087803b15801561208f57600080fd5b505af11580156120a3573d6000803e3d6000fd5b505050506040513d60208110156120b957600080fd5b810190808051906020019092919050505073ffffffffffffffffffffffffffffffffffffffff1663ed654fd78673ffffffffffffffffffffffffffffffffffffffff1663870c426d6040518163ffffffff167c0100000000000000000000000000000000000000000000000000000000028152600401602060405180830381600087803b15801561214957600080fd5b505af115801561215d573d6000803e3d6000fd5b505050506040513d602081101561217357600080fd5b81019080805190602001909291905050508733886040518563ffffffff167c0100000000000000000000000000000000000000000000000000000000028152600401808573ffffffffffffffffffffffffffffffffffffffff1673ffffffffffffffffffffffffffffffffffffffff1681526020018473ffffffffffffffffffffffffffffffffffffffff1673ffffffffffffffffffffffffffffffffffffffff1681526020018373ffffffffffffffffffffffffffffffffffffffff1673ffffffffffffffffffffffffffffffffffffffff168152602001828152602001945050505050602060405180830381600087803b15801561227257600080fd5b505af1158015612286573d6000803e3d6000fd5b505050506040513d602081101561229c57600080fd5b8101908080519060200190929190505050508473ffffffffffffffffffffffffffffffffffffffff1663a0695f246040518163ffffffff167c0100000000000000000000000000000000000000000000000000000000028152600401602060405180830381600087803b15801561231257600080fd5b505af1158015612326573d6000803e3d6000fd5b505050506040513d602081101561233c57600080fd5b81019080805190602001909291905050505060019250505092915050565b60008060009054906101000a900473ffffffffffffffffffffffffffffffffffffffff1673ffffffffffffffffffffffffffffffffffffffff163373ffffffffffffffffffffffffffffffffffffffff161415156123b757600080fd5b816000806101000a81548173ffffffffffffffffffffffffffffffffffffffff021916908373ffffffffffffffffffffffffffffffffffffffff16021790555060019050919050565b6000806000806000806000809054906101000a900473ffffffffffffffffffffffffffffffffffffffff1673ffffffffffffffffffffffffffffffffffffffff16633f08882f336040518263ffffffff167c0100000000000000000000000000000000000000000000000000000000028152600401808273ffffffffffffffffffffffffffffffffffffffff1673ffffffffffffffffffffffffffffffffffffffff168152602001915050602060405180830381600087803b1580156124c557600080fd5b505af11580156124d9573d6000803e3d6000fd5b505050506040513d60208110156124ef57600080fd5b8101908080519060200190929190505050151561250b57600080fd5b600060149054906101000a900460ff1615151561252757600080fd5b6001600060146101000a81548160ff021916908315150217905550600073ffffffffffffffffffffffffffffffffffffffff168973ffffffffffffffffffffffffffffffffffffffff161415151561257e57600080fd5b8773ffffffffffffffffffffffffffffffffffffffff166327ce5b8c6040518163ffffffff167c0100000000000000000000000000000000000000000000000000000000028152600401602060405180830381600087803b1580156125e257600080fd5b505af11580156125f6573d6000803e3d6000fd5b505050506040513d602081101561260c57600080fd5b810190808051906020019092919050505094508773ffffffffffffffffffffffffffffffffffffffff1663df2a29da6040518163ffffffff167c0100000000000000000000000000000000000000000000000000000000028152600401602060405180830381600087803b15801561268357600080fd5b505af1158015612697573d6000803e3d6000fd5b505050506040513d60208110156126ad57600080fd5b810190808051906020019092919050505093506000809054906101000a900473ffffffffffffffffffffffffffffffffffffffff1673ffffffffffffffffffffffffffffffffffffffff16634e94c8296040518163ffffffff167c0100000000000000000000000000000000000000000000000000000000028152600401602060405180830381600087803b15801561274557600080fd5b505af1158015612759573d6000803e3d6000fd5b505050506040513d602081101561276f57600080fd5b810190808051906020019092919050505092506128338873ffffffffffffffffffffffffffffffffffffffff1663bad84c9e6040518163ffffffff167c0100000000000000000000000000000000000000000000000000000000028152600401602060405180830381600087803b1580156127e957600080fd5b505af11580156127fd573d6000803e3d6000fd5b505050506040513d602081101561281357600080fd5b810190808051906020019092919050505088613e1790919063ffffffff16565b91508273ffffffffffffffffffffffffffffffffffffffff1663ec238994858b8b866040518563ffffffff167c0100000000000000000000000000000000000000000000000000000000028152600401808573ffffffffffffffffffffffffffffffffffffffff1673ffffffffffffffffffffffffffffffffffffffff1681526020018473ffffffffffffffffffffffffffffffffffffffff1673ffffffffffffffffffffffffffffffffffffffff1681526020018373ffffffffffffffffffffffffffffffffffffffff1673ffffffffffffffffffffffffffffffffffffffff168152602001828152602001945050505050602060405180830381600087803b15801561294057600080fd5b505af1158015612954573d6000803e3d6000fd5b505050506040513d602081101561296a57600080fd5b8101908080519060200190929190505050151561298657600080fd5b600090505b84811015612b26578773ffffffffffffffffffffffffffffffffffffffff166365957bf5826040518263ffffffff167c010000000000000000000000000000000000000000000000000000000002815260040180828152602001915050602060405180830381600087803b158015612a0257600080fd5b505af1158015612a16573d6000803e3d6000fd5b505050506040513d6020811015612a2c57600080fd5b810190808051906020019092919050505073ffffffffffffffffffffffffffffffffffffffff16630f9e5bbd8a896040518363ffffffff167c0100000000000000000000000000000000000000000000000000000000028152600401808373ffffffffffffffffffffffffffffffffffffffff1673ffffffffffffffffffffffffffffffffffffffff16815260200182815260200192505050602060405180830381600087803b158015612adf57600080fd5b505af1158015612af3573d6000803e3d6000fd5b505050506040513d6020811015612b0957600080fd5b81019080805190602001909291905050505080600101905061298b565b8773ffffffffffffffffffffffffffffffffffffffff16638d4e40836040518163ffffffff167c0100000000000000000000000000000000000000000000000000000000028152600401602060405180830381600087803b158015612b8a57600080fd5b505af1158015612b9e573d6000803e3d6000fd5b505050506040513d6020811015612bb457600080fd5b81019080805190602001909291905050501515612d15578773ffffffffffffffffffffffffffffffffffffffff1663870c426d6040518163ffffffff167c0100000000000000000000000000000000000000000000000000000000028152600401602060405180830381600087803b158015612c2f57600080fd5b505af1158015612c43573d6000803e3d6000fd5b505050506040513d6020811015612c5957600080fd5b810190808051906020019092919050505073ffffffffffffffffffffffffffffffffffffffff1663ce483e88836040518263ffffffff167c010000000000000000000000000000000000000000000000000000000002815260040180828152602001915050602060405180830381600087803b158015612cd857600080fd5b505af1158015612cec573d6000803e3d6000fd5b505050506040513d6020811015612d0257600080fd5b8101908080519060200190929190505050505b6001955060008060146101000a81548160ff02191690831515021790555050505050509392505050565b60008260008173ffffffffffffffffffffffffffffffffffffffff1663870c426d6040518163ffffffff167c0100000000000000000000000000000000000000000000000000000000028152600401602060405180830381600087803b158015612da857600080fd5b505af1158015612dbc573d6000803e3d6000fd5b505050506040513d6020811015612dd257600080fd5b810190808051906020019092919050505090506000809054906101000a900473ffffffffffffffffffffffffffffffffffffffff1673ffffffffffffffffffffffffffffffffffffffff16634e94c8296040518163ffffffff167c0100000000000000000000000000000000000000000000000000000000028152600401602060405180830381600087803b158015612e6a57600080fd5b505af1158015612e7e573d6000803e3d6000fd5b505050506040513d6020811015612e9457600080fd5b810190808051906020019092919050505073ffffffffffffffffffffffffffffffffffffffff16638cfb8f21826040518263ffffffff167c0100000000000000000000000000000000000000000000000000000000028152600401808273ffffffffffffffffffffffffffffffffffffffff1673ffffffffffffffffffffffffffffffffffffffff168152602001915050602060405180830381600087803b158015612f3f57600080fd5b505af1158015612f53573d6000803e3d6000fd5b505050506040513d6020811015612f6957600080fd5b81019080805190602001909291905050501515612f8557600080fd5b8073ffffffffffffffffffffffffffffffffffffffff16639f7e1bf6836040518263ffffffff167c0100000000000000000000000000000000000000000000000000000000028152600401808273ffffffffffffffffffffffffffffffffffffffff1673ffffffffffffffffffffffffffffffffffffffff168152602001915050602060405180830381600087803b15801561302057600080fd5b505af1158015613034573d6000803e3d6000fd5b505050506040513d602081101561304a57600080fd5b8101908080519060200190929190505050151561306657600080fd5b61306e613e84565b506000809054906101000a900473ffffffffffffffffffffffffffffffffffffffff1673ffffffffffffffffffffffffffffffffffffffff166322763ae16040518163ffffffff167c0100000000000000000000000000000000000000000000000000000000028152600401602060405180830381600087803b1580156130f457600080fd5b505af1158015613108573d6000803e3d6000fd5b505050506040513d602081101561311e57600080fd5b8101908080519060200190929190505050151561313a57600080fd5b3073ffffffffffffffffffffffffffffffffffffffff1663aa48db203387876040518463ffffffff167c0100000000000000000000000000000000000000000000000000000000028152600401808473ffffffffffffffffffffffffffffffffffffffff1673ffffffffffffffffffffffffffffffffffffffff1681526020018373ffffffffffffffffffffffffffffffffffffffff1673ffffffffffffffffffffffffffffffffffffffff1681526020018281526020019350505050602060405180830381600087803b15801561321157600080fd5b505af1158015613225573d6000803e3d6000fd5b505050506040513d602081101561323b57600080fd5b8101908080519060200190929190505050506000809054906101000a900473ffffffffffffffffffffffffffffffffffffffff1673ffffffffffffffffffffffffffffffffffffffff16634e94c8296040518163ffffffff167c0100000000000000000000000000000000000000000000000000000000028152600401602060405180830381600087803b1580156132d257600080fd5b505af11580156132e6573d6000803e3d6000fd5b505050506040513d60208110156132fc57600080fd5b810190808051906020019092919050505073ffffffffffffffffffffffffffffffffffffffff1663c509d0b28673ffffffffffffffffffffffffffffffffffffffff1663870c426d6040518163ffffffff167c0100000000000000000000000000000000000000000000000000000000028152600401602060405180830381600087803b15801561338c57600080fd5b505af11580156133a0573d6000803e3d6000fd5b505050506040513d60208110156133b657600080fd5b81019080805190602001909291905050508733886040518563ffffffff167c0100000000000000000000000000000000000000000000000000000000028152600401808573ffffffffffffffffffffffffffffffffffffffff1673ffffffffffffffffffffffffffffffffffffffff1681526020018473ffffffffffffffffffffffffffffffffffffffff1673ffffffffffffffffffffffffffffffffffffffff1681526020018373ffffffffffffffffffffffffffffffffffffffff1673ffffffffffffffffffffffffffffffffffffffff168152602001828152602001945050505050602060405180830381600087803b1580156134b557600080fd5b505af11580156134c9573d6000803e3d6000fd5b505050506040513d60208110156134df57600080fd5b8101908080519060200190929190505050508473ffffffffffffffffffffffffffffffffffffffff1663a0695f246040518163ffffffff167c0100000000000000000000000000000000000000000000000000000000028152600401602060405180830381600087803b15801561355557600080fd5b505af1158015613569573d6000803e3d6000fd5b505050506040513d602081101561357f57600080fd5b8101908080519060200190929190505050506001925061359d614058565b50505092915050565b60008260008173ffffffffffffffffffffffffffffffffffffffff1663870c426d6040518163ffffffff167c0100000000000000000000000000000000000000000000000000000000028152600401602060405180830381600087803b15801561360f57600080fd5b505af1158015613623573d6000803e3d6000fd5b505050506040513d602081101561363957600080fd5b810190808051906020019092919050505090506000809054906101000a900473ffffffffffffffffffffffffffffffffffffffff1673ffffffffffffffffffffffffffffffffffffffff16634e94c8296040518163ffffffff167c0100000000000000000000000000000000000000000000000000000000028152600401602060405180830381600087803b1580156136d157600080fd5b505af11580156136e5573d6000803e3d6000fd5b505050506040513d60208110156136fb57600080fd5b810190808051906020019092919050505073ffffffffffffffffffffffffffffffffffffffff16638cfb8f21826040518263ffffffff167c0100000000000000000000000000000000000000000000000000000000028152600401808273ffffffffffffffffffffffffffffffffffffffff1673ffffffffffffffffffffffffffffffffffffffff168152602001915050602060405180830381600087803b1580156137a657600080fd5b505af11580156137ba573d6000803e3d6000fd5b505050506040513d60208110156137d057600080fd5b810190808051906020019092919050505015156137ec57600080fd5b8073ffffffffffffffffffffffffffffffffffffffff16639f7e1bf6836040518263ffffffff167c0100000000000000000000000000000000000000000000000000000000028152600401808273ffffffffffffffffffffffffffffffffffffffff1673ffffffffffffffffffffffffffffffffffffffff168152602001915050602060405180830381600087803b15801561388757600080fd5b505af115801561389b573d6000803e3d6000fd5b505050506040513d60208110156138b157600080fd5b810190808051906020019092919050505015156138cd57600080fd5b6138d5613e84565b506000809054906101000a900473ffffffffffffffffffffffffffffffffffffffff1673ffffffffffffffffffffffffffffffffffffffff166322763ae16040518163ffffffff167c0100000000000000000000000000000000000000000000000000000000028152600401602060405180830381600087803b15801561395b57600080fd5b505af115801561396f573d6000803e3d6000fd5b505050506040513d602081101561398557600080fd5b810190808051906020019092919050505015156139a157600080fd5b3073ffffffffffffffffffffffffffffffffffffffff16632bb66c483387876040518463ffffffff167c0100000000000000000000000000000000000000000000000000000000028152600401808473ffffffffffffffffffffffffffffffffffffffff1673ffffffffffffffffffffffffffffffffffffffff1681526020018373ffffffffffffffffffffffffffffffffffffffff1673ffffffffffffffffffffffffffffffffffffffff16815260200182815260200193505050506040805180830381600087803b158015613a7757600080fd5b505af1158015613a8b573d6000803e3d6000fd5b505050506040513d6040811015613aa157600080fd5b81019080805190602001909291908051906020019092919050505050506000809054906101000a900473ffffffffffffffffffffffffffffffffffffffff1673ffffffffffffffffffffffffffffffffffffffff16634e94c8296040518163ffffffff167c0100000000000000000000000000000000000000000000000000000000028152600401602060405180830381600087803b158015613b4357600080fd5b505af1158015613b57573d6000803e3d6000fd5b505050506040513d6020811015613b6d57600080fd5b810190808051906020019092919050505073ffffffffffffffffffffffffffffffffffffffff1663ed654fd78673ffffffffffffffffffffffffffffffffffffffff1663870c426d6040518163ffffffff167c0100000000000000000000000000000000000000000000000000000000028152600401602060405180830381600087803b158015613bfd57600080fd5b505af1158015613c11573d6000803e3d6000fd5b505050506040513d6020811015613c2757600080fd5b81019080805190602001909291905050508733886040518563ffffffff167c0100000000000000000000000000000000000000000000000000000000028152600401808573ffffffffffffffffffffffffffffffffffffffff1673ffffffffffffffffffffffffffffffffffffffff1681526020018473ffffffffffffffffffffffffffffffffffffffff1673ffffffffffffffffffffffffffffffffffffffff1681526020018373ffffffffffffffffffffffffffffffffffffffff1673ffffffffffffffffffffffffffffffffffffffff168152602001828152602001945050505050602060405180830381600087803b158015613d2657600080fd5b505af1158015613d3a573d6000803e3d6000fd5b505050506040513d6020811015613d5057600080fd5b8101908080519060200190929190505050508473ffffffffffffffffffffffffffffffffffffffff1663a0695f246040518163ffffffff167c0100000000000000000000000000000000000000000000000000000000028152600401602060405180830381600087803b158015613dc657600080fd5b505af1158015613dda573d6000803e3d6000fd5b505050506040513d6020811015613df057600080fd5b81019080805190602001909291905050505060019250613e0e614058565b50505092915050565b60008082840290506000841480613e385750828482811515613e3557fe5b04145b1515613e4357600080fd5b8091505092915050565b6000808284811515613e5b57fe5b0490508091505092915050565b6000828211151515613e7957600080fd5b818303905092915050565b600080341115614051576000809054906101000a900473ffffffffffffffffffffffffffffffffffffffff1673ffffffffffffffffffffffffffffffffffffffff1663f39ec1f76040518163ffffffff167c010000000000000000000000000000000000000000000000000000000002815260040180807f43617368000000000000000000000000000000000000000000000000000000008152506020019050602060405180830381600087803b158015613f3e57600080fd5b505af1158015613f52573d6000803e3d6000fd5b505050506040513d6020811015613f6857600080fd5b810190808051906020019092919050505073ffffffffffffffffffffffffffffffffffffffff16634faa8a2634336040518363ffffffff167c0100000000000000000000000000000000000000000000000000000000028152600401808273ffffffffffffffffffffffffffffffffffffffff1673ffffffffffffffffffffffffffffffffffffffff1681526020019150506020604051808303818588803b15801561401357600080fd5b505af1158015614027573d6000803e3d6000fd5b50505050506040513d602081101561403e57600080fd5b8101908080519060200190929190505050505b6001905090565b6000806000806000809054906101000a900473ffffffffffffffffffffffffffffffffffffffff1673ffffffffffffffffffffffffffffffffffffffff1663f39ec1f76040518163ffffffff167c010000000000000000000000000000000000000000000000000000000002815260040180807f43617368000000000000000000000000000000000000000000000000000000008152506020019050602060405180830381600087803b15801561410e57600080fd5b505af1158015614122573d6000803e3d6000fd5b505050506040513d602081101561413857600080fd5b810190808051906020019092919050505092508273ffffffffffffffffffffffffffffffffffffffff166370a08231336040518263ffffffff167c0100000000000000000000000000000000000000000000000000000000028152600401808273ffffffffffffffffffffffffffffffffffffffff1673ffffffffffffffffffffffffffffffffffffffff168152602001915050602060405180830381600087803b1580156141e657600080fd5b505af11580156141fa573d6000803e3d6000fd5b505050506040513d602081101561421057600080fd5b810190808051906020019092919050505091506000821115614515576000809054906101000a900473ffffffffffffffffffffffffffffffffffffffff1673ffffffffffffffffffffffffffffffffffffffff16634e94c8296040518163ffffffff167c0100000000000000000000000000000000000000000000000000000000028152600401602060405180830381600087803b1580156142b157600080fd5b505af11580156142c5573d6000803e3d6000fd5b505050506040513d60208110156142db57600080fd5b810190808051906020019092919050505090508073ffffffffffffffffffffffffffffffffffffffff1663ec238994843330866040518563ffffffff167c0100000000000000000000000000000000000000000000000000000000028152600401808573ffffffffffffffffffffffffffffffffffffffff1673ffffffffffffffffffffffffffffffffffffffff1681526020018473ffffffffffffffffffffffffffffffffffffffff1673ffffffffffffffffffffffffffffffffffffffff1681526020018373ffffffffffffffffffffffffffffffffffffffff1673ffffffffffffffffffffffffffffffffffffffff168152602001828152602001945050505050602060405180830381600087803b1580156143f957600080fd5b505af115801561440d573d6000803e3d6000fd5b505050506040513d602081101561442357600080fd5b8101908080519060200190929190505050508273ffffffffffffffffffffffffffffffffffffffff16631baffe3833846040518363ffffffff167c0100000000000000000000000000000000000000000000000000000000028152600401808373ffffffffffffffffffffffffffffffffffffffff1673ffffffffffffffffffffffffffffffffffffffff16815260200182815260200192505050602060405180830381600087803b1580156144d857600080fd5b505af11580156144ec573d6000803e3d6000fd5b505050506040513d602081101561450257600080fd5b8101908080519060200190929190505050505b60019350505050905600a165627a7a723058209e633a12b521bcb928d0bc9133ff25e77dc06d1547360e9c47ed083beed9b8030029",
  "source": "pragma solidity ^0.4.22;\n\n\nimport './../trading/ICompleteSets.sol';\nimport './../IAugur.sol';\nimport './../Controlled.sol';\nimport './../libraries/ReentrancyGuard.sol';\nimport './../libraries/math/SafeMathUint256.sol';\nimport './../libraries/MarketValidator.sol';\nimport './../trading/ICash.sol';\nimport './../reporting/IMarket.sol';\nimport './../reporting/IFeeWindow.sol';\nimport './../trading/IOrders.sol';\nimport './../libraries/CashAutoConverter.sol';\n\n\ncontract CompleteSets is Controlled, CashAutoConverter, ReentrancyGuard, MarketValidator, ICompleteSets {\n    using SafeMathUint256 for uint256;\n\n    /**\n     * Buys `_amount` shares of every outcome in the specified market.\n    **/\n    function publicBuyCompleteSets(IMarket _market, uint256 _amount) external marketIsLegit(_market) payable convertToAndFromCash onlyInGoodTimes returns (bool) {\n        this.buyCompleteSets(msg.sender, _market, _amount);\n        controller.getAugur().logCompleteSetsPurchased(_market.getUniverse(), _market, msg.sender, _amount);\n        _market.assertBalances();\n        return true;\n    }\n\n    function publicBuyCompleteSetsWithCash(IMarket _market, uint256 _amount) external marketIsLegit(_market) onlyInGoodTimes returns (bool) {\n        this.buyCompleteSets(msg.sender, _market, _amount);\n        controller.getAugur().logCompleteSetsPurchased(_market.getUniverse(), _market, msg.sender, _amount);\n        _market.assertBalances();\n        return true;\n    }\n\n    function buyCompleteSets(address _sender, IMarket _market, uint256 _amount) external onlyWhitelistedCallers nonReentrant returns (bool) {\n        require(_sender != address(0));\n\n        uint256 _numOutcomes = _market.getNumberOfOutcomes();\n        ICash _denominationToken = _market.getDenominationToken();\n        IAugur _augur = controller.getAugur();\n\n        uint256 _cost = _amount.mul(_market.getNumTicks());\n        require(_augur.trustedTransfer(_denominationToken, _sender, _market, _cost));\n        for (uint256 _outcome = 0; _outcome < _numOutcomes; ++_outcome) {\n            _market.getShareToken(_outcome).createShares(_sender, _amount);\n        }\n\n        if (!_market.isFinalized()) {\n            _market.getUniverse().incrementOpenInterest(_cost);\n        }\n\n        return true;\n    }\n\n    function publicSellCompleteSets(IMarket _market, uint256 _amount) external marketIsLegit(_market) convertToAndFromCash onlyInGoodTimes returns (bool) {\n        this.sellCompleteSets(msg.sender, _market, _amount);\n        controller.getAugur().logCompleteSetsSold(_market.getUniverse(), _market, msg.sender, _amount);\n        _market.assertBalances();\n        return true;\n    }\n\n    function publicSellCompleteSetsWithCash(IMarket _market, uint256 _amount) external marketIsLegit(_market) onlyInGoodTimes returns (bool) {\n        this.sellCompleteSets(msg.sender, _market, _amount);\n        controller.getAugur().logCompleteSetsSold(_market.getUniverse(), _market, msg.sender, _amount);\n        _market.assertBalances();\n        return true;\n    }\n\n    function sellCompleteSets(address _sender, IMarket _market, uint256 _amount) external onlyWhitelistedCallers nonReentrant returns (uint256 _creatorFee, uint256 _reportingFee) {\n        require(_sender != address(0));\n\n        uint256 _numOutcomes = _market.getNumberOfOutcomes();\n        ICash _denominationToken = _market.getDenominationToken();\n        uint256 _payout = _amount.mul(_market.getNumTicks());\n        if (!_market.isFinalized()) {\n            _market.getUniverse().decrementOpenInterest(_payout);\n        }\n        _creatorFee = _market.deriveMarketCreatorFeeAmount(_payout);\n        uint256 _reportingFeeDivisor = _market.getUniverse().getOrCacheReportingFeeDivisor();\n        _reportingFee = _payout.div(_reportingFeeDivisor);\n        _payout = _payout.sub(_creatorFee).sub(_reportingFee);\n\n        // Takes shares away from participant and decreases the amount issued in the market since we're exchanging complete sets\n        for (uint256 _outcome = 0; _outcome < _numOutcomes; ++_outcome) {\n            _market.getShareToken(_outcome).destroyShares(_sender, _amount);\n        }\n\n        if (_creatorFee != 0) {\n            require(_denominationToken.transferFrom(_market, _market.getMarketCreatorMailbox(), _creatorFee));\n        }\n        if (_reportingFee != 0) {\n            IFeeWindow _feeWindow = _market.getUniverse().getOrCreateNextFeeWindow();\n            require(_denominationToken.transferFrom(_market, _feeWindow, _reportingFee));\n        }\n        require(_denominationToken.transferFrom(_market, _sender, _payout));\n\n        return (_creatorFee, _reportingFee);\n    }\n}\n",
  "sourcePath": "/Users/jasperdegooijer/Documents/eth-berlin/market-oracle/libraries/augur/source/contracts/trading/CompleteSets.sol",
  "compiler": {
    "name": "solc",
    "version": "0.4.24+commit.e67f0147.Emscripten.clang"
  },
  "schemaVersion": "3.0.13",
  "updatedAt": "2019-08-25T06:22:07.950Z",
  "devdoc": {
    "methods": {}
  },
  "userdoc": {
    "methods": {
      "publicBuyCompleteSets(address,uint256)": {
        "notice": "Buys `_amount` shares of every outcome in the specified market.*"
      }
    }
  }
}