{
  "contractName": "MarketOracle",
  "abi": [
    {
      "constant": true,
      "inputs": [],
      "name": "answer",
      "outputs": [
        {
          "name": "",
          "type": "bytes32"
        }
      ],
      "payable": false,
      "stateMutability": "view",
      "type": "function"
    },
    {
      "constant": true,
      "inputs": [],
      "name": "payoutDistributionHash",
      "outputs": [
        {
          "name": "",
          "type": "bytes32"
        }
      ],
      "payable": false,
      "stateMutability": "view",
      "type": "function"
    },
    {
      "inputs": [
        {
          "name": "_url",
          "type": "string"
        },
        {
          "name": "_path",
          "type": "string"
        },
        {
          "name": "_marketDescription",
          "type": "string"
        },
        {
          "name": "_marketTopic",
          "type": "bytes32"
        },
        {
          "name": "_endTime",
          "type": "uint256"
        },
        {
          "name": "_link",
          "type": "address"
        },
        {
          "name": "_jobId",
          "type": "bytes32"
        },
        {
          "name": "_oracle",
          "type": "address"
        }
      ],
      "payable": false,
      "stateMutability": "nonpayable",
      "type": "constructor"
    },
    {
      "payable": true,
      "stateMutability": "payable",
      "type": "fallback"
    },
    {
      "anonymous": false,
      "inputs": [
        {
          "indexed": false,
          "name": "market",
          "type": "address"
        }
      ],
      "name": "marketDisputed",
      "type": "event"
    },
    {
      "anonymous": false,
      "inputs": [
        {
          "indexed": false,
          "name": "id",
          "type": "bytes32"
        },
        {
          "indexed": false,
          "name": "data",
          "type": "bytes32"
        }
      ],
      "name": "dataIsFulfilled",
      "type": "event"
    },
    {
      "anonymous": false,
      "inputs": [
        {
          "indexed": true,
          "name": "id",
          "type": "bytes32"
        }
      ],
      "name": "ChainlinkRequested",
      "type": "event"
    },
    {
      "anonymous": false,
      "inputs": [
        {
          "indexed": true,
          "name": "id",
          "type": "bytes32"
        }
      ],
      "name": "ChainlinkFulfilled",
      "type": "event"
    },
    {
      "anonymous": false,
      "inputs": [
        {
          "indexed": true,
          "name": "id",
          "type": "bytes32"
        }
      ],
      "name": "ChainlinkCancelled",
      "type": "event"
    },
    {
      "constant": false,
      "inputs": [],
      "name": "requestChainlinkUrl",
      "outputs": [
        {
          "name": "requestId",
          "type": "bytes32"
        }
      ],
      "payable": false,
      "stateMutability": "nonpayable",
      "type": "function"
    },
    {
      "constant": false,
      "inputs": [
        {
          "name": "_requestId",
          "type": "bytes32"
        },
        {
          "name": "_answer",
          "type": "bytes32"
        }
      ],
      "name": "dataFulfilled",
      "outputs": [],
      "payable": false,
      "stateMutability": "nonpayable",
      "type": "function"
    },
    {
      "constant": false,
      "inputs": [
        {
          "name": "_correctAnswer",
          "type": "bytes32"
        },
        {
          "name": "_invalid",
          "type": "bool"
        },
        {
          "name": "_disputer",
          "type": "address"
        }
      ],
      "name": "startDispute",
      "outputs": [],
      "payable": true,
      "stateMutability": "payable",
      "type": "function"
    },
    {
      "constant": false,
      "inputs": [
        {
          "name": "proceeds",
          "type": "uint256"
        }
      ],
      "name": "calculateFees",
      "outputs": [
        {
          "name": "",
          "type": "uint256"
        }
      ],
      "payable": false,
      "stateMutability": "nonpayable",
      "type": "function"
    },
    {
      "constant": false,
      "inputs": [
        {
          "name": "payoutNumerators",
          "type": "uint256[]"
        }
      ],
      "name": "submitInitialReport",
      "outputs": [],
      "payable": false,
      "stateMutability": "nonpayable",
      "type": "function"
    },
    {
      "constant": false,
      "inputs": [],
      "name": "finalize",
      "outputs": [
        {
          "name": "",
          "type": "bool"
        }
      ],
      "payable": false,
      "stateMutability": "nonpayable",
      "type": "function"
    },
    {
      "constant": true,
      "inputs": [
        {
          "name": "_outcome",
          "type": "uint256"
        }
      ],
      "name": "getPayoutNumeratorByOutcome",
      "outputs": [
        {
          "name": "",
          "type": "uint256"
        }
      ],
      "payable": false,
      "stateMutability": "view",
      "type": "function"
    },
    {
      "constant": false,
      "inputs": [],
      "name": "claimDisputeTradingProceeds",
      "outputs": [],
      "payable": false,
      "stateMutability": "nonpayable",
      "type": "function"
    },
    {
      "constant": true,
      "inputs": [],
      "name": "isFinalized",
      "outputs": [
        {
          "name": "",
          "type": "bool"
        }
      ],
      "payable": false,
      "stateMutability": "view",
      "type": "function"
    },
    {
      "constant": true,
      "inputs": [],
      "name": "getDisputeMarketFinalizationTime",
      "outputs": [
        {
          "name": "",
          "type": "uint256"
        }
      ],
      "payable": false,
      "stateMutability": "view",
      "type": "function"
    },
    {
      "constant": true,
      "inputs": [],
      "name": "getAnswer",
      "outputs": [
        {
          "name": "",
          "type": "bytes32"
        }
      ],
      "payable": false,
      "stateMutability": "view",
      "type": "function"
    },
    {
      "constant": true,
      "inputs": [],
      "name": "getRepToken",
      "outputs": [
        {
          "name": "",
          "type": "address"
        }
      ],
      "payable": false,
      "stateMutability": "view",
      "type": "function"
    },
    {
      "constant": true,
      "inputs": [],
      "name": "getDisputeEndTime",
      "outputs": [
        {
          "name": "",
          "type": "uint256"
        }
      ],
      "payable": false,
      "stateMutability": "view",
      "type": "function"
    },
    {
      "constant": true,
      "inputs": [],
      "name": "getFeeWindow",
      "outputs": [
        {
          "name": "",
          "type": "address"
        }
      ],
      "payable": false,
      "stateMutability": "view",
      "type": "function"
    }
  ],
  "bytecode": "0x608060405260016004556060604051908101604052806040805190810160405280620000466002612710620003be6401000000000262001b0a179091906401000000009004565b8152602001620000716002612710620003be6401000000000262001b0a179091906401000000009004565b815250815260200160408051908101604052806127108152602001600081525081526020016040805190810160405280600081526020016127108152508152506013906003620000c392919062000433565b50348015620000d157600080fd5b5060405162003891380380620038918339810180604052620000f79190810190620006cc565b60008042861115156200010957600080fd5b33600660006101000a81548173ffffffffffffffffffffffffffffffffffffffff021916908373ffffffffffffffffffffffffffffffffffffffff16021790555089600790805190602001906200016292919062000495565b5088600890805190602001906200017b92919062000495565b5085600b8190555087601190805190602001906200019b92919062000495565b50866012816000191690555082600a60006101000a81548173ffffffffffffffffffffffffffffffffffffffff021916908373ffffffffffffffffffffffffffffffffffffffff16021790555083600981600019169055506200021842600b54620003d56401000000000262001998179091906401000000009004565b91506200023e601e83620003be6401000000000262001b0a179091906401000000009004565b90506102588110158015620002565750620151808111155b15620002695780600c819055506200029c565b6102588110156200028357610258600c819055506200029b565b620151808111156200029a5762015180600c819055505b5b5b620002b685620003ef640100000000026401000000009004565b7395e6d12a0ca50ead152d93f8b79beb23bc4a054b73ffffffffffffffffffffffffffffffffffffffff1663095ea7b37325ff5dc79a7c4e34254ff0f4a19d69e491201dd37fffffffffffffffffffffffffffffffffffffffffffffffffffffffffffffffff6040518363ffffffff167c010000000000000000000000000000000000000000000000000000000002815260040162000357929190620007fc565b602060405180830381600087803b1580156200037257600080fd5b505af115801562000387573d6000803e3d6000fd5b505050506040513d601f19601f82011682018060405250620003ad9190810190620006a0565b505050505050505050505062000924565b60008183811515620003cc57fe5b04905092915050565b6000828211151515620003e457fe5b818303905092915050565b80600260006101000a81548173ffffffffffffffffffffffffffffffffffffffff021916908373ffffffffffffffffffffffffffffffffffffffff16021790555050565b82805482825590600052602060002090810192821562000482579160200282015b828111156200048157825182906002620004709291906200051c565b509160200191906001019062000454565b5b5090506200049191906200056e565b5090565b828054600181600116156101000203166002900490600052602060002090601f016020900481019282601f10620004d857805160ff191683800117855562000509565b8280016001018555821562000509579182015b8281111562000508578251825591602001919060010190620004eb565b5b5090506200051891906200059f565b5090565b8280548282559060005260206000209081019282156200055b579160200282015b828111156200055a5782518255916020019190600101906200053d565b5b5090506200056a91906200059f565b5090565b6200059c91905b808211156200059857600081816200058e9190620005c7565b5060010162000575565b5090565b90565b620005c491905b80821115620005c0576000816000905550600101620005a6565b5090565b90565b5080546000825590600052602060002090810190620005e791906200059f565b50565b6000620005f88251620008ae565b905092915050565b60006200060e8251620008ce565b905092915050565b6000620006248251620008da565b905092915050565b600082601f83011215156200064057600080fd5b815162000657620006518262000857565b62000829565b915080825260208301602083018583830111156200067457600080fd5b62000681838284620008ee565b50505092915050565b6000620006988251620008e4565b905092915050565b600060208284031215620006b357600080fd5b6000620006c38482850162000600565b91505092915050565b600080600080600080600080610100898b031215620006ea57600080fd5b600089015167ffffffffffffffff8111156200070557600080fd5b620007138b828c016200062c565b985050602089015167ffffffffffffffff8111156200073157600080fd5b6200073f8b828c016200062c565b975050604089015167ffffffffffffffff8111156200075d57600080fd5b6200076b8b828c016200062c565b96505060606200077e8b828c0162000616565b9550506080620007918b828c016200068a565b94505060a0620007a48b828c01620005ea565b93505060c0620007b78b828c0162000616565b92505060e0620007ca8b828c01620005ea565b9150509295985092959890939650565b620007e58162000884565b82525050565b620007f681620008a4565b82525050565b6000604082019050620008136000830185620007da565b620008226020830184620007eb565b9392505050565b6000604051905081810181811067ffffffffffffffff821117156200084d57600080fd5b8060405250919050565b600067ffffffffffffffff8211156200086f57600080fd5b601f19601f8301169050602081019050919050565b600073ffffffffffffffffffffffffffffffffffffffff82169050919050565b6000819050919050565b600073ffffffffffffffffffffffffffffffffffffffff82169050919050565b60008115159050919050565b6000819050919050565b6000819050919050565b60005b838110156200090e578082015181840152602081019050620008f1565b838111156200091e576000848401525b50505050565b612f5d80620009346000396000f3006080604052600436106100e6576000357c0100000000000000000000000000000000000000000000000000000000900463ffffffff168063109ae012146100e857806335651a32146100ff5780634bb278f31461012a57806352238fdd14610155578063632e5b63146101925780636a1eace1146101bd5780636fc65924146101e857806385bb7d69146102135780638d4e40831461023e5780639c16667c14610269578063c589a90a14610294578063d397b227146102bd578063e03437d4146102fa578063e5d8ff2514610325578063f77f29b11461034e578063fe18e9a014610379575b005b3480156100f457600080fd5b506100fd610395565b005b34801561010b57600080fd5b5061011461052b565b6040516101219190612a3e565b60405180910390f35b34801561013657600080fd5b5061013f6105e2565b60405161014c9190612b83565b60405180910390f35b34801561016157600080fd5b5061017c6004803603610177919081019061275d565b6107f8565b6040516101899190612c8f565b60405180910390f35b34801561019e57600080fd5b506101a76109ab565b6040516101b49190612c8f565b60405180910390f35b3480156101c957600080fd5b506101d2610a92565b6040516101df9190612b9e565b60405180910390f35b3480156101f457600080fd5b506101fd610cc9565b60405161020a9190612c8f565b60405180910390f35b34801561021f57600080fd5b50610228610db3565b6040516102359190612b9e565b60405180910390f35b34801561024a57600080fd5b50610253610db9565b6040516102609190612b83565b60405180910390f35b34801561027557600080fd5b5061027e610dd0565b60405161028b9190612b9e565b60405180910390f35b3480156102a057600080fd5b506102bb60048036036102b691908101906125ed565b610dda565b005b3480156102c957600080fd5b506102e460048036036102df919081019061275d565b610f2a565b6040516102f19190612c8f565b60405180910390f35b34801561030657600080fd5b5061030f6110fb565b60405161031c9190612b9e565b60405180910390f35b34801561033157600080fd5b5061034c600480360361034791908101906126a6565b611101565b005b34801561035a57600080fd5b50610363611265565b6040516103709190612a3e565b60405180910390f35b610393600480360361038e9190810190612657565b61134c565b005b6000803073ffffffffffffffffffffffffffffffffffffffff16319150730680f8580de983cd204aa909a4b1b366b29f58b673ffffffffffffffffffffffffffffffffffffffff1663b53709af600f60009054906101000a900473ffffffffffffffffffffffffffffffffffffffff16306040518363ffffffff167c010000000000000000000000000000000000000000000000000000000002815260040161043f929190612bfd565b602060405180830381600087803b15801561045957600080fd5b505af115801561046d573d6000803e3d6000fd5b505050506040513d601f19601f82011682018060405250610491919081019061262e565b503073ffffffffffffffffffffffffffffffffffffffff16319050600660009054906101000a900473ffffffffffffffffffffffffffffffffffffffff1673ffffffffffffffffffffffffffffffffffffffff166108fc6104fb848461199890919063ffffffff16565b9081150290604051600060405180830381858888f19350505050158015610526573d6000803e3d6000fd5b505050565b600073a0e4dc62cb7429825f6e1b49841a0445b37152bb73ffffffffffffffffffffffffffffffffffffffff1663b80907f26040518163ffffffff167c0100000000000000000000000000000000000000000000000000000000028152600401602060405180830381600087803b1580156105a557600080fd5b505af11580156105b9573d6000803e3d6000fd5b505050506040513d601f19601f820116820180604052506105dd9190810190612734565b905090565b6000600b5442101515156105f557600080fd5b600a60149054906101000a900460ff161515610650576001600a60156101000a81548160ff021916908315150217905550610641600d54600a60169054906101000a900460ff166119b1565b601081600019169055506107f5565b6001600a60156101000a81548160ff021916908315150217905550600f60009054906101000a900473ffffffffffffffffffffffffffffffffffffffff1673ffffffffffffffffffffffffffffffffffffffff16638d4e40836040518163ffffffff167c0100000000000000000000000000000000000000000000000000000000028152600401602060405180830381600087803b1580156106f157600080fd5b505af1158015610705573d6000803e3d6000fd5b505050506040513d601f19601f82011682018060405250610729919081019061262e565b15151561073557600080fd5b600f60009054906101000a900473ffffffffffffffffffffffffffffffffffffffff1673ffffffffffffffffffffffffffffffffffffffff16634bb278f36040518163ffffffff167c0100000000000000000000000000000000000000000000000000000000028152600401602060405180830381600087803b1580156107bb57600080fd5b505af11580156107cf573d6000803e3d6000fd5b505050506040513d601f19601f820116820180604052506107f3919081019061262e565b505b90565b6000806000600f60009054906101000a900473ffffffffffffffffffffffffffffffffffffffff1673ffffffffffffffffffffffffffffffffffffffff1663f8c52125856040518263ffffffff167c01000000000000000000000000000000000000000000000000000000000281526004016108749190612c8f565b602060405180830381600087803b15801561088e57600080fd5b505af11580156108a2573d6000803e3d6000fd5b505050506040513d601f19601f820116820180604052506108c69190810190612786565b915073a0e4dc62cb7429825f6e1b49841a0445b37152bb73ffffffffffffffffffffffffffffffffffffffff16638f93bffe6040518163ffffffff167c0100000000000000000000000000000000000000000000000000000000028152600401602060405180830381600087803b15801561094057600080fd5b505af1158015610954573d6000803e3d6000fd5b505050506040513d601f19601f820116820180604052506109789190810190612786565b905061099f6109908286611b0a90919063ffffffff16565b83611b2090919063ffffffff16565b91508192505050919050565b600060011515600a60149054906101000a900460ff1615151415156109cf57600080fd5b600f60009054906101000a900473ffffffffffffffffffffffffffffffffffffffff1673ffffffffffffffffffffffffffffffffffffffff1663a0e16fed6040518163ffffffff167c0100000000000000000000000000000000000000000000000000000000028152600401602060405180830381600087803b158015610a5557600080fd5b505af1158015610a69573d6000803e3d6000fd5b505050506040513d601f19601f82011682018060405250610a8d9190810190612786565b905090565b6000610a9c612412565b610acc6009543063e5d8ff257c010000000000000000000000000000000000000000000000000000000002611b3c565b9050610bb26040805190810160405280600381526020017f676574000000000000000000000000000000000000000000000000000000000081525060078054600181600116156101000203166002900480601f016020809104026020016040519081016040528092919081815260200182805460018160011615610100020316600290048015610b9d5780601f10610b7257610100808354040283529160200191610b9d565b820191906000526020600020905b815481529060010190602001808311610b8057829003601f168201915b505050505083611b6d9092919063ffffffff16565b610c966040805190810160405280600481526020017f706174680000000000000000000000000000000000000000000000000000000081525060088054600181600116156101000203166002900480601f016020809104026020016040519081016040528092919081815260200182805460018160011615610100020316600290048015610c815780601f10610c5657610100808354040283529160200191610c81565b820191906000526020600020905b815481529060010190602001808311610c6457829003601f168201915b505050505083611b6d9092919063ffffffff16565b610cc4600a60009054906101000a900473ffffffffffffffffffffffffffffffffffffffff16826000611ba0565b505090565b600060011515600a60149054906101000a900460ff161515141515610ced57600080fd5b6001600f60009054906101000a900473ffffffffffffffffffffffffffffffffffffffff1673ffffffffffffffffffffffffffffffffffffffff16639f941f696040518163ffffffff167c0100000000000000000000000000000000000000000000000000000000028152600401602060405180830381600087803b158015610d7557600080fd5b505af1158015610d89573d6000803e3d6000fd5b505050506040513d601f19601f82011682018060405250610dad9190810190612786565b01905090565b600d5481565b6000600a60159054906101000a900460ff16905090565b6000600d54905090565b8060405180828051906020019060200280838360005b83811015610e0b578082015181840152602081019050610df0565b50505050905001915050604051809103902060001916610e3c600e54600a60179054906101000a900460ff166119b1565b60001916141515610e4c57600080fd5b600f60009054906101000a900473ffffffffffffffffffffffffffffffffffffffff1673ffffffffffffffffffffffffffffffffffffffff16630ea9e4f182600a60179054906101000a900460ff166040518363ffffffff167c0100000000000000000000000000000000000000000000000000000000028152600401610ed4929190612b53565b602060405180830381600087803b158015610eee57600080fd5b505af1158015610f02573d6000803e3d6000fd5b505050506040513d601f19601f82011682018060405250610f26919081019061262e565b5050565b60008060011515600a60159054906101000a900460ff161515141515610f4f57600080fd5b600a60149054906101000a900460ff161561103457600f60009054906101000a900473ffffffffffffffffffffffffffffffffffffffff1673ffffffffffffffffffffffffffffffffffffffff16633c264820846040518263ffffffff167c0100000000000000000000000000000000000000000000000000000000028152600401610fdb9190612c8f565b602060405180830381600087803b158015610ff557600080fd5b505af1158015611009573d6000803e3d6000fd5b505050506040513d601f19601f8201168201806040525061102d9190810190612786565b91506110f5565b600090505b6013805490508110156110f4576010546000191660138281548110151561105c57fe5b9060005260206000200160405180828054801561109857602002820191906000526020600020905b815481526020019060010190808311611084575b505091505060405180910390206000191614156110e7576013818154811015156110be57fe5b90600052602060002001838154811015156110d557fe5b906000526020600020015491506110f5565b8080600101915050611039565b5b50919050565b60105481565b8160056000826000191660001916815260200190815260200160002060009054906101000a900473ffffffffffffffffffffffffffffffffffffffff1673ffffffffffffffffffffffffffffffffffffffff163373ffffffffffffffffffffffffffffffffffffffff161415156111ad576040517f08c379a00000000000000000000000000000000000000000000000000000000081526004016111a490612c6f565b60405180910390fd5b60056000826000191660001916815260200190815260200160002060006101000a81549073ffffffffffffffffffffffffffffffffffffffff021916905580600019167f7cc135e0cebb02c3480ae5d74d377283180a2601f8f644edf7987b009316c63a60405160405180910390a281600d81600019169055507f02275aa3fc19f4434baa202130589d61e0ab9c8811cfc8054925bf33d88ab7c78383604051611258929190612bb9565b60405180910390a1505050565b600060011515600a60149054906101000a900460ff16151514151561128957600080fd5b600f60009054906101000a900473ffffffffffffffffffffffffffffffffffffffff1673ffffffffffffffffffffffffffffffffffffffff1663f77f29b16040518163ffffffff167c0100000000000000000000000000000000000000000000000000000000028152600401602060405180830381600087803b15801561130f57600080fd5b505af1158015611323573d6000803e3d6000fd5b505050506040513d601f19601f8201168201806040525061134791908101906126e2565b905090565b600080600080600660009054906101000a900473ffffffffffffffffffffffffffffffffffffffff1673ffffffffffffffffffffffffffffffffffffffff163373ffffffffffffffffffffffffffffffffffffffff161415156113ae57600080fd5b60001515600a60149054906101000a900460ff1615151415156113d057600080fd5b73a0e4dc62cb7429825f6e1b49841a0445b37152bb73ffffffffffffffffffffffffffffffffffffffff1663fd1e5e7a6040518163ffffffff167c0100000000000000000000000000000000000000000000000000000000028152600401602060405180830381600087803b15801561144857600080fd5b505af115801561145c573d6000803e3d6000fd5b505050506040513d601f19601f820116820180604052506114809190810190612786565b935073a0e4dc62cb7429825f6e1b49841a0445b37152bb73ffffffffffffffffffffffffffffffffffffffff1663b80907f26040518163ffffffff167c0100000000000000000000000000000000000000000000000000000000028152600401602060405180830381600087803b1580156114fa57600080fd5b505af115801561150e573d6000803e3d6000fd5b505050506040513d601f19601f820116820180604052506115329190810190612734565b92508273ffffffffffffffffffffffffffffffffffffffff166323b872dd8630876040518463ffffffff167c010000000000000000000000000000000000000000000000000000000002815260040161158d93929190612a59565b602060405180830381600087803b1580156115a757600080fd5b505af11580156115bb573d6000803e3d6000fd5b505050506040513d601f19601f820116820180604052506115df919081019061262e565b5073a0e4dc62cb7429825f6e1b49841a0445b37152bb73ffffffffffffffffffffffffffffffffffffffff1663af4cd4576040518163ffffffff167c0100000000000000000000000000000000000000000000000000000000028152600401602060405180830381600087803b15801561165857600080fd5b505af115801561166c573d6000803e3d6000fd5b505050506040513d601f19601f820116820180604052506116909190810190612786565b91508134101515156116a157600080fd5b73a0e4dc62cb7429825f6e1b49841a0445b37152bb73ffffffffffffffffffffffffffffffffffffffff1663cabc6f14836078600c54600b54010160007395e6d12a0ca50ead152d93f8b79beb23bc4a054b3060125460116040518863ffffffff167c010000000000000000000000000000000000000000000000000000000002815260040161173696959493929190612caa565b6020604051808303818588803b15801561174f57600080fd5b505af1158015611763573d6000803e3d6000fd5b50505050506040513d601f19601f82011682018060405250611788919081019061270b565b600f60006101000a81548173ffffffffffffffffffffffffffffffffffffffff021916908373ffffffffffffffffffffffffffffffffffffffff1602179055506117ef6127106117e1843461199890919063ffffffff16565b611b0a90919063ffffffff16565b90506127108111151561180157600080fd5b73788c38264635b3782d6ecd309c022c6ae603b9d273ffffffffffffffffffffffffffffffffffffffff1663abb60c8061184661271084611e3390919063ffffffff16565b600f60009054906101000a900473ffffffffffffffffffffffffffffffffffffffff16846040518463ffffffff167c01000000000000000000000000000000000000000000000000000000000281526004016118a3929190612c26565b6020604051808303818588803b1580156118bc57600080fd5b505af11580156118d0573d6000803e3d6000fd5b50505050506040513d601f19601f820116820180604052506118f5919081019061262e565b5086600e816000191690555085600a60176101000a81548160ff0219169083151502179055506001600a60146101000a81548160ff0219169083151502179055507faebf4bec624072b88d38355921e2fa310b6cad0d1faab9662247833616f31d11600f60009054906101000a900473ffffffffffffffffffffffffffffffffffffffff166040516119879190612be2565b60405180910390a150505050505050565b60008282111515156119a657fe5b818303905092915050565b60008115611a3c5760408051908101604052806119da6002612710611b0a90919063ffffffff16565b81526020016119f56002612710611b0a90919063ffffffff16565b8152506040518082600260200280838360005b83811015611a23578082015181840152602081019050611a08565b5050505090500191505060405180910390209050611b04565b60026001026000191683600019161415611aac576040805190810160405280600081526020016127108152506040518082600260200280838360005b83811015611a93578082015181840152602081019050611a78565b5050505090500191505060405180910390209050611b04565b6040805190810160405280612710815260200160008152506040518082600260200280838360005b83811015611aef578082015181840152602081019050611ad4565b50505050905001915050604051809103902090505b92915050565b60008183811515611b1757fe5b04905092915050565b60008183019050828110151515611b3357fe5b80905092915050565b611b44612412565b611b4c612412565b611b6385858584611e6b909392919063ffffffff16565b9150509392505050565b611b84828460800151611f2590919063ffffffff16565b611b9b818460800151611f2590919063ffffffff16565b505050565b600030600454604051602001808373ffffffffffffffffffffffffffffffffffffffff1673ffffffffffffffffffffffffffffffffffffffff166c01000000000000000000000000028152601401828152602001925050506040516020818303038152906040526040518082805190602001908083835b602083101515611c3c5780518252602082019150602081019050602083039250611c17565b6001836020036101000a038019825116818451168082178552505050505050905001915050604051809103902090506004548360600181815250508360056000836000191660001916815260200190815260200160002060006101000a81548173ffffffffffffffffffffffffffffffffffffffff021916908373ffffffffffffffffffffffffffffffffffffffff16021790555080600019167fb5e6e01e79f91267dc17b4e6314d5d4d03593d2ceee0fbb452b750bd70ea5af960405160405180910390a2600260009054906101000a900473ffffffffffffffffffffffffffffffffffffffff1673ffffffffffffffffffffffffffffffffffffffff16634000aea08584611d4b87611f4a565b6040518463ffffffff167c0100000000000000000000000000000000000000000000000000000000028152600401611d8593929190612b15565b602060405180830381600087803b158015611d9f57600080fd5b505af1158015611db3573d6000803e3d6000fd5b505050506040513d601f19601f82011682018060405250611dd7919081019061262e565b1515611e18576040517f08c379a0000000000000000000000000000000000000000000000000000000008152600401611e0f90612c4f565b60405180910390fd5b60016004600082825401925050819055508090509392505050565b600080831415611e465760009050611e65565b8183029050818382811515611e5757fe5b04141515611e6157fe5b8090505b92915050565b611e73612412565b611e838560800151610100612048565b50838560000190600019169081600019168152505082856020019073ffffffffffffffffffffffffffffffffffffffff16908173ffffffffffffffffffffffffffffffffffffffff16815250508185604001907bffffffffffffffffffffffffffffffffffffffffffffffffffffffff191690817bffffffffffffffffffffffffffffffffffffffffffffffffffffffff191681525050849050949350505050565b611f3282600383516120a2565b611f45818361220090919063ffffffff16565b505050565b6060600360009054906101000a900473ffffffffffffffffffffffffffffffffffffffff1673ffffffffffffffffffffffffffffffffffffffff16634042994690507c01000000000000000000000000000000000000000000000000000000000260008084600001518560200151866040015187606001516001896080015160000151604051602401611fe4989796959493929190612a90565b604051602081830303815290604052907bffffffffffffffffffffffffffffffffffffffffffffffffffffffff19166020820180517bffffffffffffffffffffffffffffffffffffffffffffffffffffffff83818316178352505050509050919050565b612050612480565b600060208381151561205e57fe5b0614151561207b5760208281151561207257fe5b06602003820191505b81836020018181525050604051808452600081528281016020016040525082905092915050565b6017811115156120d4576120ce8160058460ff169060020a0260ff16178461222290919063ffffffff16565b506121fb565b60ff8111151561211b576120fe601860058460ff169060020a02178461222290919063ffffffff16565b50612115816001856122429092919063ffffffff16565b506121fa565b61ffff8111151561216357612146601960058460ff169060020a02178461222290919063ffffffff16565b5061215d816002856122429092919063ffffffff16565b506121f9565b63ffffffff811115156121ad57612190601a60058460ff169060020a02178461222290919063ffffffff16565b506121a7816004856122429092919063ffffffff16565b506121f8565b67ffffffffffffffff811115156121f7576121de601b60058460ff169060020a02178461222290919063ffffffff16565b506121f5816008856122429092919063ffffffff16565b505b5b5b5b5b505050565b612208612480565b61221a83846000015151848551612264565b905092915050565b61222a612480565b61223a8384600001515184612321565b905092915050565b61224a612480565b61225b848560000151518585612371565b90509392505050565b61226c612480565b60008060008551851115151561228157600080fd5b876020015185880111156122ac576122ab8860026122a58b602001518b8a016123d2565b026123ee565b5b8751805188602083010194508089880111156122c85788870182525b60208801935050505b6020851015156122f657815183526020830192506020820191506020850394506122d1565b6001856020036101000a03905080198251168184511681811785525050879350505050949350505050565b612329612480565b836020015183101515612348576123478460028660200151026123ee565b5b8351805160208583010184815381861415612364576001820183525b5050508390509392505050565b612379612480565b60008560200151858401111561239957612398866002878601026123ee565b5b6001836101000a03905085518386820101858319825116178152815185880111156123c45784870182525b505085915050949350505050565b6000818311156123e4578290506123e8565b8190505b92915050565b6060826000015190506124018383612048565b5061240c8382612200565b50505050565b60c06040519081016040528060008019168152602001600073ffffffffffffffffffffffffffffffffffffffff16815260200160007bffffffffffffffffffffffffffffffffffffffffffffffffffffffff191681526020016000815260200161247a61249a565b81525090565b604080519081016040528060608152602001600081525090565b604080519081016040528060608152602001600081525090565b60006124c08235612e33565b905092915050565b600082601f83011215156124db57600080fd5b81356124ee6124e982612d52565b612d25565b9150818183526020840193506020810190508385602084028201111561251357600080fd5b60005b83811015612543578161252988826125c5565b845260208401935060208301925050600181019050612516565b5050505092915050565b60006125598235612e53565b905092915050565b600061256d8251612e53565b905092915050565b60006125818235612e5f565b905092915050565b60006125958251612e69565b905092915050565b60006125a98251612e7b565b905092915050565b60006125bd8251612e8d565b905092915050565b60006125d18235612e9f565b905092915050565b60006125e58251612e9f565b905092915050565b6000602082840312156125ff57600080fd5b600082013567ffffffffffffffff81111561261957600080fd5b612625848285016124c8565b91505092915050565b60006020828403121561264057600080fd5b600061264e84828501612561565b91505092915050565b60008060006060848603121561266c57600080fd5b600061267a86828701612575565b935050602061268b8682870161254d565b925050604061269c868287016124b4565b9150509250925092565b600080604083850312156126b957600080fd5b60006126c785828601612575565b92505060206126d885828601612575565b9150509250929050565b6000602082840312156126f457600080fd5b600061270284828501612589565b91505092915050565b60006020828403121561271d57600080fd5b600061272b8482850161259d565b91505092915050565b60006020828403121561274657600080fd5b6000612754848285016125b1565b91505092915050565b60006020828403121561276f57600080fd5b600061277d848285016125c5565b91505092915050565b60006020828403121561279857600080fd5b60006127a6848285016125d9565b91505092915050565b6127b881612dc7565b82525050565b60006127c982612d99565b8084526020840193506127db83612d7a565b60005b8281101561280d576127f1868351612a2f565b6127fa82612dba565b91506020860195506001810190506127de565b50849250505092915050565b61282281612de7565b82525050565b61283181612df3565b82525050565b61284081612dfd565b82525050565b600061285182612daf565b808452612865816020860160208601612edf565b61286e81612f12565b602085010191505092915050565b600061288782612da4565b80845261289b816020860160208601612edf565b6128a481612f12565b602085010191505092915050565b6128bb81612ea9565b82525050565b6128ca81612ebb565b82525050565b6128d981612ecd565b82525050565b6000815460018116600081146128fc576001811461291c5761295d565b607f600283041680865260ff19831660208701526040860193505061295d565b6002820480865260208601955061293285612d87565b60005b8281101561295457815481890152600182019150602081019050612935565b80880195505050505b505092915050565b6000602382527f756e61626c6520746f207472616e73666572416e6443616c6c20746f206f726160208301527f636c6500000000000000000000000000000000000000000000000000000000006040830152606082019050919050565b6000808252602082019050919050565b6000602882527f536f75726365206d75737420626520746865206f7261636c65206f662074686560208301527f20726571756573740000000000000000000000000000000000000000000000006040830152606082019050919050565b612a3881612e29565b82525050565b6000602082019050612a5360008301846127af565b92915050565b6000606082019050612a6e60008301866127af565b612a7b60208301856127af565b612a886040830184612a2f565b949350505050565b600061010082019050612aa6600083018b6127af565b612ab3602083018a612a2f565b612ac06040830189612828565b612acd60608301886127af565b612ada6080830187612837565b612ae760a0830186612a2f565b612af460c0830185612a2f565b81810360e0830152612b06818461287c565b90509998505050505050505050565b6000606082019050612b2a60008301866127af565b612b376020830185612a2f565b8181036040830152612b498184612846565b9050949350505050565b60006040820190508181036000830152612b6d81856127be565b9050612b7c6020830184612819565b9392505050565b6000602082019050612b986000830184612819565b92915050565b6000602082019050612bb36000830184612828565b92915050565b6000604082019050612bce6000830185612828565b612bdb6020830184612828565b9392505050565b6000602082019050612bf760008301846128c1565b92915050565b6000604082019050612c1260008301856128c1565b612c1f60208301846127af565b9392505050565b6000604082019050612c3b60008301856128c1565b612c486020830184612a2f565b9392505050565b60006020820190508181036000830152612c6881612965565b9050919050565b60006020820190508181036000830152612c88816129d2565b9050919050565b6000602082019050612ca46000830184612a2f565b92915050565b600060e082019050612cbf6000830189612a2f565b612ccc60208301886128d0565b612cd960408301876128b2565b612ce660608301866127af565b612cf36080830185612828565b81810360a0830152612d0581846128df565b905081810360c0830152612d18816129c2565b9050979650505050505050565b6000604051905081810181811067ffffffffffffffff82111715612d4857600080fd5b8060405250919050565b600067ffffffffffffffff821115612d6957600080fd5b602082029050602081019050919050565b6000602082019050919050565b60008160005260206000209050919050565b600081519050919050565b600081519050919050565b600081519050919050565b6000602082019050919050565b600073ffffffffffffffffffffffffffffffffffffffff82169050919050565b60008115159050919050565b6000819050919050565b60007fffffffff0000000000000000000000000000000000000000000000000000000082169050919050565b6000819050919050565b600073ffffffffffffffffffffffffffffffffffffffff82169050919050565b60008115159050919050565b6000819050919050565b6000612e7482612dc7565b9050919050565b6000612e8682612dc7565b9050919050565b6000612e9882612dc7565b9050919050565b6000819050919050565b6000612eb482612dc7565b9050919050565b6000612ec682612dc7565b9050919050565b6000612ed882612e29565b9050919050565b60005b83811015612efd578082015181840152602081019050612ee2565b83811115612f0c576000848401525b50505050565b6000601f19601f83011690509190505600a265627a7a723058209434b1123746d30c50a7bad4e85d1d9c3233ede4a7f57fd78564d2039497c7296c6578706572696d656e74616cf50037",
  "source": "pragma solidity >= 0.4.24;\npragma experimental ABIEncoderV2;\n\nimport \"./YesNoMarket.sol\";\nimport \"./../libraries/augur/source/contracts/reporting/IMarket.sol\";\nimport \"./../libraries/augur/source/contracts/reporting/Market.sol\";\nimport \"./../libraries/augur/source/contracts/trading/IShareToken.sol\";\nimport \"./../libraries/augur/source/contracts/trading/CompleteSets.sol\";\nimport \"./../libraries/augur/source/contracts/trading/ICash.sol\";\nimport \"./../libraries/augur/source/contracts/libraries/token/ERC20.sol\";\nimport \"./../libraries/augur/source/contracts/reporting/Universe.sol\";\nimport \"./../libraries/augur/source/contracts/trading/ClaimTradingProceeds.sol\";\nimport \"./../libraries/augur/source/contracts/Augur.sol\";\nimport \"./../libraries/openzeppelin-solidity/SafeMathLib.sol\";\nimport \"chainlink/contracts/ChainlinkClient.sol\";\n\ncontract MarketOracle is ChainlinkClient {\n\taddress creator;\n\t\n\tstring url;\n\tstring path; \n\tbytes32 jobId;\n\taddress oracle; \n\n\tbool disputed;\n\tbool finalized;\n\tbool isInvalid;\n\tbool disputeIsInvalid;\n\tuint256 endTime;\n\tuint256 disputeTimeAdded;\n\tbytes32 public answer;\n\tbytes32 disputeAnswer;\n\tIMarket disputeMarket;\n\tbytes32 public payoutDistributionHash;\n\n\tstring marketDescription;\n\tbytes32 marketTopic;\n\t\n\tAugur constant augur = Augur(0x25ff5dc79a7c4e34254ff0f4a19d69e491201dd3);\n\tICash constant cash = ICash(0x95e6d12a0ca50ead152d93f8b79beb23bc4a054b);\n\tUniverse constant universe = Universe(0xa0e4dc62cb7429825f6e1b49841a0445b37152bb);\n\tCompleteSets constant completeSets = CompleteSets(0x788c38264635b3782d6ecd309c022c6ae603b9d2);\n\tClaimTradingProceeds constant claimTradingProceeds = ClaimTradingProceeds(0x0680f8580de983cd204aa909a4b1b366b29f58b6);\n\n\tuint256 constant NUM_TICKS = 10000;\n\tuint256 constant TEN_MINUTES = 60 * 10;\n\tuint256 constant ONE_DAY = 60 * 60 * 24;\n\n\tuint256[][] payoutNumerators = [[NUM_TICKS.div(2), NUM_TICKS.div(2)],[NUM_TICKS, 0],[0,NUM_TICKS]] ;\n\n\tevent marketDisputed(address market);\n\tevent dataIsFulfilled(bytes32 id, bytes32 data);\n\n\tconstructor(\n\t\tstring _url, \n\t\tstring _path,\n\t\tstring _marketDescription,\n\t\tbytes32 _marketTopic,\n\t\tuint256 _endTime,\n\t\taddress _link,\n\t\tbytes32 _jobId,\n\t\taddress _oracle\n\t) \n\tpublic {\n\t\trequire (_endTime > now);\n\t\tcreator = msg.sender;\n\t\t\n\t\turl = _url;\n\t\tpath = _path;\n\t\tendTime = _endTime;\n\t\tmarketDescription = _marketDescription;\n\t\tmarketTopic = _marketTopic;\n\t\toracle = _oracle;\n\n\t\tjobId = _jobId;\n\t\tuint256 timeToEnd = endTime.sub(now);\n\t\tuint256 potentialAddedDisputeTime = timeToEnd.div(30);\n\t\tif (potentialAddedDisputeTime >= TEN_MINUTES && potentialAddedDisputeTime <= ONE_DAY) {\n\t\t\tdisputeTimeAdded = potentialAddedDisputeTime;\n\t\t} else if (potentialAddedDisputeTime < TEN_MINUTES) {\n\t\t\tdisputeTimeAdded = TEN_MINUTES;\n\t\t} else if (potentialAddedDisputeTime > ONE_DAY) {\n\t\t\tdisputeTimeAdded = ONE_DAY;\n\t\t}\n      \t\n\t\tsetChainlinkToken(_link);\n\t\tcash.approve(address(augur), uint256(-1));\n\t}\n\n\tfunction () public payable {}\n\n\tfunction requestChainlinkUrl() public returns (bytes32 requestId) {\n\t\tChainlink.Request memory req = buildChainlinkRequest(jobId, this, this.dataFulfilled.selector);\n\t\treq.add(\"get\", url);\n\t\treq.add(\"path\", path);\n\t\tsendChainlinkRequestTo(oracle, req, 0);\n\t}\n\n\tfunction dataFulfilled(bytes32 _requestId, bytes32 _answer)\n\tpublic recordChainlinkFulfillment(_requestId)\n\t{\n\t\tanswer = _answer;\n\t\temit dataIsFulfilled(_requestId, _answer);\n\t}\n\n\tfunction startDispute(\n\t\tbytes32 _correctAnswer,\n\t\tbool _invalid,\n\t\taddress _disputer\n\t)\n\tpublic \n\tpayable\t{\n\t\trequire(msg.sender == address(creator));\n\t\trequire(disputed == false);\n\t\t// require(now < endTime + disputeTimeAdded && now >= endTime);\t\t\n\n\t\t// get noShowBond\n\t\tuint256 noShowBondFee = universe.getOrCacheDesignatedReportNoShowBond();\n\t\tERC20 rep = ERC20(universe.getReputationToken());\n\t\trep.transferFrom(_disputer, address(this), noShowBondFee);\n\n\t\t// check if marketCreationFee is added\n\t\tuint256 marketCreationFee = universe.getOrCacheValidityBond();\n\t\trequire(msg.value >= marketCreationFee);\n\n\t\t// Create disputemarket\n\t\tdisputeMarket = universe.createYesNoMarket.value(marketCreationFee)(\n\t\t\tendTime + disputeTimeAdded + 120,\n\t\t\t0,\n\t\t\tcash,\n\t\t\taddress(this),\n\t\t\tmarketTopic,\n\t\t\tmarketDescription,\n\t\t\t\"\"\n\t\t);\n\n\t\tuint256 setsToBuy = msg.value.sub(marketCreationFee).div(NUM_TICKS);\n\t\trequire(setsToBuy > NUM_TICKS);\n\t\tcompleteSets.publicBuyCompleteSets.value(setsToBuy.mul(NUM_TICKS))(disputeMarket, setsToBuy);\n\t\t\n\t\tdisputeAnswer = _correctAnswer;\n\t\tdisputeIsInvalid = _invalid;\n\t\tdisputed = true;\n\t\temit marketDisputed(disputeMarket);\n\t}\n\t\n\tfunction calculateFees(uint256 proceeds) \n\tpublic \n\treturns(uint256) \n\t{\n\t\tuint256 flatFee = disputeMarket.deriveMarketCreatorFeeAmount(proceeds);\n\t\tuint256 reportingFeeDevisor = universe.getOrCacheReportingFeeDivisor();\n\t\tflatFee = flatFee.add(proceeds.div(reportingFeeDevisor));\n\t\treturn flatFee;\n\t}\n\n\tfunction submitInitialReport(uint256[] payoutNumerators) \n\tpublic {\n\t\trequire(answerToPayoutDistributionHash(disputeAnswer, disputeIsInvalid) == keccak256(payoutNumerators));\n\t\tMarket(address(disputeMarket)).doInitialReport(payoutNumerators, disputeIsInvalid);\n\t}\n\n\tfunction answerToPayoutDistributionHash(bytes32 _answer, bool _invalid) \n\tinternal \n\treturns(bytes32) {\n\t\tif (_invalid) {\n\t\t\treturn keccak256([NUM_TICKS.div(2), NUM_TICKS.div(2)]);\n\t\t}\n\t\telse if (_answer == bytes32(2)) {\n\t\t\treturn keccak256([0, NUM_TICKS]);\n\t\t} \n\t\telse {\n\t\t\treturn keccak256([NUM_TICKS, 0]);\n\t\t}\n\t}\n\n\tfunction finalize()\n\tpublic\n\treturns (bool) {\n\t\trequire(now >= endTime);\n\t\t// If not testing the line below here should be uncommented\n\t\t// require(now >= endTime + disputeTimeAdded);\n\t\tif (!disputed) {\n\t\t\tfinalized = true;\n\t\t\tpayoutDistributionHash = answerToPayoutDistributionHash(answer, isInvalid);\n\t\t} else {\n\t\t\tfinalized = true;\n\t\t\trequire(!disputeMarket.isFinalized());\n\t\t\tdisputeMarket.finalize();\n\t\t}\n\t}\n\n\tfunction getPayoutNumeratorByOutcome(uint256 _outcome)\n\tpublic\n\tview\n\treturns (uint256) {\n\t\trequire(finalized == true);\n\t\tif (disputed) {\n\t\t\treturn disputeMarket.getWinningPayoutNumerator(_outcome);\n\t\t} else {\n\t\t\tfor (uint256 i = 0; i < payoutNumerators.length; i++) {\n\t\t\t\tif (keccak256(payoutNumerators[i]) == payoutDistributionHash) {\n\t\t\t\t\treturn payoutNumerators[i][_outcome];\n\t\t\t\t}\n\t\t\t}\n\t\t}\n\t}\n\n\tfunction claimDisputeTradingProceeds()\n\tpublic {\n\t\tuint256 balanceBefore = address(this).balance;\n\t\tclaimTradingProceeds.claimTradingProceeds(disputeMarket, address(this));\n\t\tuint256 balanceAfter = address(this).balance;\n\t\tcreator.transfer(balanceAfter.sub(balanceBefore));\n\t}\n\n\tfunction isFinalized()\n\tpublic\n\tview \n\treturns(bool) {\n\t\treturn finalized;\n\t}\n\n\tfunction getDisputeMarketFinalizationTime()\n\tpublic\n\tview\n\treturns (uint256) {\n\t\trequire(disputed == true);\n\t\treturn disputeMarket.getFinalizationTime();\n\t}\n\n\n\tfunction getAnswer()\n\tpublic \n\tview \n\treturns(bytes32) {\n\t\treturn answer;\n\t}\n\n\tfunction getRepToken()\n\tpublic \n\tview\n\treturns (address) {\n\t\treturn universe.getReputationToken();\n\t}\n\n\tfunction getDisputeEndTime()\n\tpublic\n\tview \n\treturns (uint256) {\n\t\trequire(disputed == true);\n\t\treturn Market(address(disputeMarket)).getDesignatedReportingEndTime() + 1;\n\t}\n\t\n\tfunction getFeeWindow()\n\tpublic \n\tview \n\treturns(address) {\n\t\trequire(disputed == true);\n\t\treturn address(Market(address(disputeMarket)).getFeeWindow());\n\t}\n}",
  "sourcePath": "/Users/jasperdegooijer/Documents/eth-berlin/market-oracle/contracts/MarketOracle.sol",
  "compiler": {
    "name": "solc",
    "version": "0.4.24+commit.e67f0147.Emscripten.clang"
  },
  "schemaVersion": "3.0.13",
  "updatedAt": "2019-08-25T06:22:07.628Z",
  "devdoc": {
    "methods": {}
  },
  "userdoc": {
    "methods": {}
  }
}