{
  "contractName": "ClaimTradingProceeds",
  "abi": [
    {
      "constant": true,
      "inputs": [],
      "name": "getController",
      "outputs": [
        {
          "name": "",
          "type": "address"
        }
      ],
      "payable": false,
      "stateMutability": "view",
      "type": "function"
    },
    {
      "constant": false,
      "inputs": [
        {
          "name": "_controller",
          "type": "address"
        }
      ],
      "name": "setController",
      "outputs": [
        {
          "name": "",
          "type": "bool"
        }
      ],
      "payable": false,
      "stateMutability": "nonpayable",
      "type": "function"
    },
    {
      "constant": false,
      "inputs": [
        {
          "name": "_market",
          "type": "address"
        },
        {
          "name": "_shareHolder",
          "type": "address"
        }
      ],
      "name": "claimTradingProceeds",
      "outputs": [
        {
          "name": "",
          "type": "bool"
        }
      ],
      "payable": false,
      "stateMutability": "nonpayable",
      "type": "function"
    },
    {
      "constant": false,
      "inputs": [
        {
          "name": "_market",
          "type": "address"
        },
        {
          "name": "_outcome",
          "type": "uint256"
        },
        {
          "name": "_numberOfShares",
          "type": "uint256"
        }
      ],
      "name": "divideUpWinnings",
      "outputs": [
        {
          "name": "_proceeds",
          "type": "uint256"
        },
        {
          "name": "_shareHolderShare",
          "type": "uint256"
        },
        {
          "name": "_creatorShare",
          "type": "uint256"
        },
        {
          "name": "_reporterShare",
          "type": "uint256"
        }
      ],
      "payable": false,
      "stateMutability": "nonpayable",
      "type": "function"
    },
    {
      "constant": true,
      "inputs": [
        {
          "name": "_market",
          "type": "address"
        },
        {
          "name": "_outcome",
          "type": "uint256"
        },
        {
          "name": "_numberOfShares",
          "type": "uint256"
        }
      ],
      "name": "calculateProceeds",
      "outputs": [
        {
          "name": "",
          "type": "uint256"
        }
      ],
      "payable": false,
      "stateMutability": "view",
      "type": "function"
    },
    {
      "constant": false,
      "inputs": [
        {
          "name": "_market",
          "type": "address"
        },
        {
          "name": "_amount",
          "type": "uint256"
        }
      ],
      "name": "calculateReportingFee",
      "outputs": [
        {
          "name": "",
          "type": "uint256"
        }
      ],
      "payable": false,
      "stateMutability": "nonpayable",
      "type": "function"
    },
    {
      "constant": true,
      "inputs": [
        {
          "name": "_market",
          "type": "address"
        },
        {
          "name": "_amount",
          "type": "uint256"
        }
      ],
      "name": "calculateCreatorFee",
      "outputs": [
        {
          "name": "",
          "type": "uint256"
        }
      ],
      "payable": false,
      "stateMutability": "view",
      "type": "function"
    }
  ],
  "bytecode": "0x608060405260008060146101000a81548160ff021916908315150217905550336000806101000a81548173ffffffffffffffffffffffffffffffffffffffff021916908373ffffffffffffffffffffffffffffffffffffffff160217905550611bfd8061006d6000396000f300608060405260043610610083576000357c0100000000000000000000000000000000000000000000000000000000900463ffffffff16806306065ced146100885780633018205f146100e9578063818944071461014057806392eefe9b146101a15780639f66cddf146101fc578063b53709af1461027c578063f2dc8266146102f7575b600080fd5b34801561009457600080fd5b506100d3600480360381019080803573ffffffffffffffffffffffffffffffffffffffff16906020019092919080359060200190929190505050610362565b6040518082815260200191505060405180910390f35b3480156100f557600080fd5b506100fe610416565b604051808273ffffffffffffffffffffffffffffffffffffffff1673ffffffffffffffffffffffffffffffffffffffff16815260200191505060405180910390f35b34801561014c57600080fd5b5061018b600480360381019080803573ffffffffffffffffffffffffffffffffffffffff1690602001909291908035906020019092919050505061043f565b6040518082815260200191505060405180910390f35b3480156101ad57600080fd5b506101e2600480360381019080803573ffffffffffffffffffffffffffffffffffffffff16906020019092919050505061059d565b604051808215151515815260200191505060405180910390f35b34801561020857600080fd5b50610251600480360381019080803573ffffffffffffffffffffffffffffffffffffffff1690602001909291908035906020019092919080359060200190929190505050610643565b6040518085815260200184815260200183815260200182815260200194505050505060405180910390f35b34801561028857600080fd5b506102dd600480360381019080803573ffffffffffffffffffffffffffffffffffffffff169060200190929190803573ffffffffffffffffffffffffffffffffffffffff1690602001909291905050506106aa565b604051808215151515815260200191505060405180910390f35b34801561030357600080fd5b5061034c600480360381019080803573ffffffffffffffffffffffffffffffffffffffff169060200190929190803590602001909291908035906020019092919050505061174c565b6040518082815260200191505060405180910390f35b60008273ffffffffffffffffffffffffffffffffffffffff1663f8c52125836040518263ffffffff167c010000000000000000000000000000000000000000000000000000000002815260040180828152602001915050602060405180830381600087803b1580156103d357600080fd5b505af11580156103e7573d6000803e3d6000fd5b505050506040513d60208110156103fd57600080fd5b8101908080519060200190929190505050905092915050565b60008060009054906101000a900473ffffffffffffffffffffffffffffffffffffffff16905090565b6000808373ffffffffffffffffffffffffffffffffffffffff1663870c426d6040518163ffffffff167c0100000000000000000000000000000000000000000000000000000000028152600401602060405180830381600087803b1580156104a657600080fd5b505af11580156104ba573d6000803e3d6000fd5b505050506040513d60208110156104d057600080fd5b810190808051906020019092919050505073ffffffffffffffffffffffffffffffffffffffff16638f93bffe6040518163ffffffff167c0100000000000000000000000000000000000000000000000000000000028152600401602060405180830381600087803b15801561054457600080fd5b505af1158015610558573d6000803e3d6000fd5b505050506040513d602081101561056e57600080fd5b81019080805190602001909291905050509050610594818461181890919063ffffffff16565b91505092915050565b60008060009054906101000a900473ffffffffffffffffffffffffffffffffffffffff1673ffffffffffffffffffffffffffffffffffffffff163373ffffffffffffffffffffffffffffffffffffffff161415156105fa57600080fd5b816000806101000a81548173ffffffffffffffffffffffffffffffffffffffff021916908373ffffffffffffffffffffffffffffffffffffffff16021790555060019050919050565b60008060008061065487878761174c565b93506106608785610362565b915061066c878561043f565b905061069381610685848761183390919063ffffffff16565b61183390919063ffffffff16565b925083838383935093509350935093509350935093565b60008060008060008060008060008a60008173ffffffffffffffffffffffffffffffffffffffff1663870c426d6040518163ffffffff167c0100000000000000000000000000000000000000000000000000000000028152600401602060405180830381600087803b15801561071f57600080fd5b505af1158015610733573d6000803e3d6000fd5b505050506040513d602081101561074957600080fd5b810190808051906020019092919050505090506000809054906101000a900473ffffffffffffffffffffffffffffffffffffffff1673ffffffffffffffffffffffffffffffffffffffff16634e94c8296040518163ffffffff167c0100000000000000000000000000000000000000000000000000000000028152600401602060405180830381600087803b1580156107e157600080fd5b505af11580156107f5573d6000803e3d6000fd5b505050506040513d602081101561080b57600080fd5b810190808051906020019092919050505073ffffffffffffffffffffffffffffffffffffffff16638cfb8f21826040518263ffffffff167c0100000000000000000000000000000000000000000000000000000000028152600401808273ffffffffffffffffffffffffffffffffffffffff1673ffffffffffffffffffffffffffffffffffffffff168152602001915050602060405180830381600087803b1580156108b657600080fd5b505af11580156108ca573d6000803e3d6000fd5b505050506040513d60208110156108e057600080fd5b810190808051906020019092919050505015156108fc57600080fd5b8073ffffffffffffffffffffffffffffffffffffffff16639f7e1bf6836040518263ffffffff167c0100000000000000000000000000000000000000000000000000000000028152600401808273ffffffffffffffffffffffffffffffffffffffff1673ffffffffffffffffffffffffffffffffffffffff168152602001915050602060405180830381600087803b15801561099757600080fd5b505af11580156109ab573d6000803e3d6000fd5b505050506040513d60208110156109c157600080fd5b810190808051906020019092919050505015156109dd57600080fd5b6000809054906101000a900473ffffffffffffffffffffffffffffffffffffffff1673ffffffffffffffffffffffffffffffffffffffff166322763ae16040518163ffffffff167c0100000000000000000000000000000000000000000000000000000000028152600401602060405180830381600087803b158015610a6257600080fd5b505af1158015610a76573d6000803e3d6000fd5b505050506040513d6020811015610a8c57600080fd5b81019080805190602001909291905050501515610aa857600080fd5b600060149054906101000a900460ff16151515610ac457600080fd5b6001600060146101000a81548160ff021916908315150217905550610b97610aea61184f565b8e73ffffffffffffffffffffffffffffffffffffffff1663a0e16fed6040518163ffffffff167c0100000000000000000000000000000000000000000000000000000000028152600401602060405180830381600087803b158015610b4e57600080fd5b505af1158015610b62573d6000803e3d6000fd5b505050506040513d6020811015610b7857600080fd5b810190808051906020019092919050505061185a90919063ffffffff16565b6000809054906101000a900473ffffffffffffffffffffffffffffffffffffffff1673ffffffffffffffffffffffffffffffffffffffff1663188ec3566040518163ffffffff167c0100000000000000000000000000000000000000000000000000000000028152600401602060405180830381600087803b158015610c1c57600080fd5b505af1158015610c30573d6000803e3d6000fd5b505050506040513d6020811015610c4657600080fd5b8101908080519060200190929190505050111515610c6357600080fd5b8c73ffffffffffffffffffffffffffffffffffffffff1663df2a29da6040518163ffffffff167c0100000000000000000000000000000000000000000000000000000000028152600401602060405180830381600087803b158015610cc757600080fd5b505af1158015610cdb573d6000803e3d6000fd5b505050506040513d6020811015610cf157600080fd5b81019080805190602001909291905050509950600098505b8c73ffffffffffffffffffffffffffffffffffffffff166327ce5b8c6040518163ffffffff167c0100000000000000000000000000000000000000000000000000000000028152600401602060405180830381600087803b158015610d6d57600080fd5b505af1158015610d81573d6000803e3d6000fd5b505050506040513d6020811015610d9757600080fd5b810190808051906020019092919050505089101561167e578c73ffffffffffffffffffffffffffffffffffffffff166365957bf58a6040518263ffffffff167c010000000000000000000000000000000000000000000000000000000002815260040180828152602001915050602060405180830381600087803b158015610e1e57600080fd5b505af1158015610e32573d6000803e3d6000fd5b505050506040513d6020811015610e4857600080fd5b810190808051906020019092919050505097508773ffffffffffffffffffffffffffffffffffffffff166370a082318d6040518263ffffffff167c0100000000000000000000000000000000000000000000000000000000028152600401808273ffffffffffffffffffffffffffffffffffffffff1673ffffffffffffffffffffffffffffffffffffffff168152602001915050602060405180830381600087803b158015610ef657600080fd5b505af1158015610f0a573d6000803e3d6000fd5b505050506040513d6020811015610f2057600080fd5b81019080805190602001909291905050509650610f3e8d8a89610643565b809650819750829850839950505050506000871115611045578773ffffffffffffffffffffffffffffffffffffffff1663d333d7cf8d896040518363ffffffff167c0100000000000000000000000000000000000000000000000000000000028152600401808373ffffffffffffffffffffffffffffffffffffffff1673ffffffffffffffffffffffffffffffffffffffff16815260200182815260200192505050602060405180830381600087803b158015610ffa57600080fd5b505af115801561100e573d6000803e3d6000fd5b505050506040513d602081101561102457600080fd5b8101908080519060200190929190505050506110438d898e8a8961187b565b505b600085111561124b578973ffffffffffffffffffffffffffffffffffffffff166323b872dd8e30886040518463ffffffff167c0100000000000000000000000000000000000000000000000000000000028152600401808473ffffffffffffffffffffffffffffffffffffffff1673ffffffffffffffffffffffffffffffffffffffff1681526020018373ffffffffffffffffffffffffffffffffffffffff1673ffffffffffffffffffffffffffffffffffffffff1681526020018281526020019350505050602060405180830381600087803b15801561112557600080fd5b505af1158015611139573d6000803e3d6000fd5b505050506040513d602081101561114f57600080fd5b8101908080519060200190929190505050151561116b57600080fd5b8973ffffffffffffffffffffffffffffffffffffffff16631baffe388d876040518363ffffffff167c0100000000000000000000000000000000000000000000000000000000028152600401808373ffffffffffffffffffffffffffffffffffffffff1673ffffffffffffffffffffffffffffffffffffffff16815260200182815260200192505050602060405180830381600087803b15801561120e57600080fd5b505af1158015611222573d6000803e3d6000fd5b505050506040513d602081101561123857600080fd5b8101908080519060200190929190505050505b6000841115611410578973ffffffffffffffffffffffffffffffffffffffff166323b872dd8e8f73ffffffffffffffffffffffffffffffffffffffff1663ed23378b6040518163ffffffff167c0100000000000000000000000000000000000000000000000000000000028152600401602060405180830381600087803b1580156112d557600080fd5b505af11580156112e9573d6000803e3d6000fd5b505050506040513d60208110156112ff57600080fd5b8101908080519060200190929190505050876040518463ffffffff167c0100000000000000000000000000000000000000000000000000000000028152600401808473ffffffffffffffffffffffffffffffffffffffff1673ffffffffffffffffffffffffffffffffffffffff1681526020018373ffffffffffffffffffffffffffffffffffffffff1673ffffffffffffffffffffffffffffffffffffffff1681526020018281526020019350505050602060405180830381600087803b1580156113c957600080fd5b505af11580156113dd573d6000803e3d6000fd5b505050506040513d60208110156113f357600080fd5b8101908080519060200190929190505050151561140f57600080fd5b5b6000831115611673578973ffffffffffffffffffffffffffffffffffffffff166323b872dd8e8f73ffffffffffffffffffffffffffffffffffffffff1663870c426d6040518163ffffffff167c0100000000000000000000000000000000000000000000000000000000028152600401602060405180830381600087803b15801561149a57600080fd5b505af11580156114ae573d6000803e3d6000fd5b505050506040513d60208110156114c457600080fd5b810190808051906020019092919050505073ffffffffffffffffffffffffffffffffffffffff16630cc8c9af6040518163ffffffff167c0100000000000000000000000000000000000000000000000000000000028152600401602060405180830381600087803b15801561153857600080fd5b505af115801561154c573d6000803e3d6000fd5b505050506040513d602081101561156257600080fd5b8101908080519060200190929190505050866040518463ffffffff167c0100000000000000000000000000000000000000000000000000000000028152600401808473ffffffffffffffffffffffffffffffffffffffff1673ffffffffffffffffffffffffffffffffffffffff1681526020018373ffffffffffffffffffffffffffffffffffffffff1673ffffffffffffffffffffffffffffffffffffffff1681526020018281526020019350505050602060405180830381600087803b15801561162c57600080fd5b505af1158015611640573d6000803e3d6000fd5b505050506040513d602081101561165657600080fd5b8101908080519060200190929190505050151561167257600080fd5b5b886001019850610d09565b8c73ffffffffffffffffffffffffffffffffffffffff1663a0695f246040518163ffffffff167c0100000000000000000000000000000000000000000000000000000000028152600401602060405180830381600087803b1580156116e257600080fd5b505af11580156116f6573d6000803e3d6000fd5b505050506040513d602081101561170c57600080fd5b81019080805190602001909291905050505060019a5060008060146101000a81548160ff0219169083151502179055505050505050505050505092915050565b6000808473ffffffffffffffffffffffffffffffffffffffff16633c264820856040518263ffffffff167c010000000000000000000000000000000000000000000000000000000002815260040180828152602001915050602060405180830381600087803b1580156117be57600080fd5b505af11580156117d2573d6000803e3d6000fd5b505050506040513d60208110156117e857600080fd5b8101908080519060200190929190505050905061180e8184611b9b90919063ffffffff16565b9150509392505050565b600080828481151561182657fe5b0490508091505092915050565b600082821115151561184457600080fd5b818303905092915050565b60006203f480905090565b600080828401905083811015151561187157600080fd5b8091505092915050565b60008060009054906101000a900473ffffffffffffffffffffffffffffffffffffffff1673ffffffffffffffffffffffffffffffffffffffff16634e94c8296040518163ffffffff167c0100000000000000000000000000000000000000000000000000000000028152600401602060405180830381600087803b15801561190257600080fd5b505af1158015611916573d6000803e3d6000fd5b505050506040513d602081101561192c57600080fd5b810190808051906020019092919050505073ffffffffffffffffffffffffffffffffffffffff16636051fa2c8773ffffffffffffffffffffffffffffffffffffffff1663870c426d6040518163ffffffff167c0100000000000000000000000000000000000000000000000000000000028152600401602060405180830381600087803b1580156119bc57600080fd5b505af11580156119d0573d6000803e3d6000fd5b505050506040513d60208110156119e657600080fd5b810190808051906020019092919050505087878a8888611a268a8d73ffffffffffffffffffffffffffffffffffffffff163161185a90919063ffffffff16565b6040518863ffffffff167c0100000000000000000000000000000000000000000000000000000000028152600401808873ffffffffffffffffffffffffffffffffffffffff1673ffffffffffffffffffffffffffffffffffffffff1681526020018773ffffffffffffffffffffffffffffffffffffffff1673ffffffffffffffffffffffffffffffffffffffff1681526020018673ffffffffffffffffffffffffffffffffffffffff1673ffffffffffffffffffffffffffffffffffffffff1681526020018573ffffffffffffffffffffffffffffffffffffffff1673ffffffffffffffffffffffffffffffffffffffff168152602001848152602001838152602001828152602001975050505050505050602060405180830381600087803b158015611b5257600080fd5b505af1158015611b66573d6000803e3d6000fd5b505050506040513d6020811015611b7c57600080fd5b8101908080519060200190929190505050506001905095945050505050565b60008082840290506000841480611bbc5750828482811515611bb957fe5b04145b1515611bc757600080fd5b80915050929150505600a165627a7a7230582006361bc868ff618076f5b96b1fd2cb3141b2eba2ddf2e4cd0d18150caef840f40029",
  "source": "pragma solidity ^0.4.22;\n\n\nimport './../trading/IClaimTradingProceeds.sol';\nimport './../Controlled.sol';\nimport './../libraries/ReentrancyGuard.sol';\nimport './../libraries/CashAutoConverter.sol';\nimport './../libraries/MarketValidator.sol';\nimport './../reporting/IMarket.sol';\nimport './../trading/ICash.sol';\nimport './../libraries/math/SafeMathUint256.sol';\nimport './../reporting/Reporting.sol';\n\n\n/**\n * @title ClaimTradingProceeds\n * @dev This allows users to claim their money from a market by exchanging their shares\n */\ncontract ClaimTradingProceeds is CashAutoConverter, ReentrancyGuard, MarketValidator, IClaimTradingProceeds {\n    using SafeMathUint256 for uint256;\n\n    function claimTradingProceeds(IMarket _market, address _shareHolder) marketIsLegit(_market) onlyInGoodTimes nonReentrant external returns(bool) {\n        // NOTE: this requirement does _not_ enforce market finalization. That requirement occurs later on in this function when calling getWinningPayoutNumerator. When this requirement is removed we may want to consider explicitly requiring it here (or modifying this comment and keeping the gas savings)\n        require(controller.getTimestamp() > _market.getFinalizationTime().add(Reporting.getClaimTradingProceedsWaitTime()));\n\n        ICash _denominationToken = _market.getDenominationToken();\n\n        for (uint256 _outcome = 0; _outcome < _market.getNumberOfOutcomes(); ++_outcome) {\n            IShareToken _shareToken = _market.getShareToken(_outcome);\n            uint256 _numberOfShares = _shareToken.balanceOf(_shareHolder);\n            uint256 _proceeds;\n            uint256 _shareHolderShare;\n            uint256 _creatorShare;\n            uint256 _reporterShare;\n            (_proceeds, _shareHolderShare, _creatorShare, _reporterShare) = divideUpWinnings(_market, _outcome, _numberOfShares);\n\n            // always destroy shares as it gives a minor gas refund and is good for the network\n            if (_numberOfShares > 0) {\n                _shareToken.destroyShares(_shareHolder, _numberOfShares);\n                logTradingProceedsClaimed(_market, _shareToken, _shareHolder, _numberOfShares, _shareHolderShare);\n            }\n            if (_shareHolderShare > 0) {\n                require(_denominationToken.transferFrom(_market, this, _shareHolderShare));\n                _denominationToken.withdrawEtherTo(_shareHolder, _shareHolderShare);\n            }\n            if (_creatorShare > 0) {\n                require(_denominationToken.transferFrom(_market, _market.getMarketCreatorMailbox(), _creatorShare));\n            }\n            if (_reporterShare > 0) {\n                require(_denominationToken.transferFrom(_market, _market.getUniverse().getOrCreateNextFeeWindow(), _reporterShare));\n            }\n        }\n\n        _market.assertBalances();\n\n        return true;\n    }\n\n    function logTradingProceedsClaimed(IMarket _market, address _shareToken, address _sender, uint256 _numShares, uint256 _numPayoutTokens) private returns (bool) {\n        controller.getAugur().logTradingProceedsClaimed(_market.getUniverse(), _shareToken, _sender, _market, _numShares, _numPayoutTokens, _sender.balance.add(_numPayoutTokens));\n        return true;\n    }\n\n    function divideUpWinnings(IMarket _market, uint256 _outcome, uint256 _numberOfShares) public returns (uint256 _proceeds, uint256 _shareHolderShare, uint256 _creatorShare, uint256 _reporterShare) {\n        _proceeds = calculateProceeds(_market, _outcome, _numberOfShares);\n        _creatorShare = calculateCreatorFee(_market, _proceeds);\n        _reporterShare = calculateReportingFee(_market, _proceeds);\n        _shareHolderShare = _proceeds.sub(_creatorShare).sub(_reporterShare);\n        return (_proceeds, _shareHolderShare, _creatorShare, _reporterShare);\n    }\n\n    function calculateProceeds(IMarket _market, uint256 _outcome, uint256 _numberOfShares) public view returns (uint256) {\n        uint256 _payoutNumerator = _market.getWinningPayoutNumerator(_outcome);\n        return _numberOfShares.mul(_payoutNumerator);\n    }\n\n    function calculateReportingFee(IMarket _market, uint256 _amount) public returns (uint256) {\n        uint256 _reportingFeeDivisor = _market.getUniverse().getOrCacheReportingFeeDivisor();\n        return _amount.div(_reportingFeeDivisor);\n    }\n\n    function calculateCreatorFee(IMarket _market, uint256 _amount) public view returns (uint256) {\n        return _market.deriveMarketCreatorFeeAmount(_amount);\n    }\n}\n",
  "sourcePath": "/Users/jasperdegooijer/Documents/eth-berlin/flux-oracle/libraries/augur/source/contracts/trading/ClaimTradingProceeds.sol",
  "compiler": {
    "name": "solc",
    "version": "0.4.22+commit.4cb486ee.Emscripten.clang"
  },
  "schemaVersion": "3.0.1",
  "updatedAt": "2019-08-22T08:47:45.329Z",
  "devdoc": {
    "methods": {},
    "title": "ClaimTradingProceeds"
  },
  "userdoc": {
    "methods": {}
  }
}