{
  "contractName": "Controlled",
  "abi": [
    {
      "inputs": [],
      "payable": false,
      "stateMutability": "nonpayable",
      "type": "constructor"
    },
    {
      "constant": true,
      "inputs": [],
      "name": "getController",
      "outputs": [
        {
          "name": "",
          "type": "address"
        }
      ],
      "payable": false,
      "stateMutability": "view",
      "type": "function"
    },
    {
      "constant": false,
      "inputs": [
        {
          "name": "_controller",
          "type": "address"
        }
      ],
      "name": "setController",
      "outputs": [
        {
          "name": "",
          "type": "bool"
        }
      ],
      "payable": false,
      "stateMutability": "nonpayable",
      "type": "function"
    }
  ],
  "bytecode": "0x608060405234801561001057600080fd5b50336000806101000a81548173ffffffffffffffffffffffffffffffffffffffff021916908373ffffffffffffffffffffffffffffffffffffffff1602179055506101fe806100606000396000f30060806040526004361061004c576000357c0100000000000000000000000000000000000000000000000000000000900463ffffffff1680633018205f1461005157806392eefe9b146100a8575b600080fd5b34801561005d57600080fd5b50610066610103565b604051808273ffffffffffffffffffffffffffffffffffffffff1673ffffffffffffffffffffffffffffffffffffffff16815260200191505060405180910390f35b3480156100b457600080fd5b506100e9600480360381019080803573ffffffffffffffffffffffffffffffffffffffff16906020019092919050505061012c565b604051808215151515815260200191505060405180910390f35b60008060009054906101000a900473ffffffffffffffffffffffffffffffffffffffff16905090565b60008060009054906101000a900473ffffffffffffffffffffffffffffffffffffffff1673ffffffffffffffffffffffffffffffffffffffff163373ffffffffffffffffffffffffffffffffffffffff1614151561018957600080fd5b816000806101000a81548173ffffffffffffffffffffffffffffffffffffffff021916908373ffffffffffffffffffffffffffffffffffffffff160217905550600190509190505600a165627a7a723058205bd5c33f887c44196458784db4c6cebafb4e118c3ab52dddfe30a4c340a65b7c0029",
  "source": "pragma solidity ^0.4.22;\n\n\nimport './IControlled.sol';\nimport './IController.sol';\nimport './libraries/token/ERC20Basic.sol';\n\n\ncontract Controlled is IControlled {\n    IController internal controller;\n\n    modifier onlyWhitelistedCallers {\n        require(controller.assertIsWhitelisted(msg.sender));\n        _;\n    }\n\n    modifier onlyCaller(bytes32 _key) {\n        require(msg.sender == controller.lookup(_key));\n        _;\n    }\n\n    modifier onlyControllerCaller {\n        require(IController(msg.sender) == controller);\n        _;\n    }\n\n    modifier onlyInGoodTimes {\n        require(controller.stopInEmergency());\n        _;\n    }\n\n    modifier onlyInBadTimes {\n        require(controller.onlyInEmergency());\n        _;\n    }\n\n    constructor() public {\n        controller = IController(msg.sender);\n    }\n\n    function getController() public view returns(IController) {\n        return controller;\n    }\n\n    function setController(IController _controller) public onlyControllerCaller returns(bool) {\n        controller = _controller;\n        return true;\n    }\n}\n",
  "sourcePath": "/Users/jasperdegooijer/Documents/eth-berlin/flux-oracle/libraries/augur/source/contracts/Controlled.sol",
  "compiler": {
    "name": "solc",
    "version": "0.4.22+commit.4cb486ee.Emscripten.clang"
  },
  "schemaVersion": "3.0.1",
  "updatedAt": "2019-08-22T08:47:45.292Z",
  "devdoc": {
    "methods": {}
  },
  "userdoc": {
    "methods": {}
  }
}