{
  "contractName": "FakeLink",
  "abi": [
    {
      "constant": true,
      "inputs": [],
      "name": "nonce",
      "outputs": [
        {
          "name": "",
          "type": "uint256"
        }
      ],
      "payable": false,
      "stateMutability": "view",
      "type": "function"
    },
    {
      "anonymous": false,
      "inputs": [
        {
          "indexed": false,
          "name": "id",
          "type": "bytes32"
        },
        {
          "indexed": false,
          "name": "url",
          "type": "string"
        },
        {
          "indexed": false,
          "name": "path",
          "type": "string"
        }
      ],
      "name": "newRequest",
      "type": "event"
    },
    {
      "constant": false,
      "inputs": [
        {
          "name": "_url",
          "type": "string"
        },
        {
          "name": "_path",
          "type": "string"
        },
        {
          "name": "_callbackFunctionSelector",
          "type": "bytes4"
        }
      ],
      "name": "requestAPIData",
      "outputs": [
        {
          "name": "",
          "type": "bytes32"
        }
      ],
      "payable": false,
      "stateMutability": "nonpayable",
      "type": "function"
    },
    {
      "constant": false,
      "inputs": [
        {
          "name": "_requestId",
          "type": "bytes32"
        },
        {
          "name": "_answer",
          "type": "bytes32"
        },
        {
          "name": "_invalid",
          "type": "bool"
        }
      ],
      "name": "answerAPIData",
      "outputs": [
        {
          "name": "",
          "type": "bool"
        }
      ],
      "payable": false,
      "stateMutability": "nonpayable",
      "type": "function"
    }
  ],
  "bytecode": "0x60806040526000805534801561001457600080fd5b506108cf806100246000396000f300608060405260043610610057576000357c0100000000000000000000000000000000000000000000000000000000900463ffffffff1680631b3b585d1461005c578063aba9d18214610099578063affed0e0146100d6575b600080fd5b34801561006857600080fd5b50610083600480360361007e91908101906105b5565b610101565b60405161009091906106e6565b60405180910390f35b3480156100a557600080fd5b506100c060048036036100bb9190810190610604565b610223565b6040516100cd9190610701565b60405180910390f35b3480156100e257600080fd5b506100eb610478565b6040516100f89190610761565b60405180910390f35b60008060016000866000191660001916815260200190815260200160002090508060000160009054906101000a900473ffffffffffffffffffffffffffffffffffffffff1673ffffffffffffffffffffffffffffffffffffffff168160000160149054906101000a90047c0100000000000000000000000000000000000000000000000000000000027c010000000000000000000000000000000000000000000000000000000090048686866040518463ffffffff167c010000000000000000000000000000000000000000000000000000000002815260040180846000191660001916815260200183600019166000191681526020018215151515815260200193505050506000604051808303816000875af1925050509150509392505050565b60008084846000546040518084805190602001908083835b602083101515610260578051825260208201915060208101905060208303925061023b565b6001836020036101000a03801982511681845116808217855250505050505090500183805190602001908083835b6020831015156102b3578051825260208201915060208101905060208303925061028e565b6001836020036101000a0380198251168184511680821785525050505050509050018281526020019350505050604051809103902090506080604051908101604052803373ffffffffffffffffffffffffffffffffffffffff168152602001847bffffffffffffffffffffffffffffffffffffffffffffffffffffffff191681526020018681526020018581525060016000836000191660001916815260200190815260200160002060008201518160000160006101000a81548173ffffffffffffffffffffffffffffffffffffffff021916908373ffffffffffffffffffffffffffffffffffffffff16021790555060208201518160000160146101000a81548163ffffffff02191690837c010000000000000000000000000000000000000000000000000000000090040217905550604082015181600101908051906020019061040092919061047e565b50606082015181600201908051906020019061041d92919061047e565b5090505060008081548092919060010191905055507f76490642c8287e6edfc42fa652913eddc4afce18c8e895e2e46349dd187509158186866040516104659392919061071c565b60405180910390a1809150509392505050565b60005481565b828054600181600116156101000203166002900490600052602060002090601f016020900481019282601f106104bf57805160ff19168380011785556104ed565b828001600101855582156104ed579182015b828111156104ec5782518255916020019190600101906104d1565b5b5090506104fa91906104fe565b5090565b61052091905b8082111561051c576000816000905550600101610504565b5090565b90565b600061052f8235610800565b905092915050565b6000610543823561080c565b905092915050565b60006105578235610816565b905092915050565b600082601f830112151561057257600080fd5b8135610585610580826107a9565b61077c565b915080825260208301602083018583830111156105a157600080fd5b6105ac838284610842565b50505092915050565b6000806000606084860312156105ca57600080fd5b60006105d886828701610537565b93505060206105e986828701610537565b92505060406105fa86828701610523565b9150509250925092565b60008060006060848603121561061957600080fd5b600084013567ffffffffffffffff81111561063357600080fd5b61063f8682870161055f565b935050602084013567ffffffffffffffff81111561065c57600080fd5b6106688682870161055f565b92505060406106798682870161054b565b9150509250925092565b61068c816107e0565b82525050565b61069b816107ec565b82525050565b60006106ac826107d5565b8084526106c0816020860160208601610851565b6106c981610884565b602085010191505092915050565b6106e0816107f6565b82525050565b60006020820190506106fb6000830184610683565b92915050565b60006020820190506107166000830184610692565b92915050565b60006060820190506107316000830186610692565b818103602083015261074381856106a1565b9050818103604083015261075781846106a1565b9050949350505050565b600060208201905061077660008301846106d7565b92915050565b6000604051905081810181811067ffffffffffffffff8211171561079f57600080fd5b8060405250919050565b600067ffffffffffffffff8211156107c057600080fd5b601f19601f8301169050602081019050919050565b600081519050919050565b60008115159050919050565b6000819050919050565b6000819050919050565b60008115159050919050565b6000819050919050565b60007fffffffff0000000000000000000000000000000000000000000000000000000082169050919050565b82818337600083830152505050565b60005b8381101561086f578082015181840152602081019050610854565b8381111561087e576000848401525b50505050565b6000601f19601f83011690509190505600a265627a7a72305820a1e2e5b5088dea15898f9c177a37f5929f179628b3e78580ef677bad6d6207ec6c6578706572696d656e74616cf50037",
  "source": "pragma solidity >= 0.4.22;\npragma experimental ABIEncoderV2;\n\nimport \"./../libraries/openzeppelin-solidity/SafeMathLib.sol\";\n \ncontract FakeLink {\n\tusing SafeMathLib for uint256;\n\t\n\tuint public nonce = 0;\n\t\n\tevent newRequest(bytes32 id, string url, string path);\n\t\n\tstruct Request {\n\t\taddress requestContract;\n\t\tbytes4 callbackFunctionSelector;\n\t\tstring url;\n\t\tstring path;\n\t}\n\n\tmapping(bytes32 => Request) requests;\n\n\tfunction requestAPIData(string _url, string _path, bytes4 _callbackFunctionSelector) \n\tpublic\n\treturns (bytes32) {\n\t\tbytes32 requestId = keccak256(_url, _path, nonce);\n\t\trequests[requestId] = Request(msg.sender, _callbackFunctionSelector, _url, _path);\n\t\tnonce++;\n\t\temit newRequest(requestId, _url, _path);\n\t\treturn requestId;\n\t}\n\n\tfunction answerAPIData(bytes32 _requestId, bytes32 _answer, bool _invalid)\n\tpublic\n\treturns (bool) {\n\t\tRequest request = requests[_requestId];\n\t\treturn request.requestContract.call(request.callbackFunctionSelector, _requestId, _answer, _invalid);\n\t}\n}",
  "sourcePath": "/Users/jasperdegooijer/Documents/eth-berlin/flux-oracle/contracts/FakeLink.sol",
  "compiler": {
    "name": "solc",
    "version": "0.4.22+commit.4cb486ee.Emscripten.clang"
  },
  "schemaVersion": "3.0.1",
  "updatedAt": "2019-08-23T12:48:21.920Z",
  "devdoc": {
    "methods": {}
  },
  "userdoc": {
    "methods": {}
  }
}