{
  "contractName": "InitialReporterFactory",
  "abi": [
    {
      "constant": false,
      "inputs": [
        {
          "name": "_controller",
          "type": "address"
        },
        {
          "name": "_market",
          "type": "address"
        },
        {
          "name": "_designatedReporter",
          "type": "address"
        }
      ],
      "name": "createInitialReporter",
      "outputs": [
        {
          "name": "",
          "type": "address"
        }
      ],
      "payable": false,
      "stateMutability": "nonpayable",
      "type": "function"
    }
  ],
  "bytecode": "0x608060405234801561001057600080fd5b50610730806100206000396000f300608060405260043610610041576000357c0100000000000000000000000000000000000000000000000000000000900463ffffffff168063b30949d914610046575b600080fd5b34801561005257600080fd5b506100c7600480360381019080803573ffffffffffffffffffffffffffffffffffffffff169060200190929190803573ffffffffffffffffffffffffffffffffffffffff169060200190929190803573ffffffffffffffffffffffffffffffffffffffff169060200190929190505050610109565b604051808273ffffffffffffffffffffffffffffffffffffffff1673ffffffffffffffffffffffffffffffffffffffff16815260200191505060405180910390f35b6000806000856101176102ae565b808273ffffffffffffffffffffffffffffffffffffffff1673ffffffffffffffffffffffffffffffffffffffff168152602001807f496e697469616c5265706f727465720000000000000000000000000000000000815250602001915050604051809103906000f080158015610191573d6000803e3d6000fd5b5091508190508073ffffffffffffffffffffffffffffffffffffffff1663485cc95586866040518363ffffffff167c0100000000000000000000000000000000000000000000000000000000028152600401808373ffffffffffffffffffffffffffffffffffffffff1673ffffffffffffffffffffffffffffffffffffffff1681526020018273ffffffffffffffffffffffffffffffffffffffff1673ffffffffffffffffffffffffffffffffffffffff16815260200192505050602060405180830381600087803b15801561026657600080fd5b505af115801561027a573d6000803e3d6000fd5b505050506040513d602081101561029057600080fd5b81019080805190602001909291905050505080925050509392505050565b604051610446806102bf833901905600608060405234801561001057600080fd5b506040516040806104468339810180604052810190808051906020019092919080519060200190929190505050336000806101000a81548173ffffffffffffffffffffffffffffffffffffffff021916908373ffffffffffffffffffffffffffffffffffffffff160217905550816000806101000a81548173ffffffffffffffffffffffffffffffffffffffff021916908373ffffffffffffffffffffffffffffffffffffffff1602179055508060018160001916905550505061036d806100d96000396000f300608060405260043610610057576000357c0100000000000000000000000000000000000000000000000000000000900463ffffffff1680633018205f1461018757806392eefe9b146101de578063bef72fa214610239575b60008060010260015460001916141561006f57610184565b6000809054906101000a900473ffffffffffffffffffffffffffffffffffffffff1673ffffffffffffffffffffffffffffffffffffffff1663f39ec1f76001546040518263ffffffff167c0100000000000000000000000000000000000000000000000000000000028152600401808260001916600019168152602001915050602060405180830381600087803b15801561010957600080fd5b505af115801561011d573d6000803e3d6000fd5b505050506040513d602081101561013357600080fd5b81019080805190602001909291905050509050604051601f19601f36011680820160405236600083376000803684865af4806000811461017f576040513d81016040523d6000823e3d81f35b600080fd5b50005b34801561019357600080fd5b5061019c61026c565b604051808273ffffffffffffffffffffffffffffffffffffffff1673ffffffffffffffffffffffffffffffffffffffff16815260200191505060405180910390f35b3480156101ea57600080fd5b5061021f600480360381019080803573ffffffffffffffffffffffffffffffffffffffff169060200190929190505050610295565b604051808215151515815260200191505060405180910390f35b34801561024557600080fd5b5061024e61033b565b60405180826000191660001916815260200191505060405180910390f35b60008060009054906101000a900473ffffffffffffffffffffffffffffffffffffffff16905090565b60008060009054906101000a900473ffffffffffffffffffffffffffffffffffffffff1673ffffffffffffffffffffffffffffffffffffffff163373ffffffffffffffffffffffffffffffffffffffff161415156102f257600080fd5b816000806101000a81548173ffffffffffffffffffffffffffffffffffffffff021916908373ffffffffffffffffffffffffffffffffffffffff16021790555060019050919050565b600154815600a165627a7a723058200a117e64b9b2b71eac615b440f224f5eae5f4f8ced1fc2c6e9a70845aa3e381a0029a165627a7a72305820db416bddbc6026313182fef8ca392a82c99aa027e741e72e44d9d3114e1988f30029",
  "source": "pragma solidity ^0.4.22;\n\nimport './../libraries/Delegator.sol';\nimport './../reporting/IInitialReporter.sol';\nimport './../reporting/IMarket.sol';\nimport './../IController.sol';\n\n\ncontract InitialReporterFactory {\n    function createInitialReporter(IController _controller, IMarket _market, address _designatedReporter) public returns (IInitialReporter) {\n        Delegator _delegator = new Delegator(_controller, \"InitialReporter\");\n        IInitialReporter _initialReporter = IInitialReporter(_delegator);\n        _initialReporter.initialize(_market, _designatedReporter);\n        return _initialReporter;\n    }\n}\n",
  "sourcePath": "/Users/jasperdegooijer/Documents/eth-berlin/flux-oracle/libraries/augur/source/contracts/factories/InitialReporterFactory.sol",
  "compiler": {
    "name": "solc",
    "version": "0.4.24+commit.e67f0147.Emscripten.clang"
  },
  "schemaVersion": "3.0.13",
  "updatedAt": "2019-08-24T23:51:51.479Z",
  "devdoc": {
    "methods": {}
  },
  "userdoc": {
    "methods": {}
  }
}