{
  "contractName": "Initializable",
  "abi": [
    {
      "constant": true,
      "inputs": [],
      "name": "getInitialized",
      "outputs": [
        {
          "name": "",
          "type": "bool"
        }
      ],
      "payable": false,
      "stateMutability": "view",
      "type": "function"
    }
  ],
  "bytecode": "0x608060405260008060006101000a81548160ff02191690831515021790555034801561002a57600080fd5b5060b2806100396000396000f300608060405260043610603f576000357c0100000000000000000000000000000000000000000000000000000000900463ffffffff168063ee89dab4146044575b600080fd5b348015604f57600080fd5b5060566070565b604051808215151515815260200191505060405180910390f35b60008060009054906101000a900460ff169050905600a165627a7a7230582018a8b95bbcf84cd29e9bff673b41f19cefbc255193908ca4fd2d9fd82a4777b30029",
  "source": "pragma solidity ^0.4.22;\n\n\n\ncontract Initializable {\n    bool private initialized = false;\n\n    modifier afterInitialized {\n        require(initialized);\n        _;\n    }\n\n    modifier beforeInitialized {\n        require(!initialized);\n        _;\n    }\n\n    function endInitialization() internal beforeInitialized returns (bool) {\n        initialized = true;\n        return true;\n    }\n\n    function getInitialized() public view returns (bool) {\n        return initialized;\n    }\n}\n",
  "sourcePath": "/Users/jasperdegooijer/Documents/eth-berlin/flux-oracle/libraries/augur/source/contracts/libraries/Initializable.sol",
  "compiler": {
    "name": "solc",
    "version": "0.4.24+commit.e67f0147.Emscripten.clang"
  },
  "schemaVersion": "3.0.13",
  "updatedAt": "2019-08-25T01:25:40.733Z",
  "devdoc": {
    "methods": {}
  },
  "userdoc": {
    "methods": {}
  }
}