{
  "contractName": "MarketOracle",
  "abi": [
    {
      "constant": true,
      "inputs": [],
      "name": "answer",
      "outputs": [
        {
          "name": "",
          "type": "bytes32"
        }
      ],
      "payable": false,
      "stateMutability": "view",
      "type": "function"
    },
    {
      "constant": true,
      "inputs": [],
      "name": "payoutDistributionHash",
      "outputs": [
        {
          "name": "",
          "type": "bytes32"
        }
      ],
      "payable": false,
      "stateMutability": "view",
      "type": "function"
    },
    {
      "inputs": [
        {
          "name": "_url",
          "type": "string"
        },
        {
          "name": "_path",
          "type": "string"
        },
        {
          "name": "_marketDescription",
          "type": "string"
        },
        {
          "name": "_marketTopic",
          "type": "bytes32"
        },
        {
          "name": "_endTime",
          "type": "uint256"
        },
        {
          "name": "_link",
          "type": "address"
        },
        {
          "name": "_jobId",
          "type": "bytes32"
        },
        {
          "name": "_oracle",
          "type": "address"
        }
      ],
      "payable": false,
      "stateMutability": "nonpayable",
      "type": "constructor"
    },
    {
      "payable": true,
      "stateMutability": "payable",
      "type": "fallback"
    },
    {
      "anonymous": false,
      "inputs": [
        {
          "indexed": false,
          "name": "market",
          "type": "address"
        }
      ],
      "name": "marketDisputed",
      "type": "event"
    },
    {
      "anonymous": false,
      "inputs": [
        {
          "indexed": false,
          "name": "id",
          "type": "bytes32"
        },
        {
          "indexed": false,
          "name": "data",
          "type": "bytes32"
        }
      ],
      "name": "dataIsFulfilled",
      "type": "event"
    },
    {
      "anonymous": false,
      "inputs": [
        {
          "indexed": true,
          "name": "id",
          "type": "bytes32"
        }
      ],
      "name": "ChainlinkRequested",
      "type": "event"
    },
    {
      "anonymous": false,
      "inputs": [
        {
          "indexed": true,
          "name": "id",
          "type": "bytes32"
        }
      ],
      "name": "ChainlinkFulfilled",
      "type": "event"
    },
    {
      "anonymous": false,
      "inputs": [
        {
          "indexed": true,
          "name": "id",
          "type": "bytes32"
        }
      ],
      "name": "ChainlinkCancelled",
      "type": "event"
    },
    {
      "constant": false,
      "inputs": [],
      "name": "requestChainlinkUrl",
      "outputs": [
        {
          "name": "requestId",
          "type": "bytes32"
        }
      ],
      "payable": false,
      "stateMutability": "nonpayable",
      "type": "function"
    },
    {
      "constant": false,
      "inputs": [
        {
          "name": "_requestId",
          "type": "bytes32"
        },
        {
          "name": "_answer",
          "type": "bytes32"
        }
      ],
      "name": "dataFulfilled",
      "outputs": [],
      "payable": false,
      "stateMutability": "nonpayable",
      "type": "function"
    },
    {
      "constant": false,
      "inputs": [
        {
          "name": "_correctAnswer",
          "type": "bytes32"
        },
        {
          "name": "_invalid",
          "type": "bool"
        },
        {
          "name": "_disputer",
          "type": "address"
        }
      ],
      "name": "startDispute",
      "outputs": [],
      "payable": true,
      "stateMutability": "payable",
      "type": "function"
    },
    {
      "constant": false,
      "inputs": [
        {
          "name": "payoutNumerators",
          "type": "uint256[]"
        }
      ],
      "name": "submitInitialReport",
      "outputs": [],
      "payable": false,
      "stateMutability": "nonpayable",
      "type": "function"
    },
    {
      "constant": false,
      "inputs": [],
      "name": "finalize",
      "outputs": [
        {
          "name": "",
          "type": "bool"
        }
      ],
      "payable": false,
      "stateMutability": "nonpayable",
      "type": "function"
    },
    {
      "constant": true,
      "inputs": [
        {
          "name": "_outcome",
          "type": "uint256"
        }
      ],
      "name": "getPayoutNumeratorByOutcome",
      "outputs": [
        {
          "name": "",
          "type": "uint256"
        }
      ],
      "payable": false,
      "stateMutability": "view",
      "type": "function"
    },
    {
      "constant": false,
      "inputs": [],
      "name": "claimDisputeTradingProceeds",
      "outputs": [],
      "payable": false,
      "stateMutability": "nonpayable",
      "type": "function"
    },
    {
      "constant": true,
      "inputs": [],
      "name": "getDisputeMarketFinalizationTime",
      "outputs": [
        {
          "name": "",
          "type": "uint256"
        }
      ],
      "payable": false,
      "stateMutability": "view",
      "type": "function"
    },
    {
      "constant": true,
      "inputs": [],
      "name": "getAnswer",
      "outputs": [
        {
          "name": "",
          "type": "bytes32"
        }
      ],
      "payable": false,
      "stateMutability": "view",
      "type": "function"
    },
    {
      "constant": true,
      "inputs": [],
      "name": "getRepToken",
      "outputs": [
        {
          "name": "",
          "type": "address"
        }
      ],
      "payable": false,
      "stateMutability": "view",
      "type": "function"
    },
    {
      "constant": true,
      "inputs": [],
      "name": "getDisputeEndTime",
      "outputs": [
        {
          "name": "",
          "type": "uint256"
        }
      ],
      "payable": false,
      "stateMutability": "view",
      "type": "function"
    },
    {
      "constant": true,
      "inputs": [],
      "name": "getFeeWindow",
      "outputs": [
        {
          "name": "",
          "type": "address"
        }
      ],
      "payable": false,
      "stateMutability": "view",
      "type": "function"
    }
  ],
  "bytecode": "0x608060405260016004556060604051908101604052806040805190810160405280620000466002612710620003be6401000000000262001bb9179091906401000000009004565b8152602001620000716002612710620003be6401000000000262001bb9179091906401000000009004565b815250815260200160408051908101604052806127108152602001600081525081526020016040805190810160405280600081526020016127108152508152506013906003620000c392919062000433565b50348015620000d157600080fd5b506040516200362d3803806200362d8339810180604052620000f79190810190620006cc565b60008042861115156200010957600080fd5b33600660006101000a81548173ffffffffffffffffffffffffffffffffffffffff021916908373ffffffffffffffffffffffffffffffffffffffff16021790555089600790805190602001906200016292919062000495565b5088600890805190602001906200017b92919062000495565b5085600b8190555087601190805190602001906200019b92919062000495565b50866012816000191690555082600a60006101000a81548173ffffffffffffffffffffffffffffffffffffffff021916908373ffffffffffffffffffffffffffffffffffffffff16021790555083600981600019169055506200021842600b54620003d56401000000000262001750179091906401000000009004565b91506200023e601e83620003be6401000000000262001bb9179091906401000000009004565b90506102588110158015620002565750620151808111155b15620002695780600c819055506200029c565b6102588110156200028357610258600c819055506200029b565b620151808111156200029a5762015180600c819055505b5b5b620002b685620003ef640100000000026401000000009004565b733e18b476f3f51127cbb01504aa03c7ae3d16d44173ffffffffffffffffffffffffffffffffffffffff1663095ea7b37325ff5dc79a7c4e34254ff0f4a19d69e491201dd37fffffffffffffffffffffffffffffffffffffffffffffffffffffffffffffffff6040518363ffffffff167c010000000000000000000000000000000000000000000000000000000002815260040162000357929190620007fc565b602060405180830381600087803b1580156200037257600080fd5b505af115801562000387573d6000803e3d6000fd5b505050506040513d601f19601f82011682018060405250620003ad9190810190620006a0565b505050505050505050505062000924565b60008183811515620003cc57fe5b04905092915050565b6000828211151515620003e457fe5b818303905092915050565b80600260006101000a81548173ffffffffffffffffffffffffffffffffffffffff021916908373ffffffffffffffffffffffffffffffffffffffff16021790555050565b82805482825590600052602060002090810192821562000482579160200282015b828111156200048157825182906002620004709291906200051c565b509160200191906001019062000454565b5b5090506200049191906200056e565b5090565b828054600181600116156101000203166002900490600052602060002090601f016020900481019282601f10620004d857805160ff191683800117855562000509565b8280016001018555821562000509579182015b8281111562000508578251825591602001919060010190620004eb565b5b5090506200051891906200059f565b5090565b8280548282559060005260206000209081019282156200055b579160200282015b828111156200055a5782518255916020019190600101906200053d565b5b5090506200056a91906200059f565b5090565b6200059c91905b808211156200059857600081816200058e9190620005c7565b5060010162000575565b5090565b90565b620005c491905b80821115620005c0576000816000905550600101620005a6565b5090565b90565b5080546000825590600052602060002090810190620005e791906200059f565b50565b6000620005f88251620008ae565b905092915050565b60006200060e8251620008ce565b905092915050565b6000620006248251620008da565b905092915050565b600082601f83011215156200064057600080fd5b815162000657620006518262000857565b62000829565b915080825260208301602083018583830111156200067457600080fd5b62000681838284620008ee565b50505092915050565b6000620006988251620008e4565b905092915050565b600060208284031215620006b357600080fd5b6000620006c38482850162000600565b91505092915050565b600080600080600080600080610100898b031215620006ea57600080fd5b600089015167ffffffffffffffff8111156200070557600080fd5b620007138b828c016200062c565b985050602089015167ffffffffffffffff8111156200073157600080fd5b6200073f8b828c016200062c565b975050604089015167ffffffffffffffff8111156200075d57600080fd5b6200076b8b828c016200062c565b96505060606200077e8b828c0162000616565b9550506080620007918b828c016200068a565b94505060a0620007a48b828c01620005ea565b93505060c0620007b78b828c0162000616565b92505060e0620007ca8b828c01620005ea565b9150509295985092959890939650565b620007e58162000884565b82525050565b620007f681620008a4565b82525050565b6000604082019050620008136000830185620007da565b620008226020830184620007eb565b9392505050565b6000604051905081810181811067ffffffffffffffff821117156200084d57600080fd5b8060405250919050565b600067ffffffffffffffff8211156200086f57600080fd5b601f19601f8301169050602081019050919050565b600073ffffffffffffffffffffffffffffffffffffffff82169050919050565b6000819050919050565b600073ffffffffffffffffffffffffffffffffffffffff82169050919050565b60008115159050919050565b6000819050919050565b6000819050919050565b60005b838110156200090e578082015181840152602081019050620008f1565b838111156200091e576000848401525b50505050565b612cf980620009346000396000f3006080604052600436106100d0576000357c0100000000000000000000000000000000000000000000000000000000900463ffffffff168063109ae012146100d257806335651a32146100e95780634bb278f314610114578063632e5b631461013f5780636a1eace11461016a5780636fc659241461019557806385bb7d69146101c05780639c16667c146101eb578063c589a90a14610216578063d397b2271461023f578063e03437d41461027c578063e5d8ff25146102a7578063f77f29b1146102d0578063fe18e9a0146102fb575b005b3480156100de57600080fd5b506100e7610317565b005b3480156100f557600080fd5b506100fe6104ad565b60405161010b91906127da565b60405180910390f35b34801561012057600080fd5b50610129610564565b604051610136919061291f565b60405180910390f35b34801561014b57600080fd5b5061015461077a565b6040516101619190612a2b565b60405180910390f35b34801561017657600080fd5b5061017f610861565b60405161018c919061293a565b60405180910390f35b3480156101a157600080fd5b506101aa610a98565b6040516101b79190612a2b565b60405180910390f35b3480156101cc57600080fd5b506101d5610b82565b6040516101e2919061293a565b60405180910390f35b3480156101f757600080fd5b50610200610b88565b60405161020d919061293a565b60405180910390f35b34801561022257600080fd5b5061023d60048036036102389190810190612389565b610b92565b005b34801561024b57600080fd5b50610266600480360361026191908101906124f9565b610ce2565b6040516102739190612a2b565b60405180910390f35b34801561028857600080fd5b50610291610eb3565b60405161029e919061293a565b60405180910390f35b3480156102b357600080fd5b506102ce60048036036102c99190810190612442565b610eb9565b005b3480156102dc57600080fd5b506102e561101d565b6040516102f291906127da565b60405180910390f35b610315600480360361031091908101906123f3565b611104565b005b6000803073ffffffffffffffffffffffffffffffffffffffff16319150733c6721551c2ba3973560aef3e11d34ce05db404773ffffffffffffffffffffffffffffffffffffffff1663b53709af600f60009054906101000a900473ffffffffffffffffffffffffffffffffffffffff16306040518363ffffffff167c01000000000000000000000000000000000000000000000000000000000281526004016103c1929190612999565b602060405180830381600087803b1580156103db57600080fd5b505af11580156103ef573d6000803e3d6000fd5b505050506040513d601f19601f8201168201806040525061041391908101906123ca565b503073ffffffffffffffffffffffffffffffffffffffff16319050600660009054906101000a900473ffffffffffffffffffffffffffffffffffffffff1673ffffffffffffffffffffffffffffffffffffffff166108fc61047d848461175090919063ffffffff16565b9081150290604051600060405180830381858888f193505050501580156104a8573d6000803e3d6000fd5b505050565b6000736a424c1bd008c82191db24ba1528e60ca92314ca73ffffffffffffffffffffffffffffffffffffffff1663b80907f26040518163ffffffff167c0100000000000000000000000000000000000000000000000000000000028152600401602060405180830381600087803b15801561052757600080fd5b505af115801561053b573d6000803e3d6000fd5b505050506040513d601f19601f8201168201806040525061055f91908101906124d0565b905090565b6000600b54421015151561057757600080fd5b600a60149054906101000a900460ff1615156105d2576001600a60156101000a81548160ff0219169083151502179055506105c3600d54600a60169054906101000a900460ff16611769565b60108160001916905550610777565b6001600a60156101000a81548160ff021916908315150217905550600f60009054906101000a900473ffffffffffffffffffffffffffffffffffffffff1673ffffffffffffffffffffffffffffffffffffffff16638d4e40836040518163ffffffff167c0100000000000000000000000000000000000000000000000000000000028152600401602060405180830381600087803b15801561067357600080fd5b505af1158015610687573d6000803e3d6000fd5b505050506040513d601f19601f820116820180604052506106ab91908101906123ca565b1515156106b757600080fd5b600f60009054906101000a900473ffffffffffffffffffffffffffffffffffffffff1673ffffffffffffffffffffffffffffffffffffffff16634bb278f36040518163ffffffff167c0100000000000000000000000000000000000000000000000000000000028152600401602060405180830381600087803b15801561073d57600080fd5b505af1158015610751573d6000803e3d6000fd5b505050506040513d601f19601f8201168201806040525061077591908101906123ca565b505b90565b600060011515600a60149054906101000a900460ff16151514151561079e57600080fd5b600f60009054906101000a900473ffffffffffffffffffffffffffffffffffffffff1673ffffffffffffffffffffffffffffffffffffffff1663a0e16fed6040518163ffffffff167c0100000000000000000000000000000000000000000000000000000000028152600401602060405180830381600087803b15801561082457600080fd5b505af1158015610838573d6000803e3d6000fd5b505050506040513d601f19601f8201168201806040525061085c9190810190612522565b905090565b600061086b6121ae565b61089b6009543063e5d8ff257c0100000000000000000000000000000000000000000000000000000000026118c2565b90506109816040805190810160405280600381526020017f676574000000000000000000000000000000000000000000000000000000000081525060078054600181600116156101000203166002900480601f01602080910402602001604051908101604052809291908181526020018280546001816001161561010002031660029004801561096c5780601f106109415761010080835404028352916020019161096c565b820191906000526020600020905b81548152906001019060200180831161094f57829003601f168201915b5050505050836118f39092919063ffffffff16565b610a656040805190810160405280600481526020017f706174680000000000000000000000000000000000000000000000000000000081525060088054600181600116156101000203166002900480601f016020809104026020016040519081016040528092919081815260200182805460018160011615610100020316600290048015610a505780601f10610a2557610100808354040283529160200191610a50565b820191906000526020600020905b815481529060010190602001808311610a3357829003601f168201915b5050505050836118f39092919063ffffffff16565b610a93600a60009054906101000a900473ffffffffffffffffffffffffffffffffffffffff16826000611926565b505090565b600060011515600a60149054906101000a900460ff161515141515610abc57600080fd5b6001600f60009054906101000a900473ffffffffffffffffffffffffffffffffffffffff1673ffffffffffffffffffffffffffffffffffffffff16639f941f696040518163ffffffff167c0100000000000000000000000000000000000000000000000000000000028152600401602060405180830381600087803b158015610b4457600080fd5b505af1158015610b58573d6000803e3d6000fd5b505050506040513d601f19601f82011682018060405250610b7c9190810190612522565b01905090565b600d5481565b6000600d54905090565b8060405180828051906020019060200280838360005b83811015610bc3578082015181840152602081019050610ba8565b50505050905001915050604051809103902060001916610bf4600e54600a60179054906101000a900460ff16611769565b60001916141515610c0457600080fd5b600f60009054906101000a900473ffffffffffffffffffffffffffffffffffffffff1673ffffffffffffffffffffffffffffffffffffffff16630ea9e4f182600a60179054906101000a900460ff166040518363ffffffff167c0100000000000000000000000000000000000000000000000000000000028152600401610c8c9291906128ef565b602060405180830381600087803b158015610ca657600080fd5b505af1158015610cba573d6000803e3d6000fd5b505050506040513d601f19601f82011682018060405250610cde91908101906123ca565b5050565b60008060011515600a60159054906101000a900460ff161515141515610d0757600080fd5b600a60149054906101000a900460ff1615610dec57600f60009054906101000a900473ffffffffffffffffffffffffffffffffffffffff1673ffffffffffffffffffffffffffffffffffffffff16633c264820846040518263ffffffff167c0100000000000000000000000000000000000000000000000000000000028152600401610d939190612a2b565b602060405180830381600087803b158015610dad57600080fd5b505af1158015610dc1573d6000803e3d6000fd5b505050506040513d601f19601f82011682018060405250610de59190810190612522565b9150610ead565b600090505b601380549050811015610eac5760105460001916601382815481101515610e1457fe5b90600052602060002001604051808280548015610e5057602002820191906000526020600020905b815481526020019060010190808311610e3c575b50509150506040518091039020600019161415610e9f57601381815481101515610e7657fe5b9060005260206000200183815481101515610e8d57fe5b90600052602060002001549150610ead565b8080600101915050610df1565b5b50919050565b60105481565b8160056000826000191660001916815260200190815260200160002060009054906101000a900473ffffffffffffffffffffffffffffffffffffffff1673ffffffffffffffffffffffffffffffffffffffff163373ffffffffffffffffffffffffffffffffffffffff16141515610f65576040517f08c379a0000000000000000000000000000000000000000000000000000000008152600401610f5c90612a0b565b60405180910390fd5b60056000826000191660001916815260200190815260200160002060006101000a81549073ffffffffffffffffffffffffffffffffffffffff021916905580600019167f7cc135e0cebb02c3480ae5d74d377283180a2601f8f644edf7987b009316c63a60405160405180910390a281600d81600019169055507f02275aa3fc19f4434baa202130589d61e0ab9c8811cfc8054925bf33d88ab7c78383604051611010929190612955565b60405180910390a1505050565b600060011515600a60149054906101000a900460ff16151514151561104157600080fd5b600f60009054906101000a900473ffffffffffffffffffffffffffffffffffffffff1673ffffffffffffffffffffffffffffffffffffffff1663f77f29b16040518163ffffffff167c0100000000000000000000000000000000000000000000000000000000028152600401602060405180830381600087803b1580156110c757600080fd5b505af11580156110db573d6000803e3d6000fd5b505050506040513d601f19601f820116820180604052506110ff919081019061247e565b905090565b600080600080600660009054906101000a900473ffffffffffffffffffffffffffffffffffffffff1673ffffffffffffffffffffffffffffffffffffffff163373ffffffffffffffffffffffffffffffffffffffff1614151561116657600080fd5b60001515600a60149054906101000a900460ff16151514151561118857600080fd5b736a424c1bd008c82191db24ba1528e60ca92314ca73ffffffffffffffffffffffffffffffffffffffff1663fd1e5e7a6040518163ffffffff167c0100000000000000000000000000000000000000000000000000000000028152600401602060405180830381600087803b15801561120057600080fd5b505af1158015611214573d6000803e3d6000fd5b505050506040513d601f19601f820116820180604052506112389190810190612522565b9350736a424c1bd008c82191db24ba1528e60ca92314ca73ffffffffffffffffffffffffffffffffffffffff1663b80907f26040518163ffffffff167c0100000000000000000000000000000000000000000000000000000000028152600401602060405180830381600087803b1580156112b257600080fd5b505af11580156112c6573d6000803e3d6000fd5b505050506040513d601f19601f820116820180604052506112ea91908101906124d0565b92508273ffffffffffffffffffffffffffffffffffffffff166323b872dd8630876040518463ffffffff167c0100000000000000000000000000000000000000000000000000000000028152600401611345939291906127f5565b602060405180830381600087803b15801561135f57600080fd5b505af1158015611373573d6000803e3d6000fd5b505050506040513d601f19601f8201168201806040525061139791908101906123ca565b50736a424c1bd008c82191db24ba1528e60ca92314ca73ffffffffffffffffffffffffffffffffffffffff1663af4cd4576040518163ffffffff167c0100000000000000000000000000000000000000000000000000000000028152600401602060405180830381600087803b15801561141057600080fd5b505af1158015611424573d6000803e3d6000fd5b505050506040513d601f19601f820116820180604052506114489190810190612522565b915081341015151561145957600080fd5b736a424c1bd008c82191db24ba1528e60ca92314ca73ffffffffffffffffffffffffffffffffffffffff1663cabc6f14836078600c54600b5401016000733e18b476f3f51127cbb01504aa03c7ae3d16d4413060125460116040518863ffffffff167c01000000000000000000000000000000000000000000000000000000000281526004016114ee96959493929190612a46565b6020604051808303818588803b15801561150757600080fd5b505af115801561151b573d6000803e3d6000fd5b50505050506040513d601f19601f8201168201806040525061154091908101906124a7565b600f60006101000a81548173ffffffffffffffffffffffffffffffffffffffff021916908373ffffffffffffffffffffffffffffffffffffffff1602179055506115a7612710611599843461175090919063ffffffff16565b611bb990919063ffffffff16565b9050612710811115156115b957600080fd5b73b03cf72bc5a9a344aac43534d66491792736748773ffffffffffffffffffffffffffffffffffffffff1663abb60c806115fe61271084611bcf90919063ffffffff16565b600f60009054906101000a900473ffffffffffffffffffffffffffffffffffffffff16846040518463ffffffff167c010000000000000000000000000000000000000000000000000000000002815260040161165b9291906129c2565b6020604051808303818588803b15801561167457600080fd5b505af1158015611688573d6000803e3d6000fd5b50505050506040513d601f19601f820116820180604052506116ad91908101906123ca565b5086600e816000191690555085600a60176101000a81548160ff0219169083151502179055506001600a60146101000a81548160ff0219169083151502179055507faebf4bec624072b88d38355921e2fa310b6cad0d1faab9662247833616f31d11600f60009054906101000a900473ffffffffffffffffffffffffffffffffffffffff1660405161173f919061297e565b60405180910390a150505050505050565b600082821115151561175e57fe5b818303905092915050565b600081156117f45760408051908101604052806117926002612710611bb990919063ffffffff16565b81526020016117ad6002612710611bb990919063ffffffff16565b8152506040518082600260200280838360005b838110156117db5780820151818401526020810190506117c0565b50505050905001915050604051809103902090506118bc565b60026001026000191683600019161415611864576040805190810160405280600081526020016127108152506040518082600260200280838360005b8381101561184b578082015181840152602081019050611830565b50505050905001915050604051809103902090506118bc565b6040805190810160405280612710815260200160008152506040518082600260200280838360005b838110156118a757808201518184015260208101905061188c565b50505050905001915050604051809103902090505b92915050565b6118ca6121ae565b6118d26121ae565b6118e985858584611c07909392919063ffffffff16565b9150509392505050565b61190a828460800151611cc190919063ffffffff16565b611921818460800151611cc190919063ffffffff16565b505050565b600030600454604051602001808373ffffffffffffffffffffffffffffffffffffffff1673ffffffffffffffffffffffffffffffffffffffff166c01000000000000000000000000028152601401828152602001925050506040516020818303038152906040526040518082805190602001908083835b6020831015156119c2578051825260208201915060208101905060208303925061199d565b6001836020036101000a038019825116818451168082178552505050505050905001915050604051809103902090506004548360600181815250508360056000836000191660001916815260200190815260200160002060006101000a81548173ffffffffffffffffffffffffffffffffffffffff021916908373ffffffffffffffffffffffffffffffffffffffff16021790555080600019167fb5e6e01e79f91267dc17b4e6314d5d4d03593d2ceee0fbb452b750bd70ea5af960405160405180910390a2600260009054906101000a900473ffffffffffffffffffffffffffffffffffffffff1673ffffffffffffffffffffffffffffffffffffffff16634000aea08584611ad187611ce6565b6040518463ffffffff167c0100000000000000000000000000000000000000000000000000000000028152600401611b0b939291906128b1565b602060405180830381600087803b158015611b2557600080fd5b505af1158015611b39573d6000803e3d6000fd5b505050506040513d601f19601f82011682018060405250611b5d91908101906123ca565b1515611b9e576040517f08c379a0000000000000000000000000000000000000000000000000000000008152600401611b95906129eb565b60405180910390fd5b60016004600082825401925050819055508090509392505050565b60008183811515611bc657fe5b04905092915050565b600080831415611be25760009050611c01565b8183029050818382811515611bf357fe5b04141515611bfd57fe5b8090505b92915050565b611c0f6121ae565b611c1f8560800151610100611de4565b50838560000190600019169081600019168152505082856020019073ffffffffffffffffffffffffffffffffffffffff16908173ffffffffffffffffffffffffffffffffffffffff16815250508185604001907bffffffffffffffffffffffffffffffffffffffffffffffffffffffff191690817bffffffffffffffffffffffffffffffffffffffffffffffffffffffff191681525050849050949350505050565b611cce8260038351611e3e565b611ce18183611f9c90919063ffffffff16565b505050565b6060600360009054906101000a900473ffffffffffffffffffffffffffffffffffffffff1673ffffffffffffffffffffffffffffffffffffffff16634042994690507c01000000000000000000000000000000000000000000000000000000000260008084600001518560200151866040015187606001516001896080015160000151604051602401611d8098979695949392919061282c565b604051602081830303815290604052907bffffffffffffffffffffffffffffffffffffffffffffffffffffffff19166020820180517bffffffffffffffffffffffffffffffffffffffffffffffffffffffff83818316178352505050509050919050565b611dec61221c565b6000602083811515611dfa57fe5b06141515611e1757602082811515611e0e57fe5b06602003820191505b81836020018181525050604051808452600081528281016020016040525082905092915050565b601781111515611e7057611e6a8160058460ff169060020a0260ff161784611fbe90919063ffffffff16565b50611f97565b60ff81111515611eb757611e9a601860058460ff169060020a021784611fbe90919063ffffffff16565b50611eb181600185611fde9092919063ffffffff16565b50611f96565b61ffff81111515611eff57611ee2601960058460ff169060020a021784611fbe90919063ffffffff16565b50611ef981600285611fde9092919063ffffffff16565b50611f95565b63ffffffff81111515611f4957611f2c601a60058460ff169060020a021784611fbe90919063ffffffff16565b50611f4381600485611fde9092919063ffffffff16565b50611f94565b67ffffffffffffffff81111515611f9357611f7a601b60058460ff169060020a021784611fbe90919063ffffffff16565b50611f9181600885611fde9092919063ffffffff16565b505b5b5b5b5b505050565b611fa461221c565b611fb683846000015151848551612000565b905092915050565b611fc661221c565b611fd683846000015151846120bd565b905092915050565b611fe661221c565b611ff784856000015151858561210d565b90509392505050565b61200861221c565b60008060008551851115151561201d57600080fd5b87602001518588011115612048576120478860026120418b602001518b8a0161216e565b0261218a565b5b8751805188602083010194508089880111156120645788870182525b60208801935050505b602085101515612092578151835260208301925060208201915060208503945061206d565b6001856020036101000a03905080198251168184511681811785525050879350505050949350505050565b6120c561221c565b8360200151831015156120e4576120e384600286602001510261218a565b5b8351805160208583010184815381861415612100576001820183525b5050508390509392505050565b61211561221c565b600085602001518584011115612135576121348660028786010261218a565b5b6001836101000a03905085518386820101858319825116178152815185880111156121605784870182525b505085915050949350505050565b60008183111561218057829050612184565b8190505b92915050565b60608260000151905061219d8383611de4565b506121a88382611f9c565b50505050565b60c06040519081016040528060008019168152602001600073ffffffffffffffffffffffffffffffffffffffff16815260200160007bffffffffffffffffffffffffffffffffffffffffffffffffffffffff1916815260200160008152602001612216612236565b81525090565b604080519081016040528060608152602001600081525090565b604080519081016040528060608152602001600081525090565b600061225c8235612bcf565b905092915050565b600082601f830112151561227757600080fd5b813561228a61228582612aee565b612ac1565b915081818352602084019350602081019050838560208402820111156122af57600080fd5b60005b838110156122df57816122c58882612361565b8452602084019350602083019250506001810190506122b2565b5050505092915050565b60006122f58235612bef565b905092915050565b60006123098251612bef565b905092915050565b600061231d8235612bfb565b905092915050565b60006123318251612c05565b905092915050565b60006123458251612c17565b905092915050565b60006123598251612c29565b905092915050565b600061236d8235612c3b565b905092915050565b60006123818251612c3b565b905092915050565b60006020828403121561239b57600080fd5b600082013567ffffffffffffffff8111156123b557600080fd5b6123c184828501612264565b91505092915050565b6000602082840312156123dc57600080fd5b60006123ea848285016122fd565b91505092915050565b60008060006060848603121561240857600080fd5b600061241686828701612311565b9350506020612427868287016122e9565b925050604061243886828701612250565b9150509250925092565b6000806040838503121561245557600080fd5b600061246385828601612311565b925050602061247485828601612311565b9150509250929050565b60006020828403121561249057600080fd5b600061249e84828501612325565b91505092915050565b6000602082840312156124b957600080fd5b60006124c784828501612339565b91505092915050565b6000602082840312156124e257600080fd5b60006124f08482850161234d565b91505092915050565b60006020828403121561250b57600080fd5b600061251984828501612361565b91505092915050565b60006020828403121561253457600080fd5b600061254284828501612375565b91505092915050565b61255481612b63565b82525050565b600061256582612b35565b80845260208401935061257783612b16565b60005b828110156125a95761258d8683516127cb565b61259682612b56565b915060208601955060018101905061257a565b50849250505092915050565b6125be81612b83565b82525050565b6125cd81612b8f565b82525050565b6125dc81612b99565b82525050565b60006125ed82612b4b565b808452612601816020860160208601612c7b565b61260a81612cae565b602085010191505092915050565b600061262382612b40565b808452612637816020860160208601612c7b565b61264081612cae565b602085010191505092915050565b61265781612c45565b82525050565b61266681612c57565b82525050565b61267581612c69565b82525050565b60008154600181166000811461269857600181146126b8576126f9565b607f600283041680865260ff1983166020870152604086019350506126f9565b600282048086526020860195506126ce85612b23565b60005b828110156126f0578154818901526001820191506020810190506126d1565b80880195505050505b505092915050565b6000602382527f756e61626c6520746f207472616e73666572416e6443616c6c20746f206f726160208301527f636c6500000000000000000000000000000000000000000000000000000000006040830152606082019050919050565b6000808252602082019050919050565b6000602882527f536f75726365206d75737420626520746865206f7261636c65206f662074686560208301527f20726571756573740000000000000000000000000000000000000000000000006040830152606082019050919050565b6127d481612bc5565b82525050565b60006020820190506127ef600083018461254b565b92915050565b600060608201905061280a600083018661254b565b612817602083018561254b565b61282460408301846127cb565b949350505050565b600061010082019050612842600083018b61254b565b61284f602083018a6127cb565b61285c60408301896125c4565b612869606083018861254b565b61287660808301876125d3565b61288360a08301866127cb565b61289060c08301856127cb565b81810360e08301526128a28184612618565b90509998505050505050505050565b60006060820190506128c6600083018661254b565b6128d360208301856127cb565b81810360408301526128e581846125e2565b9050949350505050565b60006040820190508181036000830152612909818561255a565b905061291860208301846125b5565b9392505050565b600060208201905061293460008301846125b5565b92915050565b600060208201905061294f60008301846125c4565b92915050565b600060408201905061296a60008301856125c4565b61297760208301846125c4565b9392505050565b6000602082019050612993600083018461265d565b92915050565b60006040820190506129ae600083018561265d565b6129bb602083018461254b565b9392505050565b60006040820190506129d7600083018561265d565b6129e460208301846127cb565b9392505050565b60006020820190508181036000830152612a0481612701565b9050919050565b60006020820190508181036000830152612a248161276e565b9050919050565b6000602082019050612a4060008301846127cb565b92915050565b600060e082019050612a5b60008301896127cb565b612a68602083018861266c565b612a75604083018761264e565b612a82606083018661254b565b612a8f60808301856125c4565b81810360a0830152612aa1818461267b565b905081810360c0830152612ab48161275e565b9050979650505050505050565b6000604051905081810181811067ffffffffffffffff82111715612ae457600080fd5b8060405250919050565b600067ffffffffffffffff821115612b0557600080fd5b602082029050602081019050919050565b6000602082019050919050565b60008160005260206000209050919050565b600081519050919050565b600081519050919050565b600081519050919050565b6000602082019050919050565b600073ffffffffffffffffffffffffffffffffffffffff82169050919050565b60008115159050919050565b6000819050919050565b60007fffffffff0000000000000000000000000000000000000000000000000000000082169050919050565b6000819050919050565b600073ffffffffffffffffffffffffffffffffffffffff82169050919050565b60008115159050919050565b6000819050919050565b6000612c1082612b63565b9050919050565b6000612c2282612b63565b9050919050565b6000612c3482612b63565b9050919050565b6000819050919050565b6000612c5082612b63565b9050919050565b6000612c6282612b63565b9050919050565b6000612c7482612bc5565b9050919050565b60005b83811015612c99578082015181840152602081019050612c7e565b83811115612ca8576000848401525b50505050565b6000601f19601f83011690509190505600a265627a7a72305820c602fb7238b0ef97febf55ceef2e0ef2c5f79addb965cef3ae5424b8b3d49b596c6578706572696d656e74616cf50037",
  "source": "pragma solidity >= 0.4.24;\npragma experimental ABIEncoderV2;\n\nimport \"./YesNoMarket.sol\";\nimport \"./../libraries/augur/source/contracts/reporting/IMarket.sol\";\nimport \"./../libraries/augur/source/contracts/reporting/Market.sol\";\nimport \"./../libraries/augur/source/contracts/trading/IShareToken.sol\";\nimport \"./../libraries/augur/source/contracts/trading/CompleteSets.sol\";\nimport \"./../libraries/augur/source/contracts/trading/ICash.sol\";\nimport \"./../libraries/augur/source/contracts/libraries/token/ERC20.sol\";\nimport \"./../libraries/augur/source/contracts/reporting/Universe.sol\";\nimport \"./../libraries/augur/source/contracts/trading/ClaimTradingProceeds.sol\";\nimport \"./../libraries/augur/source/contracts/Augur.sol\";\nimport \"./../libraries/openzeppelin-solidity/SafeMathLib.sol\";\nimport \"chainlink/contracts/ChainlinkClient.sol\";\n\ncontract MarketOracle is ChainlinkClient {\n\taddress creator;\n\t\n\tstring url;\n\tstring path; \n\tbytes32 jobId;\n\taddress oracle; \n\n\tbool disputed;\n\tbool resoluted;\n\tbool isInvalid;\n\tbool disputeIsInvalid;\n\tuint256 endTime;\n\tuint256 disputeTimeAdded;\n\tbytes32 public answer;\n\tbytes32 disputeAnswer;\n\tIMarket disputeMarket;\n\tbytes32 public payoutDistributionHash;\n\n\tstring marketDescription;\n\tbytes32 marketTopic;\n\t\n\tAugur constant augur = Augur(0x25ff5dc79a7c4e34254ff0f4a19d69e491201dd3);\n\tICash constant cash = ICash(0x3e18b476f3f51127cbb01504aa03c7ae3d16d441);\n\tUniverse constant universe = Universe(0x6a424c1bd008c82191db24ba1528e60ca92314ca);\n\tCompleteSets constant completeSets = CompleteSets(0xb03cf72bc5a9a344aac43534d664917927367487);\n\tClaimTradingProceeds constant claimTradingProceeds = ClaimTradingProceeds(0x3c6721551c2ba3973560aef3e11d34ce05db4047);\n\n\tuint256 constant NUM_TICKS = 10000;\n\tuint256 constant TEN_MINUTES = 60 * 10;\n\tuint256 constant ONE_DAY = 60 * 60 * 24;\n\n\tuint256[][] payoutNumerators = [[NUM_TICKS.div(2), NUM_TICKS.div(2)],[NUM_TICKS, 0],[0,NUM_TICKS]] ;\n\n\tevent marketDisputed(address market);\n\tevent dataIsFulfilled(bytes32 id, bytes32 data);\n\n\tconstructor(\n\t\tstring _url, \n\t\tstring _path,\n\t\tstring _marketDescription,\n\t\tbytes32 _marketTopic,\n\t\tuint256 _endTime,\n\t\taddress _link,\n\t\tbytes32 _jobId,\n\t\taddress _oracle\n\t) \n\tpublic {\n\t\trequire (_endTime > now);\n\t\tcreator = msg.sender;\n\t\t\n\t\turl = _url;\n\t\tpath = _path;\n\t\tendTime = _endTime;\n\t\tmarketDescription = _marketDescription;\n\t\tmarketTopic = _marketTopic;\n\t\toracle = _oracle;\n\n\t\tjobId = _jobId;\n\t\tuint256 timeToEnd = endTime.sub(now);\n\t\tuint256 potentialAddedDisputeTime = timeToEnd.div(30);\n\t\tif (potentialAddedDisputeTime >= TEN_MINUTES && potentialAddedDisputeTime <= ONE_DAY) {\n\t\t\tdisputeTimeAdded = potentialAddedDisputeTime;\n\t\t} else if (potentialAddedDisputeTime < TEN_MINUTES) {\n\t\t\tdisputeTimeAdded = TEN_MINUTES;\n\t\t} else if (potentialAddedDisputeTime > ONE_DAY) {\n\t\t\tdisputeTimeAdded = ONE_DAY;\n\t\t}\n      \t\n\t\tsetChainlinkToken(_link);\n\t\tcash.approve(address(augur), uint256(-1));\n\t}\n\n\tfunction () public payable {}\n\n\tfunction requestChainlinkUrl() public returns (bytes32 requestId) {\n\t\tChainlink.Request memory req = buildChainlinkRequest(jobId, this, this.dataFulfilled.selector);\n\t\treq.add(\"get\", url);\n\t\treq.add(\"path\", path);\n\t\tsendChainlinkRequestTo(oracle, req, 0);\n\t}\n\n\tfunction dataFulfilled(bytes32 _requestId, bytes32 _answer)\n\tpublic recordChainlinkFulfillment(_requestId)\n\t{\n\t\tanswer = _answer;\n\t\temit dataIsFulfilled(_requestId, _answer);\n\t}\n\n\tfunction startDispute(\n\t\tbytes32 _correctAnswer,\n\t\tbool _invalid,\n\t\taddress _disputer\n\t)\n\tpublic \n\tpayable\t{\n\t\trequire(msg.sender == address(creator));\n\t\trequire(disputed == false);\n\t\t// require(now < endTime + disputeTimeAdded && now >= endTime);\t\t\n\n\t\t// get noShowBond\n\t\tuint256 noShowBondFee = universe.getOrCacheDesignatedReportNoShowBond();\n\t\tERC20 rep = ERC20(universe.getReputationToken());\n\t\trep.transferFrom(_disputer, address(this), noShowBondFee);\n\n\t\t// check if marketCreationFee is added\n\t\tuint256 marketCreationFee = universe.getOrCacheValidityBond();\n\t\trequire(msg.value >= marketCreationFee);\n\n\t\t// Create disputemarket\n\t\tdisputeMarket = universe.createYesNoMarket.value(marketCreationFee)(\n\t\t\tendTime + disputeTimeAdded + 120,\n\t\t\t0,\n\t\t\tcash,\n\t\t\taddress(this),\n\t\t\tmarketTopic,\n\t\t\tmarketDescription,\n\t\t\t\"\"\n\t\t);\n\n\t\tuint256 setsToBuy = msg.value.sub(marketCreationFee).div(NUM_TICKS);\n\t\trequire(setsToBuy > NUM_TICKS);\n\t\tcompleteSets.publicBuyCompleteSets.value(setsToBuy.mul(NUM_TICKS))(disputeMarket, setsToBuy);\n\t\t\n\t\tdisputeAnswer = _correctAnswer;\n\t\tdisputeIsInvalid = _invalid;\n\t\tdisputed = true;\n\t\temit marketDisputed(disputeMarket);\n\t}\n\n\tfunction submitInitialReport(uint256[] payoutNumerators) public {\n\t\trequire(answerToPayoutDistributionHash(disputeAnswer, disputeIsInvalid) == keccak256(payoutNumerators));\n\t\tMarket(address(disputeMarket)).doInitialReport(payoutNumerators, disputeIsInvalid);\n\t}\n\n\tfunction answerToPayoutDistributionHash(bytes32 _answer, bool _invalid) \n\tinternal \n\treturns(bytes32) {\n\t\tif (_invalid) {\n\t\t\treturn keccak256([NUM_TICKS.div(2), NUM_TICKS.div(2)]);\n\t\t}\n\t\telse if (_answer == bytes32(2)) {\n\t\t\treturn keccak256([0, NUM_TICKS]);\n\t\t} \n\t\telse {\n\t\t\treturn keccak256([NUM_TICKS, 0]);\n\t\t}\n\t}\n\n\tfunction finalize()\n\tpublic\n\treturns (bool) {\n\t\trequire(now >= endTime);\n\t\t// If not testing the line below here should be uncommented\n\t\t// require(now >= endTime + disputeTimeAdded);\n\t\tif (!disputed) {\n\t\t\tresoluted = true;\n\t\t\tpayoutDistributionHash = answerToPayoutDistributionHash(answer, isInvalid);\n\t\t} else {\n\t\t\tresoluted = true;\n\t\t\trequire(!disputeMarket.isFinalized());\n\t\t\tdisputeMarket.finalize();\n\t\t}\n\t}\n\n\tfunction getPayoutNumeratorByOutcome(uint256 _outcome)\n\tpublic\n\tview\n\treturns (uint256) {\n\t\trequire(resoluted == true);\n\t\tif (disputed) {\n\t\t\treturn disputeMarket.getWinningPayoutNumerator(_outcome);\n\t\t} else {\n\t\t\tfor (uint256 i = 0; i < payoutNumerators.length; i++) {\n\t\t\t\tif (keccak256(payoutNumerators[i]) == payoutDistributionHash) {\n\t\t\t\t\treturn payoutNumerators[i][_outcome];\n\t\t\t\t}\n\t\t\t}\n\t\t}\n\t}\n\n\tfunction claimDisputeTradingProceeds()\n\tpublic {\n\t\tuint256 balanceBefore = address(this).balance;\n\t\tclaimTradingProceeds.claimTradingProceeds(disputeMarket, address(this));\n\t\tuint256 balanceAfter = address(this).balance;\n\t\tcreator.transfer(balanceAfter.sub(balanceBefore));\n\t}\n\n\tfunction getDisputeMarketFinalizationTime()\n\tpublic\n\tview\n\treturns (uint256) {\n\t\trequire(disputed == true);\n\t\treturn disputeMarket.getFinalizationTime();\n\t}\n\n\n\tfunction getAnswer()\n\tpublic \n\tview \n\treturns(bytes32) {\n\t\treturn answer;\n\t}\n\n\tfunction getRepToken()\n\tpublic \n\tview\n\treturns (address) {\n\t\treturn universe.getReputationToken();\n\t}\n\n\tfunction getDisputeEndTime()\n\tpublic\n\tview \n\treturns (uint256) {\n\t\trequire(disputed == true);\n\t\treturn Market(address(disputeMarket)).getDesignatedReportingEndTime() + 1;\n\t}\n\t\n\tfunction getFeeWindow()\n\tpublic \n\tview \n\treturns(address) {\n\t\trequire(disputed == true);\n\t\treturn address(Market(address(disputeMarket)).getFeeWindow());\n\t}\n}",
  "sourcePath": "/Users/jasperdegooijer/Documents/eth-berlin/flux-oracle/contracts/MarketOracle.sol",
  "compiler": {
    "name": "solc",
    "version": "0.4.24+commit.e67f0147.Emscripten.clang"
  },
  "schemaVersion": "3.0.13",
  "updatedAt": "2019-08-25T00:31:30.960Z",
  "devdoc": {
    "methods": {}
  },
  "userdoc": {
    "methods": {}
  }
}