{
  "contractName": "MarketFactory",
  "abi": [
    {
      "constant": false,
      "inputs": [
        {
          "name": "_controller",
          "type": "address"
        },
        {
          "name": "_universe",
          "type": "address"
        },
        {
          "name": "_endTime",
          "type": "uint256"
        },
        {
          "name": "_feePerEthInWei",
          "type": "uint256"
        },
        {
          "name": "_denominationToken",
          "type": "address"
        },
        {
          "name": "_designatedReporterAddress",
          "type": "address"
        },
        {
          "name": "_sender",
          "type": "address"
        },
        {
          "name": "_numOutcomes",
          "type": "uint256"
        },
        {
          "name": "_numTicks",
          "type": "uint256"
        }
      ],
      "name": "createMarket",
      "outputs": [
        {
          "name": "_market",
          "type": "address"
        }
      ],
      "payable": true,
      "stateMutability": "payable",
      "type": "function"
    }
  ],
  "bytecode": "0x608060405234801561001057600080fd5b50610a79806100206000396000f300608060405260043610610041576000357c0100000000000000000000000000000000000000000000000000000000900463ffffffff1680631d48329b14610046575b600080fd5b610122600480360381019080803573ffffffffffffffffffffffffffffffffffffffff169060200190929190803573ffffffffffffffffffffffffffffffffffffffff1690602001909291908035906020019092919080359060200190929190803573ffffffffffffffffffffffffffffffffffffffff169060200190929190803573ffffffffffffffffffffffffffffffffffffffff169060200190929190803573ffffffffffffffffffffffffffffffffffffffff1690602001909291908035906020019092919080359060200190929190505050610164565b604051808273ffffffffffffffffffffffffffffffffffffffff1673ffffffffffffffffffffffffffffffffffffffff16815260200191505060405180910390f35b60008060008b6101726105f7565b808273ffffffffffffffffffffffffffffffffffffffff1673ffffffffffffffffffffffffffffffffffffffff168152602001807f4d61726b65740000000000000000000000000000000000000000000000000000815250602001915050604051809103906000f0801580156101ec573d6000803e3d6000fd5b5091508192508a73ffffffffffffffffffffffffffffffffffffffff1663b80907f26040518163ffffffff167c0100000000000000000000000000000000000000000000000000000000028152600401602060405180830381600087803b15801561025657600080fd5b505af115801561026a573d6000803e3d6000fd5b505050506040513d602081101561028057600080fd5b810190808051906020019092919050505090508073ffffffffffffffffffffffffffffffffffffffff1663a9059cbb848373ffffffffffffffffffffffffffffffffffffffff166370a08231306040518263ffffffff167c0100000000000000000000000000000000000000000000000000000000028152600401808273ffffffffffffffffffffffffffffffffffffffff1673ffffffffffffffffffffffffffffffffffffffff168152602001915050602060405180830381600087803b15801561034b57600080fd5b505af115801561035f573d6000803e3d6000fd5b505050506040513d602081101561037557600080fd5b81019080805190602001909291905050506040518363ffffffff167c0100000000000000000000000000000000000000000000000000000000028152600401808373ffffffffffffffffffffffffffffffffffffffff1673ffffffffffffffffffffffffffffffffffffffff16815260200182815260200192505050602060405180830381600087803b15801561040b57600080fd5b505af115801561041f573d6000803e3d6000fd5b505050506040513d602081101561043557600080fd5b8101908080519060200190929190505050151561045157600080fd5b8273ffffffffffffffffffffffffffffffffffffffff166322115ef0348d8d8d8d8d8d8d8d6040518a63ffffffff167c0100000000000000000000000000000000000000000000000000000000028152600401808973ffffffffffffffffffffffffffffffffffffffff1673ffffffffffffffffffffffffffffffffffffffff1681526020018881526020018781526020018673ffffffffffffffffffffffffffffffffffffffff1673ffffffffffffffffffffffffffffffffffffffff1681526020018573ffffffffffffffffffffffffffffffffffffffff1673ffffffffffffffffffffffffffffffffffffffff1681526020018473ffffffffffffffffffffffffffffffffffffffff1673ffffffffffffffffffffffffffffffffffffffff168152602001838152602001828152602001985050505050505050506020604051808303818588803b1580156105a857600080fd5b505af11580156105bc573d6000803e3d6000fd5b50505050506040513d60208110156105d357600080fd5b81019080805190602001909291905050505082925050509998505050505050505050565b60405161044680610608833901905600608060405234801561001057600080fd5b506040516040806104468339810180604052810190808051906020019092919080519060200190929190505050336000806101000a81548173ffffffffffffffffffffffffffffffffffffffff021916908373ffffffffffffffffffffffffffffffffffffffff160217905550816000806101000a81548173ffffffffffffffffffffffffffffffffffffffff021916908373ffffffffffffffffffffffffffffffffffffffff1602179055508060018160001916905550505061036d806100d96000396000f300608060405260043610610057576000357c0100000000000000000000000000000000000000000000000000000000900463ffffffff1680633018205f1461018757806392eefe9b146101de578063bef72fa214610239575b60008060010260015460001916141561006f57610184565b6000809054906101000a900473ffffffffffffffffffffffffffffffffffffffff1673ffffffffffffffffffffffffffffffffffffffff1663f39ec1f76001546040518263ffffffff167c0100000000000000000000000000000000000000000000000000000000028152600401808260001916600019168152602001915050602060405180830381600087803b15801561010957600080fd5b505af115801561011d573d6000803e3d6000fd5b505050506040513d602081101561013357600080fd5b81019080805190602001909291905050509050604051601f19601f36011680820160405236600083376000803684865af4806000811461017f576040513d81016040523d6000823e3d81f35b600080fd5b50005b34801561019357600080fd5b5061019c61026c565b604051808273ffffffffffffffffffffffffffffffffffffffff1673ffffffffffffffffffffffffffffffffffffffff16815260200191505060405180910390f35b3480156101ea57600080fd5b5061021f600480360381019080803573ffffffffffffffffffffffffffffffffffffffff169060200190929190505050610295565b604051808215151515815260200191505060405180910390f35b34801561024557600080fd5b5061024e61033b565b60405180826000191660001916815260200191505060405180910390f35b60008060009054906101000a900473ffffffffffffffffffffffffffffffffffffffff16905090565b60008060009054906101000a900473ffffffffffffffffffffffffffffffffffffffff1673ffffffffffffffffffffffffffffffffffffffff163373ffffffffffffffffffffffffffffffffffffffff161415156102f257600080fd5b816000806101000a81548173ffffffffffffffffffffffffffffffffffffffff021916908373ffffffffffffffffffffffffffffffffffffffff16021790555060019050919050565b600154815600a165627a7a723058200a117e64b9b2b71eac615b440f224f5eae5f4f8ced1fc2c6e9a70845aa3e381a0029a165627a7a7230582090378eb79e409799c4fced73c3b9dbfc90648652b284559450b9e6c39a852d000029",
  "source": "pragma solidity ^0.4.22;\n\n\nimport './../libraries/Delegator.sol';\nimport './../reporting/IMarket.sol';\nimport './../reporting/IReputationToken.sol';\nimport './../trading/ICash.sol';\nimport './../IController.sol';\n\n\ncontract MarketFactory {\n    function createMarket(IController _controller, IUniverse _universe, uint256 _endTime, uint256 _feePerEthInWei, ICash _denominationToken, address _designatedReporterAddress, address _sender, uint256 _numOutcomes, uint256 _numTicks) public payable returns (IMarket _market) {\n        Delegator _delegator = new Delegator(_controller, \"Market\");\n        _market = IMarket(_delegator);\n        IReputationToken _reputationToken = _universe.getReputationToken();\n        require(_reputationToken.transfer(_market, _reputationToken.balanceOf(this)));\n        _market.initialize.value(msg.value)(_universe, _endTime, _feePerEthInWei, _denominationToken, _designatedReporterAddress, _sender, _numOutcomes, _numTicks);\n        return _market;\n    }\n}\n",
  "sourcePath": "/Users/jasperdegooijer/Documents/eth-berlin/flux-oracle/libraries/augur/source/contracts/factories/MarketFactory.sol",
  "compiler": {
    "name": "solc",
    "version": "0.4.24+commit.e67f0147.Emscripten.clang"
  },
  "schemaVersion": "3.0.13",
  "updatedAt": "2019-08-24T23:51:51.483Z",
  "devdoc": {
    "methods": {}
  },
  "userdoc": {
    "methods": {}
  }
}