{
  "contractName": "MarketOracle",
  "abi": [
    {
      "constant": true,
      "inputs": [],
      "name": "answer",
      "outputs": [
        {
          "name": "",
          "type": "bytes32"
        }
      ],
      "payable": false,
      "stateMutability": "view",
      "type": "function"
    },
    {
      "constant": true,
      "inputs": [],
      "name": "payoutDistributionHash",
      "outputs": [
        {
          "name": "",
          "type": "bytes32"
        }
      ],
      "payable": false,
      "stateMutability": "view",
      "type": "function"
    },
    {
      "inputs": [
        {
          "name": "_url",
          "type": "string"
        },
        {
          "name": "_path",
          "type": "string"
        },
        {
          "name": "_chainLink",
          "type": "address"
        },
        {
          "name": "_marketDescription",
          "type": "string"
        },
        {
          "name": "_marketTopic",
          "type": "bytes32"
        },
        {
          "name": "_endTime",
          "type": "uint256"
        },
        {
          "name": "_universe",
          "type": "address"
        },
        {
          "name": "_cash",
          "type": "address"
        },
        {
          "name": "_augur",
          "type": "address"
        },
        {
          "name": "_completeSets",
          "type": "address"
        },
        {
          "name": "_claimTradingProceeds",
          "type": "address"
        }
      ],
      "payable": false,
      "stateMutability": "nonpayable",
      "type": "constructor"
    },
    {
      "payable": true,
      "stateMutability": "payable",
      "type": "fallback"
    },
    {
      "anonymous": false,
      "inputs": [
        {
          "indexed": false,
          "name": "market",
          "type": "address"
        }
      ],
      "name": "marketDisputed",
      "type": "event"
    },
    {
      "anonymous": false,
      "inputs": [
        {
          "indexed": false,
          "name": "id",
          "type": "bytes32"
        },
        {
          "indexed": false,
          "name": "data",
          "type": "bytes32"
        }
      ],
      "name": "dataIsFulfilled",
      "type": "event"
    },
    {
      "constant": false,
      "inputs": [],
      "name": "requestDataChainLink",
      "outputs": [
        {
          "name": "",
          "type": "bytes32"
        }
      ],
      "payable": false,
      "stateMutability": "nonpayable",
      "type": "function"
    },
    {
      "constant": false,
      "inputs": [
        {
          "name": "_requestId",
          "type": "bytes32"
        },
        {
          "name": "_data",
          "type": "bytes32"
        },
        {
          "name": "_invalid",
          "type": "bool"
        }
      ],
      "name": "dataFulfilled",
      "outputs": [
        {
          "name": "",
          "type": "bytes32"
        }
      ],
      "payable": false,
      "stateMutability": "nonpayable",
      "type": "function"
    },
    {
      "constant": false,
      "inputs": [
        {
          "name": "_correctAnswer",
          "type": "bytes32"
        },
        {
          "name": "_invalid",
          "type": "bool"
        },
        {
          "name": "_disputer",
          "type": "address"
        }
      ],
      "name": "startDispute",
      "outputs": [],
      "payable": true,
      "stateMutability": "payable",
      "type": "function"
    },
    {
      "constant": false,
      "inputs": [
        {
          "name": "payoutNumerators",
          "type": "uint256[]"
        }
      ],
      "name": "submitInitialReport",
      "outputs": [],
      "payable": false,
      "stateMutability": "nonpayable",
      "type": "function"
    },
    {
      "constant": true,
      "inputs": [],
      "name": "finalize",
      "outputs": [
        {
          "name": "",
          "type": "bool"
        }
      ],
      "payable": false,
      "stateMutability": "view",
      "type": "function"
    },
    {
      "constant": false,
      "inputs": [],
      "name": "claimDisputeTradingProceeds",
      "outputs": [],
      "payable": false,
      "stateMutability": "nonpayable",
      "type": "function"
    },
    {
      "constant": true,
      "inputs": [],
      "name": "getDisputeMarketFinalizationTime",
      "outputs": [
        {
          "name": "",
          "type": "uint256"
        }
      ],
      "payable": false,
      "stateMutability": "view",
      "type": "function"
    },
    {
      "constant": true,
      "inputs": [],
      "name": "getAnswer",
      "outputs": [
        {
          "name": "",
          "type": "bytes32"
        }
      ],
      "payable": false,
      "stateMutability": "view",
      "type": "function"
    },
    {
      "constant": true,
      "inputs": [],
      "name": "getRepToken",
      "outputs": [
        {
          "name": "",
          "type": "address"
        }
      ],
      "payable": false,
      "stateMutability": "view",
      "type": "function"
    },
    {
      "constant": true,
      "inputs": [],
      "name": "getDisputeEndTime",
      "outputs": [
        {
          "name": "",
          "type": "uint256"
        }
      ],
      "payable": false,
      "stateMutability": "view",
      "type": "function"
    },
    {
      "constant": true,
      "inputs": [],
      "name": "getFeeWindow",
      "outputs": [
        {
          "name": "",
          "type": "address"
        }
      ],
      "payable": false,
      "stateMutability": "view",
      "type": "function"
    }
  ],
  "bytecode": "0x60806040523480156200001157600080fd5b50604051620026803803806200268083398101806040526200003791908101906200059b565b60008042881115156200004957600080fd5b336000806101000a81548173ffffffffffffffffffffffffffffffffffffffff021916908373ffffffffffffffffffffffffffffffffffffffff1602179055508c60019080519060200190620000a19291906200040a565b508b60029080519060200190620000ba9291906200040a565b508a600360006101000a81548173ffffffffffffffffffffffffffffffffffffffff021916908373ffffffffffffffffffffffffffffffffffffffff1602179055508760068190555089600c90805190602001906200011b9291906200040a565b5088600d816000191690555085600f60006101000a81548173ffffffffffffffffffffffffffffffffffffffff021916908373ffffffffffffffffffffffffffffffffffffffff16021790555086600e60006101000a81548173ffffffffffffffffffffffffffffffffffffffff021916908373ffffffffffffffffffffffffffffffffffffffff16021790555083601060006101000a81548173ffffffffffffffffffffffffffffffffffffffff021916908373ffffffffffffffffffffffffffffffffffffffff16021790555082601160006101000a81548173ffffffffffffffffffffffffffffffffffffffff021916908373ffffffffffffffffffffffffffffffffffffffff1602179055506200025042600654620003d964010000000002620013e7179091906401000000009004565b915062000276601e83620003f36401000000000262001559179091906401000000009004565b905061025881101580156200028e5750620151808111155b15620002a15780600781905550620002d4565b610258811015620002bb57610258600781905550620002d3565b62015180811115620002d257620151806007819055505b5b5b600f60009054906101000a900473ffffffffffffffffffffffffffffffffffffffff1673ffffffffffffffffffffffffffffffffffffffff1663095ea7b3867fffffffffffffffffffffffffffffffffffffffffffffffffffffffffffffffff6040518363ffffffff167c01000000000000000000000000000000000000000000000000000000000281526004016200036f9291906200070f565b602060405180830381600087803b1580156200038a57600080fd5b505af11580156200039f573d6000803e3d6000fd5b505050506040513d601f19601f82011682018060405250620003c591908101906200056f565b505050505050505050505050505062000837565b6000828211151515620003e857fe5b818303905092915050565b600081838115156200040157fe5b04905092915050565b828054600181600116156101000203166002900490600052602060002090601f016020900481019282601f106200044d57805160ff19168380011785556200047e565b828001600101855582156200047e579182015b828111156200047d57825182559160200191906001019062000460565b5b5090506200048d919062000491565b5090565b620004b691905b80821115620004b257600081600090555060010162000498565b5090565b90565b6000620004c78251620007c1565b905092915050565b6000620004dd8251620007e1565b905092915050565b6000620004f38251620007ed565b905092915050565b600082601f83011215156200050f57600080fd5b81516200052662000520826200076a565b6200073c565b915080825260208301602083018583830111156200054357600080fd5b6200055083828462000801565b50505092915050565b6000620005678251620007f7565b905092915050565b6000602082840312156200058257600080fd5b60006200059284828501620004cf565b91505092915050565b60008060008060008060008060008060006101608c8e031215620005be57600080fd5b60008c015167ffffffffffffffff811115620005d957600080fd5b620005e78e828f01620004fb565b9b505060208c015167ffffffffffffffff8111156200060557600080fd5b620006138e828f01620004fb565b9a50506040620006268e828f01620004b9565b99505060608c015167ffffffffffffffff8111156200064457600080fd5b620006528e828f01620004fb565b9850506080620006658e828f01620004e5565b97505060a0620006788e828f0162000559565b96505060c06200068b8e828f01620004b9565b95505060e06200069e8e828f01620004b9565b945050610100620006b28e828f01620004b9565b935050610120620006c68e828f01620004b9565b925050610140620006da8e828f01620004b9565b9150509295989b509295989b9093969950565b620006f88162000797565b82525050565b6200070981620007b7565b82525050565b6000604082019050620007266000830185620006ed565b620007356020830184620006fe565b9392505050565b6000604051905081810181811067ffffffffffffffff821117156200076057600080fd5b8060405250919050565b600067ffffffffffffffff8211156200078257600080fd5b601f19601f8301169050602081019050919050565b600073ffffffffffffffffffffffffffffffffffffffff82169050919050565b6000819050919050565b600073ffffffffffffffffffffffffffffffffffffffff82169050919050565b60008115159050919050565b6000819050919050565b6000819050919050565b60005b838110156200082157808201518184015260208101905062000804565b8381111562000831576000848401525b50505050565b611e3980620008476000396000f3006080604052600436106100c5576000357c0100000000000000000000000000000000000000000000000000000000900463ffffffff168063109ae012146100c757806335651a32146100de5780634bb278f314610109578063632e5b63146101345780636fc659241461015f57806385bb7d691461018a5780639c16667c146101b5578063b7f3cb25146101e0578063c589a90a1461021d578063daff9ab714610246578063e03437d414610271578063f77f29b11461029c578063fe18e9a0146102c7575b005b3480156100d357600080fd5b506100dc6102e3565b005b3480156100ea57600080fd5b506100f3610486565b6040516101009190611a32565b60405180910390f35b34801561011557600080fd5b5061011e61054b565b60405161012b9190611ab4565b60405180910390f35b34801561014057600080fd5b50610149610746565b6040516101569190611bc5565b60405180910390f35b34801561016b57600080fd5b5061017461082d565b6040516101819190611bc5565b60405180910390f35b34801561019657600080fd5b5061019f610917565b6040516101ac9190611acf565b60405180910390f35b3480156101c157600080fd5b506101ca61091d565b6040516101d79190611acf565b60405180910390f35b3480156101ec57600080fd5b50610207600480360361020291908101906117d6565b610927565b6040516102149190611acf565b60405180910390f35b34801561022957600080fd5b50610244600480360361023f91908101906116f4565b610a05565b005b34801561025257600080fd5b5061025b610b55565b6040516102689190611acf565b60405180910390f35b34801561027d57600080fd5b50610286610c5b565b6040516102939190611acf565b60405180910390f35b3480156102a857600080fd5b506102b1610c61565b6040516102be9190611a32565b60405180910390f35b6102e160048036036102dc9190810190611787565b610d48565b005b6000803073ffffffffffffffffffffffffffffffffffffffff16319150601160009054906101000a900473ffffffffffffffffffffffffffffffffffffffff1673ffffffffffffffffffffffffffffffffffffffff1663b53709af600a60009054906101000a900473ffffffffffffffffffffffffffffffffffffffff16306040518363ffffffff167c010000000000000000000000000000000000000000000000000000000002815260040161039b929190611b2e565b602060405180830381600087803b1580156103b557600080fd5b505af11580156103c9573d6000803e3d6000fd5b505050506040513d601f19601f820116820180604052506103ed9190810190611735565b503073ffffffffffffffffffffffffffffffffffffffff163190506000809054906101000a900473ffffffffffffffffffffffffffffffffffffffff1673ffffffffffffffffffffffffffffffffffffffff166108fc61045684846113e790919063ffffffff16565b9081150290604051600060405180830381858888f19350505050158015610481573d6000803e3d6000fd5b505050565b6000600e60009054906101000a900473ffffffffffffffffffffffffffffffffffffffff1673ffffffffffffffffffffffffffffffffffffffff1663b80907f26040518163ffffffff167c0100000000000000000000000000000000000000000000000000000000028152600401602060405180830381600087803b15801561050e57600080fd5b505af1158015610522573d6000803e3d6000fd5b505050506040513d601f19601f820116820180604052506105469190810190611877565b905090565b6000600654421015151561055e57600080fd5b600560009054906101000a900460ff1615156105b9576001600560016101000a81548160ff0219169083151502179055506105aa600854600560029054906101000a900460ff16611400565b600b8160001916905550610743565b600a60009054906101000a900473ffffffffffffffffffffffffffffffffffffffff1673ffffffffffffffffffffffffffffffffffffffff16638d4e40836040518163ffffffff167c0100000000000000000000000000000000000000000000000000000000028152600401602060405180830381600087803b15801561063f57600080fd5b505af1158015610653573d6000803e3d6000fd5b505050506040513d601f19601f820116820180604052506106779190810190611735565b15151561068357600080fd5b600a60009054906101000a900473ffffffffffffffffffffffffffffffffffffffff1673ffffffffffffffffffffffffffffffffffffffff16634bb278f36040518163ffffffff167c0100000000000000000000000000000000000000000000000000000000028152600401602060405180830381600087803b15801561070957600080fd5b505af115801561071d573d6000803e3d6000fd5b505050506040513d601f19601f820116820180604052506107419190810190611735565b505b90565b600060011515600560009054906101000a900460ff16151514151561076a57600080fd5b600a60009054906101000a900473ffffffffffffffffffffffffffffffffffffffff1673ffffffffffffffffffffffffffffffffffffffff1663a0e16fed6040518163ffffffff167c0100000000000000000000000000000000000000000000000000000000028152600401602060405180830381600087803b1580156107f057600080fd5b505af1158015610804573d6000803e3d6000fd5b505050506040513d601f19601f8201168201806040525061082891908101906118a0565b905090565b600060011515600560009054906101000a900460ff16151514151561085157600080fd5b6001600a60009054906101000a900473ffffffffffffffffffffffffffffffffffffffff1673ffffffffffffffffffffffffffffffffffffffff16639f941f696040518163ffffffff167c0100000000000000000000000000000000000000000000000000000000028152600401602060405180830381600087803b1580156108d957600080fd5b505af11580156108ed573d6000803e3d6000fd5b505050506040513d601f19601f8201168201806040525061091191908101906118a0565b01905090565b60085481565b6000600854905090565b6000600360009054906101000a900473ffffffffffffffffffffffffffffffffffffffff1673ffffffffffffffffffffffffffffffffffffffff163373ffffffffffffffffffffffffffffffffffffffff1614151561098557600080fd5b60045460001916846000191614151561099d57600080fd5b7f02275aa3fc19f4434baa202130589d61e0ab9c8811cfc8054925bf33d88ab7c784846040516109ce929190611aea565b60405180910390a1826008816000191690555081600560026101000a81548160ff0219169083151502179055508290509392505050565b8060405180828051906020019060200280838360005b83811015610a36578082015181840152602081019050610a1b565b50505050905001915050604051809103902060001916610a67600954600560039054906101000a900460ff16611400565b60001916141515610a7757600080fd5b600a60009054906101000a900473ffffffffffffffffffffffffffffffffffffffff1673ffffffffffffffffffffffffffffffffffffffff16630ea9e4f182600560039054906101000a900460ff166040518363ffffffff167c0100000000000000000000000000000000000000000000000000000000028152600401610aff929190611a84565b602060405180830381600087803b158015610b1957600080fd5b505af1158015610b2d573d6000803e3d6000fd5b505050506040513d601f19601f82011682018060405250610b519190810190611735565b5050565b6000600360009054906101000a900473ffffffffffffffffffffffffffffffffffffffff1673ffffffffffffffffffffffffffffffffffffffff1663aba9d1826001600263b7f3cb257c0100000000000000000000000000000000000000000000000000000000026040518463ffffffff167c0100000000000000000000000000000000000000000000000000000000028152600401610bf793929190611b80565b602060405180830381600087803b158015610c1157600080fd5b505af1158015610c25573d6000803e3d6000fd5b505050506040513d601f19601f82011682018060405250610c49919081019061175e565b60048160001916905550600454905090565b600b5481565b600060011515600560009054906101000a900460ff161515141515610c8557600080fd5b600a60009054906101000a900473ffffffffffffffffffffffffffffffffffffffff1673ffffffffffffffffffffffffffffffffffffffff1663f77f29b16040518163ffffffff167c0100000000000000000000000000000000000000000000000000000000028152600401602060405180830381600087803b158015610d0b57600080fd5b505af1158015610d1f573d6000803e3d6000fd5b505050506040513d601f19601f82011682018060405250610d439190810190611825565b905090565b6000806000806000809054906101000a900473ffffffffffffffffffffffffffffffffffffffff1673ffffffffffffffffffffffffffffffffffffffff163373ffffffffffffffffffffffffffffffffffffffff16141515610da957600080fd5b60001515600560009054906101000a900460ff161515141515610dcb57600080fd5b600e60009054906101000a900473ffffffffffffffffffffffffffffffffffffffff1673ffffffffffffffffffffffffffffffffffffffff1663fd1e5e7a6040518163ffffffff167c0100000000000000000000000000000000000000000000000000000000028152600401602060405180830381600087803b158015610e5157600080fd5b505af1158015610e65573d6000803e3d6000fd5b505050506040513d601f19601f82011682018060405250610e8991908101906118a0565b9350600e60009054906101000a900473ffffffffffffffffffffffffffffffffffffffff1673ffffffffffffffffffffffffffffffffffffffff1663b80907f26040518163ffffffff167c0100000000000000000000000000000000000000000000000000000000028152600401602060405180830381600087803b158015610f1157600080fd5b505af1158015610f25573d6000803e3d6000fd5b505050506040513d601f19601f82011682018060405250610f499190810190611877565b92508273ffffffffffffffffffffffffffffffffffffffff166323b872dd8630876040518463ffffffff167c0100000000000000000000000000000000000000000000000000000000028152600401610fa493929190611a4d565b602060405180830381600087803b158015610fbe57600080fd5b505af1158015610fd2573d6000803e3d6000fd5b505050506040513d601f19601f82011682018060405250610ff69190810190611735565b50600e60009054906101000a900473ffffffffffffffffffffffffffffffffffffffff1673ffffffffffffffffffffffffffffffffffffffff1663af4cd4576040518163ffffffff167c0100000000000000000000000000000000000000000000000000000000028152600401602060405180830381600087803b15801561107d57600080fd5b505af1158015611091573d6000803e3d6000fd5b505050506040513d601f19601f820116820180604052506110b591908101906118a0565b91508134101515156110c657600080fd5b600e60009054906101000a900473ffffffffffffffffffffffffffffffffffffffff1673ffffffffffffffffffffffffffffffffffffffff1663cabc6f1483607860075460065401016000600f60009054906101000a900473ffffffffffffffffffffffffffffffffffffffff1630600d54600c6040518863ffffffff167c010000000000000000000000000000000000000000000000000000000002815260040161117796959493929190611be0565b6020604051808303818588803b15801561119057600080fd5b505af11580156111a4573d6000803e3d6000fd5b50505050506040513d601f19601f820116820180604052506111c9919081019061184e565b600a60006101000a81548173ffffffffffffffffffffffffffffffffffffffff021916908373ffffffffffffffffffffffffffffffffffffffff160217905550866009816000191690555085600560036101000a81548160ff0219169083151502179055506001600560006101000a81548160ff02191690831515021790555061127061271061126284346113e790919063ffffffff16565b61155990919063ffffffff16565b90506127108111151561128257600080fd5b601060009054906101000a900473ffffffffffffffffffffffffffffffffffffffff1673ffffffffffffffffffffffffffffffffffffffff1663abb60c806112d56127108461156f90919063ffffffff16565b600a60009054906101000a900473ffffffffffffffffffffffffffffffffffffffff16846040518463ffffffff167c0100000000000000000000000000000000000000000000000000000000028152600401611332929190611b57565b6020604051808303818588803b15801561134b57600080fd5b505af115801561135f573d6000803e3d6000fd5b50505050506040513d601f19601f820116820180604052506113849190810190611735565b507faebf4bec624072b88d38355921e2fa310b6cad0d1faab9662247833616f31d11600a60009054906101000a900473ffffffffffffffffffffffffffffffffffffffff166040516113d69190611b13565b60405180910390a150505050505050565b60008282111515156113f557fe5b818303905092915050565b6000811561148b576040805190810160405280611429600261271061155990919063ffffffff16565b8152602001611444600261271061155990919063ffffffff16565b8152506040518082600260200280838360005b83811015611472578082015181840152602081019050611457565b5050505090500191505060405180910390209050611553565b600260010260001916836000191614156114fb576040805190810160405280600081526020016127108152506040518082600260200280838360005b838110156114e25780820151818401526020810190506114c7565b5050505090500191505060405180910390209050611553565b6040805190810160405280612710815260200160008152506040518082600260200280838360005b8381101561153e578082015181840152602081019050611523565b50505050905001915050604051809103902090505b92915050565b6000818381151561156657fe5b04905092915050565b60008083141561158257600090506115a1565b818302905081838281151561159357fe5b0414151561159d57fe5b8090505b92915050565b60006115b38235611d53565b905092915050565b600082601f83011215156115ce57600080fd5b81356115e16115dc82611c88565b611c5b565b9150818183526020840193506020810190508385602084028201111561160657600080fd5b60005b83811015611636578161161c88826116cc565b845260208401935060208301925050600181019050611609565b5050505092915050565b600061164c8235611d73565b905092915050565b60006116608251611d73565b905092915050565b60006116748235611d7f565b905092915050565b60006116888251611d7f565b905092915050565b600061169c8251611d89565b905092915050565b60006116b08251611d9b565b905092915050565b60006116c48251611dad565b905092915050565b60006116d88235611dbf565b905092915050565b60006116ec8251611dbf565b905092915050565b60006020828403121561170657600080fd5b600082013567ffffffffffffffff81111561172057600080fd5b61172c848285016115bb565b91505092915050565b60006020828403121561174757600080fd5b600061175584828501611654565b91505092915050565b60006020828403121561177057600080fd5b600061177e8482850161167c565b91505092915050565b60008060006060848603121561179c57600080fd5b60006117aa86828701611668565b93505060206117bb86828701611640565b92505060406117cc868287016115a7565b9150509250925092565b6000806000606084860312156117eb57600080fd5b60006117f986828701611668565b935050602061180a86828701611668565b925050604061181b86828701611640565b9150509250925092565b60006020828403121561183757600080fd5b600061184584828501611690565b91505092915050565b60006020828403121561186057600080fd5b600061186e848285016116a4565b91505092915050565b60006020828403121561188957600080fd5b6000611897848285016116b8565b91505092915050565b6000602082840312156118b257600080fd5b60006118c0848285016116e0565b91505092915050565b6118d281611ce7565b82525050565b60006118e382611ccf565b8084526020840193506118f583611cb0565b60005b828110156119275761190b868351611a23565b61191482611cda565b91506020860195506001810190506118f8565b50849250505092915050565b61193c81611d07565b82525050565b61194b81611d13565b82525050565b61195a81611d1d565b82525050565b61196981611dc9565b82525050565b61197881611ddb565b82525050565b61198781611ded565b82525050565b6000815460018116600081146119aa57600181146119ca57611a0b565b607f600283041680865260ff198316602087015260408601935050611a0b565b600282048086526020860195506119e085611cbd565b60005b82811015611a02578154818901526001820191506020810190506119e3565b80880195505050505b505092915050565b6000808252602082019050919050565b611a2c81611d49565b82525050565b6000602082019050611a4760008301846118c9565b92915050565b6000606082019050611a6260008301866118c9565b611a6f60208301856118c9565b611a7c6040830184611a23565b949350505050565b60006040820190508181036000830152611a9e81856118d8565b9050611aad6020830184611933565b9392505050565b6000602082019050611ac96000830184611933565b92915050565b6000602082019050611ae46000830184611942565b92915050565b6000604082019050611aff6000830185611942565b611b0c6020830184611942565b9392505050565b6000602082019050611b28600083018461196f565b92915050565b6000604082019050611b43600083018561196f565b611b5060208301846118c9565b9392505050565b6000604082019050611b6c600083018561196f565b611b796020830184611a23565b9392505050565b60006060820190508181036000830152611b9a818661198d565b90508181036020830152611bae818561198d565b9050611bbd6040830184611951565b949350505050565b6000602082019050611bda6000830184611a23565b92915050565b600060e082019050611bf56000830189611a23565b611c02602083018861197e565b611c0f6040830187611960565b611c1c60608301866118c9565b611c296080830185611942565b81810360a0830152611c3b818461198d565b905081810360c0830152611c4e81611a13565b9050979650505050505050565b6000604051905081810181811067ffffffffffffffff82111715611c7e57600080fd5b8060405250919050565b600067ffffffffffffffff821115611c9f57600080fd5b602082029050602081019050919050565b6000602082019050919050565b60008160005260206000209050919050565b600081519050919050565b6000602082019050919050565b600073ffffffffffffffffffffffffffffffffffffffff82169050919050565b60008115159050919050565b6000819050919050565b60007fffffffff0000000000000000000000000000000000000000000000000000000082169050919050565b6000819050919050565b600073ffffffffffffffffffffffffffffffffffffffff82169050919050565b60008115159050919050565b6000819050919050565b6000611d9482611ce7565b9050919050565b6000611da682611ce7565b9050919050565b6000611db882611ce7565b9050919050565b6000819050919050565b6000611dd482611ce7565b9050919050565b6000611de682611ce7565b9050919050565b6000611df882611d49565b90509190505600a265627a7a72305820660bff5fc51cfaa1ec4ef91e61e2f366740d66eed3f685625ed650d93a9e126b6c6578706572696d656e74616cf50037",
  "source": "pragma solidity >= 0.4.22;\npragma experimental ABIEncoderV2;\n\nimport \"./YesNoMarket.sol\";\nimport \"./../libraries/augur/source/contracts/reporting/IMarket.sol\";\nimport \"./../libraries/augur/source/contracts/reporting/Market.sol\";\nimport \"./../libraries/augur/source/contracts/trading/IShareToken.sol\";\nimport \"./../libraries/augur/source/contracts/trading/CompleteSets.sol\";\nimport \"./../libraries/augur/source/contracts/trading/ICash.sol\";\nimport \"./../libraries/augur/source/contracts/libraries/token/ERC20.sol\";\nimport \"./../libraries/augur/source/contracts/reporting/Universe.sol\";\nimport \"./../libraries/augur/source/contracts/trading/ClaimTradingProceeds.sol\";\nimport \"./../libraries/augur/source/contracts/Augur.sol\";\nimport \"./FakeLink.sol\";\nimport \"./../libraries/openzeppelin-solidity/SafeMathLib.sol\";\n \ncontract MarketOracle {\n\tusing SafeMathLib for uint256;\n\taddress creator;\n\t\n\tstring url;\n\tstring path; \n\tFakeLink chainLink;\n\tbytes32 chainLinkRequestId;\n\t\n\tbool disputed;\n\tbool resoluted;\n\tbool isInvalid;\n\tbool disputeIsInvalid;\n\tuint256 endTime;\n\tuint256 disputeTimeAdded;\n\tbytes32 public answer;\n\tbytes32 disputeAnswer;\n\tIMarket disputeMarket;\n\tbytes32 public payoutDistributionHash;\n\n\tstring marketDescription;\n\tbytes32 marketTopic;\n\tUniverse universe;\n\tICash cash;\n\tCompleteSets completeSets;\n\tClaimTradingProceeds claimTradingProceeds;\n\n\tuint256 constant NUM_TICKS = 10000;\n\tuint256 constant ZERO = 0;\n\tuint256 constant TEN_MINUTES = 60 * 10;\n\tuint256 constant ONE_DAY = 60 * 60 * 24;\n\n\tevent marketDisputed(address market);\n\tevent dataIsFulfilled(bytes32 id, bytes32 data);\n\n\tconstructor(\n\t\tstring _url, \n\t\tstring _path,\n\t\taddress _chainLink,\n\t\tstring _marketDescription,\n\t\tbytes32 _marketTopic,\n\t\tuint256 _endTime,\n\t\taddress _universe,\n\t\taddress _cash,\n\t\taddress _augur,\n\t\taddress _completeSets,\n\t\taddress _claimTradingProceeds\n\t) \n\tpublic {\n\t\trequire (_endTime > now);\n\n\t\tcreator = msg.sender;\n\t\t\n\t\turl = _url;\n\t\tpath = _path;\n\t\tchainLink = FakeLink(_chainLink);\n\n\t\tendTime = _endTime;\n\t\tmarketDescription = _marketDescription;\n\t\tmarketTopic = _marketTopic;\n\t\tcash = ICash(_cash);\n\t\tuniverse = Universe(_universe);\n\t\tcompleteSets = CompleteSets(_completeSets);\n\t\tclaimTradingProceeds = ClaimTradingProceeds(_claimTradingProceeds);\n\n\t\tuint256 timeToEnd = endTime.sub(now);\n\t\tuint256 potentialAddedDisputeTime = timeToEnd.div(30);\n\t\tif (potentialAddedDisputeTime >= TEN_MINUTES && potentialAddedDisputeTime <= ONE_DAY) {\n\t\t\tdisputeTimeAdded = potentialAddedDisputeTime;\n\t\t} else if (potentialAddedDisputeTime < TEN_MINUTES) {\n\t\t\tdisputeTimeAdded = TEN_MINUTES;\n\t\t} else if (potentialAddedDisputeTime > ONE_DAY) {\n\t\t\tdisputeTimeAdded = ONE_DAY;\n\t\t}\n\n\t\tcash.approve(_augur, uint256(-1));\n\t}\n\n\tfunction () public payable {}\n\n\tfunction requestDataChainLink() \n\tpublic \n\treturns (bytes32)\n\t{\n\t\t// require(now >= endTime);\n\t\tchainLinkRequestId = chainLink.requestAPIData(url, path, this.dataFulfilled.selector);\n\t\treturn chainLinkRequestId;\n\t}\n\n\tfunction dataFulfilled(bytes32 _requestId, bytes32 _data, bool _invalid)\n\tpublic\n\treturns (bytes32)\n\t{\n\t\trequire(msg.sender == address(chainLink));\n\t\trequire(_requestId == chainLinkRequestId);\n\t\temit dataIsFulfilled(_requestId, _data);\n\t\tanswer = _data;\n\t\tisInvalid = _invalid;\n\t\treturn _data;\n\t}\n\n\tfunction startDispute(\n\t\tbytes32 _correctAnswer,\n\t\tbool _invalid,\n\t\taddress _disputer\n\t)\n\tpublic \n\tpayable\t{\n\t\trequire(msg.sender == address(creator));\n\t\trequire(disputed == false);\n\t\t// require(now < endTime + disputeTimeAdded && now >= endTime);\t\t\n\n\t\t// get noShowBond\n\t\tuint256 noShowBondFee = universe.getOrCacheDesignatedReportNoShowBond();\n\t\tERC20 rep = ERC20(universe.getReputationToken());\n\t\trep.transferFrom(_disputer, address(this), noShowBondFee);\n\n\t\t// check if marketCreationFee is added\n\t\tuint256 marketCreationFee = universe.getOrCacheValidityBond();\n\t\trequire(msg.value >= marketCreationFee);\n\n\t\t// Create disputemarket\n\t\tdisputeMarket = universe.createYesNoMarket.value(marketCreationFee)(\n\t\t\tendTime + disputeTimeAdded + 120,\n\t\t\t0,\n\t\t\tcash,\n\t\t\taddress(this),\n\t\t\tmarketTopic,\n\t\t\tmarketDescription,\n\t\t\t\"\"\n\t\t);\n\t\tdisputeAnswer = _correctAnswer;\n\t\tdisputeIsInvalid = _invalid;\n\t\tdisputed = true;\n\n\t\tuint256 setsToBuy = msg.value.sub(marketCreationFee).div(NUM_TICKS);\n\t\trequire(setsToBuy > NUM_TICKS);\n\t\tcompleteSets.publicBuyCompleteSets.value(setsToBuy.mul(NUM_TICKS))(disputeMarket, setsToBuy);\n\t\t\n\t\temit marketDisputed(disputeMarket);\n\t}\n\n\tfunction submitInitialReport(uint256[] payoutNumerators) public {\n\t\trequire(answerToPayoutDistributionHash(disputeAnswer, disputeIsInvalid) == keccak256(payoutNumerators));\n\t\tMarket(address(disputeMarket)).doInitialReport(payoutNumerators, disputeIsInvalid);\n\t}\n\n\tfunction answerToPayoutDistributionHash(bytes32 _answer, bool _invalid) \n\tinternal \n\treturns(bytes32) {\n\t\tif (_invalid) {\n\t\t\treturn keccak256([NUM_TICKS.div(2), NUM_TICKS.div(2)]);\n\t\t}\n\t\telse if (_answer == bytes32(2)) {\n\t\t\treturn keccak256([ZERO, NUM_TICKS]);\n\t\t} \n\t\telse {\n\t\t\treturn keccak256([NUM_TICKS, ZERO]);\n\t\t}\n\t}\n\n\tfunction finalize()\n\tpublic\n\tview\n\treturns (bool) {\n\t\trequire(now >= endTime);\n\t\t// If not testing the line below here should be uncommented\n\t\t// require(now >= endTime + disputeTimeAdded);\n\t\tif (!disputed) {\n\t\t\tresoluted = true;\n\t\t\tpayoutDistributionHash = answerToPayoutDistributionHash(answer, isInvalid);\n\t\t} else {\n\t\t\trequire(!disputeMarket.isFinalized());\n\t\t\tdisputeMarket.finalize();\n\t\t}\n\t}\n\n\tfunction claimDisputeTradingProceeds()\n\tpublic {\n\t\tuint256 balanceBefore = address(this).balance;\n\t\tclaimTradingProceeds.claimTradingProceeds(disputeMarket, address(this));\n\t\tuint256 balanceAfter = address(this).balance;\n\t\tcreator.transfer(balanceAfter.sub(balanceBefore));\n\t}\n\n\tfunction getDisputeMarketFinalizationTime()\n\tpublic\n\tview\n\treturns (uint256) {\n\t\trequire(disputed == true);\n\t\treturn disputeMarket.getFinalizationTime();\n\t}\n\n\n\tfunction getAnswer()\n\tpublic \n\tview \n\treturns(bytes32) {\n\t\treturn answer;\n\t}\n\n\tfunction getRepToken()\n\tpublic \n\tview\n\treturns (address) {\n\t\treturn universe.getReputationToken();\n\t}\n\n\tfunction getDisputeEndTime()\n\tpublic\n\tview \n\treturns (uint256) {\n\t\trequire(disputed == true);\n\t\treturn Market(address(disputeMarket)).getDesignatedReportingEndTime() + 1;\n\t}\n\t\n\tfunction getFeeWindow()\n\tpublic \n\tview \n\treturns(address) {\n\t\trequire(disputed == true);\n\t\treturn address(Market(address(disputeMarket)).getFeeWindow());\n\t}\n}",
  "sourcePath": "/Users/jasperdegooijer/Documents/eth-berlin/flux-oracle/contracts/MarketOracle.sol",
  "compiler": {
    "name": "solc",
    "version": "0.4.22+commit.4cb486ee.Emscripten.clang"
  },
  "schemaVersion": "3.0.13",
  "updatedAt": "2019-08-24T19:01:33.754Z",
  "devdoc": {
    "methods": {}
  },
  "userdoc": {
    "methods": {}
  }
}