{
  "contractName": "MarketOracle",
  "abi": [
    {
      "constant": true,
      "inputs": [],
      "name": "answer",
      "outputs": [
        {
          "name": "",
          "type": "bytes32"
        }
      ],
      "payable": false,
      "stateMutability": "view",
      "type": "function"
    },
    {
      "inputs": [
        {
          "name": "_url",
          "type": "string"
        },
        {
          "name": "_path",
          "type": "string"
        },
        {
          "name": "_chainLink",
          "type": "address"
        },
        {
          "name": "_marketDescription",
          "type": "string"
        },
        {
          "name": "_marketTopic",
          "type": "bytes32"
        },
        {
          "name": "_endTime",
          "type": "uint256"
        },
        {
          "name": "_universe",
          "type": "address"
        },
        {
          "name": "_cash",
          "type": "address"
        },
        {
          "name": "_augur",
          "type": "address"
        },
        {
          "name": "_completeSets",
          "type": "address"
        }
      ],
      "payable": false,
      "stateMutability": "nonpayable",
      "type": "constructor"
    },
    {
      "anonymous": false,
      "inputs": [
        {
          "indexed": false,
          "name": "market",
          "type": "address"
        }
      ],
      "name": "marketDisputed",
      "type": "event"
    },
    {
      "anonymous": false,
      "inputs": [
        {
          "indexed": false,
          "name": "id",
          "type": "bytes32"
        },
        {
          "indexed": false,
          "name": "data",
          "type": "bytes32"
        }
      ],
      "name": "dataIsFulfilled",
      "type": "event"
    },
    {
      "constant": false,
      "inputs": [],
      "name": "requestDataChainLink",
      "outputs": [
        {
          "name": "",
          "type": "bytes32"
        }
      ],
      "payable": false,
      "stateMutability": "nonpayable",
      "type": "function"
    },
    {
      "constant": false,
      "inputs": [
        {
          "name": "_requestId",
          "type": "bytes32"
        },
        {
          "name": "_data",
          "type": "bytes32"
        },
        {
          "name": "_invalid",
          "type": "bool"
        }
      ],
      "name": "dataFulfilled",
      "outputs": [
        {
          "name": "",
          "type": "bytes32"
        }
      ],
      "payable": false,
      "stateMutability": "nonpayable",
      "type": "function"
    },
    {
      "constant": false,
      "inputs": [
        {
          "name": "_correctAnswer",
          "type": "bytes32"
        }
      ],
      "name": "startDispute",
      "outputs": [],
      "payable": true,
      "stateMutability": "payable",
      "type": "function"
    },
    {
      "constant": false,
      "inputs": [],
      "name": "finalizeDisputeMarket",
      "outputs": [
        {
          "name": "",
          "type": "bool"
        }
      ],
      "payable": false,
      "stateMutability": "nonpayable",
      "type": "function"
    },
    {
      "constant": true,
      "inputs": [],
      "name": "getAnswer",
      "outputs": [
        {
          "name": "",
          "type": "bytes32"
        }
      ],
      "payable": false,
      "stateMutability": "view",
      "type": "function"
    },
    {
      "constant": true,
      "inputs": [],
      "name": "answerToPayoutDistribution",
      "outputs": [],
      "payable": false,
      "stateMutability": "view",
      "type": "function"
    },
    {
      "constant": true,
      "inputs": [],
      "name": "resolute",
      "outputs": [
        {
          "name": "",
          "type": "bool"
        }
      ],
      "payable": false,
      "stateMutability": "view",
      "type": "function"
    }
  ],
  "bytecode": "0x6080604052610258600755620151806008553480156200001e57600080fd5b50604051620014ee380380620014ee833981018060405262000044919081019062000564565b60008042871115156200005657600080fd5b33600960006101000a81548173ffffffffffffffffffffffffffffffffffffffff021916908373ffffffffffffffffffffffffffffffffffffffff1602179055508b60009080519060200190620000af929190620003d3565b508a60019080519060200190620000c8929190620003d3565b5089600c60006101000a81548173ffffffffffffffffffffffffffffffffffffffff021916908373ffffffffffffffffffffffffffffffffffffffff16021790555086600581905550886002908051906020019062000129929190620003d3565b50876003816000191690555084600e60006101000a81548173ffffffffffffffffffffffffffffffffffffffff021916908373ffffffffffffffffffffffffffffffffffffffff16021790555085600d60006101000a81548173ffffffffffffffffffffffffffffffffffffffff021916908373ffffffffffffffffffffffffffffffffffffffff16021790555082601260006101000a81548173ffffffffffffffffffffffffffffffffffffffff021916908373ffffffffffffffffffffffffffffffffffffffff1602179055506200021d42600554620003a26401000000000262000c8c179091906401000000009004565b915062000243601e83620003bc6401000000000262000ca5179091906401000000009004565b905060075481101580156200025a57506008548111155b156200026d57806006819055506200029e565b60075481101562000287576007546006819055506200029d565b6008548111156200029c576008546006819055505b5b5b600e60009054906101000a900473ffffffffffffffffffffffffffffffffffffffff1673ffffffffffffffffffffffffffffffffffffffff1663095ea7b3857fffffffffffffffffffffffffffffffffffffffffffffffffffffffffffffffff6040518363ffffffff167c010000000000000000000000000000000000000000000000000000000002815260040162000339929190620006c1565b602060405180830381600087803b1580156200035457600080fd5b505af115801562000369573d6000803e3d6000fd5b505050506040513d601f19601f820116820180604052506200038f919081019062000538565b50505050505050505050505050620007e9565b6000828211151515620003b157fe5b818303905092915050565b60008183811515620003ca57fe5b04905092915050565b828054600181600116156101000203166002900490600052602060002090601f016020900481019282601f106200041657805160ff191683800117855562000447565b8280016001018555821562000447579182015b828111156200044657825182559160200191906001019062000429565b5b5090506200045691906200045a565b5090565b6200047f91905b808211156200047b57600081600090555060010162000461565b5090565b90565b600062000490825162000773565b905092915050565b6000620004a6825162000793565b905092915050565b6000620004bc82516200079f565b905092915050565b600082601f8301121515620004d857600080fd5b8151620004ef620004e9826200071c565b620006ee565b915080825260208301602083018583830111156200050c57600080fd5b62000519838284620007b3565b50505092915050565b6000620005308251620007a9565b905092915050565b6000602082840312156200054b57600080fd5b60006200055b8482850162000498565b91505092915050565b6000806000806000806000806000806101408b8d0312156200058557600080fd5b60008b015167ffffffffffffffff811115620005a057600080fd5b620005ae8d828e01620004c4565b9a505060208b015167ffffffffffffffff811115620005cc57600080fd5b620005da8d828e01620004c4565b9950506040620005ed8d828e0162000482565b98505060608b015167ffffffffffffffff8111156200060b57600080fd5b620006198d828e01620004c4565b97505060806200062c8d828e01620004ae565b96505060a06200063f8d828e0162000522565b95505060c0620006528d828e0162000482565b94505060e0620006658d828e0162000482565b935050610100620006798d828e0162000482565b9250506101206200068d8d828e0162000482565b9150509295989b9194979a5092959850565b620006aa8162000749565b82525050565b620006bb8162000769565b82525050565b6000604082019050620006d860008301856200069f565b620006e76020830184620006b0565b9392505050565b6000604051905081810181811067ffffffffffffffff821117156200071257600080fd5b8060405250919050565b600067ffffffffffffffff8211156200073457600080fd5b601f19601f8301169050602081019050919050565b600073ffffffffffffffffffffffffffffffffffffffff82169050919050565b6000819050919050565b600073ffffffffffffffffffffffffffffffffffffffff82169050919050565b60008115159050919050565b6000819050919050565b6000819050919050565b60005b83811015620007d3578082015181840152602081019050620007b6565b83811115620007e3576000848401525b50505050565b610cf580620007f96000396000f30060806040526004361061008e576000357c0100000000000000000000000000000000000000000000000000000000900463ffffffff16806310aa6e5314610093578063607e3348146100be57806385bb7d69146100d55780639c16667c14610100578063b6de0d361461012b578063b7f3cb2514610147578063daff9ab714610184578063ef9f1119146101af575b600080fd5b34801561009f57600080fd5b506100a86101da565b6040516100b59190610b27565b60405180910390f35b3480156100ca57600080fd5b506100d361029f565b005b3480156100e157600080fd5b506100ea61036c565b6040516100f79190610b42565b60405180910390f35b34801561010c57600080fd5b50610115610372565b6040516101229190610b42565b60405180910390f35b6101456004803603610140919081019061099b565b61037c565b005b34801561015357600080fd5b5061016e600480360361016991908101906109ed565b6104d0565b60405161017b9190610b42565b60405180910390f35b34801561019057600080fd5b506101996105ae565b6040516101a69190610b42565b60405180910390f35b3480156101bb57600080fd5b506101c46106b4565b6040516101d19190610b27565b60405180910390f35b6000600f60009054906101000a900473ffffffffffffffffffffffffffffffffffffffff1673ffffffffffffffffffffffffffffffffffffffff16634bb278f36040518163ffffffff167c0100000000000000000000000000000000000000000000000000000000028152600401602060405180830381600087803b15801561026257600080fd5b505af1158015610276573d6000803e3d6000fd5b505050506040513d601f19601f8201168201806040525061029a9190810190610972565b905090565b600460029054906101000a900460ff16156102eb5760408051908101604052806101f461ffff1681526020016101f461ffff1681525060119060026102e5929190610896565b5061036a565b600260010260001916600b54600019161415610337576040805190810160405280600061ffff1681526020016103e861ffff168152506011906002610331929190610896565b50610369565b60408051908101604052806103e861ffff168152602001600061ffff168152506011906002610367929190610896565b505b5b565b600b5481565b6000600b54905090565b6000600d60009054906101000a900473ffffffffffffffffffffffffffffffffffffffff1673ffffffffffffffffffffffffffffffffffffffff1663af4cd4576040518163ffffffff167c0100000000000000000000000000000000000000000000000000000000028152600401602060405180830381600087803b15801561040457600080fd5b505af1158015610418573d6000803e3d6000fd5b505050506040513d601f19601f8201168201806040525061043c9190810190610a3c565b905080341015151561044d57600080fd5b81601081600019169055506001600460006101000a81548160ff0219169083151502179055507faebf4bec624072b88d38355921e2fa310b6cad0d1faab9662247833616f31d11600f60009054906101000a900473ffffffffffffffffffffffffffffffffffffffff166040516104c49190610b86565b60405180910390a15050565b6000600c60009054906101000a900473ffffffffffffffffffffffffffffffffffffffff1673ffffffffffffffffffffffffffffffffffffffff163373ffffffffffffffffffffffffffffffffffffffff1614151561052e57600080fd5b600a5460001916846000191614151561054657600080fd5b7f02275aa3fc19f4434baa202130589d61e0ab9c8811cfc8054925bf33d88ab7c78484604051610577929190610b5d565b60405180910390a182600b816000191690555081600460026101000a81548160ff0219169083151502179055508290509392505050565b6000600c60009054906101000a900473ffffffffffffffffffffffffffffffffffffffff1673ffffffffffffffffffffffffffffffffffffffff1663aba9d1826000600163b7f3cb257c0100000000000000000000000000000000000000000000000000000000026040518463ffffffff167c010000000000000000000000000000000000000000000000000000000002815260040161065093929190610ba1565b602060405180830381600087803b15801561066a57600080fd5b505af115801561067e573d6000803e3d6000fd5b505050506040513d601f19601f820116820180604052506106a291908101906109c4565b600a8160001916905550600a54905090565b60006006546005540142101515156106cb57600080fd5b600460009054906101000a900460ff161515610709576001600460016101000a81548160ff02191690831515021790555061070461029f565b610893565b600f60009054906101000a900473ffffffffffffffffffffffffffffffffffffffff1673ffffffffffffffffffffffffffffffffffffffff16638d4e40836040518163ffffffff167c0100000000000000000000000000000000000000000000000000000000028152600401602060405180830381600087803b15801561078f57600080fd5b505af11580156107a3573d6000803e3d6000fd5b505050506040513d601f19601f820116820180604052506107c79190810190610972565b1515156107d357600080fd5b600f60009054906101000a900473ffffffffffffffffffffffffffffffffffffffff1673ffffffffffffffffffffffffffffffffffffffff16634bb278f36040518163ffffffff167c0100000000000000000000000000000000000000000000000000000000028152600401602060405180830381600087803b15801561085957600080fd5b505af115801561086d573d6000803e3d6000fd5b505050506040513d601f19601f820116820180604052506108919190810190610972565b505b90565b8280548282559060005260206000209081019282156108d8579160200282015b828111156108d7578251829061ffff169055916020019190600101906108b6565b5b5090506108e591906108e9565b5090565b61090b91905b808211156109075760008160009055506001016108ef565b5090565b90565b600061091a8235610c5a565b905092915050565b600061092e8251610c5a565b905092915050565b60006109428235610c66565b905092915050565b60006109568251610c66565b905092915050565b600061096a8251610c70565b905092915050565b60006020828403121561098457600080fd5b600061099284828501610922565b91505092915050565b6000602082840312156109ad57600080fd5b60006109bb84828501610936565b91505092915050565b6000602082840312156109d657600080fd5b60006109e48482850161094a565b91505092915050565b600080600060608486031215610a0257600080fd5b6000610a1086828701610936565b9350506020610a2186828701610936565b9250506040610a328682870161090e565b9150509250925092565b600060208284031215610a4e57600080fd5b6000610a5c8482850161095e565b91505092915050565b610a6e81610c18565b82525050565b610a7d81610c24565b82525050565b610a8c81610c2e565b82525050565b610a9b81610c7a565b82525050565b600081546001811660008114610abe5760018114610ade57610b1f565b607f600283041680865260ff198316602087015260408601935050610b1f565b60028204808652602086019550610af485610be6565b60005b82811015610b1657815481890152600182019150602081019050610af7565b80880195505050505b505092915050565b6000602082019050610b3c6000830184610a65565b92915050565b6000602082019050610b576000830184610a74565b92915050565b6000604082019050610b726000830185610a74565b610b7f6020830184610a74565b9392505050565b6000602082019050610b9b6000830184610a92565b92915050565b60006060820190508181036000830152610bbb8186610aa1565b90508181036020830152610bcf8185610aa1565b9050610bde6040830184610a83565b949350505050565b60008160005260206000209050919050565b600073ffffffffffffffffffffffffffffffffffffffff82169050919050565b60008115159050919050565b6000819050919050565b60007fffffffff0000000000000000000000000000000000000000000000000000000082169050919050565b60008115159050919050565b6000819050919050565b6000819050919050565b6000610c8582610bf8565b9050919050565b6000828211151515610c9a57fe5b818303905092915050565b60008183811515610cb257fe5b049050929150505600a265627a7a723058201c11a0f2b3f5c387c6643499eac29c37f408efd2c131df871b44c452a3a165936c6578706572696d656e74616cf50037",
  "source": "pragma solidity >= 0.4.22;\npragma experimental ABIEncoderV2;\n\nimport \"./YesNoMarket.sol\";\nimport \"./../libraries/augur/source/contracts/reporting/IMarket.sol\";\nimport \"./../libraries/augur/source/contracts/trading/IShareToken.sol\";\nimport \"./../libraries/augur/source/contracts/trading/CompleteSets.sol\";\nimport \"./../libraries/augur/source/contracts/trading/ICash.sol\";\nimport \"./../libraries/augur/source/contracts/reporting/Universe.sol\";\nimport \"./../libraries/augur/source/contracts/trading/ClaimTradingProceeds.sol\";\nimport \"./../libraries/augur/source/contracts/Augur.sol\";\nimport \"./FakeLink.sol\";\nimport \"./../libraries/openzeppelin-solidity/SafeMathLib.sol\";\n \ncontract MarketOracle {\n\tusing SafeMathLib for uint256;\n\tstring url;\n\tstring path; \n\tstring marketDescription;\n\tbytes32 marketTopic;\n\tbool disputed;\n\tbool resoluted;\n\tbool isInvalid;\n\tuint256 endTime;\n\tuint256 disputeTimeAdded;\n\tuint256 TEN_MINUTES = 60 * 10;\n\tuint256 ONE_DAY = 60 * 60 * 24;\n\taddress creator;\n\tbytes32 chainLinkRequestId;\n\tbytes32 public answer;\n\tFakeLink chainLink;\n\tUniverse universe;\n\tICash cash;\n\tIMarket disputeMarket;\n\tbytes32 disputeAnswer;\n\tuint256[] payoutDistribution;\n\tCompleteSets completeSets;\n\tevent marketDisputed(address market);\n\tevent dataIsFulfilled(bytes32 id, bytes32 data);\n\n\tconstructor(\n\t\tstring _url, \n\t\tstring _path,\n\t\taddress _chainLink,\n\t\tstring _marketDescription,\n\t\tbytes32 _marketTopic,\n\t\tuint256 _endTime,\n\t\taddress _universe,\n\t\taddress _cash,\n\t\taddress _augur,\n\t\taddress _completeSets\n\t) \n\tpublic {\n\t\trequire (_endTime > now);\n\n\t\tcreator = msg.sender;\n\t\t\n\t\turl = _url;\n\t\tpath = _path;\n\t\tchainLink = FakeLink(_chainLink);\n\n\t\tendTime = _endTime;\n\t\tmarketDescription = _marketDescription;\n\t\tmarketTopic = _marketTopic;\n\t\tcash = ICash(_cash);\n\t\tuniverse = Universe(_universe);\n\t\tcompleteSets = CompleteSets(_completeSets);\n\n\t\tuint256 timeToEnd = endTime.sub(now);\n\t\tuint256 potentialAddedDisputeTime = timeToEnd.div(30);\n\t\tif (potentialAddedDisputeTime >= TEN_MINUTES && potentialAddedDisputeTime <= ONE_DAY) {\n\t\t\tdisputeTimeAdded = potentialAddedDisputeTime;\n\t\t} else if (potentialAddedDisputeTime < TEN_MINUTES) {\n\t\t\tdisputeTimeAdded = TEN_MINUTES;\n\t\t} else if (potentialAddedDisputeTime > ONE_DAY) {\n\t\t\tdisputeTimeAdded = ONE_DAY;\n\t\t}\n\n\t\tcash.approve(_augur, uint256(-1));\n\t}\n\n\tfunction requestDataChainLink() \n\tpublic \n\treturns (bytes32)\n\t{\n\t\t// require(now >= endTime);\n\t\tchainLinkRequestId = chainLink.requestAPIData(url, path, this.dataFulfilled.selector);\n\t\treturn chainLinkRequestId;\n\t}\n\n\tfunction dataFulfilled(bytes32 _requestId, bytes32 _data, bool _invalid)\n\tpublic\n\treturns (bytes32)\n\t{\n\t\trequire(msg.sender == address(chainLink));\n\t\trequire(_requestId == chainLinkRequestId);\n\t\temit dataIsFulfilled(_requestId, _data);\n\t\tanswer = _data;\n\t\tisInvalid = _invalid;\n\t\treturn _data;\n\t}\n\n\tfunction startDispute(\n\t\tbytes32 _correctAnswer\n\t)\n\tpublic \n\tpayable\t{\n\t\t// require(msg.value == creator.balance);\n\t\t// require(disputed == false);\n\t\t// require(now < endTime + disputeTimeAdded && now >= endTime);\t\t\n\t\t// Need a crowdsourced amount of DAI/REP.\n\t\tuint256 marketCreationFee = universe.getOrCacheValidityBond();\n\t\trequire(msg.value >= marketCreationFee);\n\n\t\tdisputeAnswer = _correctAnswer;\n\t\tdisputed = true;\n\t\t\n\t\temit marketDisputed(disputeMarket);\n\n\t\t\n\t\t// Should transfer all open interest from Flux -> Augur\n\t}\n\n\tfunction finalizeDisputeMarket()\n\tpublic \n\treturns (bool) {\n\t\treturn disputeMarket.finalize();\n\t}\n\n\tfunction getAnswer()\n\tpublic \n\tview \n\treturns(bytes32) {\n\t\treturn answer;\n\t}\n\n\tfunction answerToPayoutDistribution() public view {\n\t\tif (isInvalid) {\n\t\t\tpayoutDistribution = [500, 500];\n\t\t}\n\t\telse if (answer == bytes32(2)) {\n\t\t\tpayoutDistribution = [0, 1000];\n\t\t} \n\t\telse {\n\t\t\tpayoutDistribution = [1000, 0];\n\t\t}\n\t}\n\n\tfunction resolute()\n\tpublic\n\tview\n\treturns (bool) {\n\t\trequire(now >= endTime + disputeTimeAdded);\n\t\tif (!disputed) {\n\t\t\tresoluted = true;\n\t\t\tanswerToPayoutDistribution();\n\t\t} else {\n\t\t\trequire(!disputeMarket.isFinalized());\n\t\t\tdisputeMarket.finalize();\n\t\t}\n\t}\n}",
  "sourcePath": "/Users/jasperdegooijer/Documents/eth-berlin/flux-oracle/contracts/MarketOracle.sol",
  "compiler": {
    "name": "solc",
    "version": "0.4.22+commit.4cb486ee.Emscripten.clang"
  },
  "schemaVersion": "3.0.13",
  "updatedAt": "2019-08-24T11:12:45.238Z",
  "devdoc": {
    "methods": {}
  },
  "userdoc": {
    "methods": {}
  }
}