{
  "contractName": "MarketOracle",
  "abi": [
    {
      "constant": true,
      "inputs": [],
      "name": "answer",
      "outputs": [
        {
          "name": "",
          "type": "bytes32"
        }
      ],
      "payable": false,
      "stateMutability": "view",
      "type": "function"
    },
    {
      "constant": true,
      "inputs": [],
      "name": "payoutDistributionHash",
      "outputs": [
        {
          "name": "",
          "type": "bytes32"
        }
      ],
      "payable": false,
      "stateMutability": "view",
      "type": "function"
    },
    {
      "inputs": [
        {
          "name": "_url",
          "type": "string"
        },
        {
          "name": "_path",
          "type": "string"
        },
        {
          "name": "_chainLink",
          "type": "address"
        },
        {
          "name": "_marketDescription",
          "type": "string"
        },
        {
          "name": "_marketTopic",
          "type": "bytes32"
        },
        {
          "name": "_endTime",
          "type": "uint256"
        },
        {
          "name": "_universe",
          "type": "address"
        },
        {
          "name": "_cash",
          "type": "address"
        },
        {
          "name": "_augur",
          "type": "address"
        },
        {
          "name": "_completeSets",
          "type": "address"
        }
      ],
      "payable": false,
      "stateMutability": "nonpayable",
      "type": "constructor"
    },
    {
      "payable": true,
      "stateMutability": "payable",
      "type": "fallback"
    },
    {
      "anonymous": false,
      "inputs": [
        {
          "indexed": false,
          "name": "market",
          "type": "address"
        }
      ],
      "name": "marketDisputed",
      "type": "event"
    },
    {
      "anonymous": false,
      "inputs": [
        {
          "indexed": false,
          "name": "id",
          "type": "bytes32"
        },
        {
          "indexed": false,
          "name": "data",
          "type": "bytes32"
        }
      ],
      "name": "dataIsFulfilled",
      "type": "event"
    },
    {
      "constant": false,
      "inputs": [],
      "name": "requestDataChainLink",
      "outputs": [
        {
          "name": "",
          "type": "bytes32"
        }
      ],
      "payable": false,
      "stateMutability": "nonpayable",
      "type": "function"
    },
    {
      "constant": false,
      "inputs": [
        {
          "name": "_requestId",
          "type": "bytes32"
        },
        {
          "name": "_data",
          "type": "bytes32"
        },
        {
          "name": "_invalid",
          "type": "bool"
        }
      ],
      "name": "dataFulfilled",
      "outputs": [
        {
          "name": "",
          "type": "bytes32"
        }
      ],
      "payable": false,
      "stateMutability": "nonpayable",
      "type": "function"
    },
    {
      "constant": false,
      "inputs": [
        {
          "name": "_correctAnswer",
          "type": "bytes32"
        },
        {
          "name": "_invalid",
          "type": "bool"
        },
        {
          "name": "_disputer",
          "type": "address"
        }
      ],
      "name": "startDispute",
      "outputs": [],
      "payable": true,
      "stateMutability": "payable",
      "type": "function"
    },
    {
      "constant": false,
      "inputs": [
        {
          "name": "payoutNumerators",
          "type": "uint256[]"
        }
      ],
      "name": "submitInitialReport",
      "outputs": [],
      "payable": false,
      "stateMutability": "nonpayable",
      "type": "function"
    },
    {
      "constant": true,
      "inputs": [],
      "name": "finalize",
      "outputs": [
        {
          "name": "",
          "type": "bool"
        }
      ],
      "payable": false,
      "stateMutability": "view",
      "type": "function"
    },
    {
      "constant": true,
      "inputs": [],
      "name": "getAnswer",
      "outputs": [
        {
          "name": "",
          "type": "bytes32"
        }
      ],
      "payable": false,
      "stateMutability": "view",
      "type": "function"
    },
    {
      "constant": true,
      "inputs": [],
      "name": "getRepToken",
      "outputs": [
        {
          "name": "",
          "type": "address"
        }
      ],
      "payable": false,
      "stateMutability": "view",
      "type": "function"
    },
    {
      "constant": true,
      "inputs": [],
      "name": "getDisputeEndTime",
      "outputs": [
        {
          "name": "",
          "type": "uint256"
        }
      ],
      "payable": false,
      "stateMutability": "view",
      "type": "function"
    },
    {
      "constant": true,
      "inputs": [],
      "name": "getFeeWindow",
      "outputs": [
        {
          "name": "",
          "type": "address"
        }
      ],
      "payable": false,
      "stateMutability": "view",
      "type": "function"
    }
  ],
  "bytecode": "0x60806040523480156200001157600080fd5b506040516200232038038062002320833981018060405262000037919081019062000559565b60008042871115156200004957600080fd5b336000806101000a81548173ffffffffffffffffffffffffffffffffffffffff021916908373ffffffffffffffffffffffffffffffffffffffff1602179055508b60019080519060200190620000a1929190620003c8565b508a60029080519060200190620000ba929190620003c8565b5089600360006101000a81548173ffffffffffffffffffffffffffffffffffffffff021916908373ffffffffffffffffffffffffffffffffffffffff1602179055508660068190555088600c90805190602001906200011b929190620003c8565b5087600d816000191690555084600f60006101000a81548173ffffffffffffffffffffffffffffffffffffffff021916908373ffffffffffffffffffffffffffffffffffffffff16021790555085600e60006101000a81548173ffffffffffffffffffffffffffffffffffffffff021916908373ffffffffffffffffffffffffffffffffffffffff16021790555082601060006101000a81548173ffffffffffffffffffffffffffffffffffffffff021916908373ffffffffffffffffffffffffffffffffffffffff1602179055506200020f42600654620003976401000000000262001262179091906401000000009004565b915062000235601e83620003b1640100000000026200127b179091906401000000009004565b905061025881101580156200024d5750620151808111155b1562000260578060078190555062000293565b6102588110156200027a5761025860078190555062000292565b620151808111156200029157620151806007819055505b5b5b600f60009054906101000a900473ffffffffffffffffffffffffffffffffffffffff1673ffffffffffffffffffffffffffffffffffffffff1663095ea7b3857fffffffffffffffffffffffffffffffffffffffffffffffffffffffffffffffff6040518363ffffffff167c01000000000000000000000000000000000000000000000000000000000281526004016200032e929190620006b6565b602060405180830381600087803b1580156200034957600080fd5b505af11580156200035e573d6000803e3d6000fd5b505050506040513d601f19601f820116820180604052506200038491908101906200052d565b50505050505050505050505050620007de565b6000828211151515620003a657fe5b818303905092915050565b60008183811515620003bf57fe5b04905092915050565b828054600181600116156101000203166002900490600052602060002090601f016020900481019282601f106200040b57805160ff19168380011785556200043c565b828001600101855582156200043c579182015b828111156200043b5782518255916020019190600101906200041e565b5b5090506200044b91906200044f565b5090565b6200047491905b808211156200047057600081600090555060010162000456565b5090565b90565b600062000485825162000768565b905092915050565b60006200049b825162000788565b905092915050565b6000620004b1825162000794565b905092915050565b600082601f8301121515620004cd57600080fd5b8151620004e4620004de8262000711565b620006e3565b915080825260208301602083018583830111156200050157600080fd5b6200050e838284620007a8565b50505092915050565b60006200052582516200079e565b905092915050565b6000602082840312156200054057600080fd5b600062000550848285016200048d565b91505092915050565b6000806000806000806000806000806101408b8d0312156200057a57600080fd5b60008b015167ffffffffffffffff8111156200059557600080fd5b620005a38d828e01620004b9565b9a505060208b015167ffffffffffffffff811115620005c157600080fd5b620005cf8d828e01620004b9565b9950506040620005e28d828e0162000477565b98505060608b015167ffffffffffffffff8111156200060057600080fd5b6200060e8d828e01620004b9565b9750506080620006218d828e01620004a3565b96505060a0620006348d828e0162000517565b95505060c0620006478d828e0162000477565b94505060e06200065a8d828e0162000477565b9350506101006200066e8d828e0162000477565b925050610120620006828d828e0162000477565b9150509295989b9194979a5092959850565b6200069f816200073e565b82525050565b620006b0816200075e565b82525050565b6000604082019050620006cd600083018562000694565b620006dc6020830184620006a5565b9392505050565b6000604051905081810181811067ffffffffffffffff821117156200070757600080fd5b8060405250919050565b600067ffffffffffffffff8211156200072957600080fd5b601f19601f8301169050602081019050919050565b600073ffffffffffffffffffffffffffffffffffffffff82169050919050565b6000819050919050565b600073ffffffffffffffffffffffffffffffffffffffff82169050919050565b60008115159050919050565b6000819050919050565b6000819050919050565b60005b83811015620007c8578082015181840152602081019050620007ab565b83811115620007d8576000848401525b50505050565b611b3280620007ee6000396000f3006080604052600436106100af576000357c0100000000000000000000000000000000000000000000000000000000900463ffffffff16806335651a32146100b15780634bb278f3146100dc5780636fc659241461010757806385bb7d69146101325780639c16667c1461015d578063b7f3cb2514610188578063c589a90a146101c5578063daff9ab7146101ee578063e03437d414610219578063f77f29b114610244578063fe18e9a01461026f575b005b3480156100bd57600080fd5b506100c661028b565b6040516100d39190611754565b60405180910390f35b3480156100e857600080fd5b506100f1610350565b6040516100fe91906117d6565b60405180910390f35b34801561011357600080fd5b5061011c61054f565b60405161012991906118be565b60405180910390f35b34801561013e57600080fd5b50610147610639565b60405161015491906117f1565b60405180910390f35b34801561016957600080fd5b5061017261063f565b60405161017f91906117f1565b60405180910390f35b34801561019457600080fd5b506101af60048036036101aa91908101906114f8565b610649565b6040516101bc91906117f1565b60405180910390f35b3480156101d157600080fd5b506101ec60048036036101e79190810190611416565b610727565b005b3480156101fa57600080fd5b50610203610877565b60405161021091906117f1565b60405180910390f35b34801561022557600080fd5b5061022e61097d565b60405161023b91906117f1565b60405180910390f35b34801561025057600080fd5b50610259610983565b6040516102669190611754565b60405180910390f35b610289600480360361028491908101906114a9565b610a6a565b005b6000600e60009054906101000a900473ffffffffffffffffffffffffffffffffffffffff1673ffffffffffffffffffffffffffffffffffffffff1663b80907f26040518163ffffffff167c0100000000000000000000000000000000000000000000000000000000028152600401602060405180830381600087803b15801561031357600080fd5b505af1158015610327573d6000803e3d6000fd5b505050506040513d601f19601f8201168201806040525061034b9190810190611599565b905090565b600060075460065401421015151561036757600080fd5b600560009054906101000a900460ff1615156103c2576001600560016101000a81548160ff0219169083151502179055506103b3600854600560029054906101000a900460ff16611109565b600b816000191690555061054c565b600a60009054906101000a900473ffffffffffffffffffffffffffffffffffffffff1673ffffffffffffffffffffffffffffffffffffffff16638d4e40836040518163ffffffff167c0100000000000000000000000000000000000000000000000000000000028152600401602060405180830381600087803b15801561044857600080fd5b505af115801561045c573d6000803e3d6000fd5b505050506040513d601f19601f820116820180604052506104809190810190611457565b15151561048c57600080fd5b600a60009054906101000a900473ffffffffffffffffffffffffffffffffffffffff1673ffffffffffffffffffffffffffffffffffffffff16634bb278f36040518163ffffffff167c0100000000000000000000000000000000000000000000000000000000028152600401602060405180830381600087803b15801561051257600080fd5b505af1158015610526573d6000803e3d6000fd5b505050506040513d601f19601f8201168201806040525061054a9190810190611457565b505b90565b600060011515600560009054906101000a900460ff16151514151561057357600080fd5b6001600a60009054906101000a900473ffffffffffffffffffffffffffffffffffffffff1673ffffffffffffffffffffffffffffffffffffffff16639f941f696040518163ffffffff167c0100000000000000000000000000000000000000000000000000000000028152600401602060405180830381600087803b1580156105fb57600080fd5b505af115801561060f573d6000803e3d6000fd5b505050506040513d601f19601f8201168201806040525061063391908101906115c2565b01905090565b60085481565b6000600854905090565b6000600360009054906101000a900473ffffffffffffffffffffffffffffffffffffffff1673ffffffffffffffffffffffffffffffffffffffff163373ffffffffffffffffffffffffffffffffffffffff161415156106a757600080fd5b6004546000191684600019161415156106bf57600080fd5b7f02275aa3fc19f4434baa202130589d61e0ab9c8811cfc8054925bf33d88ab7c784846040516106f092919061180c565b60405180910390a1826008816000191690555081600560026101000a81548160ff0219169083151502179055508290509392505050565b8060405180828051906020019060200280838360005b8381101561075857808201518184015260208101905061073d565b50505050905001915050604051809103902060001916610789600954600560039054906101000a900460ff16611109565b6000191614151561079957600080fd5b600a60009054906101000a900473ffffffffffffffffffffffffffffffffffffffff1673ffffffffffffffffffffffffffffffffffffffff16630ea9e4f182600560039054906101000a900460ff166040518363ffffffff167c01000000000000000000000000000000000000000000000000000000000281526004016108219291906117a6565b602060405180830381600087803b15801561083b57600080fd5b505af115801561084f573d6000803e3d6000fd5b505050506040513d601f19601f820116820180604052506108739190810190611457565b5050565b6000600360009054906101000a900473ffffffffffffffffffffffffffffffffffffffff1673ffffffffffffffffffffffffffffffffffffffff1663aba9d1826001600263b7f3cb257c0100000000000000000000000000000000000000000000000000000000026040518463ffffffff167c010000000000000000000000000000000000000000000000000000000002815260040161091993929190611879565b602060405180830381600087803b15801561093357600080fd5b505af1158015610947573d6000803e3d6000fd5b505050506040513d601f19601f8201168201806040525061096b9190810190611480565b60048160001916905550600454905090565b600b5481565b600060011515600560009054906101000a900460ff1615151415156109a757600080fd5b600a60009054906101000a900473ffffffffffffffffffffffffffffffffffffffff1673ffffffffffffffffffffffffffffffffffffffff1663f77f29b16040518163ffffffff167c0100000000000000000000000000000000000000000000000000000000028152600401602060405180830381600087803b158015610a2d57600080fd5b505af1158015610a41573d6000803e3d6000fd5b505050506040513d601f19601f82011682018060405250610a659190810190611547565b905090565b6000806000806000809054906101000a900473ffffffffffffffffffffffffffffffffffffffff1673ffffffffffffffffffffffffffffffffffffffff163373ffffffffffffffffffffffffffffffffffffffff16141515610acb57600080fd5b60001515600560009054906101000a900460ff161515141515610aed57600080fd5b600e60009054906101000a900473ffffffffffffffffffffffffffffffffffffffff1673ffffffffffffffffffffffffffffffffffffffff1663fd1e5e7a6040518163ffffffff167c0100000000000000000000000000000000000000000000000000000000028152600401602060405180830381600087803b158015610b7357600080fd5b505af1158015610b87573d6000803e3d6000fd5b505050506040513d601f19601f82011682018060405250610bab91908101906115c2565b9350600e60009054906101000a900473ffffffffffffffffffffffffffffffffffffffff1673ffffffffffffffffffffffffffffffffffffffff1663b80907f26040518163ffffffff167c0100000000000000000000000000000000000000000000000000000000028152600401602060405180830381600087803b158015610c3357600080fd5b505af1158015610c47573d6000803e3d6000fd5b505050506040513d601f19601f82011682018060405250610c6b9190810190611599565b92508273ffffffffffffffffffffffffffffffffffffffff166323b872dd8630876040518463ffffffff167c0100000000000000000000000000000000000000000000000000000000028152600401610cc69392919061176f565b602060405180830381600087803b158015610ce057600080fd5b505af1158015610cf4573d6000803e3d6000fd5b505050506040513d601f19601f82011682018060405250610d189190810190611457565b50600e60009054906101000a900473ffffffffffffffffffffffffffffffffffffffff1673ffffffffffffffffffffffffffffffffffffffff1663af4cd4576040518163ffffffff167c0100000000000000000000000000000000000000000000000000000000028152600401602060405180830381600087803b158015610d9f57600080fd5b505af1158015610db3573d6000803e3d6000fd5b505050506040513d601f19601f82011682018060405250610dd791908101906115c2565b9150813410151515610de857600080fd5b600e60009054906101000a900473ffffffffffffffffffffffffffffffffffffffff1673ffffffffffffffffffffffffffffffffffffffff1663cabc6f1483607860075460065401016000600f60009054906101000a900473ffffffffffffffffffffffffffffffffffffffff1630600d54600c6040518863ffffffff167c0100000000000000000000000000000000000000000000000000000000028152600401610e99969594939291906118d9565b6020604051808303818588803b158015610eb257600080fd5b505af1158015610ec6573d6000803e3d6000fd5b50505050506040513d601f19601f82011682018060405250610eeb9190810190611570565b600a60006101000a81548173ffffffffffffffffffffffffffffffffffffffff021916908373ffffffffffffffffffffffffffffffffffffffff160217905550866009816000191690555085600560036101000a81548160ff0219169083151502179055506001600560006101000a81548160ff021916908315150217905550610f92612710610f84843461126290919063ffffffff16565b61127b90919063ffffffff16565b905061271081111515610fa457600080fd5b601060009054906101000a900473ffffffffffffffffffffffffffffffffffffffff1673ffffffffffffffffffffffffffffffffffffffff1663abb60c80610ff76127108461129190919063ffffffff16565b600a60009054906101000a900473ffffffffffffffffffffffffffffffffffffffff16846040518463ffffffff167c0100000000000000000000000000000000000000000000000000000000028152600401611054929190611850565b6020604051808303818588803b15801561106d57600080fd5b505af1158015611081573d6000803e3d6000fd5b50505050506040513d601f19601f820116820180604052506110a69190810190611457565b507faebf4bec624072b88d38355921e2fa310b6cad0d1faab9662247833616f31d11600a60009054906101000a900473ffffffffffffffffffffffffffffffffffffffff166040516110f89190611835565b60405180910390a150505050505050565b60008115611194576040805190810160405280611132600261271061127b90919063ffffffff16565b815260200161114d600261271061127b90919063ffffffff16565b8152506040518082600260200280838360005b8381101561117b578082015181840152602081019050611160565b505050509050019150506040518091039020905061125c565b60026001026000191683600019161415611204576040805190810160405280600081526020016127108152506040518082600260200280838360005b838110156111eb5780820151818401526020810190506111d0565b505050509050019150506040518091039020905061125c565b6040805190810160405280612710815260200160008152506040518082600260200280838360005b8381101561124757808201518184015260208101905061122c565b50505050905001915050604051809103902090505b92915050565b600082821115151561127057fe5b818303905092915050565b6000818381151561128857fe5b04905092915050565b6000808314156112a457600090506112c3565b81830290508183828115156112b557fe5b041415156112bf57fe5b8090505b92915050565b60006112d58235611a4c565b905092915050565b600082601f83011215156112f057600080fd5b81356113036112fe82611981565b611954565b9150818183526020840193506020810190508385602084028201111561132857600080fd5b60005b83811015611358578161133e88826113ee565b84526020840193506020830192505060018101905061132b565b5050505092915050565b600061136e8235611a6c565b905092915050565b60006113828251611a6c565b905092915050565b60006113968235611a78565b905092915050565b60006113aa8251611a78565b905092915050565b60006113be8251611a82565b905092915050565b60006113d28251611a94565b905092915050565b60006113e68251611aa6565b905092915050565b60006113fa8235611ab8565b905092915050565b600061140e8251611ab8565b905092915050565b60006020828403121561142857600080fd5b600082013567ffffffffffffffff81111561144257600080fd5b61144e848285016112dd565b91505092915050565b60006020828403121561146957600080fd5b600061147784828501611376565b91505092915050565b60006020828403121561149257600080fd5b60006114a08482850161139e565b91505092915050565b6000806000606084860312156114be57600080fd5b60006114cc8682870161138a565b93505060206114dd86828701611362565b92505060406114ee868287016112c9565b9150509250925092565b60008060006060848603121561150d57600080fd5b600061151b8682870161138a565b935050602061152c8682870161138a565b925050604061153d86828701611362565b9150509250925092565b60006020828403121561155957600080fd5b6000611567848285016113b2565b91505092915050565b60006020828403121561158257600080fd5b6000611590848285016113c6565b91505092915050565b6000602082840312156115ab57600080fd5b60006115b9848285016113da565b91505092915050565b6000602082840312156115d457600080fd5b60006115e284828501611402565b91505092915050565b6115f4816119e0565b82525050565b6000611605826119c8565b808452602084019350611617836119a9565b60005b828110156116495761162d868351611745565b611636826119d3565b915060208601955060018101905061161a565b50849250505092915050565b61165e81611a00565b82525050565b61166d81611a0c565b82525050565b61167c81611a16565b82525050565b61168b81611ac2565b82525050565b61169a81611ad4565b82525050565b6116a981611ae6565b82525050565b6000815460018116600081146116cc57600181146116ec5761172d565b607f600283041680865260ff19831660208701526040860193505061172d565b60028204808652602086019550611702856119b6565b60005b8281101561172457815481890152600182019150602081019050611705565b80880195505050505b505092915050565b6000808252602082019050919050565b61174e81611a42565b82525050565b600060208201905061176960008301846115eb565b92915050565b600060608201905061178460008301866115eb565b61179160208301856115eb565b61179e6040830184611745565b949350505050565b600060408201905081810360008301526117c081856115fa565b90506117cf6020830184611655565b9392505050565b60006020820190506117eb6000830184611655565b92915050565b60006020820190506118066000830184611664565b92915050565b60006040820190506118216000830185611664565b61182e6020830184611664565b9392505050565b600060208201905061184a6000830184611691565b92915050565b60006040820190506118656000830185611691565b6118726020830184611745565b9392505050565b6000606082019050818103600083015261189381866116af565b905081810360208301526118a781856116af565b90506118b66040830184611673565b949350505050565b60006020820190506118d36000830184611745565b92915050565b600060e0820190506118ee6000830189611745565b6118fb60208301886116a0565b6119086040830187611682565b61191560608301866115eb565b6119226080830185611664565b81810360a083015261193481846116af565b905081810360c083015261194781611735565b9050979650505050505050565b6000604051905081810181811067ffffffffffffffff8211171561197757600080fd5b8060405250919050565b600067ffffffffffffffff82111561199857600080fd5b602082029050602081019050919050565b6000602082019050919050565b60008160005260206000209050919050565b600081519050919050565b6000602082019050919050565b600073ffffffffffffffffffffffffffffffffffffffff82169050919050565b60008115159050919050565b6000819050919050565b60007fffffffff0000000000000000000000000000000000000000000000000000000082169050919050565b6000819050919050565b600073ffffffffffffffffffffffffffffffffffffffff82169050919050565b60008115159050919050565b6000819050919050565b6000611a8d826119e0565b9050919050565b6000611a9f826119e0565b9050919050565b6000611ab1826119e0565b9050919050565b6000819050919050565b6000611acd826119e0565b9050919050565b6000611adf826119e0565b9050919050565b6000611af182611a42565b90509190505600a265627a7a72305820fe2d8a14c7b4f1c964374a0d559ab7581f03b85ceb76756a17e1e36d8eac80286c6578706572696d656e74616cf50037",
  "source": "pragma solidity >= 0.4.22;\npragma experimental ABIEncoderV2;\n\nimport \"./YesNoMarket.sol\";\nimport \"./../libraries/augur/source/contracts/reporting/IMarket.sol\";\nimport \"./../libraries/augur/source/contracts/reporting/Market.sol\";\nimport \"./../libraries/augur/source/contracts/trading/IShareToken.sol\";\nimport \"./../libraries/augur/source/contracts/trading/CompleteSets.sol\";\nimport \"./../libraries/augur/source/contracts/trading/ICash.sol\";\nimport \"./../libraries/augur/source/contracts/libraries/token/ERC20.sol\";\nimport \"./../libraries/augur/source/contracts/reporting/Universe.sol\";\nimport \"./../libraries/augur/source/contracts/trading/ClaimTradingProceeds.sol\";\nimport \"./../libraries/augur/source/contracts/Augur.sol\";\nimport \"./FakeLink.sol\";\nimport \"./../libraries/openzeppelin-solidity/SafeMathLib.sol\";\n \ncontract MarketOracle {\n\tusing SafeMathLib for uint256;\n\taddress creator;\n\t\n\tstring url;\n\tstring path; \n\tFakeLink chainLink;\n\tbytes32 chainLinkRequestId;\n\t\n\tbool disputed;\n\tbool resoluted;\n\tbool isInvalid;\n\tbool disputeIsInvalid;\n\tuint256 endTime;\n\tuint256 disputeTimeAdded;\n\tbytes32 public answer;\n\tbytes32 disputeAnswer;\n\tIMarket disputeMarket;\n\tbytes32 public payoutDistributionHash;\n\n\tstring marketDescription;\n\tbytes32 marketTopic;\n\tUniverse universe;\n\tICash cash;\n\tCompleteSets completeSets;\n\n\tuint256 constant NUM_TICKS = 10000;\n\tuint256 constant ZERO = 0;\n\tuint256 constant TEN_MINUTES = 60 * 10;\n\tuint256 constant ONE_DAY = 60 * 60 * 24;\n\n\tevent marketDisputed(address market);\n\tevent dataIsFulfilled(bytes32 id, bytes32 data);\n\n\tconstructor(\n\t\tstring _url, \n\t\tstring _path,\n\t\taddress _chainLink,\n\t\tstring _marketDescription,\n\t\tbytes32 _marketTopic,\n\t\tuint256 _endTime,\n\t\taddress _universe,\n\t\taddress _cash,\n\t\taddress _augur,\n\t\taddress _completeSets\n\t) \n\tpublic {\n\t\trequire (_endTime > now);\n\n\t\tcreator = msg.sender;\n\t\t\n\t\turl = _url;\n\t\tpath = _path;\n\t\tchainLink = FakeLink(_chainLink);\n\n\t\tendTime = _endTime;\n\t\tmarketDescription = _marketDescription;\n\t\tmarketTopic = _marketTopic;\n\t\tcash = ICash(_cash);\n\t\tuniverse = Universe(_universe);\n\t\tcompleteSets = CompleteSets(_completeSets);\n\n\t\tuint256 timeToEnd = endTime.sub(now);\n\t\tuint256 potentialAddedDisputeTime = timeToEnd.div(30);\n\t\tif (potentialAddedDisputeTime >= TEN_MINUTES && potentialAddedDisputeTime <= ONE_DAY) {\n\t\t\tdisputeTimeAdded = potentialAddedDisputeTime;\n\t\t} else if (potentialAddedDisputeTime < TEN_MINUTES) {\n\t\t\tdisputeTimeAdded = TEN_MINUTES;\n\t\t} else if (potentialAddedDisputeTime > ONE_DAY) {\n\t\t\tdisputeTimeAdded = ONE_DAY;\n\t\t}\n\n\t\tcash.approve(_augur, uint256(-1));\n\t}\n\n\tfunction () public payable {}\n\n\tfunction requestDataChainLink() \n\tpublic \n\treturns (bytes32)\n\t{\n\t\t// require(now >= endTime);\n\t\tchainLinkRequestId = chainLink.requestAPIData(url, path, this.dataFulfilled.selector);\n\t\treturn chainLinkRequestId;\n\t}\n\n\tfunction dataFulfilled(bytes32 _requestId, bytes32 _data, bool _invalid)\n\tpublic\n\treturns (bytes32)\n\t{\n\t\trequire(msg.sender == address(chainLink));\n\t\trequire(_requestId == chainLinkRequestId);\n\t\temit dataIsFulfilled(_requestId, _data);\n\t\tanswer = _data;\n\t\tisInvalid = _invalid;\n\t\treturn _data;\n\t}\n\n\tfunction startDispute(\n\t\tbytes32 _correctAnswer,\n\t\tbool _invalid,\n\t\taddress _disputer\n\t)\n\tpublic \n\tpayable\t{\n\t\trequire(msg.sender == address(creator));\n\t\trequire(disputed == false);\n\t\t// require(now < endTime + disputeTimeAdded && now >= endTime);\t\t\n\n\t\t// get noShowBond\n\t\tuint256 noShowBondFee = universe.getOrCacheDesignatedReportNoShowBond();\n\t\tERC20 rep = ERC20(universe.getReputationToken());\n\t\trep.transferFrom(_disputer, address(this), noShowBondFee);\n\n\t\t// check if marketCreationFee is added\n\t\tuint256 marketCreationFee = universe.getOrCacheValidityBond();\n\t\trequire(msg.value >= marketCreationFee);\n\n\t\t// Create disputemarket\n\t\tdisputeMarket = universe.createYesNoMarket.value(marketCreationFee)(\n\t\t\tendTime + disputeTimeAdded + 120,\n\t\t\t0,\n\t\t\tcash,\n\t\t\taddress(this),\n\t\t\tmarketTopic,\n\t\t\tmarketDescription,\n\t\t\t\"\"\n\t\t);\n\t\tdisputeAnswer = _correctAnswer;\n\t\tdisputeIsInvalid = _invalid;\n\t\tdisputed = true;\n\n\t\tuint256 setsToBuy = msg.value.sub(marketCreationFee).div(NUM_TICKS);\n\t\trequire(setsToBuy > NUM_TICKS);\n\t\tcompleteSets.publicBuyCompleteSets.value(setsToBuy.mul(NUM_TICKS))(disputeMarket, setsToBuy);\n\t\t\n\t\temit marketDisputed(disputeMarket);\n\t}\n\n\tfunction submitInitialReport(uint256[] payoutNumerators) public {\n\t\trequire(answerToPayoutDistributionHash(disputeAnswer, disputeIsInvalid) == keccak256(payoutNumerators));\n\t\tMarket(address(disputeMarket)).doInitialReport(payoutNumerators, disputeIsInvalid);\n\t}\n\n\tfunction answerToPayoutDistributionHash(bytes32 _answer, bool _invalid) \n\tinternal \n\treturns(bytes32) {\n\t\tif (_invalid) {\n\t\t\treturn keccak256([NUM_TICKS.div(2), NUM_TICKS.div(2)]);\n\t\t}\n\t\telse if (_answer == bytes32(2)) {\n\t\t\treturn keccak256([ZERO, NUM_TICKS]);\n\t\t} \n\t\telse {\n\t\t\treturn keccak256([NUM_TICKS, ZERO]);\n\t\t}\n\t}\n\n\tfunction finalize()\n\tpublic\n\tview\n\treturns (bool) {\n\t\trequire(now >= endTime + disputeTimeAdded);\n\t\tif (!disputed) {\n\t\t\tresoluted = true;\n\t\t\tpayoutDistributionHash = answerToPayoutDistributionHash(answer, isInvalid);\n\t\t} else {\n\t\t\trequire(!disputeMarket.isFinalized());\n\t\t\tdisputeMarket.finalize();\n\t\t}\n\t}\n\n\n\tfunction getAnswer()\n\tpublic \n\tview \n\treturns(bytes32) {\n\t\treturn answer;\n\t}\n\n\tfunction getRepToken()\n\tpublic \n\tview\n\treturns (address) {\n\t\treturn universe.getReputationToken();\n\t}\n\n\tfunction getDisputeEndTime()\n\tpublic\n\tview \n\treturns (uint256) {\n\t\trequire(disputed == true);\n\t\treturn Market(address(disputeMarket)).getDesignatedReportingEndTime() + 1;\n\t}\n\t\n\tfunction getFeeWindow()\n\tpublic \n\tview \n\treturns(address) {\n\t\trequire(disputed == true);\n\t\treturn address(Market(address(disputeMarket)).getFeeWindow());\n\t}\n}",
  "sourcePath": "/Users/jasperdegooijer/Documents/eth-berlin/flux-oracle/contracts/MarketOracle.sol",
  "compiler": {
    "name": "solc",
    "version": "0.4.22+commit.4cb486ee.Emscripten.clang"
  },
  "schemaVersion": "3.0.13",
  "updatedAt": "2019-08-24T18:13:25.978Z",
  "devdoc": {
    "methods": {}
  },
  "userdoc": {
    "methods": {}
  }
}