{
  "contractName": "Oracle",
  "abi": [
    {
      "constant": false,
      "inputs": [],
      "name": "requestDataChainLink",
      "outputs": [
        {
          "name": "",
          "type": "bytes32"
        }
      ],
      "payable": false,
      "stateMutability": "nonpayable",
      "type": "function"
    }
  ],
  "bytecode": "0x608060405234801561001057600080fd5b5060d98061001f6000396000f300608060405260043610603f576000357c0100000000000000000000000000000000000000000000000000000000900463ffffffff168063daff9ab7146044575b600080fd5b348015604f57600080fd5b506056606a565b60405160619190607c565b60405180910390f35b600090565b6076816095565b82525050565b6000602082019050608f6000830184606f565b92915050565b60008190509190505600a265627a7a7230582024e8df58761833b50d3b23bd95731f9d1aa920810e386df4f7435a3f6b5702446c6578706572696d656e74616cf50037",
  "source": "pragma solidity >= 0.4.22;\npragma experimental ABIEncoderV2;\n\nimport \"./../libraries/augur/source/contracts/reporting/IMarket.sol\";\nimport \"./../libraries/augur/source/contracts/trading/IShareToken.sol\";\nimport \"./../libraries/augur/source/contracts/trading/CompleteSets.sol\";\nimport \"./../libraries/augur/source/contracts/trading/ICash.sol\";\nimport \"./../libraries/augur/source/contracts/trading/ClaimTradingProceeds.sol\";\n\nimport \"./../libraries/openzeppelin-solidity/SafeMathLib.sol\";\n \ncontract Oracle {\n\tusing SafeMathLib for uint256;\n\n\tfunction requestDataChainLink() \n\tpublic \n\treturns (bytes32)\n\t{\n\n\t}\n}",
  "sourcePath": "/Users/jasperdegooijer/Documents/eth-berlin/flux-oracle/contracts/Oracle.sol",
  "compiler": {
    "name": "solc",
    "version": "0.4.22+commit.4cb486ee.Emscripten.clang"
  },
  "schemaVersion": "3.0.1",
  "updatedAt": "2019-08-18T13:03:01.113Z",
  "devdoc": {
    "methods": {}
  },
  "userdoc": {
    "methods": {}
  }
}