{
  "contractName": "ShareTokenFactory",
  "abi": [
    {
      "constant": false,
      "inputs": [
        {
          "name": "_controller",
          "type": "address"
        },
        {
          "name": "_market",
          "type": "address"
        },
        {
          "name": "_outcome",
          "type": "uint256"
        }
      ],
      "name": "createShareToken",
      "outputs": [
        {
          "name": "",
          "type": "address"
        }
      ],
      "payable": false,
      "stateMutability": "nonpayable",
      "type": "function"
    }
  ],
  "bytecode": "0x608060405234801561001057600080fd5b506106ee806100206000396000f300608060405260043610610041576000357c0100000000000000000000000000000000000000000000000000000000900463ffffffff1680635f97709a14610046575b600080fd5b34801561005257600080fd5b506100b1600480360381019080803573ffffffffffffffffffffffffffffffffffffffff169060200190929190803573ffffffffffffffffffffffffffffffffffffffff169060200190929190803590602001909291905050506100f3565b604051808273ffffffffffffffffffffffffffffffffffffffff1673ffffffffffffffffffffffffffffffffffffffff16815260200191505060405180910390f35b60008060008561010161026c565b808273ffffffffffffffffffffffffffffffffffffffff1673ffffffffffffffffffffffffffffffffffffffff168152602001807f5368617265546f6b656e00000000000000000000000000000000000000000000815250602001915050604051809103906000f08015801561017b573d6000803e3d6000fd5b5091508190508073ffffffffffffffffffffffffffffffffffffffff1663cd6dc68786866040518363ffffffff167c0100000000000000000000000000000000000000000000000000000000028152600401808373ffffffffffffffffffffffffffffffffffffffff1673ffffffffffffffffffffffffffffffffffffffff16815260200182815260200192505050602060405180830381600087803b15801561022457600080fd5b505af1158015610238573d6000803e3d6000fd5b505050506040513d602081101561024e57600080fd5b81019080805190602001909291905050505080925050509392505050565b6040516104468061027d833901905600608060405234801561001057600080fd5b506040516040806104468339810180604052810190808051906020019092919080519060200190929190505050336000806101000a81548173ffffffffffffffffffffffffffffffffffffffff021916908373ffffffffffffffffffffffffffffffffffffffff160217905550816000806101000a81548173ffffffffffffffffffffffffffffffffffffffff021916908373ffffffffffffffffffffffffffffffffffffffff1602179055508060018160001916905550505061036d806100d96000396000f300608060405260043610610057576000357c0100000000000000000000000000000000000000000000000000000000900463ffffffff1680633018205f1461018757806392eefe9b146101de578063bef72fa214610239575b60008060010260015460001916141561006f57610184565b6000809054906101000a900473ffffffffffffffffffffffffffffffffffffffff1673ffffffffffffffffffffffffffffffffffffffff1663f39ec1f76001546040518263ffffffff167c0100000000000000000000000000000000000000000000000000000000028152600401808260001916600019168152602001915050602060405180830381600087803b15801561010957600080fd5b505af115801561011d573d6000803e3d6000fd5b505050506040513d602081101561013357600080fd5b81019080805190602001909291905050509050604051601f19601f36011680820160405236600083376000803684865af4806000811461017f576040513d81016040523d6000823e3d81f35b600080fd5b50005b34801561019357600080fd5b5061019c61026c565b604051808273ffffffffffffffffffffffffffffffffffffffff1673ffffffffffffffffffffffffffffffffffffffff16815260200191505060405180910390f35b3480156101ea57600080fd5b5061021f600480360381019080803573ffffffffffffffffffffffffffffffffffffffff169060200190929190505050610295565b604051808215151515815260200191505060405180910390f35b34801561024557600080fd5b5061024e61033b565b60405180826000191660001916815260200191505060405180910390f35b60008060009054906101000a900473ffffffffffffffffffffffffffffffffffffffff16905090565b60008060009054906101000a900473ffffffffffffffffffffffffffffffffffffffff1673ffffffffffffffffffffffffffffffffffffffff163373ffffffffffffffffffffffffffffffffffffffff161415156102f257600080fd5b816000806101000a81548173ffffffffffffffffffffffffffffffffffffffff021916908373ffffffffffffffffffffffffffffffffffffffff16021790555060019050919050565b600154815600a165627a7a723058200a117e64b9b2b71eac615b440f224f5eae5f4f8ced1fc2c6e9a70845aa3e381a0029a165627a7a72305820491668c7ecade25a6a6de2fffb04cbe3cd5d5a5d3de8062ca2446425c26ae0400029",
  "source": "pragma solidity ^0.4.22;\n\n\nimport './../libraries/Delegator.sol';\nimport './../reporting/IMarket.sol';\nimport './../IController.sol';\n\n\n\ncontract ShareTokenFactory {\n    function createShareToken(IController _controller, IMarket _market, uint256 _outcome) public returns (IShareToken) {\n        Delegator _delegator = new Delegator(_controller, \"ShareToken\");\n        IShareToken _shareToken = IShareToken(_delegator);\n        _shareToken.initialize(_market, _outcome);\n        return _shareToken;\n    }\n}\n",
  "sourcePath": "/Users/jasperdegooijer/Documents/eth-berlin/flux-oracle/libraries/augur/source/contracts/factories/ShareTokenFactory.sol",
  "compiler": {
    "name": "solc",
    "version": "0.4.24+commit.e67f0147.Emscripten.clang"
  },
  "schemaVersion": "3.0.13",
  "updatedAt": "2019-08-25T01:25:40.727Z",
  "devdoc": {
    "methods": {}
  },
  "userdoc": {
    "methods": {}
  }
}