{
  "contractName": "Universe",
  "abi": [
    {
      "constant": true,
      "inputs": [],
      "name": "getController",
      "outputs": [
        {
          "name": "",
          "type": "address"
        }
      ],
      "payable": false,
      "stateMutability": "view",
      "type": "function"
    },
    {
      "constant": false,
      "inputs": [
        {
          "name": "_controller",
          "type": "address"
        }
      ],
      "name": "setController",
      "outputs": [
        {
          "name": "",
          "type": "bool"
        }
      ],
      "payable": false,
      "stateMutability": "nonpayable",
      "type": "function"
    },
    {
      "constant": true,
      "inputs": [],
      "name": "controllerLookupName",
      "outputs": [
        {
          "name": "",
          "type": "bytes32"
        }
      ],
      "payable": false,
      "stateMutability": "view",
      "type": "function"
    },
    {
      "constant": true,
      "inputs": [],
      "name": "getInitialized",
      "outputs": [
        {
          "name": "",
          "type": "bool"
        }
      ],
      "payable": false,
      "stateMutability": "view",
      "type": "function"
    },
    {
      "constant": false,
      "inputs": [
        {
          "name": "_parentUniverse",
          "type": "address"
        },
        {
          "name": "_parentPayoutDistributionHash",
          "type": "bytes32"
        }
      ],
      "name": "initialize",
      "outputs": [
        {
          "name": "",
          "type": "bool"
        }
      ],
      "payable": false,
      "stateMutability": "nonpayable",
      "type": "function"
    },
    {
      "constant": false,
      "inputs": [],
      "name": "fork",
      "outputs": [
        {
          "name": "",
          "type": "bool"
        }
      ],
      "payable": false,
      "stateMutability": "nonpayable",
      "type": "function"
    },
    {
      "constant": false,
      "inputs": [],
      "name": "updateForkValues",
      "outputs": [
        {
          "name": "",
          "type": "bool"
        }
      ],
      "payable": false,
      "stateMutability": "nonpayable",
      "type": "function"
    },
    {
      "constant": true,
      "inputs": [],
      "name": "getTypeName",
      "outputs": [
        {
          "name": "",
          "type": "bytes32"
        }
      ],
      "payable": false,
      "stateMutability": "view",
      "type": "function"
    },
    {
      "constant": true,
      "inputs": [],
      "name": "getParentUniverse",
      "outputs": [
        {
          "name": "",
          "type": "address"
        }
      ],
      "payable": false,
      "stateMutability": "view",
      "type": "function"
    },
    {
      "constant": true,
      "inputs": [],
      "name": "getParentPayoutDistributionHash",
      "outputs": [
        {
          "name": "",
          "type": "bytes32"
        }
      ],
      "payable": false,
      "stateMutability": "view",
      "type": "function"
    },
    {
      "constant": true,
      "inputs": [],
      "name": "getReputationToken",
      "outputs": [
        {
          "name": "",
          "type": "address"
        }
      ],
      "payable": false,
      "stateMutability": "view",
      "type": "function"
    },
    {
      "constant": true,
      "inputs": [],
      "name": "getForkingMarket",
      "outputs": [
        {
          "name": "",
          "type": "address"
        }
      ],
      "payable": false,
      "stateMutability": "view",
      "type": "function"
    },
    {
      "constant": true,
      "inputs": [],
      "name": "getForkEndTime",
      "outputs": [
        {
          "name": "",
          "type": "uint256"
        }
      ],
      "payable": false,
      "stateMutability": "view",
      "type": "function"
    },
    {
      "constant": true,
      "inputs": [],
      "name": "getForkReputationGoal",
      "outputs": [
        {
          "name": "",
          "type": "uint256"
        }
      ],
      "payable": false,
      "stateMutability": "view",
      "type": "function"
    },
    {
      "constant": true,
      "inputs": [],
      "name": "getDisputeThresholdForFork",
      "outputs": [
        {
          "name": "",
          "type": "uint256"
        }
      ],
      "payable": false,
      "stateMutability": "view",
      "type": "function"
    },
    {
      "constant": true,
      "inputs": [],
      "name": "getInitialReportMinValue",
      "outputs": [
        {
          "name": "",
          "type": "uint256"
        }
      ],
      "payable": false,
      "stateMutability": "view",
      "type": "function"
    },
    {
      "constant": true,
      "inputs": [
        {
          "name": "_feeWindowId",
          "type": "uint256"
        }
      ],
      "name": "getFeeWindow",
      "outputs": [
        {
          "name": "",
          "type": "address"
        }
      ],
      "payable": false,
      "stateMutability": "view",
      "type": "function"
    },
    {
      "constant": true,
      "inputs": [],
      "name": "isForking",
      "outputs": [
        {
          "name": "",
          "type": "bool"
        }
      ],
      "payable": false,
      "stateMutability": "view",
      "type": "function"
    },
    {
      "constant": true,
      "inputs": [
        {
          "name": "_parentPayoutDistributionHash",
          "type": "bytes32"
        }
      ],
      "name": "getChildUniverse",
      "outputs": [
        {
          "name": "",
          "type": "address"
        }
      ],
      "payable": false,
      "stateMutability": "view",
      "type": "function"
    },
    {
      "constant": true,
      "inputs": [
        {
          "name": "_timestamp",
          "type": "uint256"
        }
      ],
      "name": "getFeeWindowId",
      "outputs": [
        {
          "name": "",
          "type": "uint256"
        }
      ],
      "payable": false,
      "stateMutability": "view",
      "type": "function"
    },
    {
      "constant": true,
      "inputs": [],
      "name": "getDisputeRoundDurationInSeconds",
      "outputs": [
        {
          "name": "",
          "type": "uint256"
        }
      ],
      "payable": false,
      "stateMutability": "view",
      "type": "function"
    },
    {
      "constant": false,
      "inputs": [
        {
          "name": "_timestamp",
          "type": "uint256"
        }
      ],
      "name": "getOrCreateFeeWindowByTimestamp",
      "outputs": [
        {
          "name": "",
          "type": "address"
        }
      ],
      "payable": false,
      "stateMutability": "nonpayable",
      "type": "function"
    },
    {
      "constant": true,
      "inputs": [
        {
          "name": "_timestamp",
          "type": "uint256"
        }
      ],
      "name": "getFeeWindowByTimestamp",
      "outputs": [
        {
          "name": "",
          "type": "address"
        }
      ],
      "payable": false,
      "stateMutability": "view",
      "type": "function"
    },
    {
      "constant": false,
      "inputs": [],
      "name": "getOrCreatePreviousPreviousFeeWindow",
      "outputs": [
        {
          "name": "",
          "type": "address"
        }
      ],
      "payable": false,
      "stateMutability": "nonpayable",
      "type": "function"
    },
    {
      "constant": false,
      "inputs": [],
      "name": "getOrCreatePreviousFeeWindow",
      "outputs": [
        {
          "name": "",
          "type": "address"
        }
      ],
      "payable": false,
      "stateMutability": "nonpayable",
      "type": "function"
    },
    {
      "constant": true,
      "inputs": [],
      "name": "getPreviousFeeWindow",
      "outputs": [
        {
          "name": "",
          "type": "address"
        }
      ],
      "payable": false,
      "stateMutability": "view",
      "type": "function"
    },
    {
      "constant": false,
      "inputs": [],
      "name": "getOrCreateCurrentFeeWindow",
      "outputs": [
        {
          "name": "",
          "type": "address"
        }
      ],
      "payable": false,
      "stateMutability": "nonpayable",
      "type": "function"
    },
    {
      "constant": true,
      "inputs": [],
      "name": "getCurrentFeeWindow",
      "outputs": [
        {
          "name": "",
          "type": "address"
        }
      ],
      "payable": false,
      "stateMutability": "view",
      "type": "function"
    },
    {
      "constant": false,
      "inputs": [],
      "name": "getOrCreateNextFeeWindow",
      "outputs": [
        {
          "name": "",
          "type": "address"
        }
      ],
      "payable": false,
      "stateMutability": "nonpayable",
      "type": "function"
    },
    {
      "constant": true,
      "inputs": [],
      "name": "getNextFeeWindow",
      "outputs": [
        {
          "name": "",
          "type": "address"
        }
      ],
      "payable": false,
      "stateMutability": "view",
      "type": "function"
    },
    {
      "constant": false,
      "inputs": [
        {
          "name": "_feeWindow",
          "type": "address"
        }
      ],
      "name": "getOrCreateFeeWindowBefore",
      "outputs": [
        {
          "name": "",
          "type": "address"
        }
      ],
      "payable": false,
      "stateMutability": "nonpayable",
      "type": "function"
    },
    {
      "constant": false,
      "inputs": [
        {
          "name": "_parentPayoutNumerators",
          "type": "uint256[]"
        },
        {
          "name": "_parentInvalid",
          "type": "bool"
        }
      ],
      "name": "createChildUniverse",
      "outputs": [
        {
          "name": "",
          "type": "address"
        }
      ],
      "payable": false,
      "stateMutability": "nonpayable",
      "type": "function"
    },
    {
      "constant": false,
      "inputs": [
        {
          "name": "_parentPayoutDistributionHash",
          "type": "bytes32"
        }
      ],
      "name": "updateTentativeWinningChildUniverse",
      "outputs": [
        {
          "name": "",
          "type": "bool"
        }
      ],
      "payable": false,
      "stateMutability": "nonpayable",
      "type": "function"
    },
    {
      "constant": true,
      "inputs": [],
      "name": "getWinningChildUniverse",
      "outputs": [
        {
          "name": "",
          "type": "address"
        }
      ],
      "payable": false,
      "stateMutability": "view",
      "type": "function"
    },
    {
      "constant": true,
      "inputs": [
        {
          "name": "_shadyFeeWindow",
          "type": "address"
        }
      ],
      "name": "isContainerForFeeWindow",
      "outputs": [
        {
          "name": "",
          "type": "bool"
        }
      ],
      "payable": false,
      "stateMutability": "view",
      "type": "function"
    },
    {
      "constant": true,
      "inputs": [
        {
          "name": "_shadyFeeToken",
          "type": "address"
        }
      ],
      "name": "isContainerForFeeToken",
      "outputs": [
        {
          "name": "",
          "type": "bool"
        }
      ],
      "payable": false,
      "stateMutability": "view",
      "type": "function"
    },
    {
      "constant": true,
      "inputs": [
        {
          "name": "_shadyMarket",
          "type": "address"
        }
      ],
      "name": "isContainerForMarket",
      "outputs": [
        {
          "name": "",
          "type": "bool"
        }
      ],
      "payable": false,
      "stateMutability": "view",
      "type": "function"
    },
    {
      "constant": false,
      "inputs": [],
      "name": "addMarketTo",
      "outputs": [
        {
          "name": "",
          "type": "bool"
        }
      ],
      "payable": false,
      "stateMutability": "nonpayable",
      "type": "function"
    },
    {
      "constant": false,
      "inputs": [],
      "name": "removeMarketFrom",
      "outputs": [
        {
          "name": "",
          "type": "bool"
        }
      ],
      "payable": false,
      "stateMutability": "nonpayable",
      "type": "function"
    },
    {
      "constant": true,
      "inputs": [
        {
          "name": "_shadyShareToken",
          "type": "address"
        }
      ],
      "name": "isContainerForShareToken",
      "outputs": [
        {
          "name": "",
          "type": "bool"
        }
      ],
      "payable": false,
      "stateMutability": "view",
      "type": "function"
    },
    {
      "constant": true,
      "inputs": [
        {
          "name": "_shadyReportingParticipant",
          "type": "address"
        }
      ],
      "name": "isContainerForReportingParticipant",
      "outputs": [
        {
          "name": "",
          "type": "bool"
        }
      ],
      "payable": false,
      "stateMutability": "view",
      "type": "function"
    },
    {
      "constant": true,
      "inputs": [
        {
          "name": "_shadyChild",
          "type": "address"
        }
      ],
      "name": "isParentOf",
      "outputs": [
        {
          "name": "",
          "type": "bool"
        }
      ],
      "payable": false,
      "stateMutability": "view",
      "type": "function"
    },
    {
      "constant": false,
      "inputs": [
        {
          "name": "_amount",
          "type": "uint256"
        }
      ],
      "name": "decrementOpenInterest",
      "outputs": [
        {
          "name": "",
          "type": "bool"
        }
      ],
      "payable": false,
      "stateMutability": "nonpayable",
      "type": "function"
    },
    {
      "constant": false,
      "inputs": [
        {
          "name": "_amount",
          "type": "uint256"
        }
      ],
      "name": "decrementOpenInterestFromMarket",
      "outputs": [
        {
          "name": "",
          "type": "bool"
        }
      ],
      "payable": false,
      "stateMutability": "nonpayable",
      "type": "function"
    },
    {
      "constant": false,
      "inputs": [
        {
          "name": "_amount",
          "type": "uint256"
        }
      ],
      "name": "incrementOpenInterest",
      "outputs": [
        {
          "name": "",
          "type": "bool"
        }
      ],
      "payable": false,
      "stateMutability": "nonpayable",
      "type": "function"
    },
    {
      "constant": false,
      "inputs": [
        {
          "name": "_amount",
          "type": "uint256"
        }
      ],
      "name": "incrementOpenInterestFromMarket",
      "outputs": [
        {
          "name": "",
          "type": "bool"
        }
      ],
      "payable": false,
      "stateMutability": "nonpayable",
      "type": "function"
    },
    {
      "constant": true,
      "inputs": [],
      "name": "getOpenInterestInAttoEth",
      "outputs": [
        {
          "name": "",
          "type": "uint256"
        }
      ],
      "payable": false,
      "stateMutability": "view",
      "type": "function"
    },
    {
      "constant": true,
      "inputs": [],
      "name": "getRepMarketCapInAttoeth",
      "outputs": [
        {
          "name": "",
          "type": "uint256"
        }
      ],
      "payable": false,
      "stateMutability": "view",
      "type": "function"
    },
    {
      "constant": true,
      "inputs": [],
      "name": "getTargetRepMarketCapInAttoeth",
      "outputs": [
        {
          "name": "",
          "type": "uint256"
        }
      ],
      "payable": false,
      "stateMutability": "view",
      "type": "function"
    },
    {
      "constant": false,
      "inputs": [],
      "name": "getOrCacheValidityBond",
      "outputs": [
        {
          "name": "",
          "type": "uint256"
        }
      ],
      "payable": false,
      "stateMutability": "nonpayable",
      "type": "function"
    },
    {
      "constant": false,
      "inputs": [],
      "name": "getOrCacheDesignatedReportStake",
      "outputs": [
        {
          "name": "",
          "type": "uint256"
        }
      ],
      "payable": false,
      "stateMutability": "nonpayable",
      "type": "function"
    },
    {
      "constant": false,
      "inputs": [],
      "name": "getOrCacheDesignatedReportNoShowBond",
      "outputs": [
        {
          "name": "",
          "type": "uint256"
        }
      ],
      "payable": false,
      "stateMutability": "nonpayable",
      "type": "function"
    },
    {
      "constant": true,
      "inputs": [
        {
          "name": "_badMarkets",
          "type": "uint256"
        },
        {
          "name": "_totalMarkets",
          "type": "uint256"
        },
        {
          "name": "_targetDivisor",
          "type": "uint256"
        },
        {
          "name": "_previousValue",
          "type": "uint256"
        },
        {
          "name": "_defaultValue",
          "type": "uint256"
        },
        {
          "name": "_floor",
          "type": "uint256"
        }
      ],
      "name": "calculateFloatingValue",
      "outputs": [
        {
          "name": "_newValue",
          "type": "uint256"
        }
      ],
      "payable": false,
      "stateMutability": "pure",
      "type": "function"
    },
    {
      "constant": false,
      "inputs": [],
      "name": "getOrCacheReportingFeeDivisor",
      "outputs": [
        {
          "name": "",
          "type": "uint256"
        }
      ],
      "payable": false,
      "stateMutability": "nonpayable",
      "type": "function"
    },
    {
      "constant": false,
      "inputs": [],
      "name": "getOrCacheMarketCreationCost",
      "outputs": [
        {
          "name": "",
          "type": "uint256"
        }
      ],
      "payable": false,
      "stateMutability": "nonpayable",
      "type": "function"
    },
    {
      "constant": false,
      "inputs": [],
      "name": "getInitialReportStakeSize",
      "outputs": [
        {
          "name": "",
          "type": "uint256"
        }
      ],
      "payable": false,
      "stateMutability": "nonpayable",
      "type": "function"
    },
    {
      "constant": false,
      "inputs": [
        {
          "name": "_endTime",
          "type": "uint256"
        },
        {
          "name": "_feePerEthInWei",
          "type": "uint256"
        },
        {
          "name": "_denominationToken",
          "type": "address"
        },
        {
          "name": "_designatedReporterAddress",
          "type": "address"
        },
        {
          "name": "_topic",
          "type": "bytes32"
        },
        {
          "name": "_description",
          "type": "string"
        },
        {
          "name": "_extraInfo",
          "type": "string"
        }
      ],
      "name": "createYesNoMarket",
      "outputs": [
        {
          "name": "_newMarket",
          "type": "address"
        }
      ],
      "payable": true,
      "stateMutability": "payable",
      "type": "function"
    },
    {
      "constant": false,
      "inputs": [
        {
          "name": "_endTime",
          "type": "uint256"
        },
        {
          "name": "_feePerEthInWei",
          "type": "uint256"
        },
        {
          "name": "_denominationToken",
          "type": "address"
        },
        {
          "name": "_designatedReporterAddress",
          "type": "address"
        },
        {
          "name": "_outcomes",
          "type": "bytes32[]"
        },
        {
          "name": "_topic",
          "type": "bytes32"
        },
        {
          "name": "_description",
          "type": "string"
        },
        {
          "name": "_extraInfo",
          "type": "string"
        }
      ],
      "name": "createCategoricalMarket",
      "outputs": [
        {
          "name": "_newMarket",
          "type": "address"
        }
      ],
      "payable": true,
      "stateMutability": "payable",
      "type": "function"
    },
    {
      "constant": false,
      "inputs": [
        {
          "name": "_endTime",
          "type": "uint256"
        },
        {
          "name": "_feePerEthInWei",
          "type": "uint256"
        },
        {
          "name": "_denominationToken",
          "type": "address"
        },
        {
          "name": "_designatedReporterAddress",
          "type": "address"
        },
        {
          "name": "_minPrice",
          "type": "int256"
        },
        {
          "name": "_maxPrice",
          "type": "int256"
        },
        {
          "name": "_numTicks",
          "type": "uint256"
        },
        {
          "name": "_topic",
          "type": "bytes32"
        },
        {
          "name": "_description",
          "type": "string"
        },
        {
          "name": "_extraInfo",
          "type": "string"
        }
      ],
      "name": "createScalarMarket",
      "outputs": [
        {
          "name": "_newMarket",
          "type": "address"
        }
      ],
      "payable": true,
      "stateMutability": "payable",
      "type": "function"
    },
    {
      "constant": false,
      "inputs": [
        {
          "name": "_reportingParticipants",
          "type": "address[]"
        },
        {
          "name": "_feeWindows",
          "type": "address[]"
        }
      ],
      "name": "redeemStake",
      "outputs": [
        {
          "name": "",
          "type": "bool"
        }
      ],
      "payable": false,
      "stateMutability": "nonpayable",
      "type": "function"
    },
    {
      "constant": false,
      "inputs": [
        {
          "name": "_attotokens",
          "type": "uint256"
        }
      ],
      "name": "buyParticipationTokens",
      "outputs": [
        {
          "name": "",
          "type": "bool"
        }
      ],
      "payable": false,
      "stateMutability": "nonpayable",
      "type": "function"
    }
  ],
  "bytecode": "0x60806040526000600260006101000a81548160ff021916908315150217905550336000806101000a81548173ffffffffffffffffffffffffffffffffffffffff021916908373ffffffffffffffffffffffffffffffffffffffff160217905550617c978061006e6000396000f3006080604052600436106102d5576000357c0100000000000000000000000000000000000000000000000000000000900463ffffffff168063061777ed146102da5780630cc8c9af1461031f5780630db3be6a1461037657806313ad9ce1146103bb578063225640ab146103e657806326d16bc91461043d5780633018205f14610498578063331172f3146104ef57806340b738971461051a5780634591c060146105875780634a719a27146105b65780634f803516146105e1578063509a10611461063857806358ab010d146106935780635bafecf5146106d85780635f723b501461074b57806368a7effc146107765780636a9d7629146107cd5780636def1efc146107f85780636f70b9cb1461084f57806372d61dfa146108a657806377a3a0a214610a0857806377e71ee514610a3757806379f9660014610a625780637c377d7414610ab95780638d8cc63414610ae45780638f93bffe14610ba557806392eefe9b14610bd05780639517317c14610c2b5780639ab448d914610c865780639f7e1bf614610cb5578063a63f135014610d10578063aa2bebb714610d67578063af4cd45714610dd4578063af6b361514610dff578063b62418a114610e2a578063b66afea314610e6f578063b80907f214610edc578063be13f47c14610f33578063becb1f3514610f9c578063bef72fa214610fcb578063c38c0fa714610ffe578063c7c88d7014611031578063cabc6f141461108c578063cb1d8418146111d0578063ce483e8814611227578063d28a16851461126c578063dae8af77146113f3578063db0a087c14611434578063df428e3b14611467578063e487c7a514611519578063e79609e21461159c578063ec86fdbd146115c7578063eceba876146115f2578063edd1d02e14611663578063ee89dab4146116ba578063f7095d9d146116e9578063f76514c714611732578063fb03eaea1461178d578063fd1e5e7a146117b8578063feeda367146117e3575b600080fd5b3480156102e657600080fd5b5061030560048036038101908080359060200190929190505050611812565b604051808215151515815260200191505060405180910390f35b34801561032b57600080fd5b50610334611917565b604051808273ffffffffffffffffffffffffffffffffffffffff1673ffffffffffffffffffffffffffffffffffffffff16815260200191505060405180910390f35b34801561038257600080fd5b506103a160048036038101908080359060200190929190505050611aca565b604051808215151515815260200191505060405180910390f35b3480156103c757600080fd5b506103d0611b04565b6040518082815260200191505060405180910390f35b3480156103f257600080fd5b506103fb611d56565b604051808273ffffffffffffffffffffffffffffffffffffffff1673ffffffffffffffffffffffffffffffffffffffff16815260200191505060405180910390f35b34801561044957600080fd5b5061047e600480360381019080803573ffffffffffffffffffffffffffffffffffffffff169060200190929190505050611f09565b604051808215151515815260200191505060405180910390f35b3480156104a457600080fd5b506104ad61209c565b604051808273ffffffffffffffffffffffffffffffffffffffff1673ffffffffffffffffffffffffffffffffffffffff16815260200191505060405180910390f35b3480156104fb57600080fd5b506105046120c5565b6040518082815260200191505060405180910390f35b34801561052657600080fd5b50610545600480360381019080803590602001909291905050506120d4565b604051808273ffffffffffffffffffffffffffffffffffffffff1673ffffffffffffffffffffffffffffffffffffffff16815260200191505060405180910390f35b34801561059357600080fd5b5061059c612111565b604051808215151515815260200191505060405180910390f35b3480156105c257600080fd5b506105cb6124a7565b6040518082815260200191505060405180910390f35b3480156105ed57600080fd5b506105f66124e8565b604051808273ffffffffffffffffffffffffffffffffffffffff1673ffffffffffffffffffffffffffffffffffffffff16815260200191505060405180910390f35b34801561064457600080fd5b50610679600480360381019080803573ffffffffffffffffffffffffffffffffffffffff1690602001909291905050506126ae565b604051808215151515815260200191505060405180910390f35b34801561069f57600080fd5b506106be6004803603810190808035906020019092919050505061288d565b604051808215151515815260200191505060405180910390f35b3480156106e457600080fd5b50610735600480360381019080803590602001909291908035906020019092919080359060200190929190803590602001909291908035906020019092919080359060200190929190505050612a4e565b6040518082815260200191505060405180910390f35b34801561075757600080fd5b50610760612b8b565b6040518082815260200191505060405180910390f35b34801561078257600080fd5b5061078b612b95565b604051808273ffffffffffffffffffffffffffffffffffffffff1673ffffffffffffffffffffffffffffffffffffffff16815260200191505060405180910390f35b3480156107d957600080fd5b506107e2612d2f565b6040518082815260200191505060405180910390f35b34801561080457600080fd5b5061080d612d39565b604051808273ffffffffffffffffffffffffffffffffffffffff1673ffffffffffffffffffffffffffffffffffffffff16815260200191505060405180910390f35b34801561085b57600080fd5b50610864612eec565b604051808273ffffffffffffffffffffffffffffffffffffffff1673ffffffffffffffffffffffffffffffffffffffff16815260200191505060405180910390f35b6109c66004803603810190808035906020019092919080359060200190929190803573ffffffffffffffffffffffffffffffffffffffff169060200190929190803573ffffffffffffffffffffffffffffffffffffffff1690602001909291908035906020019092919080359060200190929190803590602001909291908035600019169060200190929190803590602001908201803590602001908080601f0160208091040260200160405190810160405280939291908181526020018383808284378201915050505050509192919290803590602001908201803590602001908080601f0160208091040260200160405190810160405280939291908181526020018383808284378201915050505050509192919290505050613151565b604051808273ffffffffffffffffffffffffffffffffffffffff1673ffffffffffffffffffffffffffffffffffffffff16815260200191505060405180910390f35b348015610a1457600080fd5b50610a1d6135a8565b604051808215151515815260200191505060405180910390f35b348015610a4357600080fd5b50610a4c61361d565b6040518082815260200191505060405180910390f35b348015610a6e57600080fd5b50610a77613627565b604051808273ffffffffffffffffffffffffffffffffffffffff1673ffffffffffffffffffffffffffffffffffffffff16815260200191505060405180910390f35b348015610ac557600080fd5b50610ace6137c1565b6040518082815260200191505060405180910390f35b348015610af057600080fd5b50610b8b60048036038101908080359060200190820180359060200190808060200260200160405190810160405280939291908181526020018383602002808284378201915050505050509192919290803590602001908201803590602001908080602002602001604051908101604052809392919081815260200183836020028082843782019150505050505091929192905050506137cb565b604051808215151515815260200191505060405180910390f35b348015610bb157600080fd5b50610bba613ab9565b6040518082815260200191505060405180910390f35b348015610bdc57600080fd5b50610c11600480360381019080803573ffffffffffffffffffffffffffffffffffffffff169060200190929190505050613d2c565b604051808215151515815260200191505060405180910390f35b348015610c3757600080fd5b50610c6c600480360381019080803573ffffffffffffffffffffffffffffffffffffffff169060200190929190505050613dd2565b604051808215151515815260200191505060405180910390f35b348015610c9257600080fd5b50610c9b613eb5565b604051808215151515815260200191505060405180910390f35b348015610cc157600080fd5b50610cf6600480360381019080803573ffffffffffffffffffffffffffffffffffffffff169060200190929190505050613ffb565b604051808215151515815260200191505060405180910390f35b348015610d1c57600080fd5b50610d25614051565b604051808273ffffffffffffffffffffffffffffffffffffffff1673ffffffffffffffffffffffffffffffffffffffff16815260200191505060405180910390f35b348015610d7357600080fd5b50610d926004803603810190808035906020019092919050505061407b565b604051808273ffffffffffffffffffffffffffffffffffffffff1673ffffffffffffffffffffffffffffffffffffffff16815260200191505060405180910390f35b348015610de057600080fd5b50610de9614190565b6040518082815260200191505060405180910390f35b348015610e0b57600080fd5b50610e146144c8565b6040518082815260200191505060405180910390f35b348015610e3657600080fd5b50610e55600480360381019080803590602001909291905050506145bb565b604051808215151515815260200191505060405180910390f35b348015610e7b57600080fd5b50610e9a600480360381019080803590602001909291905050506147ae565b604051808273ffffffffffffffffffffffffffffffffffffffff1673ffffffffffffffffffffffffffffffffffffffff16815260200191505060405180910390f35b348015610ee857600080fd5b50610ef1614d3e565b604051808273ffffffffffffffffffffffffffffffffffffffff1673ffffffffffffffffffffffffffffffffffffffff16815260200191505060405180910390f35b348015610f3f57600080fd5b50610f82600480360381019080803573ffffffffffffffffffffffffffffffffffffffff1690602001909291908035600019169060200190929190505050614d68565b604051808215151515815260200191505060405180910390f35b348015610fa857600080fd5b50610fb161516c565b604051808215151515815260200191505060405180910390f35b348015610fd757600080fd5b50610fe06151c5565b60405180826000191660001916815260200191505060405180910390f35b34801561100a57600080fd5b506110136151cb565b60405180826000191660001916815260200191505060405180910390f35b34801561103d57600080fd5b50611072600480360381019080803573ffffffffffffffffffffffffffffffffffffffff1690602001909291905050506151d5565b604051808215151515815260200191505060405180910390f35b61118e6004803603810190808035906020019092919080359060200190929190803573ffffffffffffffffffffffffffffffffffffffff169060200190929190803573ffffffffffffffffffffffffffffffffffffffff1690602001909291908035600019169060200190929190803590602001908201803590602001908080601f0160208091040260200160405190810160405280939291908181526020018383808284378201915050505050509192919290803590602001908201803590602001908080601f0160208091040260200160405190810160405280939291908181526020018383808284378201915050505050509192919290505050615309565b604051808273ffffffffffffffffffffffffffffffffffffffff1673ffffffffffffffffffffffffffffffffffffffff16815260200191505060405180910390f35b3480156111dc57600080fd5b506111e561573b565b604051808273ffffffffffffffffffffffffffffffffffffffff1673ffffffffffffffffffffffffffffffffffffffff16815260200191505060405180910390f35b34801561123357600080fd5b5061125260048036038101908080359060200190929190505050615765565b604051808215151515815260200191505060405180910390f35b6113b16004803603810190808035906020019092919080359060200190929190803573ffffffffffffffffffffffffffffffffffffffff169060200190929190803573ffffffffffffffffffffffffffffffffffffffff169060200190929190803590602001908201803590602001908080602002602001604051908101604052809392919081815260200183836020028082843782019150505050505091929192908035600019169060200190929190803590602001908201803590602001908080601f0160208091040260200160405190810160405280939291908181526020018383808284378201915050505050509192919290803590602001908201803590602001908080601f0160208091040260200160405190810160405280939291908181526020018383808284378201915050505050509192919290505050615958565b604051808273ffffffffffffffffffffffffffffffffffffffff1673ffffffffffffffffffffffffffffffffffffffff16815260200191505060405180910390f35b3480156113ff57600080fd5b5061141e60048036038101908080359060200190929190505050615dd4565b6040518082815260200191505060405180910390f35b34801561144057600080fd5b50611449615df7565b60405180826000191660001916815260200191505060405180910390f35b34801561147357600080fd5b506114d760048036038101908080359060200190820180359060200190808060200260200160405190810160405280939291908181526020018383602002808284378201915050505050509192919290803515159060200190929190505050615e1f565b604051808273ffffffffffffffffffffffffffffffffffffffff1673ffffffffffffffffffffffffffffffffffffffff16815260200191505060405180910390f35b34801561152557600080fd5b5061155a600480360381019080803573ffffffffffffffffffffffffffffffffffffffff1690602001909291905050506161b2565b604051808273ffffffffffffffffffffffffffffffffffffffff1673ffffffffffffffffffffffffffffffffffffffff16815260200191505060405180910390f35b3480156115a857600080fd5b506115b1616340565b6040518082815260200191505060405180910390f35b3480156115d357600080fd5b506115dc61666e565b6040518082815260200191505060405180910390f35b3480156115fe57600080fd5b506116216004803603810190808035600019169060200190929190505050616748565b604051808273ffffffffffffffffffffffffffffffffffffffff1673ffffffffffffffffffffffffffffffffffffffff16815260200191505060405180910390f35b34801561166f57600080fd5b5061167861678d565b604051808273ffffffffffffffffffffffffffffffffffffffff1673ffffffffffffffffffffffffffffffffffffffff16815260200191505060405180910390f35b3480156116c657600080fd5b506116cf616940565b604051808215151515815260200191505060405180910390f35b3480156116f557600080fd5b506117186004803603810190808035600019169060200190929190505050616957565b604051808215151515815260200191505060405180910390f35b34801561173e57600080fd5b50611773600480360381019080803573ffffffffffffffffffffffffffffffffffffffff169060200190929190505050616d1f565b604051808215151515815260200191505060405180910390f35b34801561179957600080fd5b506117a2616efe565b6040518082815260200191505060405180910390f35b3480156117c457600080fd5b506117cd616f08565b6040518082815260200191505060405180910390f35b3480156117ef57600080fd5b506117f8617236565b604051808215151515815260200191505060405180910390f35b60008060009054906101000a900473ffffffffffffffffffffffffffffffffffffffff1673ffffffffffffffffffffffffffffffffffffffff166322763ae16040518163ffffffff167c0100000000000000000000000000000000000000000000000000000000028152600401602060405180830381600087803b15801561189957600080fd5b505af11580156118ad573d6000803e3d6000fd5b505050506040513d60208110156118c357600080fd5b810190808051906020019092919050505015156118df57600080fd5b6118e833613ffb565b15156118f357600080fd5b61190882600e5461758690919063ffffffff16565b600e8190555060019050919050565b60008060009054906101000a900473ffffffffffffffffffffffffffffffffffffffff1673ffffffffffffffffffffffffffffffffffffffff166322763ae16040518163ffffffff167c0100000000000000000000000000000000000000000000000000000000028152600401602060405180830381600087803b15801561199e57600080fd5b505af11580156119b2573d6000803e3d6000fd5b505050506040513d60208110156119c857600080fd5b810190808051906020019092919050505015156119e457600080fd5b611ac5611ac06119f26120c5565b6000809054906101000a900473ffffffffffffffffffffffffffffffffffffffff1673ffffffffffffffffffffffffffffffffffffffff1663188ec3566040518163ffffffff167c0100000000000000000000000000000000000000000000000000000000028152600401602060405180830381600087803b158015611a7757600080fd5b505af1158015611a8b573d6000803e3d6000fd5b505050506040513d6020811015611aa157600080fd5b810190808051906020019092919050505061758690919063ffffffff16565b6147ae565b905090565b6000611ad533613ffb565b1515611ae057600080fd5b611af582600e546175a790919063ffffffff16565b600e8190555060019050919050565b60008060008060009054906101000a900473ffffffffffffffffffffffffffffffffffffffff1673ffffffffffffffffffffffffffffffffffffffff1663f39ec1f76040518163ffffffff167c010000000000000000000000000000000000000000000000000000000002815260040180807f52657050726963654f7261636c650000000000000000000000000000000000008152506020019050602060405180830381600087803b158015611bb957600080fd5b505af1158015611bcd573d6000803e3d6000fd5b505050506040513d6020811015611be357600080fd5b810190808051906020019092919050505073ffffffffffffffffffffffffffffffffffffffff16630f8fd3636040518163ffffffff167c0100000000000000000000000000000000000000000000000000000000028152600401602060405180830381600087803b158015611c5757600080fd5b505af1158015611c6b573d6000803e3d6000fd5b505050506040513d6020811015611c8157600080fd5b81019080805190602001909291905050509150611d4c82611ca0614d3e565b73ffffffffffffffffffffffffffffffffffffffff166318160ddd6040518163ffffffff167c0100000000000000000000000000000000000000000000000000000000028152600401602060405180830381600087803b158015611d0357600080fd5b505af1158015611d17573d6000803e3d6000fd5b505050506040513d6020811015611d2d57600080fd5b81019080805190602001909291905050506175c390919063ffffffff16565b9050809250505090565b60008060009054906101000a900473ffffffffffffffffffffffffffffffffffffffff1673ffffffffffffffffffffffffffffffffffffffff166322763ae16040518163ffffffff167c0100000000000000000000000000000000000000000000000000000000028152600401602060405180830381600087803b158015611ddd57600080fd5b505af1158015611df1573d6000803e3d6000fd5b505050506040513d6020811015611e0757600080fd5b81019080805190602001909291905050501515611e2357600080fd5b611f04611eff611e316120c5565b6000809054906101000a900473ffffffffffffffffffffffffffffffffffffffff1673ffffffffffffffffffffffffffffffffffffffff1663188ec3566040518163ffffffff167c0100000000000000000000000000000000000000000000000000000000028152600401602060405180830381600087803b158015611eb657600080fd5b505af1158015611eca573d6000803e3d6000fd5b505050506040513d6020811015611ee057600080fd5b81019080805190602001909291905050506175a790919063ffffffff16565b6147ae565b905090565b60008060008373ffffffffffffffffffffffffffffffffffffffff1663f77f29b16040518163ffffffff167c0100000000000000000000000000000000000000000000000000000000028152600401602060405180830381600087803b158015611f7257600080fd5b505af1158015611f86573d6000803e3d6000fd5b505050506040513d6020811015611f9c57600080fd5b81019080805190602001909291905050509150611fb8826151d5565b1515611fc357600080fd5b8190508373ffffffffffffffffffffffffffffffffffffffff168173ffffffffffffffffffffffffffffffffffffffff1663ca709a256040518163ffffffff167c0100000000000000000000000000000000000000000000000000000000028152600401602060405180830381600087803b15801561204157600080fd5b505af1158015612055573d6000803e3d6000fd5b505050506040513d602081101561206b57600080fd5b810190808051906020019092919050505073ffffffffffffffffffffffffffffffffffffffff161492505050919050565b60008060009054906101000a900473ffffffffffffffffffffffffffffffffffffffff16905090565b60006120cf6175f9565b905090565b6000600b600083815260200190815260200160002060009054906101000a900473ffffffffffffffffffffffffffffffffffffffff169050919050565b60008060009054906101000a900473ffffffffffffffffffffffffffffffffffffffff1673ffffffffffffffffffffffffffffffffffffffff166322763ae16040518163ffffffff167c0100000000000000000000000000000000000000000000000000000000028152600401602060405180830381600087803b15801561219857600080fd5b505af11580156121ac573d6000803e3d6000fd5b505050506040513d60208110156121c257600080fd5b810190808051906020019092919050505015156121de57600080fd5b600260009054906101000a900460ff1615156121f957600080fd5b61220161516c565b15151561220d57600080fd5b61221633613ffb565b151561222157600080fd5b33600560006101000a81548173ffffffffffffffffffffffffffffffffffffffff021916908373ffffffffffffffffffffffffffffffffffffffff16021790555061233b61226d617604565b6000809054906101000a900473ffffffffffffffffffffffffffffffffffffffff1673ffffffffffffffffffffffffffffffffffffffff1663188ec3566040518163ffffffff167c0100000000000000000000000000000000000000000000000000000000028152600401602060405180830381600087803b1580156122f257600080fd5b505af1158015612306573d6000803e3d6000fd5b505050506040513d602081101561231c57600080fd5b810190808051906020019092919050505061758690919063ffffffff16565b6007819055506000809054906101000a900473ffffffffffffffffffffffffffffffffffffffff1673ffffffffffffffffffffffffffffffffffffffff16634e94c8296040518163ffffffff167c0100000000000000000000000000000000000000000000000000000000028152600401602060405180830381600087803b1580156123c657600080fd5b505af11580156123da573d6000803e3d6000fd5b505050506040513d60208110156123f057600080fd5b810190808051906020019092919050505073ffffffffffffffffffffffffffffffffffffffff16634a8120236040518163ffffffff167c0100000000000000000000000000000000000000000000000000000000028152600401602060405180830381600087803b15801561246457600080fd5b505af1158015612478573d6000803e3d6000fd5b505050506040513d602081101561248e57600080fd5b8101908080519060200190929190505050506001905090565b60006124e36124b461760f565b6124d56124bf617618565b6124c7612d2f565b6175c390919063ffffffff16565b61762190919063ffffffff16565b905090565b60008060009054906101000a900473ffffffffffffffffffffffffffffffffffffffff1673ffffffffffffffffffffffffffffffffffffffff166322763ae16040518163ffffffff167c0100000000000000000000000000000000000000000000000000000000028152600401602060405180830381600087803b15801561256f57600080fd5b505af1158015612583573d6000803e3d6000fd5b505050506040513d602081101561259957600080fd5b810190808051906020019092919050505015156125b557600080fd5b6126a96126a46125d660026125c86120c5565b6175c390919063ffffffff16565b6000809054906101000a900473ffffffffffffffffffffffffffffffffffffffff1673ffffffffffffffffffffffffffffffffffffffff1663188ec3566040518163ffffffff167c0100000000000000000000000000000000000000000000000000000000028152600401602060405180830381600087803b15801561265b57600080fd5b505af115801561266f573d6000803e3d6000fd5b505050506040513d602081101561268557600080fd5b81019080805190602001909291905050506175a790919063ffffffff16565b6147ae565b905090565b60008060008373ffffffffffffffffffffffffffffffffffffffff1663f1be16796040518163ffffffff167c0100000000000000000000000000000000000000000000000000000000028152600401602060405180830381600087803b15801561271757600080fd5b505af115801561272b573d6000803e3d6000fd5b505050506040513d602081101561274157600080fd5b81019080805190602001909291905050509150600073ffffffffffffffffffffffffffffffffffffffff168273ffffffffffffffffffffffffffffffffffffffff1614156127925760009250612886565b61279b82613ffb565b15156127aa5760009250612886565b8190508073ffffffffffffffffffffffffffffffffffffffff1663509a1061856040518263ffffffff167c0100000000000000000000000000000000000000000000000000000000028152600401808273ffffffffffffffffffffffffffffffffffffffff1673ffffffffffffffffffffffffffffffffffffffff168152602001915050602060405180830381600087803b15801561284857600080fd5b505af115801561285c573d6000803e3d6000fd5b505050506040513d602081101561287257600080fd5b810190808051906020019092919050505092505b5050919050565b6000806000809054906101000a900473ffffffffffffffffffffffffffffffffffffffff1673ffffffffffffffffffffffffffffffffffffffff166322763ae16040518163ffffffff167c0100000000000000000000000000000000000000000000000000000000028152600401602060405180830381600087803b15801561291557600080fd5b505af1158015612929573d6000803e3d6000fd5b505050506040513d602081101561293f57600080fd5b8101908080519060200190929190505050151561295b57600080fd5b612963612b95565b90508073ffffffffffffffffffffffffffffffffffffffff16637303ed1833856040518363ffffffff167c0100000000000000000000000000000000000000000000000000000000028152600401808373ffffffffffffffffffffffffffffffffffffffff1673ffffffffffffffffffffffffffffffffffffffff16815260200182815260200192505050602060405180830381600087803b158015612a0857600080fd5b505af1158015612a1c573d6000803e3d6000fd5b505050506040513d6020811015612a3257600080fd5b8101908080519060200190929190505050506001915050919050565b600080861415612a6057829050612b81565b6000841415612a6d578293505b8486811515612a7857fe5b0487111515612aeb57612aa685612a98868a6175c390919063ffffffff16565b6175c390919063ffffffff16565b90508581811515612ab357fe5b049050600281811515612ac257fe5b049050612ae4600285811515612ad457fe5b048261758690919063ffffffff16565b9050612b68565b612b3f612b308686811515612afc57fe5b04612b2289612b148c8a6175c390919063ffffffff16565b61762190919063ffffffff16565b6175a790919063ffffffff16565b866175c390919063ffffffff16565b90506001850381811515612b4f57fe5b049050612b65848261758690919063ffffffff16565b90505b612b7b828261763c90919063ffffffff16565b90508090505b9695505050505050565b6000600a54905090565b60008060009054906101000a900473ffffffffffffffffffffffffffffffffffffffff1673ffffffffffffffffffffffffffffffffffffffff166322763ae16040518163ffffffff167c0100000000000000000000000000000000000000000000000000000000028152600401602060405180830381600087803b158015612c1c57600080fd5b505af1158015612c30573d6000803e3d6000fd5b505050506040513d6020811015612c4657600080fd5b81019080805190602001909291905050501515612c6257600080fd5b612d2a6000809054906101000a900473ffffffffffffffffffffffffffffffffffffffff1673ffffffffffffffffffffffffffffffffffffffff1663188ec3566040518163ffffffff167c0100000000000000000000000000000000000000000000000000000000028152600401602060405180830381600087803b158015612cea57600080fd5b505af1158015612cfe573d6000803e3d6000fd5b505050506040513d6020811015612d1457600080fd5b81019080805190602001909291905050506147ae565b905090565b6000600e54905090565b60008060009054906101000a900473ffffffffffffffffffffffffffffffffffffffff1673ffffffffffffffffffffffffffffffffffffffff166322763ae16040518163ffffffff167c0100000000000000000000000000000000000000000000000000000000028152600401602060405180830381600087803b158015612dc057600080fd5b505af1158015612dd4573d6000803e3d6000fd5b505050506040513d6020811015612dea57600080fd5b81019080805190602001909291905050501515612e0657600080fd5b612ee7612ee2612e146120c5565b6000809054906101000a900473ffffffffffffffffffffffffffffffffffffffff1673ffffffffffffffffffffffffffffffffffffffff1663188ec3566040518163ffffffff167c0100000000000000000000000000000000000000000000000000000000028152600401602060405180830381600087803b158015612e9957600080fd5b505af1158015612ead573d6000803e3d6000fd5b505050506040513d6020811015612ec357600080fd5b81019080805190602001909291905050506175a790919063ffffffff16565b61407b565b905090565b6000806000612ef961516c565b1515612f0457600080fd5b6000600102600019166006546000191614151515612f2157600080fd5b612f2c600654616748565b91508173ffffffffffffffffffffffffffffffffffffffff1663b80907f26040518163ffffffff167c0100000000000000000000000000000000000000000000000000000000028152600401602060405180830381600087803b158015612f9257600080fd5b505af1158015612fa6573d6000803e3d6000fd5b505050506040513d6020811015612fbc57600080fd5b810190808051906020019092919050505073ffffffffffffffffffffffffffffffffffffffff166391d76bbb6040518163ffffffff167c0100000000000000000000000000000000000000000000000000000000028152600401602060405180830381600087803b15801561303057600080fd5b505af1158015613044573d6000803e3d6000fd5b505050506040513d602081101561305a57600080fd5b810190808051906020019092919050505090506008548110158061313e57506007546000809054906101000a900473ffffffffffffffffffffffffffffffffffffffff1673ffffffffffffffffffffffffffffffffffffffff1663188ec3566040518163ffffffff167c0100000000000000000000000000000000000000000000000000000000028152600401602060405180830381600087803b15801561310157600080fd5b505af1158015613115573d6000803e3d6000fd5b505050506040513d602081101561312b57600080fd5b8101908080519060200190929190505050115b151561314957600080fd5b819250505090565b60008060009054906101000a900473ffffffffffffffffffffffffffffffffffffffff1673ffffffffffffffffffffffffffffffffffffffff166322763ae16040518163ffffffff167c0100000000000000000000000000000000000000000000000000000000028152600401602060405180830381600087803b1580156131d857600080fd5b505af11580156131ec573d6000803e3d6000fd5b505050506040513d602081101561320257600080fd5b8101908080519060200190929190505050151561321e57600080fd5b600260009054906101000a900460ff16151561323957600080fd5b6000835111151561324957600080fd5b858712151561325757600080fd5b61326b60028661765990919063ffffffff16565b151561327657600080fd5b6132868b8b8b8b3360028b617671565b90506000809054906101000a900473ffffffffffffffffffffffffffffffffffffffff1673ffffffffffffffffffffffffffffffffffffffff16634e94c8296040518163ffffffff167c0100000000000000000000000000000000000000000000000000000000028152600401602060405180830381600087803b15801561330d57600080fd5b505af1158015613321573d6000803e3d6000fd5b505050506040513d602081101561333757600080fd5b810190808051906020019092919050505073ffffffffffffffffffffffffffffffffffffffff1663bc339f418585853086338e8e60026040518a63ffffffff167c0100000000000000000000000000000000000000000000000000000000028152600401808a6000191660001916815260200180602001806020018973ffffffffffffffffffffffffffffffffffffffff1673ffffffffffffffffffffffffffffffffffffffff1681526020018873ffffffffffffffffffffffffffffffffffffffff1673ffffffffffffffffffffffffffffffffffffffff1681526020018773ffffffffffffffffffffffffffffffffffffffff1673ffffffffffffffffffffffffffffffffffffffff16815260200186815260200185815260200184600281111561346057fe5b60ff16815260200183810383528b818151815260200191508051906020019080838360005b838110156134a0578082015181840152602081019050613485565b50505050905090810190601f1680156134cd5780820380516001836020036101000a031916815260200191505b5083810382528a818151815260200191508051906020019080838360005b838110156135065780820151818401526020810190506134eb565b50505050905090810190601f1680156135335780820380516001836020036101000a031916815260200191505b509b505050505050505050505050602060405180830381600087803b15801561355b57600080fd5b505af115801561356f573d6000803e3d6000fd5b505050506040513d602081101561358557600080fd5b8101908080519060200190929190505050508090509a9950505050505050505050565b60006135b333613ffb565b15156135be57600080fd5b6000600c60003373ffffffffffffffffffffffffffffffffffffffff1673ffffffffffffffffffffffffffffffffffffffff16815260200190815260200160002060006101000a81548160ff0219169083151502179055506001905090565b6000600754905090565b60008060009054906101000a900473ffffffffffffffffffffffffffffffffffffffff1673ffffffffffffffffffffffffffffffffffffffff166322763ae16040518163ffffffff167c0100000000000000000000000000000000000000000000000000000000028152600401602060405180830381600087803b1580156136ae57600080fd5b505af11580156136c2573d6000803e3d6000fd5b505050506040513d60208110156136d857600080fd5b810190808051906020019092919050505015156136f457600080fd5b6137bc6000809054906101000a900473ffffffffffffffffffffffffffffffffffffffff1673ffffffffffffffffffffffffffffffffffffffff1663188ec3566040518163ffffffff167c0100000000000000000000000000000000000000000000000000000000028152600401602060405180830381600087803b15801561377c57600080fd5b505af1158015613790573d6000803e3d6000fd5b505050506040513d60208110156137a657600080fd5b810190808051906020019092919050505061407b565b905090565b6000600854905090565b60008060008060009054906101000a900473ffffffffffffffffffffffffffffffffffffffff1673ffffffffffffffffffffffffffffffffffffffff166322763ae16040518163ffffffff167c0100000000000000000000000000000000000000000000000000000000028152600401602060405180830381600087803b15801561385557600080fd5b505af1158015613869573d6000803e3d6000fd5b505050506040513d602081101561387f57600080fd5b8101908080519060200190929190505050151561389b57600080fd5b600091505b84518210156139a45784828151811015156138b757fe5b9060200190602002015173ffffffffffffffffffffffffffffffffffffffff166395a2251f336040518263ffffffff167c0100000000000000000000000000000000000000000000000000000000028152600401808273ffffffffffffffffffffffffffffffffffffffff1673ffffffffffffffffffffffffffffffffffffffff168152602001915050602060405180830381600087803b15801561395b57600080fd5b505af115801561396f573d6000803e3d6000fd5b505050506040513d602081101561398557600080fd5b81019080805190602001909291905050505081806001019250506138a0565b600090505b8351811015613aad5783818151811015156139c057fe5b9060200190602002015173ffffffffffffffffffffffffffffffffffffffff166395a2251f336040518263ffffffff167c0100000000000000000000000000000000000000000000000000000000028152600401808273ffffffffffffffffffffffffffffffffffffffff1673ffffffffffffffffffffffffffffffffffffffff168152602001915050602060405180830381600087803b158015613a6457600080fd5b505af1158015613a78573d6000803e3d6000fd5b505050506040513d6020811015613a8e57600080fd5b81019080805190602001909291905050505080806001019150506139a9565b60019250505092915050565b60008060008060008060008060009054906101000a900473ffffffffffffffffffffffffffffffffffffffff1673ffffffffffffffffffffffffffffffffffffffff166322763ae16040518163ffffffff167c0100000000000000000000000000000000000000000000000000000000028152600401602060405180830381600087803b158015613b4957600080fd5b505af1158015613b5d573d6000803e3d6000fd5b505050506040513d6020811015613b7357600080fd5b81019080805190602001909291905050501515613b8f57600080fd5b613b97612b95565b9550613ba1611d56565b9450601360008773ffffffffffffffffffffffffffffffffffffffff1673ffffffffffffffffffffffffffffffffffffffff168152602001908152602001600020549350600084141515613bf757839650613d23565b613bff611b04565b9250613c096124a7565b9150601360008673ffffffffffffffffffffffffffffffffffffffff1673ffffffffffffffffffffffffffffffffffffffff1681526020019081526020016000205490506000811415613c6557613c5e617bb9565b9350613ca6565b6000821415613c7d57613c76617bb9565b9350613ca5565b613ca282613c9485846175c390919063ffffffff16565b61762190919063ffffffff16565b93505b5b613cd9613cb1617bc2565b613ccb613cbc617bcc565b8761763c90919063ffffffff16565b617bd590919063ffffffff16565b935083601360008873ffffffffffffffffffffffffffffffffffffffff1673ffffffffffffffffffffffffffffffffffffffff168152602001908152602001600020819055508396505b50505050505090565b60008060009054906101000a900473ffffffffffffffffffffffffffffffffffffffff1673ffffffffffffffffffffffffffffffffffffffff163373ffffffffffffffffffffffffffffffffffffffff16141515613d8957600080fd5b816000806101000a81548173ffffffffffffffffffffffffffffffffffffffff021916908373ffffffffffffffffffffffffffffffffffffffff16021790555060019050919050565b6000808273ffffffffffffffffffffffffffffffffffffffff1663c38c0fa76040518163ffffffff167c0100000000000000000000000000000000000000000000000000000000028152600401602060405180830381600087803b158015613e3957600080fd5b505af1158015613e4d573d6000803e3d6000fd5b505050506040513d6020811015613e6357600080fd5b810190808051906020019092919050505090508273ffffffffffffffffffffffffffffffffffffffff16613e9682616748565b73ffffffffffffffffffffffffffffffffffffffff1614915050919050565b600080600460009054906101000a900473ffffffffffffffffffffffffffffffffffffffff1673ffffffffffffffffffffffffffffffffffffffff1663238d35906040518163ffffffff167c0100000000000000000000000000000000000000000000000000000000028152600401602060405180830381600087803b158015613f3e57600080fd5b505af1158015613f52573d6000803e3d6000fd5b505050506040513d6020811015613f6857600080fd5b81019080805190602001909291905050509050613f8f60028261762190919063ffffffff16565b600881905550613fa960288261762190919063ffffffff16565b600981905550613fed6001613fdf62040000613fd1600360095461762190919063ffffffff16565b61762190919063ffffffff16565b61758690919063ffffffff16565b600a81905550600191505090565b6000600c60008373ffffffffffffffffffffffffffffffffffffffff1673ffffffffffffffffffffffffffffffffffffffff16815260200190815260200160002060009054906101000a900460ff169050919050565b6000600260019054906101000a900473ffffffffffffffffffffffffffffffffffffffff16905090565b6000806000809054906101000a900473ffffffffffffffffffffffffffffffffffffffff1673ffffffffffffffffffffffffffffffffffffffff166322763ae16040518163ffffffff167c0100000000000000000000000000000000000000000000000000000000028152600401602060405180830381600087803b15801561410357600080fd5b505af1158015614117573d6000803e3d6000fd5b505050506040513d602081101561412d57600080fd5b8101908080519060200190929190505050151561414957600080fd5b61415283615dd4565b9050600b600082815260200190815260200160002060009054906101000a900473ffffffffffffffffffffffffffffffffffffffff16915050919050565b60008060008060008060008060009054906101000a900473ffffffffffffffffffffffffffffffffffffffff1673ffffffffffffffffffffffffffffffffffffffff166322763ae16040518163ffffffff167c0100000000000000000000000000000000000000000000000000000000028152600401602060405180830381600087803b15801561422057600080fd5b505af1158015614234573d6000803e3d6000fd5b505050506040513d602081101561424a57600080fd5b8101908080519060200190929190505050151561426657600080fd5b61426e612b95565b95506142786124e8565b9450600f60008773ffffffffffffffffffffffffffffffffffffffff1673ffffffffffffffffffffffffffffffffffffffff1681526020019081526020016000205493506000841415156142ce578396506144bf565b8473ffffffffffffffffffffffffffffffffffffffff1663295c39a56040518163ffffffff167c0100000000000000000000000000000000000000000000000000000000028152600401602060405180830381600087803b15801561433257600080fd5b505af1158015614346573d6000803e3d6000fd5b505050506040513d602081101561435c57600080fd5b810190808051906020019092919050505092508473ffffffffffffffffffffffffffffffffffffffff1663cf3d38496040518163ffffffff167c0100000000000000000000000000000000000000000000000000000000028152600401602060405180830381600087803b1580156143d357600080fd5b505af11580156143e7573d6000803e3d6000fd5b505050506040513d60208110156143fd57600080fd5b81019080805190602001909291905050509150600f60008673ffffffffffffffffffffffffffffffffffffffff1673ffffffffffffffffffffffffffffffffffffffff168152602001908152602001600020549050614475828461445f617bf2565b84614468617bfb565b614470617c0a565b612a4e565b935083600f60008873ffffffffffffffffffffffffffffffffffffffff1673ffffffffffffffffffffffffffffffffffffffff168152602001908152602001600020819055508396505b50505050505090565b60008060009054906101000a900473ffffffffffffffffffffffffffffffffffffffff1673ffffffffffffffffffffffffffffffffffffffff166322763ae16040518163ffffffff167c0100000000000000000000000000000000000000000000000000000000028152600401602060405180830381600087803b15801561454f57600080fd5b505af1158015614563573d6000803e3d6000fd5b505050506040513d602081101561457957600080fd5b8101908080519060200190929190505050151561459557600080fd5b6145b66145a0616340565b6145a8616f08565b61763c90919063ffffffff16565b905090565b60008060009054906101000a900473ffffffffffffffffffffffffffffffffffffffff1673ffffffffffffffffffffffffffffffffffffffff166322763ae16040518163ffffffff167c0100000000000000000000000000000000000000000000000000000000028152600401602060405180830381600087803b15801561464257600080fd5b505af1158015614656573d6000803e3d6000fd5b505050506040513d602081101561466c57600080fd5b8101908080519060200190929190505050151561468857600080fd5b6000809054906101000a900473ffffffffffffffffffffffffffffffffffffffff1673ffffffffffffffffffffffffffffffffffffffff16633f08882f336040518263ffffffff167c0100000000000000000000000000000000000000000000000000000000028152600401808273ffffffffffffffffffffffffffffffffffffffff1673ffffffffffffffffffffffffffffffffffffffff168152602001915050602060405180830381600087803b15801561474457600080fd5b505af1158015614758573d6000803e3d6000fd5b505050506040513d602081101561476e57600080fd5b8101908080519060200190929190505050151561478a57600080fd5b61479f82600e546175a790919063ffffffff16565b600e8190555060019050919050565b60008060008060009054906101000a900473ffffffffffffffffffffffffffffffffffffffff1673ffffffffffffffffffffffffffffffffffffffff166322763ae16040518163ffffffff167c0100000000000000000000000000000000000000000000000000000000028152600401602060405180830381600087803b15801561483857600080fd5b505af115801561484c573d6000803e3d6000fd5b505050506040513d602081101561486257600080fd5b8101908080519060200190929190505050151561487e57600080fd5b61488784615dd4565b9150600073ffffffffffffffffffffffffffffffffffffffff16600b600084815260200190815260200160002060009054906101000a900473ffffffffffffffffffffffffffffffffffffffff1673ffffffffffffffffffffffffffffffffffffffff161415614d01576000809054906101000a900473ffffffffffffffffffffffffffffffffffffffff1673ffffffffffffffffffffffffffffffffffffffff1663f39ec1f76040518163ffffffff167c010000000000000000000000000000000000000000000000000000000002815260040180807f46656557696e646f77466163746f7279000000000000000000000000000000008152506020019050602060405180830381600087803b1580156149a157600080fd5b505af11580156149b5573d6000803e3d6000fd5b505050506040513d60208110156149cb57600080fd5b810190808051906020019092919050505073ffffffffffffffffffffffffffffffffffffffff166327237b1d6000809054906101000a900473ffffffffffffffffffffffffffffffffffffffff1630856040518463ffffffff167c0100000000000000000000000000000000000000000000000000000000028152600401808473ffffffffffffffffffffffffffffffffffffffff1673ffffffffffffffffffffffffffffffffffffffff1681526020018373ffffffffffffffffffffffffffffffffffffffff1673ffffffffffffffffffffffffffffffffffffffff1681526020018281526020019350505050602060405180830381600087803b158015614ad357600080fd5b505af1158015614ae7573d6000803e3d6000fd5b505050506040513d6020811015614afd57600080fd5b8101908080519060200190929190505050905080600b600084815260200190815260200160002060006101000a81548173ffffffffffffffffffffffffffffffffffffffff021916908373ffffffffffffffffffffffffffffffffffffffff1602179055506000809054906101000a900473ffffffffffffffffffffffffffffffffffffffff1673ffffffffffffffffffffffffffffffffffffffff16634e94c8296040518163ffffffff167c0100000000000000000000000000000000000000000000000000000000028152600401602060405180830381600087803b158015614be757600080fd5b505af1158015614bfb573d6000803e3d6000fd5b505050506040513d6020811015614c1157600080fd5b810190808051906020019092919050505073ffffffffffffffffffffffffffffffffffffffff16638d1b2afd82846040518363ffffffff167c0100000000000000000000000000000000000000000000000000000000028152600401808373ffffffffffffffffffffffffffffffffffffffff1673ffffffffffffffffffffffffffffffffffffffff16815260200182815260200192505050602060405180830381600087803b158015614cc457600080fd5b505af1158015614cd8573d6000803e3d6000fd5b505050506040513d6020811015614cee57600080fd5b8101908080519060200190929190505050505b600b600083815260200190815260200160002060009054906101000a900473ffffffffffffffffffffffffffffffffffffffff1692505050919050565b6000600460009054906101000a900473ffffffffffffffffffffffffffffffffffffffff16905090565b60008060009054906101000a900473ffffffffffffffffffffffffffffffffffffffff1673ffffffffffffffffffffffffffffffffffffffff166322763ae16040518163ffffffff167c0100000000000000000000000000000000000000000000000000000000028152600401602060405180830381600087803b158015614def57600080fd5b505af1158015614e03573d6000803e3d6000fd5b505050506040513d6020811015614e1957600080fd5b81019080805190602001909291905050501515614e3557600080fd5b600260009054906101000a900460ff16151515614e5157600080fd5b614e59617c19565b5082600260016101000a81548173ffffffffffffffffffffffffffffffffffffffff021916908373ffffffffffffffffffffffffffffffffffffffff16021790555081600381600019169055506000809054906101000a900473ffffffffffffffffffffffffffffffffffffffff1673ffffffffffffffffffffffffffffffffffffffff1663f39ec1f76040518163ffffffff167c010000000000000000000000000000000000000000000000000000000002815260040180807f52657075746174696f6e546f6b656e466163746f7279000000000000000000008152506020019050602060405180830381600087803b158015614f5657600080fd5b505af1158015614f6a573d6000803e3d6000fd5b505050506040513d6020811015614f8057600080fd5b810190808051906020019092919050505073ffffffffffffffffffffffffffffffffffffffff1663812f82d96000809054906101000a900473ffffffffffffffffffffffffffffffffffffffff16306040518363ffffffff167c0100000000000000000000000000000000000000000000000000000000028152600401808373ffffffffffffffffffffffffffffffffffffffff1673ffffffffffffffffffffffffffffffffffffffff1681526020018273ffffffffffffffffffffffffffffffffffffffff1673ffffffffffffffffffffffffffffffffffffffff16815260200192505050602060405180830381600087803b15801561508057600080fd5b505af1158015615094573d6000803e3d6000fd5b505050506040513d60208110156150aa57600080fd5b8101908080519060200190929190505050600460006101000a81548173ffffffffffffffffffffffffffffffffffffffff021916908373ffffffffffffffffffffffffffffffffffffffff160217905550615103613eb5565b50600073ffffffffffffffffffffffffffffffffffffffff16600460009054906101000a900473ffffffffffffffffffffffffffffffffffffffff1673ffffffffffffffffffffffffffffffffffffffff161415151561516257600080fd5b6001905092915050565b60008073ffffffffffffffffffffffffffffffffffffffff16600560009054906101000a900473ffffffffffffffffffffffffffffffffffffffff1673ffffffffffffffffffffffffffffffffffffffff161415905090565b60015481565b6000600354905090565b6000806000808473ffffffffffffffffffffffffffffffffffffffff1663c828371e6040518163ffffffff167c0100000000000000000000000000000000000000000000000000000000028152600401602060405180830381600087803b15801561523f57600080fd5b505af1158015615253573d6000803e3d6000fd5b505050506040513d602081101561526957600080fd5b81019080805190602001909291905050509250600083141561528e5760009350615301565b61529783615dd4565b9150600b600083815260200190815260200160002060009054906101000a900473ffffffffffffffffffffffffffffffffffffffff1690508073ffffffffffffffffffffffffffffffffffffffff168573ffffffffffffffffffffffffffffffffffffffff161493505b505050919050565b60008060009054906101000a900473ffffffffffffffffffffffffffffffffffffffff1673ffffffffffffffffffffffffffffffffffffffff166322763ae16040518163ffffffff167c0100000000000000000000000000000000000000000000000000000000028152600401602060405180830381600087803b15801561539057600080fd5b505af11580156153a4573d6000803e3d6000fd5b505050506040513d60208110156153ba57600080fd5b810190808051906020019092919050505015156153d657600080fd5b600260009054906101000a900460ff1615156153f157600080fd5b6000835111151561540157600080fd5b61541388888888336002612710617671565b90506000809054906101000a900473ffffffffffffffffffffffffffffffffffffffff1673ffffffffffffffffffffffffffffffffffffffff16634e94c8296040518163ffffffff167c0100000000000000000000000000000000000000000000000000000000028152600401602060405180830381600087803b15801561549a57600080fd5b505af11580156154ae573d6000803e3d6000fd5b505050506040513d60208110156154c457600080fd5b810190808051906020019092919050505073ffffffffffffffffffffffffffffffffffffffff1663bc339f418585853086336000670de0b6b3a764000060006040518a63ffffffff167c0100000000000000000000000000000000000000000000000000000000028152600401808a6000191660001916815260200180602001806020018973ffffffffffffffffffffffffffffffffffffffff1673ffffffffffffffffffffffffffffffffffffffff1681526020018873ffffffffffffffffffffffffffffffffffffffff1673ffffffffffffffffffffffffffffffffffffffff1681526020018773ffffffffffffffffffffffffffffffffffffffff1673ffffffffffffffffffffffffffffffffffffffff1681526020018681526020018581526020018460028111156155f657fe5b60ff16815260200183810383528b818151815260200191508051906020019080838360005b8381101561563657808201518184015260208101905061561b565b50505050905090810190601f1680156156635780820380516001836020036101000a031916815260200191505b5083810382528a818151815260200191508051906020019080838360005b8381101561569c578082015181840152602081019050615681565b50505050905090810190601f1680156156c95780820380516001836020036101000a031916815260200191505b509b505050505050505050505050602060405180830381600087803b1580156156f157600080fd5b505af1158015615705573d6000803e3d6000fd5b505050506040513d602081101561571b57600080fd5b810190808051906020019092919050505050809050979650505050505050565b6000600560009054906101000a900473ffffffffffffffffffffffffffffffffffffffff16905090565b60008060009054906101000a900473ffffffffffffffffffffffffffffffffffffffff1673ffffffffffffffffffffffffffffffffffffffff166322763ae16040518163ffffffff167c0100000000000000000000000000000000000000000000000000000000028152600401602060405180830381600087803b1580156157ec57600080fd5b505af1158015615800573d6000803e3d6000fd5b505050506040513d602081101561581657600080fd5b8101908080519060200190929190505050151561583257600080fd5b6000809054906101000a900473ffffffffffffffffffffffffffffffffffffffff1673ffffffffffffffffffffffffffffffffffffffff16633f08882f336040518263ffffffff167c0100000000000000000000000000000000000000000000000000000000028152600401808273ffffffffffffffffffffffffffffffffffffffff1673ffffffffffffffffffffffffffffffffffffffff168152602001915050602060405180830381600087803b1580156158ee57600080fd5b505af1158015615902573d6000803e3d6000fd5b505050506040513d602081101561591857600080fd5b8101908080519060200190929190505050151561593457600080fd5b61594982600e5461758690919063ffffffff16565b600e8190555060019050919050565b60008060009054906101000a900473ffffffffffffffffffffffffffffffffffffffff1673ffffffffffffffffffffffffffffffffffffffff166322763ae16040518163ffffffff167c0100000000000000000000000000000000000000000000000000000000028152600401602060405180830381600087803b1580156159df57600080fd5b505af11580156159f3573d6000803e3d6000fd5b505050506040513d6020811015615a0957600080fd5b81019080805190602001909291905050501515615a2557600080fd5b600260009054906101000a900460ff161515615a4057600080fd5b60008351111515615a5057600080fd5b615a6289898989338a51612710617671565b90506000809054906101000a900473ffffffffffffffffffffffffffffffffffffffff1673ffffffffffffffffffffffffffffffffffffffff16634e94c8296040518163ffffffff167c0100000000000000000000000000000000000000000000000000000000028152600401602060405180830381600087803b158015615ae957600080fd5b505af1158015615afd573d6000803e3d6000fd5b505050506040513d6020811015615b1357600080fd5b810190808051906020019092919050505073ffffffffffffffffffffffffffffffffffffffff166307c1880a8585853086338c6000670de0b6b3a764000060016040518b63ffffffff167c0100000000000000000000000000000000000000000000000000000000028152600401808b6000191660001916815260200180602001806020018a73ffffffffffffffffffffffffffffffffffffffff1673ffffffffffffffffffffffffffffffffffffffff1681526020018973ffffffffffffffffffffffffffffffffffffffff1673ffffffffffffffffffffffffffffffffffffffff1681526020018873ffffffffffffffffffffffffffffffffffffffff1673ffffffffffffffffffffffffffffffffffffffff16815260200180602001878152602001868152602001856002811115615c4a57fe5b60ff16815260200184810384528d818151815260200191508051906020019080838360005b83811015615c8a578082015181840152602081019050615c6f565b50505050905090810190601f168015615cb75780820380516001836020036101000a031916815260200191505b5084810383528c818151815260200191508051906020019080838360005b83811015615cf0578082015181840152602081019050615cd5565b50505050905090810190601f168015615d1d5780820380516001836020036101000a031916815260200191505b50848103825288818151815260200191508051906020019060200280838360005b83811015615d59578082015181840152602081019050615d3e565b505050509050019d5050505050505050505050505050602060405180830381600087803b158015615d8957600080fd5b505af1158015615d9d573d6000803e3d6000fd5b505050506040513d6020811015615db357600080fd5b81019080805190602001909291905050505080905098975050505050505050565b6000615df0615de16120c5565b8361762190919063ffffffff16565b9050919050565b60007f556e697665727365000000000000000000000000000000000000000000000000905090565b600080600080600560009054906101000a900473ffffffffffffffffffffffffffffffffffffffff1673ffffffffffffffffffffffffffffffffffffffff16632443f0ae87876040518363ffffffff167c0100000000000000000000000000000000000000000000000000000000028152600401808060200183151515158152602001828103825284818151815260200191508051906020019060200280838360005b83811015615edd578082015181840152602081019050615ec2565b505050509050019350505050602060405180830381600087803b158015615f0357600080fd5b505af1158015615f17573d6000803e3d6000fd5b505050506040513d6020811015615f2d57600080fd5b81019080805190602001909291905050509250615f4983616748565b91506000809054906101000a900473ffffffffffffffffffffffffffffffffffffffff1673ffffffffffffffffffffffffffffffffffffffff16634e94c8296040518163ffffffff167c0100000000000000000000000000000000000000000000000000000000028152600401602060405180830381600087803b158015615fd057600080fd5b505af1158015615fe4573d6000803e3d6000fd5b505050506040513d6020811015615ffa57600080fd5b81019080805190602001909291905050509050600073ffffffffffffffffffffffffffffffffffffffff168273ffffffffffffffffffffffffffffffffffffffff1614156161a6578073ffffffffffffffffffffffffffffffffffffffff16638892bb738488886040518463ffffffff167c01000000000000000000000000000000000000000000000000000000000281526004018084600019166000191681526020018060200183151515158152602001828103825284818151815260200191508051906020019060200280838360005b838110156160e75780820151818401526020810190506160cc565b50505050905001945050505050602060405180830381600087803b15801561610e57600080fd5b505af1158015616122573d6000803e3d6000fd5b505050506040513d602081101561613857600080fd5b8101908080519060200190929190505050915081600d6000856000191660001916815260200190815260200160002060006101000a81548173ffffffffffffffffffffffffffffffffffffffff021916908373ffffffffffffffffffffffffffffffffffffffff1602179055505b81935050505092915050565b60008060009054906101000a900473ffffffffffffffffffffffffffffffffffffffff1673ffffffffffffffffffffffffffffffffffffffff166322763ae16040518163ffffffff167c0100000000000000000000000000000000000000000000000000000000028152600401602060405180830381600087803b15801561623957600080fd5b505af115801561624d573d6000803e3d6000fd5b505050506040513d602081101561626357600080fd5b8101908080519060200190929190505050151561627f57600080fd5b61633961633460028473ffffffffffffffffffffffffffffffffffffffff1663c828371e6040518163ffffffff167c0100000000000000000000000000000000000000000000000000000000028152600401602060405180830381600087803b1580156162eb57600080fd5b505af11580156162ff573d6000803e3d6000fd5b505050506040513d602081101561631557600080fd5b81019080805190602001909291905050506175a790919063ffffffff16565b6147ae565b9050919050565b60008060008060008060008060009054906101000a900473ffffffffffffffffffffffffffffffffffffffff1673ffffffffffffffffffffffffffffffffffffffff166322763ae16040518163ffffffff167c0100000000000000000000000000000000000000000000000000000000028152600401602060405180830381600087803b1580156163d057600080fd5b505af11580156163e4573d6000803e3d6000fd5b505050506040513d60208110156163fa57600080fd5b8101908080519060200190929190505050151561641657600080fd5b61641e612b95565b95506164286124e8565b9450601160008773ffffffffffffffffffffffffffffffffffffffff1673ffffffffffffffffffffffffffffffffffffffff16815260200190815260200160002054935060008414151561647e57839650616665565b8473ffffffffffffffffffffffffffffffffffffffff1663295c39a56040518163ffffffff167c0100000000000000000000000000000000000000000000000000000000028152600401602060405180830381600087803b1580156164e257600080fd5b505af11580156164f6573d6000803e3d6000fd5b505050506040513d602081101561650c57600080fd5b810190808051906020019092919050505092508473ffffffffffffffffffffffffffffffffffffffff1663a52c05126040518163ffffffff167c0100000000000000000000000000000000000000000000000000000000028152600401602060405180830381600087803b15801561658357600080fd5b505af1158015616597573d6000803e3d6000fd5b505050506040513d60208110156165ad57600080fd5b81019080805190602001909291905050509150601160008673ffffffffffffffffffffffffffffffffffffffff1673ffffffffffffffffffffffffffffffffffffffff16815260200190815260200160002054905061661b828461660f617c59565b84600a54600a54612a4e565b935083601160008873ffffffffffffffffffffffffffffffffffffffff1673ffffffffffffffffffffffffffffffffffffffff168152602001908152602001600020819055508396505b50505050505090565b60008060009054906101000a900473ffffffffffffffffffffffffffffffffffffffff1673ffffffffffffffffffffffffffffffffffffffff166322763ae16040518163ffffffff167c0100000000000000000000000000000000000000000000000000000000028152600401602060405180830381600087803b1580156166f557600080fd5b505af1158015616709573d6000803e3d6000fd5b505050506040513d602081101561671f57600080fd5b8101908080519060200190929190505050151561673b57600080fd5b616743614190565b905090565b6000600d6000836000191660001916815260200190815260200160002060009054906101000a900473ffffffffffffffffffffffffffffffffffffffff169050919050565b60008060009054906101000a900473ffffffffffffffffffffffffffffffffffffffff1673ffffffffffffffffffffffffffffffffffffffff166322763ae16040518163ffffffff167c0100000000000000000000000000000000000000000000000000000000028152600401602060405180830381600087803b15801561681457600080fd5b505af1158015616828573d6000803e3d6000fd5b505050506040513d602081101561683e57600080fd5b8101908080519060200190929190505050151561685a57600080fd5b61693b6169366168686120c5565b6000809054906101000a900473ffffffffffffffffffffffffffffffffffffffff1673ffffffffffffffffffffffffffffffffffffffff1663188ec3566040518163ffffffff167c0100000000000000000000000000000000000000000000000000000000028152600401602060405180830381600087803b1580156168ed57600080fd5b505af1158015616901573d6000803e3d6000fd5b505050506040513d602081101561691757600080fd5b810190808051906020019092919050505061758690919063ffffffff16565b61407b565b905090565b6000600260009054906101000a900460ff16905090565b600080600080600061696a600654616748565b935061697586616748565b925060009150600073ffffffffffffffffffffffffffffffffffffffff168473ffffffffffffffffffffffffffffffffffffffff16141515616af1578373ffffffffffffffffffffffffffffffffffffffff1663b80907f26040518163ffffffff167c0100000000000000000000000000000000000000000000000000000000028152600401602060405180830381600087803b158015616a1557600080fd5b505af1158015616a29573d6000803e3d6000fd5b505050506040513d6020811015616a3f57600080fd5b810190808051906020019092919050505073ffffffffffffffffffffffffffffffffffffffff166391d76bbb6040518163ffffffff167c0100000000000000000000000000000000000000000000000000000000028152600401602060405180830381600087803b158015616ab357600080fd5b505af1158015616ac7573d6000803e3d6000fd5b505050506040513d6020811015616add57600080fd5b810190808051906020019092919050505091505b8273ffffffffffffffffffffffffffffffffffffffff1663b80907f26040518163ffffffff167c0100000000000000000000000000000000000000000000000000000000028152600401602060405180830381600087803b158015616b5557600080fd5b505af1158015616b69573d6000803e3d6000fd5b505050506040513d6020811015616b7f57600080fd5b810190808051906020019092919050505073ffffffffffffffffffffffffffffffffffffffff166391d76bbb6040518163ffffffff167c0100000000000000000000000000000000000000000000000000000000028152600401602060405180830381600087803b158015616bf357600080fd5b505af1158015616c07573d6000803e3d6000fd5b505050506040513d6020811015616c1d57600080fd5b8101908080519060200190929190505050905081811115616c445785600681600019169055505b60085481101515616d1257600560009054906101000a900473ffffffffffffffffffffffffffffffffffffffff1673ffffffffffffffffffffffffffffffffffffffff1663c3fc47876040518163ffffffff167c0100000000000000000000000000000000000000000000000000000000028152600401602060405180830381600087803b158015616cd557600080fd5b505af1158015616ce9573d6000803e3d6000fd5b505050506040513d6020811015616cff57600080fd5b8101908080519060200190929190505050505b6001945050505050919050565b60008060008373ffffffffffffffffffffffffffffffffffffffff1663f1be16796040518163ffffffff167c0100000000000000000000000000000000000000000000000000000000028152600401602060405180830381600087803b158015616d8857600080fd5b505af1158015616d9c573d6000803e3d6000fd5b505050506040513d6020811015616db257600080fd5b81019080805190602001909291905050509150600073ffffffffffffffffffffffffffffffffffffffff168273ffffffffffffffffffffffffffffffffffffffff161415616e035760009250616ef7565b616e0c82613ffb565b1515616e1b5760009250616ef7565b8190508073ffffffffffffffffffffffffffffffffffffffff1663f76514c7856040518263ffffffff167c0100000000000000000000000000000000000000000000000000000000028152600401808273ffffffffffffffffffffffffffffffffffffffff1673ffffffffffffffffffffffffffffffffffffffff168152602001915050602060405180830381600087803b158015616eb957600080fd5b505af1158015616ecd573d6000803e3d6000fd5b505050506040513d6020811015616ee357600080fd5b810190808051906020019092919050505092505b5050919050565b6000600954905090565b60008060008060008060008060009054906101000a900473ffffffffffffffffffffffffffffffffffffffff1673ffffffffffffffffffffffffffffffffffffffff166322763ae16040518163ffffffff167c0100000000000000000000000000000000000000000000000000000000028152600401602060405180830381600087803b158015616f9857600080fd5b505af1158015616fac573d6000803e3d6000fd5b505050506040513d6020811015616fc257600080fd5b81019080805190602001909291905050501515616fde57600080fd5b616fe6612b95565b9550616ff06124e8565b9450601260008773ffffffffffffffffffffffffffffffffffffffff1673ffffffffffffffffffffffffffffffffffffffff1681526020019081526020016000205493506000841415156170465783965061722d565b8473ffffffffffffffffffffffffffffffffffffffff1663295c39a56040518163ffffffff167c0100000000000000000000000000000000000000000000000000000000028152600401602060405180830381600087803b1580156170aa57600080fd5b505af11580156170be573d6000803e3d6000fd5b505050506040513d60208110156170d457600080fd5b810190808051906020019092919050505092508473ffffffffffffffffffffffffffffffffffffffff1663da0b0c366040518163ffffffff167c0100000000000000000000000000000000000000000000000000000000028152600401602060405180830381600087803b15801561714b57600080fd5b505af115801561715f573d6000803e3d6000fd5b505050506040513d602081101561717557600080fd5b81019080805190602001909291905050509150601260008673ffffffffffffffffffffffffffffffffffffffff1673ffffffffffffffffffffffffffffffffffffffff1681526020019081526020016000205490506171e382846171d7617c62565b84600a54600a54612a4e565b935083601260008873ffffffffffffffffffffffffffffffffffffffff1673ffffffffffffffffffffffffffffffffffffffff168152602001908152602001600020819055508396505b50505050505090565b6000600260019054906101000a900473ffffffffffffffffffffffffffffffffffffffff1673ffffffffffffffffffffffffffffffffffffffff16639f7e1bf6336040518263ffffffff167c0100000000000000000000000000000000000000000000000000000000028152600401808273ffffffffffffffffffffffffffffffffffffffff1673ffffffffffffffffffffffffffffffffffffffff168152602001915050602060405180830381600087803b1580156172f557600080fd5b505af1158015617309573d6000803e3d6000fd5b505050506040513d602081101561731f57600080fd5b8101908080519060200190929190505050151561733b57600080fd5b6001600c60003373ffffffffffffffffffffffffffffffffffffffff1673ffffffffffffffffffffffffffffffffffffffff16815260200190815260200160002060006101000a81548160ff0219169083151502179055506000809054906101000a900473ffffffffffffffffffffffffffffffffffffffff1673ffffffffffffffffffffffffffffffffffffffff16634e94c8296040518163ffffffff167c0100000000000000000000000000000000000000000000000000000000028152600401602060405180830381600087803b15801561741857600080fd5b505af115801561742c573d6000803e3d6000fd5b505050506040513d602081101561744257600080fd5b810190808051906020019092919050505073ffffffffffffffffffffffffffffffffffffffff166317674e4d33600260019054906101000a900473ffffffffffffffffffffffffffffffffffffffff166040518363ffffffff167c0100000000000000000000000000000000000000000000000000000000028152600401808373ffffffffffffffffffffffffffffffffffffffff1673ffffffffffffffffffffffffffffffffffffffff1681526020018273ffffffffffffffffffffffffffffffffffffffff1673ffffffffffffffffffffffffffffffffffffffff16815260200192505050602060405180830381600087803b15801561754357600080fd5b505af1158015617557573d6000803e3d6000fd5b505050506040513d602081101561756d57600080fd5b8101908080519060200190929190505050506001905090565b600080828401905083811015151561759d57600080fd5b8091505092915050565b60008282111515156175b857600080fd5b818303905092915050565b600080828402905060008414806175e457508284828115156175e157fe5b04145b15156175ef57600080fd5b8091505092915050565b600062093a80905090565b6000624f1a00905090565b60006002905090565b6000600f905090565b600080828481151561762f57fe5b0490508091505092915050565b6000818310151561764f57829050617653565b8190505b92915050565b600080828481151561766757fe5b0614905092915050565b6000806000809054906101000a900473ffffffffffffffffffffffffffffffffffffffff1673ffffffffffffffffffffffffffffffffffffffff166322763ae16040518163ffffffff167c0100000000000000000000000000000000000000000000000000000000028152600401602060405180830381600087803b1580156176f957600080fd5b505af115801561770d573d6000803e3d6000fd5b505050506040513d602081101561772357600080fd5b8101908080519060200190929190505050151561773f57600080fd5b600260009054906101000a900460ff16151561775a57600080fd5b6000809054906101000a900473ffffffffffffffffffffffffffffffffffffffff1673ffffffffffffffffffffffffffffffffffffffff1663f39ec1f76040518163ffffffff167c010000000000000000000000000000000000000000000000000000000002815260040180807f4d61726b6574466163746f7279000000000000000000000000000000000000008152506020019050602060405180830381600087803b15801561780a57600080fd5b505af115801561781e573d6000803e3d6000fd5b505050506040513d602081101561783457600080fd5b8101908080519060200190929190505050905061784f614d3e565b73ffffffffffffffffffffffffffffffffffffffff1663fe98184d8683617874616f08565b6040518463ffffffff167c0100000000000000000000000000000000000000000000000000000000028152600401808473ffffffffffffffffffffffffffffffffffffffff1673ffffffffffffffffffffffffffffffffffffffff1681526020018373ffffffffffffffffffffffffffffffffffffffff1673ffffffffffffffffffffffffffffffffffffffff1681526020018281526020019350505050602060405180830381600087803b15801561792c57600080fd5b505af1158015617940573d6000803e3d6000fd5b505050506040513d602081101561795657600080fd5b8101908080519060200190929190505050508073ffffffffffffffffffffffffffffffffffffffff16631d48329b346000809054906101000a900473ffffffffffffffffffffffffffffffffffffffff16308d8d8d8d8d8d8d6040518b63ffffffff167c0100000000000000000000000000000000000000000000000000000000028152600401808a73ffffffffffffffffffffffffffffffffffffffff1673ffffffffffffffffffffffffffffffffffffffff1681526020018973ffffffffffffffffffffffffffffffffffffffff1673ffffffffffffffffffffffffffffffffffffffff1681526020018881526020018781526020018673ffffffffffffffffffffffffffffffffffffffff1673ffffffffffffffffffffffffffffffffffffffff1681526020018573ffffffffffffffffffffffffffffffffffffffff1673ffffffffffffffffffffffffffffffffffffffff1681526020018473ffffffffffffffffffffffffffffffffffffffff1673ffffffffffffffffffffffffffffffffffffffff16815260200183815260200182815260200199505050505050505050506020604051808303818588803b158015617b1457600080fd5b505af1158015617b28573d6000803e3d6000fd5b50505050506040513d6020811015617b3f57600080fd5b810190808051906020019092919050505091506001600c60008473ffffffffffffffffffffffffffffffffffffffff1673ffffffffffffffffffffffffffffffffffffffff16815260200190815260200160002060006101000a81548160ff02191690831515021790555081915050979650505050505050565b60006064905090565b6000612710905090565b60006003905090565b60008183111515617be857829050617bec565b8190505b92915050565b60006064905090565b6000662386f26fc10000905090565b6000662386f26fc10000905090565b6000600260009054906101000a900460ff16151515617c3757600080fd5b6001600260006101000a81548160ff0219169083151502179055506001905090565b60006064905090565b600060649050905600a165627a7a72305820b5558e7c00ef000236a23b293f8426828a93dd3cf2f3b6a0754f89ef8eb677200029",
  "source": "pragma solidity ^0.4.22;\n\n\nimport './../reporting/IUniverse.sol';\nimport './../libraries/DelegationTarget.sol';\nimport './../libraries/ITyped.sol';\nimport './../libraries/Initializable.sol';\nimport './../factories/ReputationTokenFactory.sol';\nimport './../factories/FeeWindowFactory.sol';\nimport './../factories/MarketFactory.sol';\nimport './../reporting/IMarket.sol';\nimport './../reporting/IReputationToken.sol';\nimport './../reporting/IFeeWindow.sol';\nimport './../reporting/IFeeToken.sol';\nimport './../reporting/Reporting.sol';\nimport './../reporting/IRepPriceOracle.sol';\nimport './../libraries/math/SafeMathUint256.sol';\nimport './../IAugur.sol';\n\n\ncontract Universe is DelegationTarget, ITyped, Initializable, IUniverse {\n    using SafeMathUint256 for uint256;\n\n    IUniverse private parentUniverse;\n    bytes32 private parentPayoutDistributionHash;\n    IReputationToken private reputationToken;\n    IMarket private forkingMarket;\n    bytes32 private tentativeWinningChildUniversePayoutDistributionHash;\n    uint256 private forkEndTime;\n    uint256 private forkReputationGoal;\n    uint256 private disputeThresholdForFork;\n    uint256 private initialReportMinValue;\n    mapping(uint256 => IFeeWindow) private feeWindows;\n    mapping(address => bool) private markets;\n    mapping(bytes32 => IUniverse) private childUniverses;\n    uint256 private openInterestInAttoEth;\n\n    mapping (address => uint256) private validityBondInAttoeth;\n    mapping (address => uint256) private targetReporterGasCosts;\n    mapping (address => uint256) private designatedReportStakeInAttoRep;\n    mapping (address => uint256) private designatedReportNoShowBondInAttoRep;\n    mapping (address => uint256) private shareSettlementFeeDivisor;\n\n    function initialize(IUniverse _parentUniverse, bytes32 _parentPayoutDistributionHash) external onlyInGoodTimes beforeInitialized returns (bool) {\n        endInitialization();\n        parentUniverse = _parentUniverse;\n        parentPayoutDistributionHash = _parentPayoutDistributionHash;\n        reputationToken = ReputationTokenFactory(controller.lookup(\"ReputationTokenFactory\")).createReputationToken(controller, this);\n        updateForkValues();\n        require(reputationToken != address(0));\n        return true;\n    }\n\n    function fork() public onlyInGoodTimes afterInitialized returns (bool) {\n        require(!isForking());\n        require(isContainerForMarket(IMarket(msg.sender)));\n        forkingMarket = IMarket(msg.sender);\n        forkEndTime = controller.getTimestamp().add(Reporting.getForkDurationSeconds());\n        controller.getAugur().logUniverseForked();\n        return true;\n    }\n\n    function updateForkValues() public returns (bool) {\n        uint256 _totalRepSupply = reputationToken.getTotalTheoreticalSupply();\n        forkReputationGoal = _totalRepSupply.div(2); // 50% of REP migrating results in a victory in a fork\n        disputeThresholdForFork = _totalRepSupply.div(40); // 2.5% of the total rep supply\n        initialReportMinValue = disputeThresholdForFork.div(3).div(2**18).add(1); // This value will result in a maximum 20 round dispute sequence\n        return true;\n    }\n\n    function getTypeName() public view returns (bytes32) {\n        return \"Universe\";\n    }\n\n    function getParentUniverse() public view returns (IUniverse) {\n        return parentUniverse;\n    }\n\n    function getParentPayoutDistributionHash() public view returns (bytes32) {\n        return parentPayoutDistributionHash;\n    }\n\n    function getReputationToken() public view returns (IReputationToken) {\n        return reputationToken;\n    }\n\n    function getForkingMarket() public view returns (IMarket) {\n        return forkingMarket;\n    }\n\n    function getForkEndTime() public view returns (uint256) {\n        return forkEndTime;\n    }\n\n    function getForkReputationGoal() public view returns (uint256) {\n        return forkReputationGoal;\n    }\n\n    function getDisputeThresholdForFork() public view returns (uint256) {\n        return disputeThresholdForFork;\n    }\n\n    function getInitialReportMinValue() public view returns (uint256) {\n        return initialReportMinValue;\n    }\n\n    function getFeeWindow(uint256 _feeWindowId) public view returns (IFeeWindow) {\n        return feeWindows[_feeWindowId];\n    }\n\n    function isForking() public view returns (bool) {\n        return forkingMarket != IMarket(0);\n    }\n\n    function getChildUniverse(bytes32 _parentPayoutDistributionHash) public view returns (IUniverse) {\n        return childUniverses[_parentPayoutDistributionHash];\n    }\n\n    function getFeeWindowId(uint256 _timestamp) public view returns (uint256) {\n        return _timestamp.div(getDisputeRoundDurationInSeconds());\n    }\n\n    function getDisputeRoundDurationInSeconds() public view returns (uint256) {\n        return Reporting.getDisputeRoundDurationSeconds();\n    }\n\n    function getOrCreateFeeWindowByTimestamp(uint256 _timestamp) public onlyInGoodTimes returns (IFeeWindow) {\n        uint256 _windowId = getFeeWindowId(_timestamp);\n        if (feeWindows[_windowId] == address(0)) {\n            IFeeWindow _feeWindow = FeeWindowFactory(controller.lookup(\"FeeWindowFactory\")).createFeeWindow(controller, this, _windowId);\n            feeWindows[_windowId] = _feeWindow;\n            controller.getAugur().logFeeWindowCreated(_feeWindow, _windowId);\n        }\n        return feeWindows[_windowId];\n    }\n\n    function getFeeWindowByTimestamp(uint256 _timestamp) public view onlyInGoodTimes returns (IFeeWindow) {\n        uint256 _windowId = getFeeWindowId(_timestamp);\n        return feeWindows[_windowId];\n    }\n\n    function getOrCreatePreviousPreviousFeeWindow() public onlyInGoodTimes returns (IFeeWindow) {\n        return getOrCreateFeeWindowByTimestamp(controller.getTimestamp().sub(getDisputeRoundDurationInSeconds().mul(2)));\n    }\n\n    function getOrCreatePreviousFeeWindow() public onlyInGoodTimes returns (IFeeWindow) {\n        return getOrCreateFeeWindowByTimestamp(controller.getTimestamp().sub(getDisputeRoundDurationInSeconds()));\n    }\n\n    function getPreviousFeeWindow() public view onlyInGoodTimes returns (IFeeWindow) {\n        return getFeeWindowByTimestamp(controller.getTimestamp().sub(getDisputeRoundDurationInSeconds()));\n    }\n\n    function getOrCreateCurrentFeeWindow() public onlyInGoodTimes returns (IFeeWindow) {\n        return getOrCreateFeeWindowByTimestamp(controller.getTimestamp());\n    }\n\n    function getCurrentFeeWindow() public view onlyInGoodTimes returns (IFeeWindow) {\n        return getFeeWindowByTimestamp(controller.getTimestamp());\n    }\n\n    function getOrCreateNextFeeWindow() public onlyInGoodTimes returns (IFeeWindow) {\n        return getOrCreateFeeWindowByTimestamp(controller.getTimestamp().add(getDisputeRoundDurationInSeconds()));\n    }\n\n    function getNextFeeWindow() public view onlyInGoodTimes returns (IFeeWindow) {\n        return getFeeWindowByTimestamp(controller.getTimestamp().add(getDisputeRoundDurationInSeconds()));\n    }\n\n    function getOrCreateFeeWindowBefore(IFeeWindow _feeWindow) public onlyInGoodTimes returns (IFeeWindow) {\n        return getOrCreateFeeWindowByTimestamp(_feeWindow.getStartTime().sub(2));\n    }\n\n    function createChildUniverse(uint256[] _parentPayoutNumerators, bool _parentInvalid) public returns (IUniverse) {\n        bytes32 _parentPayoutDistributionHash = forkingMarket.derivePayoutDistributionHash(_parentPayoutNumerators, _parentInvalid);\n        IUniverse _childUniverse = getChildUniverse(_parentPayoutDistributionHash);\n        IAugur _augur = controller.getAugur();\n        if (_childUniverse == IUniverse(0)) {\n            _childUniverse = _augur.createChildUniverse(_parentPayoutDistributionHash, _parentPayoutNumerators, _parentInvalid);\n            childUniverses[_parentPayoutDistributionHash] = _childUniverse;\n        }\n        return _childUniverse;\n    }\n\n    function updateTentativeWinningChildUniverse(bytes32 _parentPayoutDistributionHash) public returns (bool) {\n        IUniverse _tentativeWinningUniverse = getChildUniverse(tentativeWinningChildUniversePayoutDistributionHash);\n        IUniverse _updatedUniverse = getChildUniverse(_parentPayoutDistributionHash);\n        uint256 _currentTentativeWinningChildUniverseRepMigrated = 0;\n        if (_tentativeWinningUniverse != IUniverse(0)) {\n            _currentTentativeWinningChildUniverseRepMigrated = _tentativeWinningUniverse.getReputationToken().getTotalMigrated();\n        }\n        uint256 _updatedUniverseRepMigrated = _updatedUniverse.getReputationToken().getTotalMigrated();\n        if (_updatedUniverseRepMigrated > _currentTentativeWinningChildUniverseRepMigrated) {\n            tentativeWinningChildUniversePayoutDistributionHash = _parentPayoutDistributionHash;\n        }\n        if (_updatedUniverseRepMigrated >= forkReputationGoal) {\n            forkingMarket.finalizeFork();\n        }\n        return true;\n    }\n\n    function getWinningChildUniverse() public view returns (IUniverse) {\n        require(isForking());\n        require(tentativeWinningChildUniversePayoutDistributionHash != bytes32(0));\n        IUniverse _tentativeWinningUniverse = getChildUniverse(tentativeWinningChildUniversePayoutDistributionHash);\n        uint256 _winningAmount = _tentativeWinningUniverse.getReputationToken().getTotalMigrated();\n        require(_winningAmount >= forkReputationGoal || controller.getTimestamp() > forkEndTime);\n        return _tentativeWinningUniverse;\n    }\n\n    function isContainerForFeeWindow(IFeeWindow _shadyFeeWindow) public view returns (bool) {\n        uint256 _startTime = _shadyFeeWindow.getStartTime();\n        if (_startTime == 0) {\n            return false;\n        }\n        uint256 _feeWindowId = getFeeWindowId(_startTime);\n        IFeeWindow _legitFeeWindow = feeWindows[_feeWindowId];\n        return _shadyFeeWindow == _legitFeeWindow;\n    }\n\n    function isContainerForFeeToken(IFeeToken _shadyFeeToken) public view returns (bool) {\n        IFeeWindow _shadyFeeWindow = _shadyFeeToken.getFeeWindow();\n        require(isContainerForFeeWindow(_shadyFeeWindow));\n        IFeeWindow _legitFeeWindow = _shadyFeeWindow;\n        return _legitFeeWindow.getFeeToken() == _shadyFeeToken;\n    }\n\n    function isContainerForMarket(IMarket _shadyMarket) public view returns (bool) {\n        return markets[address(_shadyMarket)];\n    }\n\n    function addMarketTo() public returns (bool) {\n        require(parentUniverse.isContainerForMarket(IMarket(msg.sender)));\n        markets[msg.sender] = true;\n        controller.getAugur().logMarketMigrated(IMarket(msg.sender), parentUniverse);\n        return true;\n    }\n\n    function removeMarketFrom() public returns (bool) {\n        require(isContainerForMarket(IMarket(msg.sender)));\n        markets[msg.sender] = false;\n        return true;\n    }\n\n    function isContainerForShareToken(IShareToken _shadyShareToken) public view returns (bool) {\n        IMarket _shadyMarket = _shadyShareToken.getMarket();\n        if (_shadyMarket == address(0)) {\n            return false;\n        }\n        if (!isContainerForMarket(_shadyMarket)) {\n            return false;\n        }\n        IMarket _legitMarket = _shadyMarket;\n        return _legitMarket.isContainerForShareToken(_shadyShareToken);\n    }\n\n    function isContainerForReportingParticipant(IReportingParticipant _shadyReportingParticipant) public view returns (bool) {\n        IMarket _shadyMarket = _shadyReportingParticipant.getMarket();\n        if (_shadyMarket == address(0)) {\n            return false;\n        }\n        if (!isContainerForMarket(_shadyMarket)) {\n            return false;\n        }\n        IMarket _legitMarket = _shadyMarket;\n        return _legitMarket.isContainerForReportingParticipant(_shadyReportingParticipant);\n    }\n\n    function isParentOf(IUniverse _shadyChild) public view returns (bool) {\n        bytes32 _parentPayoutDistributionHash = _shadyChild.getParentPayoutDistributionHash();\n        return getChildUniverse(_parentPayoutDistributionHash) == _shadyChild;\n    }\n\n    function decrementOpenInterest(uint256 _amount) public onlyInGoodTimes onlyWhitelistedCallers returns (bool) {\n        openInterestInAttoEth = openInterestInAttoEth.sub(_amount);\n        return true;\n    }\n\n    function decrementOpenInterestFromMarket(uint256 _amount) public returns (bool) {\n        require(isContainerForMarket(IMarket(msg.sender)));\n        openInterestInAttoEth = openInterestInAttoEth.sub(_amount);\n        return true;\n    }\n\n    function incrementOpenInterest(uint256 _amount) public onlyInGoodTimes onlyWhitelistedCallers returns (bool) {\n        openInterestInAttoEth = openInterestInAttoEth.add(_amount);\n        return true;\n    }\n\n    function incrementOpenInterestFromMarket(uint256 _amount) public onlyInGoodTimes returns (bool) {\n        require(isContainerForMarket(IMarket(msg.sender)));\n        openInterestInAttoEth = openInterestInAttoEth.add(_amount);\n        return true;\n    }\n\n    function getOpenInterestInAttoEth() public view returns (uint256) {\n        return openInterestInAttoEth;\n    }\n\n    function getRepMarketCapInAttoeth() public view returns (uint256) {\n        uint256 _attorepPerEth = IRepPriceOracle(controller.lookup(\"RepPriceOracle\")).getRepPriceInAttoEth();\n        uint256 _repMarketCapInAttoeth = getReputationToken().totalSupply().mul(_attorepPerEth);\n        return _repMarketCapInAttoeth;\n    }\n\n    function getTargetRepMarketCapInAttoeth() public view returns (uint256) {\n        return getOpenInterestInAttoEth().mul(Reporting.getTargetRepMarketCapMultiplier()).div(Reporting.getTargetRepMarketCapDivisor());\n    }\n\n    function getOrCacheValidityBond() public onlyInGoodTimes returns (uint256) {\n        IFeeWindow _feeWindow = getOrCreateCurrentFeeWindow();\n        IFeeWindow  _previousFeeWindow = getOrCreatePreviousPreviousFeeWindow();\n        uint256 _currentValidityBondInAttoeth = validityBondInAttoeth[_feeWindow];\n        if (_currentValidityBondInAttoeth != 0) {\n            return _currentValidityBondInAttoeth;\n        }\n        uint256 _totalMarketsInPreviousWindow = _previousFeeWindow.getNumMarkets();\n        uint256 _invalidMarketsInPreviousWindow = _previousFeeWindow.getNumInvalidMarkets();\n        uint256 _previousValidityBondInAttoeth = validityBondInAttoeth[_previousFeeWindow];\n        _currentValidityBondInAttoeth = calculateFloatingValue(_invalidMarketsInPreviousWindow, _totalMarketsInPreviousWindow, Reporting.getTargetInvalidMarketsDivisor(), _previousValidityBondInAttoeth, Reporting.getDefaultValidityBond(), Reporting.getValidityBondFloor());\n        validityBondInAttoeth[_feeWindow] = _currentValidityBondInAttoeth;\n        return _currentValidityBondInAttoeth;\n    }\n\n    function getOrCacheDesignatedReportStake() public onlyInGoodTimes returns (uint256) {\n        IFeeWindow _feeWindow = getOrCreateCurrentFeeWindow();\n        IFeeWindow _previousFeeWindow = getOrCreatePreviousPreviousFeeWindow();\n        uint256 _currentDesignatedReportStakeInAttoRep = designatedReportStakeInAttoRep[_feeWindow];\n        if (_currentDesignatedReportStakeInAttoRep != 0) {\n            return _currentDesignatedReportStakeInAttoRep;\n        }\n        uint256 _totalMarketsInPreviousWindow = _previousFeeWindow.getNumMarkets();\n        uint256 _incorrectDesignatedReportMarketsInPreviousWindow = _previousFeeWindow.getNumIncorrectDesignatedReportMarkets();\n        uint256 _previousDesignatedReportStakeInAttoRep = designatedReportStakeInAttoRep[_previousFeeWindow];\n\n        _currentDesignatedReportStakeInAttoRep = calculateFloatingValue(_incorrectDesignatedReportMarketsInPreviousWindow, _totalMarketsInPreviousWindow, Reporting.getTargetIncorrectDesignatedReportMarketsDivisor(), _previousDesignatedReportStakeInAttoRep, initialReportMinValue, initialReportMinValue);\n        designatedReportStakeInAttoRep[_feeWindow] = _currentDesignatedReportStakeInAttoRep;\n        return _currentDesignatedReportStakeInAttoRep;\n    }\n\n    function getOrCacheDesignatedReportNoShowBond() public onlyInGoodTimes returns (uint256) {\n        IFeeWindow _feeWindow = getOrCreateCurrentFeeWindow();\n        IFeeWindow _previousFeeWindow = getOrCreatePreviousPreviousFeeWindow();\n        uint256 _currentDesignatedReportNoShowBondInAttoRep = designatedReportNoShowBondInAttoRep[_feeWindow];\n        if (_currentDesignatedReportNoShowBondInAttoRep != 0) {\n            return _currentDesignatedReportNoShowBondInAttoRep;\n        }\n        uint256 _totalMarketsInPreviousWindow = _previousFeeWindow.getNumMarkets();\n        uint256 _designatedReportNoShowsInPreviousWindow = _previousFeeWindow.getNumDesignatedReportNoShows();\n        uint256 _previousDesignatedReportNoShowBondInAttoRep = designatedReportNoShowBondInAttoRep[_previousFeeWindow];\n\n        _currentDesignatedReportNoShowBondInAttoRep = calculateFloatingValue(_designatedReportNoShowsInPreviousWindow, _totalMarketsInPreviousWindow, Reporting.getTargetDesignatedReportNoShowsDivisor(), _previousDesignatedReportNoShowBondInAttoRep, initialReportMinValue, initialReportMinValue);\n        designatedReportNoShowBondInAttoRep[_feeWindow] = _currentDesignatedReportNoShowBondInAttoRep;\n        return _currentDesignatedReportNoShowBondInAttoRep;\n    }\n\n    function calculateFloatingValue(uint256 _badMarkets, uint256 _totalMarkets, uint256 _targetDivisor, uint256 _previousValue, uint256 _defaultValue, uint256 _floor) public pure returns (uint256 _newValue) {\n        if (_totalMarkets == 0) {\n            return _defaultValue;\n        }\n        if (_previousValue == 0) {\n            _previousValue = _defaultValue;\n        }\n\n        // Modify the amount based on the previous amount and the number of markets fitting the failure criteria. We want the amount to be somewhere in the range of 0.5 to 2 times its previous value where ALL markets with the condition results in 2x and 0 results in 0.5x.\n        // Safe math div is redundant so we avoid here as we're at the stack limit.\n        if (_badMarkets <= _totalMarkets / _targetDivisor) {\n            // FXP formula: previous_amount * actual_percent / (2 * target_percent) + 0.5;\n            _newValue = _badMarkets\n                .mul(_previousValue)\n                .mul(_targetDivisor);\n            _newValue = _newValue / _totalMarkets;\n            _newValue = _newValue / 2;\n            _newValue = _newValue.add(_previousValue / 2);\n        } else {\n            // FXP formula: previous_amount * (1/(1 - target_percent)) * (actual_percent - target_percent) + 1;\n            _newValue = _targetDivisor\n                .mul(_previousValue\n                    .mul(_badMarkets)\n                    .div(_totalMarkets)\n                .sub(_previousValue / _targetDivisor));\n            _newValue = _newValue / (_targetDivisor - 1);\n            _newValue = _newValue.add(_previousValue);\n        }\n        _newValue = _newValue.max(_floor);\n\n        return _newValue;\n    }\n\n    function getOrCacheReportingFeeDivisor() public onlyInGoodTimes returns (uint256) {\n        IFeeWindow _feeWindow = getOrCreateCurrentFeeWindow();\n        IFeeWindow _previousFeeWindow = getOrCreatePreviousFeeWindow();\n        uint256 _currentFeeDivisor = shareSettlementFeeDivisor[_feeWindow];\n        if (_currentFeeDivisor != 0) {\n            return _currentFeeDivisor;\n        }\n        uint256 _repMarketCapInAttoeth = getRepMarketCapInAttoeth();\n        uint256 _targetRepMarketCapInAttoeth = getTargetRepMarketCapInAttoeth();\n        uint256 _previousFeeDivisor = shareSettlementFeeDivisor[_previousFeeWindow];\n        if (_previousFeeDivisor == 0) {\n            _currentFeeDivisor = Reporting.getDefaultReportingFeeDivisor();\n        } else if (_targetRepMarketCapInAttoeth == 0) {\n            _currentFeeDivisor = Reporting.getDefaultReportingFeeDivisor();\n        } else {\n            _currentFeeDivisor = _previousFeeDivisor.mul(_repMarketCapInAttoeth).div(_targetRepMarketCapInAttoeth);\n        }\n\n        _currentFeeDivisor = _currentFeeDivisor\n            .max(Reporting.getMinimumReportingFeeDivisor())\n            .min(Reporting.getMaximumReportingFeeDivisor());\n\n        shareSettlementFeeDivisor[_feeWindow] = _currentFeeDivisor;\n        return _currentFeeDivisor;\n    }\n\n    function getOrCacheMarketCreationCost() public onlyInGoodTimes returns (uint256) {\n        return getOrCacheValidityBond();\n    }\n\n    function getInitialReportStakeSize() public onlyInGoodTimes returns (uint256) {\n        return getOrCacheDesignatedReportNoShowBond().max(getOrCacheDesignatedReportStake());\n    }\n\n    function createYesNoMarket(uint256 _endTime, uint256 _feePerEthInWei, ICash _denominationToken, address _designatedReporterAddress, bytes32 _topic, string _description, string _extraInfo) public onlyInGoodTimes afterInitialized payable returns (IMarket _newMarket) {\n        require(bytes(_description).length > 0);\n        _newMarket = createMarketInternal(_endTime, _feePerEthInWei, _denominationToken, _designatedReporterAddress, msg.sender, 2, 10000);\n        controller.getAugur().logMarketCreated(_topic, _description, _extraInfo, this, _newMarket, msg.sender, 0, 1 ether, IMarket.MarketType.YES_NO);\n        return _newMarket;\n    }\n\n    function createCategoricalMarket(uint256 _endTime, uint256 _feePerEthInWei, ICash _denominationToken, address _designatedReporterAddress, bytes32[] _outcomes, bytes32 _topic, string _description, string _extraInfo) public onlyInGoodTimes afterInitialized payable returns (IMarket _newMarket) {\n        require(bytes(_description).length > 0);\n        _newMarket = createMarketInternal(_endTime, _feePerEthInWei, _denominationToken, _designatedReporterAddress, msg.sender, uint256(_outcomes.length), 10000);\n        controller.getAugur().logMarketCreated(_topic, _description, _extraInfo, this, _newMarket, msg.sender, _outcomes, 0, 1 ether, IMarket.MarketType.CATEGORICAL);\n        return _newMarket;\n    }\n\n    function createScalarMarket(uint256 _endTime, uint256 _feePerEthInWei, ICash _denominationToken, address _designatedReporterAddress, int256 _minPrice, int256 _maxPrice, uint256 _numTicks, bytes32 _topic, string _description, string _extraInfo) public onlyInGoodTimes afterInitialized payable returns (IMarket _newMarket) {\n        require(bytes(_description).length > 0);\n        require(_minPrice < _maxPrice);\n        require(_numTicks.isMultipleOf(2));\n        _newMarket = createMarketInternal(_endTime, _feePerEthInWei, _denominationToken, _designatedReporterAddress, msg.sender, 2, _numTicks);\n        controller.getAugur().logMarketCreated(_topic, _description, _extraInfo, this, _newMarket, msg.sender, _minPrice, _maxPrice, IMarket.MarketType.SCALAR);\n        return _newMarket;\n    }\n\n    function createMarketInternal(uint256 _endTime, uint256 _feePerEthInWei, ICash _denominationToken, address _designatedReporterAddress, address _sender, uint256 _numOutcomes, uint256 _numTicks) private onlyInGoodTimes afterInitialized returns (IMarket _newMarket) {\n        MarketFactory _marketFactory = MarketFactory(controller.lookup(\"MarketFactory\"));\n        getReputationToken().trustedUniverseTransfer(_sender, _marketFactory, getOrCacheDesignatedReportNoShowBond());\n        _newMarket = _marketFactory.createMarket.value(msg.value)(controller, this, _endTime, _feePerEthInWei, _denominationToken, _designatedReporterAddress, _sender, _numOutcomes, _numTicks);\n        markets[address(_newMarket)] = true;\n        return _newMarket;\n    }\n\n    function redeemStake(IReportingParticipant[] _reportingParticipants, IFeeWindow[] _feeWindows) public onlyInGoodTimes returns (bool) {\n        for (uint256 i=0; i < _reportingParticipants.length; i++) {\n            _reportingParticipants[i].redeem(msg.sender);\n        }\n\n        for (uint256 k=0; k < _feeWindows.length; k++) {\n            _feeWindows[k].redeem(msg.sender);\n        }\n\n        return true;\n    }\n\n    function buyParticipationTokens(uint256 _attotokens) public onlyInGoodTimes returns (bool) {\n        IFeeWindow _feeWindow = getOrCreateCurrentFeeWindow();\n        _feeWindow.trustedUniverseBuy(msg.sender, _attotokens);\n        return true;\n    }\n}\n",
  "sourcePath": "/Users/jasperdegooijer/Documents/eth-berlin/flux-oracle/libraries/augur/source/contracts/reporting/Universe.sol",
  "compiler": {
    "name": "solc",
    "version": "0.4.24+commit.e67f0147.Emscripten.clang"
  },
  "schemaVersion": "3.0.13",
  "updatedAt": "2019-08-25T01:25:40.825Z",
  "devdoc": {
    "methods": {}
  },
  "userdoc": {
    "methods": {}
  }
}