{
  "contractName": "YesNoMarket",
  "abi": [
    {
      "inputs": [
        {
          "name": "_url",
          "type": "string"
        },
        {
          "name": "_path",
          "type": "string"
        },
        {
          "name": "_marketDescription",
          "type": "string"
        },
        {
          "name": "_marketTopic",
          "type": "bytes32"
        },
        {
          "name": "_endTime",
          "type": "uint256"
        },
        {
          "name": "_universe",
          "type": "address"
        },
        {
          "name": "_cash",
          "type": "address"
        },
        {
          "name": "_augur",
          "type": "address"
        },
        {
          "name": "_completeSets",
          "type": "address"
        },
        {
          "name": "_chainLink",
          "type": "address"
        }
      ],
      "payable": false,
      "stateMutability": "nonpayable",
      "type": "constructor"
    },
    {
      "payable": true,
      "stateMutability": "payable",
      "type": "fallback"
    },
    {
      "constant": false,
      "inputs": [
        {
          "name": "_position",
          "type": "int24"
        }
      ],
      "name": "takePosition",
      "outputs": [],
      "payable": true,
      "stateMutability": "payable",
      "type": "function"
    },
    {
      "constant": false,
      "inputs": [
        {
          "name": "_correctAnswer",
          "type": "bytes32"
        }
      ],
      "name": "dispute",
      "outputs": [],
      "payable": true,
      "stateMutability": "payable",
      "type": "function"
    },
    {
      "constant": true,
      "inputs": [],
      "name": "getOracle",
      "outputs": [
        {
          "name": "",
          "type": "address"
        }
      ],
      "payable": false,
      "stateMutability": "view",
      "type": "function"
    }
  ],
  "bytecode": "0x60806040523480156200001157600080fd5b5060405162002866380380620028668339810180604052620000379190810190620001c6565b85600081905550846001806101000a81548173ffffffffffffffffffffffffffffffffffffffff021916908373ffffffffffffffffffffffffffffffffffffffff1602179055508989828a8a8a8a8a8a8a6200009262000115565b620000a79a9998979695949392919062000370565b604051809103906000f080158015620000c4573d6000803e3d6000fd5b50600260006101000a81548173ffffffffffffffffffffffffffffffffffffffff021916908373ffffffffffffffffffffffffffffffffffffffff160217905550505050505050505050506200054a565b604051611d9f8062000ac783390190565b6000620001348251620004cf565b905092915050565b60006200014a8251620004ef565b905092915050565b600082601f83011215156200016657600080fd5b81516200017d620001778262000463565b62000435565b915080825260208301602083018583830111156200019a57600080fd5b620001a783828462000503565b50505092915050565b6000620001be8251620004f9565b905092915050565b6000806000806000806000806000806101408b8d031215620001e757600080fd5b60008b015167ffffffffffffffff8111156200020257600080fd5b620002108d828e0162000152565b9a505060208b015167ffffffffffffffff8111156200022e57600080fd5b6200023c8d828e0162000152565b99505060408b015167ffffffffffffffff8111156200025a57600080fd5b620002688d828e0162000152565b98505060606200027b8d828e016200013c565b97505060806200028e8d828e01620001b0565b96505060a0620002a18d828e0162000126565b95505060c0620002b48d828e0162000126565b94505060e0620002c78d828e0162000126565b935050610100620002db8d828e0162000126565b925050610120620002ef8d828e0162000126565b9150509295989b9194979a5092959850565b6200030c816200049b565b82525050565b6200031d81620004bb565b82525050565b6000620003308262000490565b8084526200034681602086016020860162000503565b620003518162000539565b602085010191505092915050565b6200036a81620004c5565b82525050565b60006101408201905081810360008301526200038d818d62000323565b90508181036020830152620003a3818c62000323565b9050620003b4604083018b62000301565b8181036060830152620003c8818a62000323565b9050620003d9608083018962000312565b620003e860a08301886200035f565b620003f760c083018762000301565b6200040660e083018662000301565b6200041661010083018562000301565b6200042661012083018462000301565b9b9a5050505050505050505050565b6000604051905081810181811067ffffffffffffffff821117156200045957600080fd5b8060405250919050565b600067ffffffffffffffff8211156200047b57600080fd5b601f19601f8301169050602081019050919050565b600081519050919050565b600073ffffffffffffffffffffffffffffffffffffffff82169050919050565b6000819050919050565b6000819050919050565b600073ffffffffffffffffffffffffffffffffffffffff82169050919050565b6000819050919050565b6000819050919050565b60005b838110156200052357808201518184015260208101905062000506565b8381111562000533576000848401525b50505050565b6000601f19601f8301169050919050565b61056d806200055a6000396000f300608060405260043610610057576000357c0100000000000000000000000000000000000000000000000000000000900463ffffffff1680637309ac9214610059578063833b1fce14610075578063add98c70146100a0575b005b610073600480360361006e9190810190610434565b6100bc565b005b34801561008157600080fd5b5061008a6101a6565b60405161009791906104a4565b60405180910390f35b6100ba60048036036100b5919081019061040b565b6101d0565b005b612710341115156100cc57600080fd5b6101496100e46127103461039d90919063ffffffff16565b600460003373ffffffffffffffffffffffffffffffffffffffff1673ffffffffffffffffffffffffffffffffffffffff16815260200190815260200160002060008460020b60020b8152602001908152602001600020546103b390919063ffffffff16565b600460003373ffffffffffffffffffffffffffffffffffffffff1673ffffffffffffffffffffffffffffffffffffffff16815260200190815260200160002060008360020b60020b81526020019081526020016000208190555050565b6000600260009054906101000a900473ffffffffffffffffffffffffffffffffffffffff16905090565b6000600160009054906101000a900460ff161515156101ee57600080fd5b6001809054906101000a900473ffffffffffffffffffffffffffffffffffffffff1673ffffffffffffffffffffffffffffffffffffffff1663af4cd4576040518163ffffffff167c0100000000000000000000000000000000000000000000000000000000028152600401602060405180830381600087803b15801561027357600080fd5b505af1158015610287573d6000803e3d6000fd5b505050506040513d601f19601f820116820180604052506102ab919081019061045d565b90508034101515156102bc57600080fd5b600260009054906101000a900473ffffffffffffffffffffffffffffffffffffffff1673ffffffffffffffffffffffffffffffffffffffff1663db1ce7a43073ffffffffffffffffffffffffffffffffffffffff163184336040518463ffffffff167c010000000000000000000000000000000000000000000000000000000002815260040161034d9291906104bf565b6000604051808303818588803b15801561036657600080fd5b505af115801561037a573d6000803e3d6000fd5b505050505060018060006101000a81548160ff0219169083151502179055505050565b600081838115156103aa57fe5b04905092915050565b600081830190508281101515156103c657fe5b80905092915050565b60006103db8235610512565b905092915050565b60006103ef823561051c565b905092915050565b60006104038251610529565b905092915050565b60006020828403121561041d57600080fd5b600061042b848285016103cf565b91505092915050565b60006020828403121561044657600080fd5b6000610454848285016103e3565b91505092915050565b60006020828403121561046f57600080fd5b600061047d848285016103f7565b91505092915050565b61048f816104e8565b82525050565b61049e81610508565b82525050565b60006020820190506104b96000830184610486565b92915050565b60006040820190506104d46000830185610495565b6104e16020830184610486565b9392505050565b600073ffffffffffffffffffffffffffffffffffffffff82169050919050565b6000819050919050565b6000819050919050565b60008160020b9050919050565b60008190509190505600a265627a7a72305820e654a3668c508271570bb89093eeafcb23e2544e0e70394352358cc312d42df66c6578706572696d656e74616cf5003760806040523480156200001157600080fd5b5060405162001d9f38038062001d9f833981018060405262000037919081019062000559565b60008042871115156200004957600080fd5b336000806101000a81548173ffffffffffffffffffffffffffffffffffffffff021916908373ffffffffffffffffffffffffffffffffffffffff1602179055508b60019080519060200190620000a1929190620003c8565b508a60029080519060200190620000ba929190620003c8565b5089600360006101000a81548173ffffffffffffffffffffffffffffffffffffffff021916908373ffffffffffffffffffffffffffffffffffffffff1602179055508660068190555088600c90805190602001906200011b929190620003c8565b5087600d816000191690555084600f60006101000a81548173ffffffffffffffffffffffffffffffffffffffff021916908373ffffffffffffffffffffffffffffffffffffffff16021790555085600e60006101000a81548173ffffffffffffffffffffffffffffffffffffffff021916908373ffffffffffffffffffffffffffffffffffffffff16021790555082601060006101000a81548173ffffffffffffffffffffffffffffffffffffffff021916908373ffffffffffffffffffffffffffffffffffffffff1602179055506200020f42600654620003976401000000000262000eaa179091906401000000009004565b915062000235601e83620003b16401000000000262000ec3179091906401000000009004565b905061025881101580156200024d5750620151808111155b1562000260578060078190555062000293565b6102588110156200027a5761025860078190555062000292565b620151808111156200029157620151806007819055505b5b5b600f60009054906101000a900473ffffffffffffffffffffffffffffffffffffffff1673ffffffffffffffffffffffffffffffffffffffff1663095ea7b3857fffffffffffffffffffffffffffffffffffffffffffffffffffffffffffffffff6040518363ffffffff167c01000000000000000000000000000000000000000000000000000000000281526004016200032e929190620006b6565b602060405180830381600087803b1580156200034957600080fd5b505af11580156200035e573d6000803e3d6000fd5b505050506040513d601f19601f820116820180604052506200038491908101906200052d565b50505050505050505050505050620007de565b6000828211151515620003a657fe5b818303905092915050565b60008183811515620003bf57fe5b04905092915050565b828054600181600116156101000203166002900490600052602060002090601f016020900481019282601f106200040b57805160ff19168380011785556200043c565b828001600101855582156200043c579182015b828111156200043b5782518255916020019190600101906200041e565b5b5090506200044b91906200044f565b5090565b6200047491905b808211156200047057600081600090555060010162000456565b5090565b90565b600062000485825162000768565b905092915050565b60006200049b825162000788565b905092915050565b6000620004b1825162000794565b905092915050565b600082601f8301121515620004cd57600080fd5b8151620004e4620004de8262000711565b620006e3565b915080825260208301602083018583830111156200050157600080fd5b6200050e838284620007a8565b50505092915050565b60006200052582516200079e565b905092915050565b6000602082840312156200054057600080fd5b600062000550848285016200048d565b91505092915050565b6000806000806000806000806000806101408b8d0312156200057a57600080fd5b60008b015167ffffffffffffffff8111156200059557600080fd5b620005a38d828e01620004b9565b9a505060208b015167ffffffffffffffff811115620005c157600080fd5b620005cf8d828e01620004b9565b9950506040620005e28d828e0162000477565b98505060608b015167ffffffffffffffff8111156200060057600080fd5b6200060e8d828e01620004b9565b9750506080620006218d828e01620004a3565b96505060a0620006348d828e0162000517565b95505060c0620006478d828e0162000477565b94505060e06200065a8d828e0162000477565b9350506101006200066e8d828e0162000477565b925050610120620006828d828e0162000477565b9150509295989b9194979a5092959850565b6200069f816200073e565b82525050565b620006b0816200075e565b82525050565b6000604082019050620006cd600083018562000694565b620006dc6020830184620006a5565b9392505050565b6000604051905081810181811067ffffffffffffffff821117156200070757600080fd5b8060405250919050565b600067ffffffffffffffff8211156200072957600080fd5b601f19601f8301169050602081019050919050565b600073ffffffffffffffffffffffffffffffffffffffff82169050919050565b6000819050919050565b600073ffffffffffffffffffffffffffffffffffffffff82169050919050565b60008115159050919050565b6000819050919050565b6000819050919050565b60005b83811015620007c8578082015181840152602081019050620007ab565b83811115620007d8576000848401525b50505050565b6115b180620007ee6000396000f3006080604052600436106100a4576000357c0100000000000000000000000000000000000000000000000000000000900463ffffffff16806310aa6e53146100a657806335651a32146100d1578063607e3348146100fc5780636fc659241461011357806385bb7d691461013e5780639c16667c14610169578063b7f3cb2514610194578063daff9ab7146101d1578063db1ce7a4146101fc578063ef9f111914610218575b005b3480156100b257600080fd5b506100bb610243565b6040516100c891906112e1565b60405180910390f35b3480156100dd57600080fd5b506100e6610308565b6040516100f3919061128f565b60405180910390f35b34801561010857600080fd5b506101116103cd565b005b34801561011f57600080fd5b5061012861049a565b60405161013591906113c9565b60405180910390f35b34801561014a57600080fd5b506101536104cd565b60405161016091906112fc565b60405180910390f35b34801561017557600080fd5b5061017e6104d3565b60405161018b91906112fc565b60405180910390f35b3480156101a057600080fd5b506101bb60048036036101b691908101906110b7565b6104dd565b6040516101c891906112fc565b60405180910390f35b3480156101dd57600080fd5b506101e66105bb565b6040516101f391906112fc565b60405180910390f35b6102166004803603610211919081019061107b565b6106c1565b005b34801561022457600080fd5b5061022d610cc8565b60405161023a91906112e1565b60405180910390f35b6000600a60009054906101000a900473ffffffffffffffffffffffffffffffffffffffff1673ffffffffffffffffffffffffffffffffffffffff16634bb278f36040518163ffffffff167c0100000000000000000000000000000000000000000000000000000000028152600401602060405180830381600087803b1580156102cb57600080fd5b505af11580156102df573d6000803e3d6000fd5b505050506040513d601f19601f820116820180604052506103039190810190611029565b905090565b6000600e60009054906101000a900473ffffffffffffffffffffffffffffffffffffffff1673ffffffffffffffffffffffffffffffffffffffff1663b80907f26040518163ffffffff167c0100000000000000000000000000000000000000000000000000000000028152600401602060405180830381600087803b15801561039057600080fd5b505af11580156103a4573d6000803e3d6000fd5b505050506040513d601f19601f820116820180604052506103c8919081019061112f565b905090565b600560029054906101000a900460ff16156104195760408051908101604052806101f461ffff1681526020016101f461ffff16815250600b906002610413929190610f11565b50610498565b600260010260001916600854600019161415610465576040805190810160405280600061ffff1681526020016103e861ffff16815250600b90600261045f929190610f11565b50610497565b60408051908101604052806103e861ffff168152602001600061ffff16815250600b906002610495929190610f11565b505b5b565b600060011515600560009054906101000a900460ff1615151415156104be57600080fd5b60786007546006540101905090565b60085481565b6000600854905090565b6000600360009054906101000a900473ffffffffffffffffffffffffffffffffffffffff1673ffffffffffffffffffffffffffffffffffffffff163373ffffffffffffffffffffffffffffffffffffffff1614151561053b57600080fd5b60045460001916846000191614151561055357600080fd5b7f02275aa3fc19f4434baa202130589d61e0ab9c8811cfc8054925bf33d88ab7c78484604051610584929190611317565b60405180910390a1826008816000191690555081600560026101000a81548160ff0219169083151502179055508290509392505050565b6000600360009054906101000a900473ffffffffffffffffffffffffffffffffffffffff1673ffffffffffffffffffffffffffffffffffffffff1663aba9d1826001600263b7f3cb257c0100000000000000000000000000000000000000000000000000000000026040518463ffffffff167c010000000000000000000000000000000000000000000000000000000002815260040161065d93929190611384565b602060405180830381600087803b15801561067757600080fd5b505af115801561068b573d6000803e3d6000fd5b505050506040513d601f19601f820116820180604052506106af9190810190611052565b60048160001916905550600454905090565b600080600080600e60009054906101000a900473ffffffffffffffffffffffffffffffffffffffff1673ffffffffffffffffffffffffffffffffffffffff1663fd1e5e7a6040518163ffffffff167c0100000000000000000000000000000000000000000000000000000000028152600401602060405180830381600087803b15801561074d57600080fd5b505af1158015610761573d6000803e3d6000fd5b505050506040513d601f19601f820116820180604052506107859190810190611158565b9350600e60009054906101000a900473ffffffffffffffffffffffffffffffffffffffff1673ffffffffffffffffffffffffffffffffffffffff1663b80907f26040518163ffffffff167c0100000000000000000000000000000000000000000000000000000000028152600401602060405180830381600087803b15801561080d57600080fd5b505af1158015610821573d6000803e3d6000fd5b505050506040513d601f19601f82011682018060405250610845919081019061112f565b92508273ffffffffffffffffffffffffffffffffffffffff166323b872dd8630876040518463ffffffff167c01000000000000000000000000000000000000000000000000000000000281526004016108a0939291906112aa565b602060405180830381600087803b1580156108ba57600080fd5b505af11580156108ce573d6000803e3d6000fd5b505050506040513d601f19601f820116820180604052506108f29190810190611029565b50600e60009054906101000a900473ffffffffffffffffffffffffffffffffffffffff1673ffffffffffffffffffffffffffffffffffffffff1663af4cd4576040518163ffffffff167c0100000000000000000000000000000000000000000000000000000000028152600401602060405180830381600087803b15801561097957600080fd5b505af115801561098d573d6000803e3d6000fd5b505050506040513d601f19601f820116820180604052506109b19190810190611158565b91508134101515156109c257600080fd5b600e60009054906101000a900473ffffffffffffffffffffffffffffffffffffffff1673ffffffffffffffffffffffffffffffffffffffff1663cabc6f1483607860075460065401016000600f60009054906101000a900473ffffffffffffffffffffffffffffffffffffffff1630600d54600c6040518863ffffffff167c0100000000000000000000000000000000000000000000000000000000028152600401610a73969594939291906113e4565b6020604051808303818588803b158015610a8c57600080fd5b505af1158015610aa0573d6000803e3d6000fd5b50505050506040513d601f19601f82011682018060405250610ac59190810190611106565b600a60006101000a81548173ffffffffffffffffffffffffffffffffffffffff021916908373ffffffffffffffffffffffffffffffffffffffff16021790555085600981600019169055506001600560006101000a81548160ff021916908315150217905550610b52612710610b448434610eaa90919063ffffffff16565b610ec390919063ffffffff16565b905061271081111515610b6457600080fd5b601060009054906101000a900473ffffffffffffffffffffffffffffffffffffffff1673ffffffffffffffffffffffffffffffffffffffff1663abb60c80610bb761271084610ed990919063ffffffff16565b600a60009054906101000a900473ffffffffffffffffffffffffffffffffffffffff16846040518463ffffffff167c0100000000000000000000000000000000000000000000000000000000028152600401610c1492919061135b565b6020604051808303818588803b158015610c2d57600080fd5b505af1158015610c41573d6000803e3d6000fd5b50505050506040513d601f19601f82011682018060405250610c669190810190611029565b507faebf4bec624072b88d38355921e2fa310b6cad0d1faab9662247833616f31d11600a60009054906101000a900473ffffffffffffffffffffffffffffffffffffffff16604051610cb89190611340565b60405180910390a1505050505050565b6000600754600654014210151515610cdf57600080fd5b600560009054906101000a900460ff161515610d1d576001600560016101000a81548160ff021916908315150217905550610d186103cd565b610ea7565b600a60009054906101000a900473ffffffffffffffffffffffffffffffffffffffff1673ffffffffffffffffffffffffffffffffffffffff16638d4e40836040518163ffffffff167c0100000000000000000000000000000000000000000000000000000000028152600401602060405180830381600087803b158015610da357600080fd5b505af1158015610db7573d6000803e3d6000fd5b505050506040513d601f19601f82011682018060405250610ddb9190810190611029565b151515610de757600080fd5b600a60009054906101000a900473ffffffffffffffffffffffffffffffffffffffff1673ffffffffffffffffffffffffffffffffffffffff16634bb278f36040518163ffffffff167c0100000000000000000000000000000000000000000000000000000000028152600401602060405180830381600087803b158015610e6d57600080fd5b505af1158015610e81573d6000803e3d6000fd5b505050506040513d601f19601f82011682018060405250610ea59190810190611029565b505b90565b6000828211151515610eb857fe5b818303905092915050565b60008183811515610ed057fe5b04905092915050565b600080831415610eec5760009050610f0b565b8183029050818382811515610efd57fe5b04141515610f0757fe5b8090505b92915050565b828054828255906000526020600020908101928215610f53579160200282015b82811115610f52578251829061ffff16905591602001919060010190610f31565b5b509050610f609190610f64565b5090565b610f8691905b80821115610f82576000816000905550600101610f6a565b5090565b90565b6000610f9582356114dd565b905092915050565b6000610fa982356114fd565b905092915050565b6000610fbd82516114fd565b905092915050565b6000610fd18235611509565b905092915050565b6000610fe58251611509565b905092915050565b6000610ff98251611513565b905092915050565b600061100d8251611525565b905092915050565b60006110218251611537565b905092915050565b60006020828403121561103b57600080fd5b600061104984828501610fb1565b91505092915050565b60006020828403121561106457600080fd5b600061107284828501610fd9565b91505092915050565b6000806040838503121561108e57600080fd5b600061109c85828601610fc5565b92505060206110ad85828601610f89565b9150509250929050565b6000806000606084860312156110cc57600080fd5b60006110da86828701610fc5565b93505060206110eb86828701610fc5565b92505060406110fc86828701610f9d565b9150509250925092565b60006020828403121561111857600080fd5b600061112684828501610fed565b91505092915050565b60006020828403121561114157600080fd5b600061114f84828501611001565b91505092915050565b60006020828403121561116a57600080fd5b600061117884828501611015565b91505092915050565b61118a81611471565b82525050565b61119981611491565b82525050565b6111a88161149d565b82525050565b6111b7816114a7565b82525050565b6111c681611541565b82525050565b6111d581611553565b82525050565b6111e481611565565b82525050565b600081546001811660008114611207576001811461122757611268565b607f600283041680865260ff198316602087015260408601935050611268565b6002820480865260208601955061123d8561145f565b60005b8281101561125f57815481890152600182019150602081019050611240565b80880195505050505b505092915050565b6000808252602082019050919050565b611289816114d3565b82525050565b60006020820190506112a46000830184611181565b92915050565b60006060820190506112bf6000830186611181565b6112cc6020830185611181565b6112d96040830184611280565b949350505050565b60006020820190506112f66000830184611190565b92915050565b6000602082019050611311600083018461119f565b92915050565b600060408201905061132c600083018561119f565b611339602083018461119f565b9392505050565b600060208201905061135560008301846111cc565b92915050565b600060408201905061137060008301856111cc565b61137d6020830184611280565b9392505050565b6000606082019050818103600083015261139e81866111ea565b905081810360208301526113b281856111ea565b90506113c160408301846111ae565b949350505050565b60006020820190506113de6000830184611280565b92915050565b600060e0820190506113f96000830189611280565b61140660208301886111db565b61141360408301876111bd565b6114206060830186611181565b61142d608083018561119f565b81810360a083015261143f81846111ea565b905081810360c083015261145281611270565b9050979650505050505050565b60008160005260206000209050919050565b600073ffffffffffffffffffffffffffffffffffffffff82169050919050565b60008115159050919050565b6000819050919050565b60007fffffffff0000000000000000000000000000000000000000000000000000000082169050919050565b6000819050919050565b600073ffffffffffffffffffffffffffffffffffffffff82169050919050565b60008115159050919050565b6000819050919050565b600061151e82611471565b9050919050565b600061153082611471565b9050919050565b6000819050919050565b600061154c82611471565b9050919050565b600061155e82611471565b9050919050565b6000611570826114d3565b90509190505600a265627a7a723058207082e54deede1a0b8cec6446018328949a6a3c8a298f891d6107f483809e2d9e6c6578706572696d656e74616cf50037",
  "source": "pragma solidity >= 0.4.22;\npragma experimental ABIEncoderV2;\n\nimport \"./../libraries/openzeppelin-solidity/SafeMathLib.sol\";\nimport \"./../libraries/augur/source/contracts/reporting/Universe.sol\";\nimport \"./MarketOracle.sol\";\n\ncontract YesNoMarket {\n\tusing SafeMathLib for uint256;\n\tuint256 endTime;\n\tbool disputed;\n\tUniverse universe;\n\tMarketOracle oracle;\n\tuint256[] payoutNumerators;\n\tuint256 constant NUM_TICKS = 10000;\n\tmapping (address => mapping(int24 => uint256)) balances;\n\n\tconstructor(\n\t\tstring _url, \n\t\tstring _path,\n\t\tstring _marketDescription,\n\t\tbytes32 _marketTopic,\n\t\tuint256 _endTime,\n\t\taddress _universe,\n\t\taddress _cash,\n\t\taddress _augur,\n\t\taddress _completeSets,\n\t\taddress _chainLink\n\t) public {\n\t\tendTime = _endTime;\n\t\tuniverse = Universe(_universe);\n\t\toracle = new MarketOracle(\n\t\t\t_url, \n\t\t\t_path, \n\t\t\t_chainLink,\n\t\t\t_marketDescription, \n\t\t\t_marketTopic, \n\t\t\t_endTime, \n\t\t\t_universe, \n\t\t\t_cash, \n\t\t\t_augur,\n\t\t\t_completeSets\n\t\t);\n\t}\n\n\tfunction () public payable {}\n\n\tfunction takePosition(int24 _position) \n\tpublic\n\tpayable {\n\t\trequire (msg.value > NUM_TICKS);\n\t\t// require (now < endTime);\n\t\tbalances[msg.sender][_position] = balances[msg.sender][_position].add(msg.value.div(NUM_TICKS));\n\t}\n\n\tfunction dispute(bytes32 _correctAnswer)\n\tpublic\n\tpayable {\n\t\trequire(!disputed);\n\t\tuint256 marketCreationFee = universe.getOrCacheValidityBond();\n\t\trequire(msg.value >= marketCreationFee);\n\t\toracle.startDispute.value(address(this).balance)(_correctAnswer, msg.sender);\n\t\tdisputed = true;\n\t}\n\n\t// function finalizeDispute()\n\t// public\n\t// view {\n\t// \trequire(disputed);\n\t// \toracle.finalizeDispute();\n\t// }\n\n\tfunction getOracle()\n\tpublic \n\tview \n\treturns (address) {\n\t\treturn oracle;\n\t}\n}",
  "sourcePath": "/Users/jasperdegooijer/Documents/eth-berlin/flux-oracle/contracts/YesNoMarket.sol",
  "compiler": {
    "name": "solc",
    "version": "0.4.22+commit.4cb486ee.Emscripten.clang"
  },
  "schemaVersion": "3.0.13",
  "updatedAt": "2019-08-24T13:31:05.107Z",
  "devdoc": {
    "methods": {}
  },
  "userdoc": {
    "methods": {}
  }
}